{
  "_format": "hh-sol-artifact-1",
  "contractName": "TradescrowWrite",
  "sourceName": "contracts/TradescrowWrite.sol",
  "abi": [
    {
      "inputs": [],
      "stateMutability": "nonpayable",
      "type": "constructor"
    },
    {
      "inputs": [
        {
          "internalType": "uint256",
          "name": "key",
          "type": "uint256"
        }
      ],
      "name": "EnumerableTradeMap__NonExistentKey",
      "type": "error"
    },
    {
      "inputs": [],
      "name": "Tradescrow__EmptyAssets",
      "type": "error"
    },
    {
      "inputs": [],
      "name": "Tradescrow__NotApproved",
      "type": "error"
    },
    {
      "inputs": [],
      "name": "Tradescrow__NotParticipant",
      "type": "error"
    },
    {
      "anonymous": false,
      "inputs": [
        {
          "indexed": true,
          "internalType": "address",
          "name": "from",
          "type": "address"
        },
        {
          "indexed": true,
          "internalType": "uint256",
          "name": "fee",
          "type": "uint256"
        }
      ],
      "name": "FeeChanged",
      "type": "event"
    },
    {
      "anonymous": false,
      "inputs": [
        {
          "indexed": true,
          "internalType": "address",
          "name": "from",
          "type": "address"
        },
        {
          "indexed": true,
          "internalType": "uint256",
          "name": "tradeId",
          "type": "uint256"
        }
      ],
      "name": "TradeAccepted",
      "type": "event"
    },
    {
      "anonymous": false,
      "inputs": [
        {
          "indexed": true,
          "internalType": "address",
          "name": "from",
          "type": "address"
        },
        {
          "indexed": true,
          "internalType": "uint256",
          "name": "tradeId",
          "type": "uint256"
        }
      ],
      "name": "TradeCancelled",
      "type": "event"
    },
    {
      "anonymous": false,
      "inputs": [
        {
          "indexed": true,
          "internalType": "address",
          "name": "from",
          "type": "address"
        },
        {
          "indexed": true,
          "internalType": "uint256",
          "name": "tradeId",
          "type": "uint256"
        },
        {
          "components": [
            {
              "components": [
                {
                  "internalType": "address",
                  "name": "user",
                  "type": "address"
                },
                {
                  "internalType": "uint256",
                  "name": "eth",
                  "type": "uint256"
                },
                {
                  "components": [
                    {
                      "internalType": "address",
                      "name": "_address",
                      "type": "address"
                    },
                    {
                      "internalType": "uint256",
                      "name": "amount",
                      "type": "uint256"
                    }
                  ],
                  "internalType": "struct TradeAssets.ERC20Asset[]",
                  "name": "erc20Assets",
                  "type": "tuple[]"
                },
                {
                  "components": [
                    {
                      "internalType": "address",
                      "name": "_address",
                      "type": "address"
                    },
                    {
                      "components": [
                        {
                          "internalType": "uint256",
                          "name": "id",
                          "type": "uint256"
                        },
                        {
                          "internalType": "uint256",
                          "name": "amount",
                          "type": "uint256"
                        }
                      ],
                      "internalType": "struct TradeAssets.ERC1155SingleAsset[]",
                      "name": "assets",
                      "type": "tuple[]"
                    }
                  ],
                  "internalType": "struct TradeAssets.ERC1155Asset[]",
                  "name": "erc1155Assets",
                  "type": "tuple[]"
                },
                {
                  "components": [
                    {
                      "internalType": "address",
                      "name": "_address",
                      "type": "address"
                    },
                    {
                      "internalType": "uint256[]",
                      "name": "tokenIds",
                      "type": "uint256[]"
                    }
                  ],
                  "internalType": "struct TradeAssets.ERC721Asset[]",
                  "name": "erc721Assets",
                  "type": "tuple[]"
                }
              ],
              "internalType": "struct TradeAssets.Assets",
              "name": "offer",
              "type": "tuple"
            },
            {
              "components": [
                {
                  "internalType": "address",
                  "name": "user",
                  "type": "address"
                },
                {
                  "internalType": "uint256",
                  "name": "eth",
                  "type": "uint256"
                },
                {
                  "components": [
                    {
                      "internalType": "address",
                      "name": "_address",
                      "type": "address"
                    },
                    {
                      "internalType": "uint256",
                      "name": "amount",
                      "type": "uint256"
                    }
                  ],
                  "internalType": "struct TradeAssets.ERC20Asset[]",
                  "name": "erc20Assets",
                  "type": "tuple[]"
                },
                {
                  "components": [
                    {
                      "internalType": "address",
                      "name": "_address",
                      "type": "address"
                    },
                    {
                      "components": [
                        {
                          "internalType": "uint256",
                          "name": "id",
                          "type": "uint256"
                        },
                        {
                          "internalType": "uint256",
                          "name": "amount",
                          "type": "uint256"
                        }
                      ],
                      "internalType": "struct TradeAssets.ERC1155SingleAsset[]",
                      "name": "assets",
                      "type": "tuple[]"
                    }
                  ],
                  "internalType": "struct TradeAssets.ERC1155Asset[]",
                  "name": "erc1155Assets",
                  "type": "tuple[]"
                },
                {
                  "components": [
                    {
                      "internalType": "address",
                      "name": "_address",
                      "type": "address"
                    },
                    {
                      "internalType": "uint256[]",
                      "name": "tokenIds",
                      "type": "uint256[]"
                    }
                  ],
                  "internalType": "struct TradeAssets.ERC721Asset[]",
                  "name": "erc721Assets",
                  "type": "tuple[]"
                }
              ],
              "internalType": "struct TradeAssets.Assets",
              "name": "desired",
              "type": "tuple"
            }
          ],
          "indexed": false,
          "internalType": "struct TradeAssets.Trade",
          "name": "trade",
          "type": "tuple"
        }
      ],
      "name": "TradeCreated",
      "type": "event"
    },
    {
      "anonymous": false,
      "inputs": [
        {
          "indexed": true,
          "internalType": "address",
          "name": "from",
          "type": "address"
        },
        {
          "indexed": true,
          "internalType": "uint256",
          "name": "tradeId",
          "type": "uint256"
        }
      ],
      "name": "TradeRejected",
      "type": "event"
    },
    {
      "inputs": [
        {
          "internalType": "uint256",
          "name": "tradeId",
          "type": "uint256"
        }
      ],
      "name": "acceptTrade",
      "outputs": [],
      "stateMutability": "nonpayable",
      "type": "function"
    },
    {
      "inputs": [
        {
          "internalType": "uint256",
          "name": "tradeId",
          "type": "uint256"
        }
      ],
      "name": "cancelTrade",
      "outputs": [],
      "stateMutability": "nonpayable",
      "type": "function"
    },
    {
      "inputs": [
        {
          "components": [
            {
              "components": [
                {
                  "internalType": "address",
                  "name": "user",
                  "type": "address"
                },
                {
                  "internalType": "uint256",
                  "name": "eth",
                  "type": "uint256"
                },
                {
                  "components": [
                    {
                      "internalType": "address",
                      "name": "_address",
                      "type": "address"
                    },
                    {
                      "internalType": "uint256",
                      "name": "amount",
                      "type": "uint256"
                    }
                  ],
                  "internalType": "struct TradeAssets.ERC20Asset[]",
                  "name": "erc20Assets",
                  "type": "tuple[]"
                },
                {
                  "components": [
                    {
                      "internalType": "address",
                      "name": "_address",
                      "type": "address"
                    },
                    {
                      "components": [
                        {
                          "internalType": "uint256",
                          "name": "id",
                          "type": "uint256"
                        },
                        {
                          "internalType": "uint256",
                          "name": "amount",
                          "type": "uint256"
                        }
                      ],
                      "internalType": "struct TradeAssets.ERC1155SingleAsset[]",
                      "name": "assets",
                      "type": "tuple[]"
                    }
                  ],
                  "internalType": "struct TradeAssets.ERC1155Asset[]",
                  "name": "erc1155Assets",
                  "type": "tuple[]"
                },
                {
                  "components": [
                    {
                      "internalType": "address",
                      "name": "_address",
                      "type": "address"
                    },
                    {
                      "internalType": "uint256[]",
                      "name": "tokenIds",
                      "type": "uint256[]"
                    }
                  ],
                  "internalType": "struct TradeAssets.ERC721Asset[]",
                  "name": "erc721Assets",
                  "type": "tuple[]"
                }
              ],
              "internalType": "struct TradeAssets.Assets",
              "name": "offer",
              "type": "tuple"
            },
            {
              "components": [
                {
                  "internalType": "address",
                  "name": "user",
                  "type": "address"
                },
                {
                  "internalType": "uint256",
                  "name": "eth",
                  "type": "uint256"
                },
                {
                  "components": [
                    {
                      "internalType": "address",
                      "name": "_address",
                      "type": "address"
                    },
                    {
                      "internalType": "uint256",
                      "name": "amount",
                      "type": "uint256"
                    }
                  ],
                  "internalType": "struct TradeAssets.ERC20Asset[]",
                  "name": "erc20Assets",
                  "type": "tuple[]"
                },
                {
                  "components": [
                    {
                      "internalType": "address",
                      "name": "_address",
                      "type": "address"
                    },
                    {
                      "components": [
                        {
                          "internalType": "uint256",
                          "name": "id",
                          "type": "uint256"
                        },
                        {
                          "internalType": "uint256",
                          "name": "amount",
                          "type": "uint256"
                        }
                      ],
                      "internalType": "struct TradeAssets.ERC1155SingleAsset[]",
                      "name": "assets",
                      "type": "tuple[]"
                    }
                  ],
                  "internalType": "struct TradeAssets.ERC1155Asset[]",
                  "name": "erc1155Assets",
                  "type": "tuple[]"
                },
                {
                  "components": [
                    {
                      "internalType": "address",
                      "name": "_address",
                      "type": "address"
                    },
                    {
                      "internalType": "uint256[]",
                      "name": "tokenIds",
                      "type": "uint256[]"
                    }
                  ],
                  "internalType": "struct TradeAssets.ERC721Asset[]",
                  "name": "erc721Assets",
                  "type": "tuple[]"
                }
              ],
              "internalType": "struct TradeAssets.Assets",
              "name": "desired",
              "type": "tuple"
            }
          ],
          "internalType": "struct TradeAssets.Trade",
          "name": "trade",
          "type": "tuple"
        }
      ],
      "name": "createTrade",
      "outputs": [],
      "stateMutability": "nonpayable",
      "type": "function"
    },
    {
      "inputs": [
        {
          "internalType": "uint256",
          "name": "tradeId",
          "type": "uint256"
        }
      ],
      "name": "rejectTrade",
      "outputs": [],
      "stateMutability": "nonpayable",
      "type": "function"
    }
  ],
  "bytecode": "0x608060405234801561001057600080fd5b50624c4b4061002761003060201b6100ca1760201c565b60020155610054565b7ffd34bcbcc45e7dd85d4a7d0f5522b085e59752f093fefac3bae749d19a5457a490565b61223b806100636000396000f3fe608060405234801561001057600080fd5b506004361061004c5760003560e01c806309ec6cc71461005157806314b1d1d414610066578063e0cd82cd14610079578063ecb9fec31461008c575b600080fd5b61006461005f366004611993565b61009f565b005b610064610074366004611993565b6100ab565b610064610087366004611e36565b6100b4565b61006461009a366004611993565b6100c1565b6100a8816100ee565b50565b6100a881610173565b6100bd816101ef565b5050565b6100a8816102ad565b7ffd34bcbcc45e7dd85d4a7d0f5522b085e59752f093fefac3bae749d19a5457a490565b6000610102826100fc6100ca565b90610332565b8051519091506001600160a01b03163314610130576040516379282d3160e11b815260040160405180910390fd5b6101428261013c6100ca565b90610350565b604051829033907fa6ba7162e79f4c0a95cee2b569eb7ff79cd0ef74e3996013eeb3e21b361e8d6290600090a35050565b6000610181826100fc6100ca565b6020810151519091506001600160a01b031633146101b2576040516379282d3160e11b815260040160405180910390fd5b6101be8261013c6100ca565b604051829033907f5dc62d06bbf63678169b74e8d18b97da8e3b71fad35dbd7da92eb04075c3846a90600090a35050565b60006102016101fc6100ca565b610362565b905061020c82610372565b1561022a57604051631b36a19f60e11b815260040160405180910390fd5b815161023590610392565b61025257604051632a0d806f60e21b815260040160405180910390fd5b610266818361025f6100ca565b91906104bb565b80336001600160a01b03167fd00a407922cef4ffa5126ff3c3045455cbc126085a3510bb1fe648d4f2ec4037846040516102a091906120c8565b60405180910390a3919050565b60006102bb826100fc6100ca565b6020810151519091506001600160a01b031633146102ec576040516379282d3160e11b815260040160405180910390fd5b6102f5816104cf565b6103018261013c6100ca565b604051829033907f5f6b7be9b0a870b23b27477836abafd0650ac576e5d6e6976232d803c3b1005f90600090a35050565b61033a6115b8565b61034760038401836104f1565b90505b92915050565b61035d60038301826109e8565b505050565b805460010181556000815461034a565b60006103818260200151610c4d565b8061034a5750815161034a90610c4d565b604081015151600090815b818110156103f9576103d98460000151856040015183815181106103c3576103c3612101565b6020026020010151610c7c90919063ffffffff16565b6103e7575060009392505050565b806103f18161212d565b91505061039d565b505060608201515160005b818110156104605761044084600001518560600151838151811061042a5761042a612101565b6020026020010151610d0690919063ffffffff16565b61044e575060009392505050565b806104588161212d565b915050610404565b505060808201515160005b818110156104b15761049184600001518560800151838151811061042a5761042a612101565b61049f575060009392505050565b806104a98161212d565b91505061046b565b5060019392505050565b6104c9600384018383610d82565b50505050565b80515160208201516104e0916111c3565b60208101515181516100a8916111c3565b6104f96115b8565b60008281526001840160205260408120549081900361053257604051630464bcf160e31b81526004810184905260240160405180910390fd5b83600001600182038154811061054a5761054a612101565b600091825260208083206040805160e0810182526001600b90950290920193840180546001600160a01b0316838301908152600286015460608501526003909501805483518187028101870190945280845293969195879590948794608088019490939284015b828210156105f9576000848152602090819020604080518082019091526002850290910180546001600160a01b031682526001908101548284015290835290920191016105b1565b50505050815260200160038201805480602002602001604051908101604052809291908181526020016000905b828210156106d557600084815260208082206040805180820182526002870290920180546001600160a01b03168352600181018054835181870281018701909452808452939591948681019491929084015b828210156106be57838290600052602060002090600202016040518060400160405290816000820154815260200160018201548152505081526020019060010190610678565b505050508152505081526020019060010190610626565b50505050815260200160048201805480602002602001604051908101604052809291908181526020016000905b828210156107975760008481526020908190206040805180820182526002860290920180546001600160a01b0316835260018101805483518187028101870190945280845293949193858301939283018282801561077f57602002820191906000526020600020905b81548152602001906001019080831161076b575b50505050508152505081526020019060010190610702565b5050509152505081526040805160a0810182526005840180546001600160a01b03168252600685015460208381019190915260078601805485518184028101840187528181529683019694959394938601939260009084015b82821015610838576000848152602090819020604080518082019091526002850290910180546001600160a01b031682526001908101548284015290835290920191016107f0565b50505050815260200160038201805480602002602001604051908101604052809291908181526020016000905b8282101561091457600084815260208082206040805180820182526002870290920180546001600160a01b03168352600181018054835181870281018701909452808452939591948681019491929084015b828210156108fd578382906000526020600020906002020160405180604001604052908160008201548152602001600182015481525050815260200190600101906108b7565b505050508152505081526020019060010190610865565b50505050815260200160048201805480602002602001604051908101604052809291908181526020016000905b828210156109d65760008481526020908190206040805180820182526002860290920180546001600160a01b031683526001810180548351818702810187019094528084529394919385830193928301828280156109be57602002820191906000526020600020905b8154815260200190600101908083116109aa575b50505050508152505081526020019060010190610941565b50505091525050905250949350505050565b60008181526001830160205260408120548015610c4357835460009085906000198101908110610a1a57610a1a612101565b90600052602060002090600b0201905080856000016001840381548110610a4357610a43612101565b600091825260209091208254600b909202019081556001808301805491830180546001600160a01b0319166001600160a01b03909316929092178255600280850154908401556003808501805492939284928492610aa492918801916115dd565b5060038281018054610ab99284019190611655565b5060048281018054610ace92840191906116da565b5050506005828101805491830180546001600160a01b0319166001600160a01b039093169290921782556006808501549084015560078085018054929392610b1992860191906115dd565b5060038281018054610b2e9284019190611655565b5060048281018054610b4392840191906116da565b50509454600090815260018a0160205260409020869055505086548793509150819050610b7257610b72612146565b600082815260208120600b600019909301928302018181556001810180546001600160a01b031916815560028201839055909190818181610bb6600387018261175f565b610bc4600383016000611780565b610bd26004830160006117a1565b50506005820180546001600160a01b0319168155600060068401819055610bfc600785018261175f565b610c0a600383016000611780565b610c186004830160006117a1565b505050505050905583600101600084815260200190815260200160002060009055600191505061034a565b600091505061034a565b6000816080015151826060015151836040015151610c6b919061215c565b610c75919061215c565b1592915050565b60008260200151610c8b845190565b604051636eb1769f60e11b81526001600160a01b038581166004830152306024830152919091169063dd62ed3e90604401602060405180830381865afa158015610cd9573d6000803e3d6000fd5b505050506040513d601f19601f82011682018060405250810190610cfd919061216f565b10159392505050565b6000610d10835190565b60405163e985e9c560e01b81526001600160a01b038481166004830152306024830152919091169063e985e9c590604401602060405180830381865afa158015610d5e573d6000803e3d6000fd5b505050506040513d601f19601f820116820180604052508101906103479190612188565b60008281526001840160205260408120548082036111b65784546000908690610da9612101565b60009182526020808320600b92909202909101878155865180516001830180546001600160a01b0319166001600160a01b03909216919091178155928101516002830155604001515190935090918291905b81811015610ec1578260020160405180604001604052808a60000151604001518481518110610e2c57610e2c612101565b6020026020010151600001516001600160a01b031681526020018a60000151604001518481518110610e6057610e60612101565b602090810291909101810151810151909152825460018082018555600094855293829020835160029092020180546001600160a01b0319166001600160a01b0390921691909117815591015191015580610eb98161212d565b915050610dfb565b50508551606001515160005b8181101561105d576000836003018281548110610eec57610eec612101565b906000526020600020906002020190508860000151606001518281518110610f1657610f16612101565b60209081029190910101515181546001600160a01b0319166001600160a01b0390911617815588516060015180516000919084908110610f5857610f58612101565b60200260200101516020015151905060005b81811015611047578260010160405180604001604052808d60000151606001518781518110610f9b57610f9b612101565b6020026020010151602001518481518110610fb857610fb8612101565b60200260200101516000015181526020018d60000151606001518781518110610fe357610fe3612101565b602002602001015160200151848151811061100057611000612101565b60209081029190910181015181015190915282546001818101855560009485529382902083516002909202019081559101519101558061103f8161212d565b915050610f6a565b50505080806110559061212d565b915050610ecd565b50508551608001515160005b8181101561119057600083600401828154811061108857611088612101565b9060005260206000209060020201905088600001516080015182815181106110b2576110b2612101565b60209081029190910101515181546001600160a01b0319166001600160a01b03909116178155885160800151805160009190849081106110f4576110f4612101565b60200260200101516020015151905060005b8181101561117a57826001018b6000015160800151858151811061112c5761112c612101565b602002602001015160200151828151811061114957611149612101565b60209081029190910181015182546001810184556000938452919092200155806111728161212d565b915050611106565b50505080806111889061212d565b915050611069565b5050875460008881526001808b0160205260409091209190915594506111bc9350505050565b60009150505b9392505050565b60408201515160005b8181101561121c5761120a846000015184866040015184815181106111f3576111f3612101565b60200260200101516112d29092919063ffffffff16565b806112148161212d565b9150506111cc565b505060608201515160005b81811015611277576112658460000151848660600151848151811061124e5761124e612101565b60200260200101516113559092919063ffffffff16565b8061126f8161212d565b915050611227565b505060808201515160005b818110156104c9576112c0846000015184866080015184815181106112a9576112a9612101565b60200260200101516114f39092919063ffffffff16565b806112ca8161212d565b915050611282565b825160208401516040516323b872dd60e01b81526001600160a01b038581166004830152848116602483015260448201929092529116906323b872dd906064016020604051808303816000875af1158015611331573d6000803e3d6000fd5b505050506040513d601f19601f820116820180604052508101906104c99190612188565b60208301515160008167ffffffffffffffff811115611376576113766119ac565b60405190808252806020026020018201604052801561139f578160200160208202803683370190505b50905060008267ffffffffffffffff8111156113bd576113bd6119ac565b6040519080825280602002602001820160405280156113e6578160200160208202803683370190505b50905060005b83811015611485578660200151818151811061140a5761140a612101565b60200260200101516000015183828151811061142857611428612101565b6020026020010181815250508660200151818151811061144a5761144a612101565b60200260200101516020015182828151811061146857611468612101565b60209081029190910101528061147d8161212d565b9150506113ec565b5085516001600160a01b0316632eb2c2d6868685856040518563ffffffff1660e01b81526004016114b994939291906121aa565b600060405180830381600087803b1580156114d357600080fd5b505af11580156114e7573d6000803e3d6000fd5b50505050505050505050565b60208301515160005b818110156115b15784516001600160a01b03166342842e0e85858860200151858151811061152c5761152c612101565b60209081029190910101516040516001600160e01b031960e086901b1681526001600160a01b0393841660048201529290911660248301526044820152606401600060405180830381600087803b15801561158657600080fd5b505af115801561159a573d6000803e3d6000fd5b5050505080806115a99061212d565b9150506114fc565b5050505050565b60405180604001604052806115cb6117c2565b81526020016115d86117c2565b905290565b8280548282559060005260206000209060020281019282156116455760005260206000209160020282015b8281111561164557825482546001600160a01b0319166001600160a01b039091161782556001808401549083015560029283019290910190611608565b506116519291506117fa565b5090565b8280548282559060005260206000209060020281019282156116ce5760005260206000209160020282015b828111156116ce57825482546001600160a01b0319166001600160a01b0390911617825560018084018054859285926116bc9291840191611820565b50505091600201919060020190611680565b5061165192915061187c565b8280548282559060005260206000209060020281019282156117535760005260206000209160020282015b8281111561175357825482546001600160a01b0319166001600160a01b03909116178255600180840180548592859261174192918401916118aa565b50505091600201919060020190611705565b506116519291506118f6565b50805460008255600202906000526020600020908101906100a891906117fa565b50805460008255600202906000526020600020908101906100a8919061187c565b50805460008255600202906000526020600020908101906100a891906118f6565b6040518060a0016040528060006001600160a01b03168152602001600081526020016060815260200160608152602001606081525090565b5b808211156116515780546001600160a01b0319168155600060018201556002016117fb565b8280548282559060005260206000209060020281019282156118705760005260206000209160020282015b828111156118705782548255600180840154908301556002928301929091019061184b565b50611651929150611924565b808211156116515780546001600160a01b031916815560006118a1600183018261193f565b5060020161187c565b8280548282559060005260206000209081019282156118ea5760005260206000209182015b828111156118ea5782548255916001019190600101906118cf565b50611651929150611960565b808211156116515780546001600160a01b0319168155600061191b6001830182611975565b506002016118f6565b5b808211156116515760008082556001820155600201611925565b50805460008255600202906000526020600020908101906100a89190611924565b5b808211156116515760008155600101611961565b50805460008255906000526020600020908101906100a89190611960565b6000602082840312156119a557600080fd5b5035919050565b634e487b7160e01b600052604160045260246000fd5b6040805190810167ffffffffffffffff811182821017156119e5576119e56119ac565b60405290565b60405160a0810167ffffffffffffffff811182821017156119e5576119e56119ac565b604051601f8201601f1916810167ffffffffffffffff81118282101715611a3757611a376119ac565b604052919050565b80356001600160a01b0381168114611a5657600080fd5b919050565b600067ffffffffffffffff821115611a7557611a756119ac565b5060051b60200190565b600082601f830112611a9057600080fd5b81356020611aa5611aa083611a5b565b611a0e565b82815260069290921b84018101918181019086841115611ac457600080fd5b8286015b84811015611b0a5760408189031215611ae15760008081fd5b611ae96119c2565b611af282611a3f565b81528185013585820152835291830191604001611ac8565b509695505050505050565b600082601f830112611b2657600080fd5b81356020611b36611aa083611a5b565b82815260059290921b84018101918181019086841115611b5557600080fd5b8286015b84811015611b0a57803567ffffffffffffffff80821115611b7a5760008081fd5b908801906040828b03601f1901811315611b945760008081fd5b611b9c6119c2565b611ba7888501611a3f565b81528184013583811115611bbb5760008081fd5b8085019450508b603f850112611bd357600092508283fd5b878401359250611be5611aa084611a5b565b83815260069390931b8401820192888101908d851115611c055760008081fd5b948301945b84861015611c455783868f031215611c225760008081fd5b611c2a6119c2565b863581528a8701358b82015282529483019490890190611c0a565b828a0152508652505050918301918301611b59565b600082601f830112611c6b57600080fd5b81356020611c7b611aa083611a5b565b828152600592831b8501820192828201919087851115611c9a57600080fd5b8387015b85811015611d7a57803567ffffffffffffffff80821115611cbf5760008081fd5b908901906040828c03601f1901811315611cd95760008081fd5b611ce16119c2565b611cec898501611a3f565b81528184013583811115611d005760008081fd5b8085019450508c603f850112611d1857600092508283fd5b888401359250611d2a611aa084611a5b565b83815292861b8401820192898101908e851115611d475760008081fd5b948301945b84861015611d655785358252948a0194908a0190611d4c565b828b0152508752505050928401928401611c9e565b5090979650505050505050565b600060a08284031215611d9957600080fd5b611da16119eb565b9050611dac82611a3f565b815260208201356020820152604082013567ffffffffffffffff80821115611dd357600080fd5b611ddf85838601611a7f565b60408401526060840135915080821115611df857600080fd5b611e0485838601611b15565b60608401526080840135915080821115611e1d57600080fd5b50611e2a84828501611c5a565b60808301525092915050565b600060208284031215611e4857600080fd5b813567ffffffffffffffff80821115611e6057600080fd5b9083019060408286031215611e7457600080fd5b611e7c6119c2565b823582811115611e8b57600080fd5b611e9787828601611d87565b825250602083013582811115611eac57600080fd5b611eb887828601611d87565b60208301525095945050505050565b600081518084526020808501808196508360051b810191508286016000805b86811015611f60578385038a52825180516001600160a01b031686528601516040878701819052815181880181905291880191849060608901905b80831015611f4a578451805183528b01518b830152938a01936001929092019190830190611f21565b509c89019c975050509286019250600101611ee6565b509298975050505050505050565b600081518084526020808501945080840160005b83811015611f9e57815187529582019590820190600101611f82565b509495945050505050565b600081518084526020808501808196508360051b8101915082860160005b8581101561200e578284038952815180516001600160a01b031685528501516040868601819052611ffa81870183611f6e565b9a87019a9550505090840190600101611fc7565b5091979650505050505050565b80516001600160a01b0390811683526020808301518185015260408084015160a0828701819052815190870181905260009491840193919290859060c08901905b808310156120875786518051871683528501518583015295840195600192909201919083019061205c565b506060880151955088810360608a01526120a18187611ec7565b95505050505050608083015184820360808601526120bf8282611fa9565b95945050505050565b6020815260008251604060208401526120e4606084018261201b565b90506020840151601f198483030160408501526120bf828261201b565b634e487b7160e01b600052603260045260246000fd5b634e487b7160e01b600052601160045260246000fd5b60006001820161213f5761213f612117565b5060010190565b634e487b7160e01b600052603160045260246000fd5b8082018082111561034a5761034a612117565b60006020828403121561218157600080fd5b5051919050565b60006020828403121561219a57600080fd5b815180151581146111bc57600080fd5b6001600160a01b0385811682528416602082015260a0604082018190526000906121d690830185611f6e565b82810360608401526121e88185611f6e565b83810360809094019390935250506000815260200194935050505056fea2646970667358221220e7397f1ce4d12e7cc62b3133cbaffb69e2cdd25e8d819369f473d902cb48cea964736f6c63430008110033",
  "linkReferences": {},
  "deployedLinkReferences": {}
}