{
  "_format": "hh-sol-artifact-1",
  "contractName": "Tradescrow",
  "sourceName": "contracts/Tradescrow/Tradescrow.sol",
  "abi": [
    {
      "inputs": [],
      "stateMutability": "nonpayable",
      "type": "constructor"
    },
    {
      "inputs": [],
      "name": "InvalidCounterparty",
      "type": "error"
    },
    {
      "inputs": [],
      "name": "InvalidTradeId",
      "type": "error"
    },
    {
      "inputs": [],
      "name": "NotTradeParticipant",
      "type": "error"
    },
    {
      "inputs": [],
      "name": "TaxedAssetUnsupported",
      "type": "error"
    },
    {
      "inputs": [],
      "name": "TradeClosed",
      "type": "error"
    },
    {
      "inputs": [],
      "name": "UnknownAssetType",
      "type": "error"
    },
    {
      "anonymous": false,
      "inputs": [
        {
          "indexed": false,
          "internalType": "address",
          "name": "previousAdmin",
          "type": "address"
        },
        {
          "indexed": false,
          "internalType": "address",
          "name": "newAdmin",
          "type": "address"
        }
      ],
      "name": "AdminChanged",
      "type": "event"
    },
    {
      "anonymous": false,
      "inputs": [
        {
          "indexed": true,
          "internalType": "address",
          "name": "beacon",
          "type": "address"
        }
      ],
      "name": "BeaconUpgraded",
      "type": "event"
    },
    {
      "anonymous": false,
      "inputs": [
        {
          "indexed": true,
          "internalType": "address",
          "name": "from",
          "type": "address"
        },
        {
          "indexed": false,
          "internalType": "uint256",
          "name": "amount",
          "type": "uint256"
        }
      ],
      "name": "FeePaid",
      "type": "event"
    },
    {
      "anonymous": false,
      "inputs": [
        {
          "indexed": true,
          "internalType": "address",
          "name": "from",
          "type": "address"
        },
        {
          "indexed": false,
          "internalType": "uint256",
          "name": "amount",
          "type": "uint256"
        }
      ],
      "name": "FeeRefunded",
      "type": "event"
    },
    {
      "anonymous": false,
      "inputs": [
        {
          "indexed": false,
          "internalType": "uint256",
          "name": "amount",
          "type": "uint256"
        }
      ],
      "name": "FeeReleased",
      "type": "event"
    },
    {
      "anonymous": false,
      "inputs": [
        {
          "indexed": true,
          "internalType": "address",
          "name": "from",
          "type": "address"
        },
        {
          "indexed": false,
          "internalType": "address",
          "name": "token",
          "type": "address"
        },
        {
          "indexed": false,
          "internalType": "uint256",
          "name": "fee",
          "type": "uint256"
        }
      ],
      "name": "FeeUpdated",
      "type": "event"
    },
    {
      "anonymous": false,
      "inputs": [
        {
          "indexed": false,
          "internalType": "uint8",
          "name": "version",
          "type": "uint8"
        }
      ],
      "name": "Initialized",
      "type": "event"
    },
    {
      "anonymous": false,
      "inputs": [
        {
          "indexed": false,
          "internalType": "address",
          "name": "account",
          "type": "address"
        }
      ],
      "name": "Paused",
      "type": "event"
    },
    {
      "anonymous": false,
      "inputs": [
        {
          "indexed": true,
          "internalType": "bytes32",
          "name": "role",
          "type": "bytes32"
        },
        {
          "indexed": true,
          "internalType": "bytes32",
          "name": "previousAdminRole",
          "type": "bytes32"
        },
        {
          "indexed": true,
          "internalType": "bytes32",
          "name": "newAdminRole",
          "type": "bytes32"
        }
      ],
      "name": "RoleAdminChanged",
      "type": "event"
    },
    {
      "anonymous": false,
      "inputs": [
        {
          "indexed": true,
          "internalType": "bytes32",
          "name": "role",
          "type": "bytes32"
        },
        {
          "indexed": true,
          "internalType": "address",
          "name": "account",
          "type": "address"
        },
        {
          "indexed": true,
          "internalType": "address",
          "name": "sender",
          "type": "address"
        }
      ],
      "name": "RoleGranted",
      "type": "event"
    },
    {
      "anonymous": false,
      "inputs": [
        {
          "indexed": true,
          "internalType": "bytes32",
          "name": "role",
          "type": "bytes32"
        },
        {
          "indexed": true,
          "internalType": "address",
          "name": "account",
          "type": "address"
        },
        {
          "indexed": true,
          "internalType": "address",
          "name": "sender",
          "type": "address"
        }
      ],
      "name": "RoleRevoked",
      "type": "event"
    },
    {
      "anonymous": false,
      "inputs": [
        {
          "indexed": true,
          "internalType": "address",
          "name": "from",
          "type": "address"
        },
        {
          "indexed": true,
          "internalType": "uint256",
          "name": "tradeId",
          "type": "uint256"
        }
      ],
      "name": "TradeAccepted",
      "type": "event"
    },
    {
      "anonymous": false,
      "inputs": [
        {
          "indexed": true,
          "internalType": "address",
          "name": "from",
          "type": "address"
        },
        {
          "indexed": true,
          "internalType": "uint256",
          "name": "tradeId",
          "type": "uint256"
        }
      ],
      "name": "TradeCanceled",
      "type": "event"
    },
    {
      "anonymous": false,
      "inputs": [
        {
          "indexed": true,
          "internalType": "address",
          "name": "from",
          "type": "address"
        },
        {
          "indexed": true,
          "internalType": "uint256",
          "name": "tradeId",
          "type": "uint256"
        },
        {
          "indexed": true,
          "internalType": "address",
          "name": "counterparty",
          "type": "address"
        },
        {
          "components": [
            {
              "internalType": "address",
              "name": "_address",
              "type": "address"
            },
            {
              "internalType": "uint256",
              "name": "id",
              "type": "uint256"
            },
            {
              "internalType": "uint256",
              "name": "amount",
              "type": "uint256"
            },
            {
              "internalType": "enum Structs.AssetType",
              "name": "assetType",
              "type": "uint8"
            }
          ],
          "indexed": false,
          "internalType": "struct Structs.Asset[]",
          "name": "partyAssets",
          "type": "tuple[]"
        },
        {
          "components": [
            {
              "internalType": "address",
              "name": "_address",
              "type": "address"
            },
            {
              "internalType": "uint256",
              "name": "id",
              "type": "uint256"
            },
            {
              "internalType": "uint256",
              "name": "amount",
              "type": "uint256"
            },
            {
              "internalType": "enum Structs.AssetType",
              "name": "assetType",
              "type": "uint8"
            }
          ],
          "indexed": false,
          "internalType": "struct Structs.Asset[]",
          "name": "counterpartyAssets",
          "type": "tuple[]"
        }
      ],
      "name": "TradeCreated",
      "type": "event"
    },
    {
      "anonymous": false,
      "inputs": [
        {
          "indexed": true,
          "internalType": "address",
          "name": "from",
          "type": "address"
        },
        {
          "indexed": true,
          "internalType": "uint256",
          "name": "tradeId",
          "type": "uint256"
        }
      ],
      "name": "TradeRejected",
      "type": "event"
    },
    {
      "anonymous": false,
      "inputs": [
        {
          "indexed": true,
          "internalType": "address",
          "name": "from",
          "type": "address"
        },
        {
          "indexed": false,
          "internalType": "address",
          "name": "treasury",
          "type": "address"
        }
      ],
      "name": "TreasuryUpdated",
      "type": "event"
    },
    {
      "anonymous": false,
      "inputs": [
        {
          "indexed": false,
          "internalType": "address",
          "name": "account",
          "type": "address"
        }
      ],
      "name": "Unpaused",
      "type": "event"
    },
    {
      "anonymous": false,
      "inputs": [
        {
          "indexed": true,
          "internalType": "address",
          "name": "implementation",
          "type": "address"
        }
      ],
      "name": "Upgraded",
      "type": "event"
    },
    {
      "inputs": [],
      "name": "ADMIN_ROLE",
      "outputs": [
        {
          "internalType": "bytes32",
          "name": "",
          "type": "bytes32"
        }
      ],
      "stateMutability": "view",
      "type": "function"
    },
    {
      "inputs": [],
      "name": "DEFAULT_ADMIN_ROLE",
      "outputs": [
        {
          "internalType": "bytes32",
          "name": "",
          "type": "bytes32"
        }
      ],
      "stateMutability": "view",
      "type": "function"
    },
    {
      "inputs": [
        {
          "internalType": "uint256",
          "name": "tradeId",
          "type": "uint256"
        }
      ],
      "name": "acceptTrade",
      "outputs": [],
      "stateMutability": "nonpayable",
      "type": "function"
    },
    {
      "inputs": [
        {
          "internalType": "uint256",
          "name": "tradeId",
          "type": "uint256"
        }
      ],
      "name": "cancelTrade",
      "outputs": [],
      "stateMutability": "nonpayable",
      "type": "function"
    },
    {
      "inputs": [
        {
          "internalType": "address",
          "name": "counterparty",
          "type": "address"
        },
        {
          "components": [
            {
              "internalType": "address",
              "name": "_address",
              "type": "address"
            },
            {
              "internalType": "uint256",
              "name": "id",
              "type": "uint256"
            },
            {
              "internalType": "uint256",
              "name": "amount",
              "type": "uint256"
            },
            {
              "internalType": "enum Structs.AssetType",
              "name": "assetType",
              "type": "uint8"
            }
          ],
          "internalType": "struct Structs.Asset[]",
          "name": "partyAssets",
          "type": "tuple[]"
        },
        {
          "components": [
            {
              "internalType": "address",
              "name": "_address",
              "type": "address"
            },
            {
              "internalType": "uint256",
              "name": "id",
              "type": "uint256"
            },
            {
              "internalType": "uint256",
              "name": "amount",
              "type": "uint256"
            },
            {
              "internalType": "enum Structs.AssetType",
              "name": "assetType",
              "type": "uint8"
            }
          ],
          "internalType": "struct Structs.Asset[]",
          "name": "counterpartyAssets",
          "type": "tuple[]"
        }
      ],
      "name": "createTrade",
      "outputs": [],
      "stateMutability": "nonpayable",
      "type": "function"
    },
    {
      "inputs": [],
      "name": "feeToken",
      "outputs": [
        {
          "internalType": "address",
          "name": "",
          "type": "address"
        }
      ],
      "stateMutability": "view",
      "type": "function"
    },
    {
      "inputs": [],
      "name": "feeTreasury",
      "outputs": [
        {
          "internalType": "address",
          "name": "",
          "type": "address"
        }
      ],
      "stateMutability": "view",
      "type": "function"
    },
    {
      "inputs": [
        {
          "internalType": "bytes32",
          "name": "role",
          "type": "bytes32"
        }
      ],
      "name": "getRoleAdmin",
      "outputs": [
        {
          "internalType": "bytes32",
          "name": "",
          "type": "bytes32"
        }
      ],
      "stateMutability": "view",
      "type": "function"
    },
    {
      "inputs": [
        {
          "internalType": "bytes32",
          "name": "role",
          "type": "bytes32"
        },
        {
          "internalType": "uint256",
          "name": "index",
          "type": "uint256"
        }
      ],
      "name": "getRoleMember",
      "outputs": [
        {
          "internalType": "address",
          "name": "",
          "type": "address"
        }
      ],
      "stateMutability": "view",
      "type": "function"
    },
    {
      "inputs": [
        {
          "internalType": "bytes32",
          "name": "role",
          "type": "bytes32"
        }
      ],
      "name": "getRoleMemberCount",
      "outputs": [
        {
          "internalType": "uint256",
          "name": "",
          "type": "uint256"
        }
      ],
      "stateMutability": "view",
      "type": "function"
    },
    {
      "inputs": [
        {
          "internalType": "bytes32",
          "name": "role",
          "type": "bytes32"
        },
        {
          "internalType": "address",
          "name": "account",
          "type": "address"
        }
      ],
      "name": "grantRole",
      "outputs": [],
      "stateMutability": "nonpayable",
      "type": "function"
    },
    {
      "inputs": [
        {
          "internalType": "bytes32",
          "name": "role",
          "type": "bytes32"
        },
        {
          "internalType": "address",
          "name": "account",
          "type": "address"
        }
      ],
      "name": "hasRole",
      "outputs": [
        {
          "internalType": "bool",
          "name": "",
          "type": "bool"
        }
      ],
      "stateMutability": "view",
      "type": "function"
    },
    {
      "inputs": [],
      "name": "initialize",
      "outputs": [],
      "stateMutability": "nonpayable",
      "type": "function"
    },
    {
      "inputs": [
        {
          "internalType": "uint256",
          "name": "id",
          "type": "uint256"
        }
      ],
      "name": "isValidTradeId",
      "outputs": [
        {
          "internalType": "bool",
          "name": "",
          "type": "bool"
        }
      ],
      "stateMutability": "view",
      "type": "function"
    },
    {
      "inputs": [],
      "name": "pause",
      "outputs": [],
      "stateMutability": "nonpayable",
      "type": "function"
    },
    {
      "inputs": [],
      "name": "paused",
      "outputs": [
        {
          "internalType": "bool",
          "name": "",
          "type": "bool"
        }
      ],
      "stateMutability": "view",
      "type": "function"
    },
    {
      "inputs": [],
      "name": "proxiableUUID",
      "outputs": [
        {
          "internalType": "bytes32",
          "name": "",
          "type": "bytes32"
        }
      ],
      "stateMutability": "view",
      "type": "function"
    },
    {
      "inputs": [
        {
          "internalType": "bytes32",
          "name": "role",
          "type": "bytes32"
        },
        {
          "internalType": "address",
          "name": "account",
          "type": "address"
        }
      ],
      "name": "renounceRole",
      "outputs": [],
      "stateMutability": "nonpayable",
      "type": "function"
    },
    {
      "inputs": [
        {
          "internalType": "bytes32",
          "name": "role",
          "type": "bytes32"
        },
        {
          "internalType": "address",
          "name": "account",
          "type": "address"
        }
      ],
      "name": "revokeRole",
      "outputs": [],
      "stateMutability": "nonpayable",
      "type": "function"
    },
    {
      "inputs": [
        {
          "internalType": "uint256",
          "name": "fee",
          "type": "uint256"
        }
      ],
      "name": "setFee",
      "outputs": [],
      "stateMutability": "nonpayable",
      "type": "function"
    },
    {
      "inputs": [
        {
          "internalType": "address",
          "name": "token",
          "type": "address"
        }
      ],
      "name": "setFeeToken",
      "outputs": [],
      "stateMutability": "nonpayable",
      "type": "function"
    },
    {
      "inputs": [
        {
          "internalType": "address",
          "name": "treasury",
          "type": "address"
        }
      ],
      "name": "setFeeTreasury",
      "outputs": [],
      "stateMutability": "nonpayable",
      "type": "function"
    },
    {
      "inputs": [
        {
          "internalType": "bytes4",
          "name": "interfaceId",
          "type": "bytes4"
        }
      ],
      "name": "supportsInterface",
      "outputs": [
        {
          "internalType": "bool",
          "name": "",
          "type": "bool"
        }
      ],
      "stateMutability": "view",
      "type": "function"
    },
    {
      "inputs": [],
      "name": "unpause",
      "outputs": [],
      "stateMutability": "nonpayable",
      "type": "function"
    },
    {
      "inputs": [
        {
          "internalType": "address",
          "name": "newImplementation",
          "type": "address"
        }
      ],
      "name": "upgradeTo",
      "outputs": [],
      "stateMutability": "nonpayable",
      "type": "function"
    },
    {
      "inputs": [
        {
          "internalType": "address",
          "name": "newImplementation",
          "type": "address"
        },
        {
          "internalType": "bytes",
          "name": "data",
          "type": "bytes"
        }
      ],
      "name": "upgradeToAndCall",
      "outputs": [],
      "stateMutability": "payable",
      "type": "function"
    },
    {
      "inputs": [],
      "name": "userFee",
      "outputs": [
        {
          "internalType": "uint256",
          "name": "",
          "type": "uint256"
        }
      ],
      "stateMutability": "view",
      "type": "function"
    }
  ],
  "bytecode": "0x60a0604052306080523480156200001557600080fd5b506200002062000026565b620000e7565b600054610100900460ff1615620000935760405162461bcd60e51b815260206004820152602760248201527f496e697469616c697a61626c653a20636f6e747261637420697320696e697469604482015266616c697a696e6760c81b606482015260840160405180910390fd5b60005460ff90811614620000e5576000805460ff191660ff9081179091556040519081527f7f26b83ff96e1f2b6a682f133852f6798a09c465da95921460cefb38474024989060200160405180910390a15b565b6080516131ed6200011f60003960008181610a4a01528181610ae001528181610c1901528181610caf0152610da601526131ed6000f3fe6080604052600436106101ac5760003560e01c8063647846a5116100ec5780639c5b6a081161008a578063bfa37e3711610064578063bfa37e37146104bc578063ca15c873146104dc578063d547741f146104fc578063ecb9fec31461051c57600080fd5b80639c5b6a0814610467578063a217fddf14610487578063b1244b231461049c57600080fd5b80638129fc1c116100c65780638129fc1c146103d75780638456cb59146103ec5780639010d07c1461040157806391d148541461042157600080fd5b8063647846a51461036457806369fe0e2d1461038357806375b238fc146103a357600080fd5b80633659cfe6116101595780634f1ef286116101335780634f1ef286146102f157806352d1902d146103045780635c975abb1461031957806360dc23401461033157600080fd5b80633659cfe6146102a65780633f4ba83a146102c657806342a1bbd2146102db57600080fd5b8063248a9ca31161018a578063248a9ca3146102285780632f2ff15d1461026657806336568abe1461028657600080fd5b806301ffc9a7146101b157806309ec6cc7146101e657806315cce22414610208575b600080fd5b3480156101bd57600080fd5b506101d16101cc366004612ba3565b61053c565b60405190151581526020015b60405180910390f35b3480156101f257600080fd5b50610206610201366004612be5565b61054d565b005b34801561021457600080fd5b50610206610223366004612c13565b610975565b34801561023457600080fd5b50610258610243366004612be5565b60009081526097602052604090206001015490565b6040519081526020016101dd565b34801561027257600080fd5b50610206610281366004612c30565b610989565b34801561029257600080fd5b506102066102a1366004612c30565b6109b3565b3480156102b257600080fd5b506102066102c1366004612c13565b610a40565b3480156102d257600080fd5b50610206610bdd565b3480156102e757600080fd5b5061012f54610258565b6102066102ff366004612c76565b610c0f565b34801561031057600080fd5b50610258610d99565b34801561032557600080fd5b5060fb5460ff166101d1565b34801561033d57600080fd5b5061012d546001600160a01b03165b6040516001600160a01b0390911681526020016101dd565b34801561037057600080fd5b5061012e546001600160a01b031661034c565b34801561038f57600080fd5b5061020661039e366004612be5565b610e5e565b3480156103af57600080fd5b506102587fa49807205ce4d355092ef5a8a18f56e8913cf4a201fbe287825b095693c2177581565b3480156103e357600080fd5b50610206610e72565b3480156103f857600080fd5b50610206610fde565b34801561040d57600080fd5b5061034c61041c366004612d3a565b611010565b34801561042d57600080fd5b506101d161043c366004612c30565b60009182526097602090815260408084206001600160a01b0393909316845291905290205460ff1690565b34801561047357600080fd5b50610206610482366004612da8565b61102f565b34801561049357600080fd5b50610258600081565b3480156104a857600080fd5b506101d16104b7366004612be5565b6112d0565b3480156104c857600080fd5b506102066104d7366004612c13565b6112e5565b3480156104e857600080fd5b506102586104f7366004612be5565b6112f9565b34801561050857600080fd5b50610206610517366004612c30565b611310565b34801561052857600080fd5b50610206610537366004612be5565b611335565b600061054782611543565b92915050565b61012f54156107bb5761012e5461012f546001600160a01b03909116906323b872dd903090339061058090600490612e41565b61058b906003612e63565b6040517fffffffff0000000000000000000000000000000000000000000000000000000060e086901b1681526001600160a01b03938416600482015292909116602483015260448201526064016020604051808303816000875af11580156105f7573d6000803e3d6000fd5b505050506040513d601f19601f8201168201806040525081019061061b9190612e7a565b5061012d546001600160a01b0316156107635761012e5461012d5461012f546001600160a01b03928316926323b872dd92309291169061065d90600490612e41565b610668906003612e63565b61012f546106769190612e9c565b6040517fffffffff0000000000000000000000000000000000000000000000000000000060e086901b1681526001600160a01b03938416600482015292909116602483015260448201526064016020604051808303816000875af11580156106e2573d6000803e3d6000fd5b505050506040513d601f19601f820116820180604052508101906107069190612e7a565b507f059d45db317199d98730cfff4074706af9cebb161f0a797e4a3905b300f31301600461012f546107389190612e41565b610743906003612e63565b61012f546107519190612e9c565b60405190815260200160405180910390a15b336001600160a01b03167f3437b9ea7fa19c6d233dd70cc787a70fab87cee64d8ba4571512cc84402748f9600461012f5461079e9190612e41565b6107a9906003612e63565b60405190815260200160405180910390a25b6107c4816112d0565b6107fa576040517f9af21d9500000000000000000000000000000000000000000000000000000000815260040160405180910390fd5b60008181526101f56020526040902060018101546001600160a01b031633148015906108355750805461010090046001600160a01b03163314155b1561086c576040517fcb64a0a200000000000000000000000000000000000000000000000000000000815260040160405180910390fd5b6000815460ff16600381111561088457610884612eaf565b146108bb576040517f09e7070c00000000000000000000000000000000000000000000000000000000815260040160405180910390fd5b805461010090046001600160a01b031633146108d85760026108db565b60035b8154829060ff191660018360038111156108f7576108f7612eaf565b0217905550805461010090046001600160a01b0316330361094357604051829033907fc036ffe8eab201772430a4259f57e5ed5cd8fc42ecc80be53bb03012d983aea090600090a35050565b604051829033907f5dc62d06bbf63678169b74e8d18b97da8e3b71fad35dbd7da92eb04075c3846a90600090a35b5050565b600061098081611599565b610971826115a3565b6000828152609760205260409020600101546109a481611599565b6109ae8383611613565b505050565b6001600160a01b0381163314610a365760405162461bcd60e51b815260206004820152602f60248201527f416363657373436f6e74726f6c3a2063616e206f6e6c792072656e6f756e636560448201527f20726f6c657320666f722073656c66000000000000000000000000000000000060648201526084015b60405180910390fd5b6109718282611635565b6001600160a01b037f0000000000000000000000000000000000000000000000000000000000000000163003610ade5760405162461bcd60e51b815260206004820152602c60248201527f46756e6374696f6e206d7573742062652063616c6c6564207468726f7567682060448201527f64656c656761746563616c6c00000000000000000000000000000000000000006064820152608401610a2d565b7f00000000000000000000000000000000000000000000000000000000000000006001600160a01b0316610b397f360894a13ba1a3210667c828492db98dca3e2076cc3735a920a3ca505d382bbc546001600160a01b031690565b6001600160a01b031614610bb55760405162461bcd60e51b815260206004820152602c60248201527f46756e6374696f6e206d7573742062652063616c6c6564207468726f7567682060448201527f6163746976652070726f787900000000000000000000000000000000000000006064820152608401610a2d565b610bbe81611657565b60408051600080825260208201909252610bda91839190611662565b50565b7fa49807205ce4d355092ef5a8a18f56e8913cf4a201fbe287825b095693c21775610c0781611599565b610bda611802565b6001600160a01b037f0000000000000000000000000000000000000000000000000000000000000000163003610cad5760405162461bcd60e51b815260206004820152602c60248201527f46756e6374696f6e206d7573742062652063616c6c6564207468726f7567682060448201527f64656c656761746563616c6c00000000000000000000000000000000000000006064820152608401610a2d565b7f00000000000000000000000000000000000000000000000000000000000000006001600160a01b0316610d087f360894a13ba1a3210667c828492db98dca3e2076cc3735a920a3ca505d382bbc546001600160a01b031690565b6001600160a01b031614610d845760405162461bcd60e51b815260206004820152602c60248201527f46756e6374696f6e206d7573742062652063616c6c6564207468726f7567682060448201527f6163746976652070726f787900000000000000000000000000000000000000006064820152608401610a2d565b610d8d82611657565b61097182826001611662565b6000306001600160a01b037f00000000000000000000000000000000000000000000000000000000000000001614610e395760405162461bcd60e51b815260206004820152603860248201527f555550535570677261646561626c653a206d757374206e6f742062652063616c60448201527f6c6564207468726f7567682064656c656761746563616c6c00000000000000006064820152608401610a2d565b507f360894a13ba1a3210667c828492db98dca3e2076cc3735a920a3ca505d382bbc90565b6000610e6981611599565b61097182611854565b600054610100900460ff1615808015610e925750600054600160ff909116105b80610eac5750303b158015610eac575060005460ff166001145b610f1e5760405162461bcd60e51b815260206004820152602e60248201527f496e697469616c697a61626c653a20636f6e747261637420697320616c72656160448201527f647920696e697469616c697a65640000000000000000000000000000000000006064820152608401610a2d565b6000805460ff191660011790558015610f41576000805461ff0019166101001790555b610f496118a0565b610f51611915565b610f59611980565b610f61611915565b610f6c600033611613565b610f967fa49807205ce4d355092ef5a8a18f56e8913cf4a201fbe287825b095693c2177533611613565b8015610bda576000805461ff0019169055604051600181527f7f26b83ff96e1f2b6a682f133852f6798a09c465da95921460cefb38474024989060200160405180910390a150565b7fa49807205ce4d355092ef5a8a18f56e8913cf4a201fbe287825b095693c2177561100881611599565b610bda6119f3565b600082815260c9602052604081206110289083611a30565b9392505050565b61012f54156110f45761012e5461012f546040516323b872dd60e01b815233600482015230602482015260448101919091526001600160a01b03909116906323b872dd906064016020604051808303816000875af1158015611095573d6000803e3d6000fd5b505050506040513d601f19601f820116820180604052508101906110b99190612e7a565b5061012f5460405190815233907f075a2720282fdf622141dae0b048ef90a21a7e57c134c76912d19d006b3b3f6f9060200160405180910390a25b60006110fe611a3c565b60008181526101f56020526040902080547fffffffffffffffffffffff0000000000000000000000000000000000000000ff1633610100021781559091506001600160a01b03871661117c576040517f4f1332db00000000000000000000000000000000000000000000000000000000815260040160405180910390fd5b60018101805473ffffffffffffffffffffffffffffffffffffffff19166001600160a01b0389161790558460005b8181101561120b57826002018888838181106111c8576111c8612ec5565b8354600181018555600094855260209094206080909102929092019260040290910190506111f68282612ee8565b5050808061120390612f73565b9150506111aa565b5083905060005b81811015611273578260030186868381811061123057611230612ec5565b83546001810185556000948552602090942060809091029290920192600402909101905061125e8282612ee8565b5050808061126b90612f73565b915050611212565b50876001600160a01b031683336001600160a01b03167f9b54f614296fc183a3ebcc288f174fdca7d0bd7fbd804df3424096421c7f497b8a8a8a8a6040516112be949392919061301c565b60405180910390a45050505050505050565b60006112dc61015f5490565b90911115919050565b60006112f081611599565b61097182611a55565b600081815260c96020526040812061054790611ab3565b60008281526097602052604090206001015461132b81611599565b6109ae8383611635565b61012f5415801590611352575061012d546001600160a01b031615155b1561141b5761012e5461012d5461012f546040516323b872dd60e01b81523060048201526001600160a01b03928316602482015260448101919091529116906323b872dd906064016020604051808303816000875af11580156113b9573d6000803e3d6000fd5b505050506040513d601f19601f820116820180604052508101906113dd9190612e7a565b507f059d45db317199d98730cfff4074706af9cebb161f0a797e4a3905b300f3130161012f5460405161141291815260200190565b60405180910390a15b611424816112d0565b61145a576040517f9af21d9500000000000000000000000000000000000000000000000000000000815260040160405180910390fd5b60008181526101f56020526040902060018101546001600160a01b031633146114af576040517fcb64a0a200000000000000000000000000000000000000000000000000000000815260040160405180910390fd5b6000815460ff1660038111156114c7576114c7612eaf565b146114fe576040517f09e7070c00000000000000000000000000000000000000000000000000000000815260040160405180910390fd5b805460ff1916600117815561151281611abd565b604051829033907f5f6b7be9b0a870b23b27477836abafd0650ac576e5d6e6976232d803c3b1005f90600090a35050565b60007fffffffff0000000000000000000000000000000000000000000000000000000082167f5a05180f000000000000000000000000000000000000000000000000000000001480610547575061054782611b0c565b610bda8133611ba3565b61012e805473ffffffffffffffffffffffffffffffffffffffff19166001600160a01b03831690811790915561012f5460408051928352602083019190915233917fe79c98674461ff4148d44bd2ffe46f5346a33ca14909e65b9aae5e58639454a391015b60405180910390a250565b61161d8282611c18565b600082815260c9602052604090206109ae9082611cba565b61163f8282611ccf565b600082815260c9602052604090206109ae9082611d52565b600061097181611599565b7f4910fdfa16fed3260ed0e7147f7cc6da11a60208b5b9406d12a635614ffd91435460ff1615611695576109ae83611d67565b826001600160a01b03166352d1902d6040518163ffffffff1660e01b8152600401602060405180830381865afa9250505080156116ef575060408051601f3d908101601f191682019092526116ec91810190613043565b60015b6117615760405162461bcd60e51b815260206004820152602e60248201527f45524331393637557067726164653a206e657720696d706c656d656e7461746960448201527f6f6e206973206e6f7420555550530000000000000000000000000000000000006064820152608401610a2d565b7f360894a13ba1a3210667c828492db98dca3e2076cc3735a920a3ca505d382bbc81146117f65760405162461bcd60e51b815260206004820152602960248201527f45524331393637557067726164653a20756e737570706f727465642070726f7860448201527f6961626c655555494400000000000000000000000000000000000000000000006064820152608401610a2d565b506109ae838383611e32565b61180a611e5d565b60fb805460ff191690557f5db9ee0a495bf2e6ff9c91a7834c1ba4fdd244a5e8aa4e537bd38aeae4b073aa335b6040516001600160a01b03909116815260200160405180910390a1565b61012f81905561012d54604080516001600160a01b0390921682526020820183905233917fe79c98674461ff4148d44bd2ffe46f5346a33ca14909e65b9aae5e58639454a39101611608565b600054610100900460ff1661190b5760405162461bcd60e51b815260206004820152602b60248201527f496e697469616c697a61626c653a20636f6e7472616374206973206e6f74206960448201526a6e697469616c697a696e6760a81b6064820152608401610a2d565b611913611eaf565b565b600054610100900460ff166119135760405162461bcd60e51b815260206004820152602b60248201527f496e697469616c697a61626c653a20636f6e7472616374206973206e6f74206960448201526a6e697469616c697a696e6760a81b6064820152608401610a2d565b600054610100900460ff166119eb5760405162461bcd60e51b815260206004820152602b60248201527f496e697469616c697a61626c653a20636f6e7472616374206973206e6f74206960448201526a6e697469616c697a696e6760a81b6064820152608401610a2d565b611913611f20565b6119fb611f97565b60fb805460ff191660011790557f62e78cea01bee320cd4e420270b5ea74000d11b0c9f74754ebdbfc544b05a2586118373390565b60006110288383611fea565b6000611a4d61015f80546001019055565b5061015f5490565b61012d805473ffffffffffffffffffffffffffffffffffffffff19166001600160a01b03831690811790915560405190815233907f4ab5be82436d353e61ca18726e984e561f5c1cc7c6d38b29d2553c790434705a90602001611608565b6000610547825490565b80546001820154611ae49160028401916001600160a01b0361010090920482169116612014565b60018101548154610bda9160038401916001600160a01b039182169161010090910416612014565b60007fffffffff0000000000000000000000000000000000000000000000000000000082167f7965db0b00000000000000000000000000000000000000000000000000000000148061054757507f01ffc9a7000000000000000000000000000000000000000000000000000000007fffffffff00000000000000000000000000000000000000000000000000000000831614610547565b60008281526097602090815260408083206001600160a01b038516845290915290205460ff1661097157611bd681612064565b611be1836020612076565b604051602001611bf2929190613080565b60408051601f198184030181529082905262461bcd60e51b8252610a2d91600401613101565b60008281526097602090815260408083206001600160a01b038516845290915290205460ff166109715760008281526097602090815260408083206001600160a01b03851684529091529020805460ff19166001179055611c763390565b6001600160a01b0316816001600160a01b0316837f2f8788117e7eff1d82e926ec794901d17c78024a50270940304540a733656f0d60405160405180910390a45050565b6000611028836001600160a01b03841661229f565b60008281526097602090815260408083206001600160a01b038516845290915290205460ff16156109715760008281526097602090815260408083206001600160a01b0385168085529252808320805460ff1916905551339285917ff6391f5c32d9c69d2a47ea670b442974b53935d1edc7fd64eb21e047a839171b9190a45050565b6000611028836001600160a01b0384166122ee565b6001600160a01b0381163b611de45760405162461bcd60e51b815260206004820152602d60248201527f455243313936373a206e657720696d706c656d656e746174696f6e206973206e60448201527f6f74206120636f6e7472616374000000000000000000000000000000000000006064820152608401610a2d565b7f360894a13ba1a3210667c828492db98dca3e2076cc3735a920a3ca505d382bbc805473ffffffffffffffffffffffffffffffffffffffff19166001600160a01b0392909216919091179055565b611e3b836123e1565b600082511180611e485750805b156109ae57611e578383612421565b50505050565b60fb5460ff166119135760405162461bcd60e51b815260206004820152601460248201527f5061757361626c653a206e6f74207061757365640000000000000000000000006044820152606401610a2d565b600054610100900460ff16611f1a5760405162461bcd60e51b815260206004820152602b60248201527f496e697469616c697a61626c653a20636f6e7472616374206973206e6f74206960448201526a6e697469616c697a696e6760a81b6064820152608401610a2d565b60018055565b600054610100900460ff16611f8b5760405162461bcd60e51b815260206004820152602b60248201527f496e697469616c697a61626c653a20636f6e7472616374206973206e6f74206960448201526a6e697469616c697a696e6760a81b6064820152608401610a2d565b60fb805460ff19169055565b60fb5460ff16156119135760405162461bcd60e51b815260206004820152601060248201527f5061757361626c653a20706175736564000000000000000000000000000000006044820152606401610a2d565b600082600001828154811061200157612001612ec5565b9060005260206000200154905092915050565b825460005b8181101561205d5761204b85828154811061203657612036612ec5565b90600052602060002090600402018585612446565b8061205581612f73565b915050612019565b5050505050565b60606105476001600160a01b03831660145b60606000612085836002612e63565b612090906002613134565b67ffffffffffffffff8111156120a8576120a8612c60565b6040519080825280601f01601f1916602001820160405280156120d2576020820181803683370190505b5090507f30000000000000000000000000000000000000000000000000000000000000008160008151811061210957612109612ec5565b60200101907effffffffffffffffffffffffffffffffffffffffffffffffffffffffffffff1916908160001a9053507f78000000000000000000000000000000000000000000000000000000000000008160018151811061216c5761216c612ec5565b60200101907effffffffffffffffffffffffffffffffffffffffffffffffffffffffffffff1916908160001a90535060006121a8846002612e63565b6121b3906001613134565b90505b6001811115612250577f303132333435363738396162636465660000000000000000000000000000000085600f16601081106121f4576121f4612ec5565b1a60f81b82828151811061220a5761220a612ec5565b60200101907effffffffffffffffffffffffffffffffffffffffffffffffffffffffffffff1916908160001a90535060049490941c9361224981613147565b90506121b6565b5083156110285760405162461bcd60e51b815260206004820181905260248201527f537472696e67733a20686578206c656e67746820696e73756666696369656e746044820152606401610a2d565b60008181526001830160205260408120546122e657508154600181810184556000848152602080822090930184905584548482528286019093526040902091909155610547565b506000610547565b600081815260018301602052604081205480156123d7576000612312600183612e9c565b855490915060009061232690600190612e9c565b905081811461238b57600086600001828154811061234657612346612ec5565b906000526020600020015490508087600001848154811061236957612369612ec5565b6000918252602080832090910192909255918252600188019052604090208390555b855486908061239c5761239c61315e565b600190038181906000526020600020016000905590558560010160008681526020019081526020016000206000905560019350505050610547565b6000915050610547565b6123ea81611d67565b6040516001600160a01b038216907fbc7cd75a20ee27fd9adebab32041f755214dbc6bffa90cc0225b39da2e5c2d3b90600090a250565b60606110288383604051806060016040528060278152602001613191602791396124f9565b6000600384015460ff16600281111561246157612461612eaf565b03612471576109ae838383612571565b6002600384015460ff16600281111561248c5761248c612eaf565b0361249c576109ae8383836126fb565b6001600384015460ff1660028111156124b7576124b7612eaf565b036124c7576109ae83838361278b565b6040517fb8bcee3f00000000000000000000000000000000000000000000000000000000815260040160405180910390fd5b6060600080856001600160a01b0316856040516125169190613174565b600060405180830381855af49150503d8060008114612551576040519150601f19603f3d011682016040523d82523d6000602084013e612556565b606091505b50915091506125678683838761291c565b9695505050505050565b82546040517f70a082310000000000000000000000000000000000000000000000000000000081526001600160a01b0383811660048301529091169060009082906370a0823190602401602060405180830381865afa1580156125d8573d6000803e3d6000fd5b505050506040513d601f19601f820116820180604052508101906125fc9190613043565b905061262284848760020154856001600160a01b031661299d909392919063ffffffff16565b6040517f70a082310000000000000000000000000000000000000000000000000000000081526001600160a01b038481166004830152600091908416906370a08231906024015b602060405180830381865afa158015612686573d6000803e3d6000fd5b505050506040513d601f19601f820116820180604052508101906126aa9190613043565b60028701549091506126bc8383612e9c565b146126f3576040517f525ce88e00000000000000000000000000000000000000000000000000000000815260040160405180910390fd5b505050505050565b825460018401546040517f42842e0e0000000000000000000000000000000000000000000000000000000081526001600160a01b038581166004830152848116602483015260448201929092529116906342842e0e90606401600060405180830381600087803b15801561276e57600080fd5b505af1158015612782573d6000803e3d6000fd5b50505050505050565b825460018401546040517efdd58e0000000000000000000000000000000000000000000000000000000081526001600160a01b0384811660048301526024820192909252911690600090829062fdd58e90604401602060405180830381865afa1580156127fc573d6000803e3d6000fd5b505050506040513d601f19601f820116820180604052508101906128209190613043565b600186015460028701546040517ff242432a0000000000000000000000000000000000000000000000000000000081526001600160a01b03888116600483015287811660248301526044820193909352606481019190915260a06084820152600060a482015291925083169063f242432a9060c401600060405180830381600087803b1580156128af57600080fd5b505af11580156128c3573d6000803e3d6000fd5b5050505060018501546040517efdd58e0000000000000000000000000000000000000000000000000000000081526001600160a01b038581166004830152602482019290925260009184169062fdd58e90604401612669565b6060831561298b578251600003612984576001600160a01b0385163b6129845760405162461bcd60e51b815260206004820152601d60248201527f416464726573733a2063616c6c20746f206e6f6e2d636f6e74726163740000006044820152606401610a2d565b5081612995565b6129958383612a0c565b949350505050565b604080516001600160a01b0385811660248301528416604482015260648082018490528251808303909101815260849091019091526020810180517bffffffffffffffffffffffffffffffffffffffffffffffffffffffff166323b872dd60e01b179052611e57908590612a36565b815115612a1c5781518083602001fd5b8060405162461bcd60e51b8152600401610a2d9190613101565b6000612a8b826040518060400160405280602081526020017f5361666545524332303a206c6f772d6c6576656c2063616c6c206661696c6564815250856001600160a01b0316612b1e9092919063ffffffff16565b9050805160001480612aac575080806020019051810190612aac9190612e7a565b6109ae5760405162461bcd60e51b815260206004820152602a60248201527f5361666545524332303a204552433230206f7065726174696f6e20646964206e60448201527f6f742073756363656564000000000000000000000000000000000000000000006064820152608401610a2d565b6060612995848460008585600080866001600160a01b03168587604051612b459190613174565b60006040518083038185875af1925050503d8060008114612b82576040519150601f19603f3d011682016040523d82523d6000602084013e612b87565b606091505b5091509150612b988783838761291c565b979650505050505050565b600060208284031215612bb557600080fd5b81357fffffffff000000000000000000000000000000000000000000000000000000008116811461102857600080fd5b600060208284031215612bf757600080fd5b5035919050565b6001600160a01b0381168114610bda57600080fd5b600060208284031215612c2557600080fd5b813561102881612bfe565b60008060408385031215612c4357600080fd5b823591506020830135612c5581612bfe565b809150509250929050565b634e487b7160e01b600052604160045260246000fd5b60008060408385031215612c8957600080fd5b8235612c9481612bfe565b9150602083013567ffffffffffffffff80821115612cb157600080fd5b818501915085601f830112612cc557600080fd5b813581811115612cd757612cd7612c60565b604051601f8201601f19908116603f01168101908382118183101715612cff57612cff612c60565b81604052828152886020848701011115612d1857600080fd5b8260208601602083013760006020848301015280955050505050509250929050565b60008060408385031215612d4d57600080fd5b50508035926020909101359150565b60008083601f840112612d6e57600080fd5b50813567ffffffffffffffff811115612d8657600080fd5b6020830191508360208260071b8501011115612da157600080fd5b9250929050565b600080600080600060608688031215612dc057600080fd5b8535612dcb81612bfe565b9450602086013567ffffffffffffffff80821115612de857600080fd5b612df489838a01612d5c565b90965094506040880135915080821115612e0d57600080fd5b50612e1a88828901612d5c565b969995985093965092949392505050565b634e487b7160e01b600052601160045260246000fd5b600082612e5e57634e487b7160e01b600052601260045260246000fd5b500490565b808202811582820484141761054757610547612e2b565b600060208284031215612e8c57600080fd5b8151801515811461102857600080fd5b8181038181111561054757610547612e2b565b634e487b7160e01b600052602160045260246000fd5b634e487b7160e01b600052603260045260246000fd5b60038110610bda57600080fd5b8135612ef381612bfe565b6001600160a01b03811673ffffffffffffffffffffffffffffffffffffffff19835416178255506020820135600182015560408201356002820155600381016060830135612f4081612edb565b60038110612f5e57634e487b7160e01b600052602160045260246000fd5b60ff1982541660ff8216811783555050505050565b60006000198203612f8657612f86612e2b565b5060010190565b818352600060208085019450826000805b86811015613010578235612fb181612bfe565b6001600160a01b03168852828401358489015260408084013590890152606080840135612fdd81612edb565b60038110612ff957634e487b7160e01b84526021600452602484fd5b908901526080978801979290920191600101612f9e565b50959695505050505050565b604081526000613030604083018688612f8d565b8281036020840152612b98818587612f8d565b60006020828403121561305557600080fd5b5051919050565b60005b8381101561307757818101518382015260200161305f565b50506000910152565b7f416363657373436f6e74726f6c3a206163636f756e74200000000000000000008152600083516130b881601785016020880161305c565b7f206973206d697373696e6720726f6c652000000000000000000000000000000060179184019182015283516130f581602884016020880161305c565b01602801949350505050565b602081526000825180602084015261312081604085016020870161305c565b601f01601f19169190910160400192915050565b8082018082111561054757610547612e2b565b60008161315657613156612e2b565b506000190190565b634e487b7160e01b600052603160045260246000fd5b6000825161318681846020870161305c565b919091019291505056fe416464726573733a206c6f772d6c6576656c2064656c65676174652063616c6c206661696c6564a2646970667358221220200a4193a8f33a89db68f73d73da8915bcf399baa974cfd4b1f78a994f5d23f664736f6c63430008130033",
  "linkReferences": {},
  "deployedLinkReferences": {}
}