{
  "_format": "hh-sol-artifact-1",
  "contractName": "Tradescrow",
  "sourceName": "contracts/Tradescrow/Tradescrow.sol",
  "abi": [
    {
      "inputs": [],
      "stateMutability": "nonpayable",
      "type": "constructor"
    },
    {
      "inputs": [],
      "name": "InvalidCounterparty",
      "type": "error"
    },
    {
      "inputs": [],
      "name": "InvalidTradeId",
      "type": "error"
    },
    {
      "inputs": [],
      "name": "NotTradeParticipant",
      "type": "error"
    },
    {
      "inputs": [],
      "name": "TaxedAssetUnsupported",
      "type": "error"
    },
    {
      "inputs": [],
      "name": "TradeClosed",
      "type": "error"
    },
    {
      "inputs": [],
      "name": "UnknownAssetType",
      "type": "error"
    },
    {
      "anonymous": false,
      "inputs": [
        {
          "indexed": false,
          "internalType": "address",
          "name": "previousAdmin",
          "type": "address"
        },
        {
          "indexed": false,
          "internalType": "address",
          "name": "newAdmin",
          "type": "address"
        }
      ],
      "name": "AdminChanged",
      "type": "event"
    },
    {
      "anonymous": false,
      "inputs": [
        {
          "indexed": true,
          "internalType": "address",
          "name": "beacon",
          "type": "address"
        }
      ],
      "name": "BeaconUpgraded",
      "type": "event"
    },
    {
      "anonymous": false,
      "inputs": [
        {
          "indexed": true,
          "internalType": "address",
          "name": "from",
          "type": "address"
        },
        {
          "indexed": false,
          "internalType": "uint256",
          "name": "amount",
          "type": "uint256"
        }
      ],
      "name": "FeePaid",
      "type": "event"
    },
    {
      "anonymous": false,
      "inputs": [
        {
          "indexed": true,
          "internalType": "address",
          "name": "from",
          "type": "address"
        },
        {
          "indexed": false,
          "internalType": "uint256",
          "name": "amount",
          "type": "uint256"
        }
      ],
      "name": "FeeRefunded",
      "type": "event"
    },
    {
      "anonymous": false,
      "inputs": [
        {
          "indexed": false,
          "internalType": "uint256",
          "name": "amount",
          "type": "uint256"
        }
      ],
      "name": "FeeReleased",
      "type": "event"
    },
    {
      "anonymous": false,
      "inputs": [
        {
          "indexed": true,
          "internalType": "address",
          "name": "from",
          "type": "address"
        },
        {
          "indexed": false,
          "internalType": "address",
          "name": "token",
          "type": "address"
        },
        {
          "indexed": false,
          "internalType": "uint256",
          "name": "fee",
          "type": "uint256"
        }
      ],
      "name": "FeeUpdated",
      "type": "event"
    },
    {
      "anonymous": false,
      "inputs": [
        {
          "indexed": false,
          "internalType": "uint8",
          "name": "version",
          "type": "uint8"
        }
      ],
      "name": "Initialized",
      "type": "event"
    },
    {
      "anonymous": false,
      "inputs": [
        {
          "indexed": false,
          "internalType": "address",
          "name": "account",
          "type": "address"
        }
      ],
      "name": "Paused",
      "type": "event"
    },
    {
      "anonymous": false,
      "inputs": [
        {
          "indexed": true,
          "internalType": "bytes32",
          "name": "role",
          "type": "bytes32"
        },
        {
          "indexed": true,
          "internalType": "bytes32",
          "name": "previousAdminRole",
          "type": "bytes32"
        },
        {
          "indexed": true,
          "internalType": "bytes32",
          "name": "newAdminRole",
          "type": "bytes32"
        }
      ],
      "name": "RoleAdminChanged",
      "type": "event"
    },
    {
      "anonymous": false,
      "inputs": [
        {
          "indexed": true,
          "internalType": "bytes32",
          "name": "role",
          "type": "bytes32"
        },
        {
          "indexed": true,
          "internalType": "address",
          "name": "account",
          "type": "address"
        },
        {
          "indexed": true,
          "internalType": "address",
          "name": "sender",
          "type": "address"
        }
      ],
      "name": "RoleGranted",
      "type": "event"
    },
    {
      "anonymous": false,
      "inputs": [
        {
          "indexed": true,
          "internalType": "bytes32",
          "name": "role",
          "type": "bytes32"
        },
        {
          "indexed": true,
          "internalType": "address",
          "name": "account",
          "type": "address"
        },
        {
          "indexed": true,
          "internalType": "address",
          "name": "sender",
          "type": "address"
        }
      ],
      "name": "RoleRevoked",
      "type": "event"
    },
    {
      "anonymous": false,
      "inputs": [
        {
          "indexed": true,
          "internalType": "address",
          "name": "from",
          "type": "address"
        },
        {
          "indexed": true,
          "internalType": "uint256",
          "name": "tradeId",
          "type": "uint256"
        }
      ],
      "name": "TradeAccepted",
      "type": "event"
    },
    {
      "anonymous": false,
      "inputs": [
        {
          "indexed": true,
          "internalType": "address",
          "name": "from",
          "type": "address"
        },
        {
          "indexed": true,
          "internalType": "uint256",
          "name": "tradeId",
          "type": "uint256"
        }
      ],
      "name": "TradeCanceled",
      "type": "event"
    },
    {
      "anonymous": false,
      "inputs": [
        {
          "indexed": true,
          "internalType": "address",
          "name": "from",
          "type": "address"
        },
        {
          "indexed": true,
          "internalType": "uint256",
          "name": "tradeId",
          "type": "uint256"
        },
        {
          "indexed": true,
          "internalType": "address",
          "name": "counterparty",
          "type": "address"
        },
        {
          "components": [
            {
              "internalType": "address",
              "name": "_address",
              "type": "address"
            },
            {
              "internalType": "uint256",
              "name": "id",
              "type": "uint256"
            },
            {
              "internalType": "uint256",
              "name": "amount",
              "type": "uint256"
            },
            {
              "internalType": "enum Structs.AssetType",
              "name": "assetType",
              "type": "uint8"
            }
          ],
          "indexed": false,
          "internalType": "struct Structs.Asset[]",
          "name": "partyAssets",
          "type": "tuple[]"
        },
        {
          "components": [
            {
              "internalType": "address",
              "name": "_address",
              "type": "address"
            },
            {
              "internalType": "uint256",
              "name": "id",
              "type": "uint256"
            },
            {
              "internalType": "uint256",
              "name": "amount",
              "type": "uint256"
            },
            {
              "internalType": "enum Structs.AssetType",
              "name": "assetType",
              "type": "uint8"
            }
          ],
          "indexed": false,
          "internalType": "struct Structs.Asset[]",
          "name": "counterpartyAssets",
          "type": "tuple[]"
        }
      ],
      "name": "TradeCreated",
      "type": "event"
    },
    {
      "anonymous": false,
      "inputs": [
        {
          "indexed": true,
          "internalType": "address",
          "name": "from",
          "type": "address"
        },
        {
          "indexed": true,
          "internalType": "uint256",
          "name": "tradeId",
          "type": "uint256"
        }
      ],
      "name": "TradeRejected",
      "type": "event"
    },
    {
      "anonymous": false,
      "inputs": [
        {
          "indexed": true,
          "internalType": "address",
          "name": "from",
          "type": "address"
        },
        {
          "indexed": false,
          "internalType": "address",
          "name": "treasury",
          "type": "address"
        }
      ],
      "name": "TreasuryUpdated",
      "type": "event"
    },
    {
      "anonymous": false,
      "inputs": [
        {
          "indexed": false,
          "internalType": "address",
          "name": "account",
          "type": "address"
        }
      ],
      "name": "Unpaused",
      "type": "event"
    },
    {
      "anonymous": false,
      "inputs": [
        {
          "indexed": true,
          "internalType": "address",
          "name": "implementation",
          "type": "address"
        }
      ],
      "name": "Upgraded",
      "type": "event"
    },
    {
      "inputs": [],
      "name": "ADMIN_ROLE",
      "outputs": [
        {
          "internalType": "bytes32",
          "name": "",
          "type": "bytes32"
        }
      ],
      "stateMutability": "view",
      "type": "function"
    },
    {
      "inputs": [],
      "name": "DEFAULT_ADMIN_ROLE",
      "outputs": [
        {
          "internalType": "bytes32",
          "name": "",
          "type": "bytes32"
        }
      ],
      "stateMutability": "view",
      "type": "function"
    },
    {
      "inputs": [
        {
          "internalType": "uint256",
          "name": "tradeId",
          "type": "uint256"
        }
      ],
      "name": "acceptTrade",
      "outputs": [],
      "stateMutability": "nonpayable",
      "type": "function"
    },
    {
      "inputs": [
        {
          "internalType": "uint256",
          "name": "tradeId",
          "type": "uint256"
        }
      ],
      "name": "cancelTrade",
      "outputs": [],
      "stateMutability": "nonpayable",
      "type": "function"
    },
    {
      "inputs": [
        {
          "internalType": "address",
          "name": "counterparty",
          "type": "address"
        },
        {
          "components": [
            {
              "internalType": "address",
              "name": "_address",
              "type": "address"
            },
            {
              "internalType": "uint256",
              "name": "id",
              "type": "uint256"
            },
            {
              "internalType": "uint256",
              "name": "amount",
              "type": "uint256"
            },
            {
              "internalType": "enum Structs.AssetType",
              "name": "assetType",
              "type": "uint8"
            }
          ],
          "internalType": "struct Structs.Asset[]",
          "name": "partyAssets",
          "type": "tuple[]"
        },
        {
          "components": [
            {
              "internalType": "address",
              "name": "_address",
              "type": "address"
            },
            {
              "internalType": "uint256",
              "name": "id",
              "type": "uint256"
            },
            {
              "internalType": "uint256",
              "name": "amount",
              "type": "uint256"
            },
            {
              "internalType": "enum Structs.AssetType",
              "name": "assetType",
              "type": "uint8"
            }
          ],
          "internalType": "struct Structs.Asset[]",
          "name": "counterpartyAssets",
          "type": "tuple[]"
        }
      ],
      "name": "createTrade",
      "outputs": [],
      "stateMutability": "nonpayable",
      "type": "function"
    },
    {
      "inputs": [],
      "name": "feeToken",
      "outputs": [
        {
          "internalType": "address",
          "name": "",
          "type": "address"
        }
      ],
      "stateMutability": "view",
      "type": "function"
    },
    {
      "inputs": [],
      "name": "feeTreasury",
      "outputs": [
        {
          "internalType": "address",
          "name": "",
          "type": "address"
        }
      ],
      "stateMutability": "view",
      "type": "function"
    },
    {
      "inputs": [
        {
          "internalType": "bytes32",
          "name": "role",
          "type": "bytes32"
        }
      ],
      "name": "getRoleAdmin",
      "outputs": [
        {
          "internalType": "bytes32",
          "name": "",
          "type": "bytes32"
        }
      ],
      "stateMutability": "view",
      "type": "function"
    },
    {
      "inputs": [
        {
          "internalType": "bytes32",
          "name": "role",
          "type": "bytes32"
        },
        {
          "internalType": "uint256",
          "name": "index",
          "type": "uint256"
        }
      ],
      "name": "getRoleMember",
      "outputs": [
        {
          "internalType": "address",
          "name": "",
          "type": "address"
        }
      ],
      "stateMutability": "view",
      "type": "function"
    },
    {
      "inputs": [
        {
          "internalType": "bytes32",
          "name": "role",
          "type": "bytes32"
        }
      ],
      "name": "getRoleMemberCount",
      "outputs": [
        {
          "internalType": "uint256",
          "name": "",
          "type": "uint256"
        }
      ],
      "stateMutability": "view",
      "type": "function"
    },
    {
      "inputs": [
        {
          "internalType": "uint256",
          "name": "tradeId",
          "type": "uint256"
        }
      ],
      "name": "getTrade",
      "outputs": [
        {
          "components": [
            {
              "internalType": "enum Structs.Status",
              "name": "status",
              "type": "uint8"
            },
            {
              "internalType": "address",
              "name": "party",
              "type": "address"
            },
            {
              "internalType": "address",
              "name": "counterparty",
              "type": "address"
            },
            {
              "components": [
                {
                  "internalType": "address",
                  "name": "_address",
                  "type": "address"
                },
                {
                  "internalType": "uint256",
                  "name": "id",
                  "type": "uint256"
                },
                {
                  "internalType": "uint256",
                  "name": "amount",
                  "type": "uint256"
                },
                {
                  "internalType": "enum Structs.AssetType",
                  "name": "assetType",
                  "type": "uint8"
                }
              ],
              "internalType": "struct Structs.Asset[]",
              "name": "partyAssets",
              "type": "tuple[]"
            },
            {
              "components": [
                {
                  "internalType": "address",
                  "name": "_address",
                  "type": "address"
                },
                {
                  "internalType": "uint256",
                  "name": "id",
                  "type": "uint256"
                },
                {
                  "internalType": "uint256",
                  "name": "amount",
                  "type": "uint256"
                },
                {
                  "internalType": "enum Structs.AssetType",
                  "name": "assetType",
                  "type": "uint8"
                }
              ],
              "internalType": "struct Structs.Asset[]",
              "name": "counterpartyAssets",
              "type": "tuple[]"
            }
          ],
          "internalType": "struct Structs.Trade",
          "name": "",
          "type": "tuple"
        }
      ],
      "stateMutability": "view",
      "type": "function"
    },
    {
      "inputs": [
        {
          "internalType": "bytes32",
          "name": "role",
          "type": "bytes32"
        },
        {
          "internalType": "address",
          "name": "account",
          "type": "address"
        }
      ],
      "name": "grantRole",
      "outputs": [],
      "stateMutability": "nonpayable",
      "type": "function"
    },
    {
      "inputs": [
        {
          "internalType": "bytes32",
          "name": "role",
          "type": "bytes32"
        },
        {
          "internalType": "address",
          "name": "account",
          "type": "address"
        }
      ],
      "name": "hasRole",
      "outputs": [
        {
          "internalType": "bool",
          "name": "",
          "type": "bool"
        }
      ],
      "stateMutability": "view",
      "type": "function"
    },
    {
      "inputs": [],
      "name": "initialize",
      "outputs": [],
      "stateMutability": "nonpayable",
      "type": "function"
    },
    {
      "inputs": [
        {
          "internalType": "uint256",
          "name": "id",
          "type": "uint256"
        }
      ],
      "name": "isValidTradeId",
      "outputs": [
        {
          "internalType": "bool",
          "name": "",
          "type": "bool"
        }
      ],
      "stateMutability": "view",
      "type": "function"
    },
    {
      "inputs": [],
      "name": "pause",
      "outputs": [],
      "stateMutability": "nonpayable",
      "type": "function"
    },
    {
      "inputs": [],
      "name": "paused",
      "outputs": [
        {
          "internalType": "bool",
          "name": "",
          "type": "bool"
        }
      ],
      "stateMutability": "view",
      "type": "function"
    },
    {
      "inputs": [],
      "name": "proxiableUUID",
      "outputs": [
        {
          "internalType": "bytes32",
          "name": "",
          "type": "bytes32"
        }
      ],
      "stateMutability": "view",
      "type": "function"
    },
    {
      "inputs": [
        {
          "internalType": "bytes32",
          "name": "role",
          "type": "bytes32"
        },
        {
          "internalType": "address",
          "name": "account",
          "type": "address"
        }
      ],
      "name": "renounceRole",
      "outputs": [],
      "stateMutability": "nonpayable",
      "type": "function"
    },
    {
      "inputs": [
        {
          "internalType": "bytes32",
          "name": "role",
          "type": "bytes32"
        },
        {
          "internalType": "address",
          "name": "account",
          "type": "address"
        }
      ],
      "name": "revokeRole",
      "outputs": [],
      "stateMutability": "nonpayable",
      "type": "function"
    },
    {
      "inputs": [
        {
          "internalType": "uint256",
          "name": "fee",
          "type": "uint256"
        }
      ],
      "name": "setFee",
      "outputs": [],
      "stateMutability": "nonpayable",
      "type": "function"
    },
    {
      "inputs": [
        {
          "internalType": "address",
          "name": "token",
          "type": "address"
        }
      ],
      "name": "setFeeToken",
      "outputs": [],
      "stateMutability": "nonpayable",
      "type": "function"
    },
    {
      "inputs": [
        {
          "internalType": "address",
          "name": "treasury",
          "type": "address"
        }
      ],
      "name": "setFeeTreasury",
      "outputs": [],
      "stateMutability": "nonpayable",
      "type": "function"
    },
    {
      "inputs": [
        {
          "internalType": "bytes4",
          "name": "interfaceId",
          "type": "bytes4"
        }
      ],
      "name": "supportsInterface",
      "outputs": [
        {
          "internalType": "bool",
          "name": "",
          "type": "bool"
        }
      ],
      "stateMutability": "view",
      "type": "function"
    },
    {
      "inputs": [],
      "name": "unpause",
      "outputs": [],
      "stateMutability": "nonpayable",
      "type": "function"
    },
    {
      "inputs": [
        {
          "internalType": "address",
          "name": "newImplementation",
          "type": "address"
        }
      ],
      "name": "upgradeTo",
      "outputs": [],
      "stateMutability": "nonpayable",
      "type": "function"
    },
    {
      "inputs": [
        {
          "internalType": "address",
          "name": "newImplementation",
          "type": "address"
        },
        {
          "internalType": "bytes",
          "name": "data",
          "type": "bytes"
        }
      ],
      "name": "upgradeToAndCall",
      "outputs": [],
      "stateMutability": "payable",
      "type": "function"
    },
    {
      "inputs": [],
      "name": "userFee",
      "outputs": [
        {
          "internalType": "uint256",
          "name": "",
          "type": "uint256"
        }
      ],
      "stateMutability": "view",
      "type": "function"
    }
  ],
  "bytecode": "0x60a0604052306080523480156200001557600080fd5b506200002062000026565b620000e7565b600054610100900460ff1615620000935760405162461bcd60e51b815260206004820152602760248201527f496e697469616c697a61626c653a20636f6e747261637420697320696e697469604482015266616c697a696e6760c81b606482015260840160405180910390fd5b60005460ff90811614620000e5576000805460ff191660ff9081179091556040519081527f7f26b83ff96e1f2b6a682f133852f6798a09c465da95921460cefb38474024989060200160405180910390a15b565b60805161350d6200011f60003960008181610cab01528181610d4101528181610e7a01528181610f100152611007015261350d6000f3fe6080604052600436106101b75760003560e01c8063647846a5116100ec5780639c5b6a081161008a578063bfa37e3711610064578063bfa37e37146104f4578063ca15c87314610514578063d547741f14610534578063ecb9fec31461055457600080fd5b80639c5b6a081461049f578063a217fddf146104bf578063b1244b23146104d457600080fd5b80638129fc1c116100c65780638129fc1c1461040f5780638456cb59146104245780639010d07c1461043957806391d148541461045957600080fd5b8063647846a51461039c57806369fe0e2d146103bb57806375b238fc146103db57600080fd5b80633659cfe6116101595780634f1ef286116101335780634f1ef2861461032957806352d1902d1461033c5780635c975abb1461035157806360dc23401461036957600080fd5b80633659cfe6146102de5780633f4ba83a146102fe57806342a1bbd21461031357600080fd5b8063248a9ca311610195578063248a9ca3146102335780632db25e05146102715780632f2ff15d1461029e57806336568abe146102be57600080fd5b806301ffc9a7146101bc57806309ec6cc7146101f157806315cce22414610213575b600080fd5b3480156101c857600080fd5b506101dc6101d7366004612deb565b610574565b60405190151581526020015b60405180910390f35b3480156101fd57600080fd5b5061021161020c366004612e2d565b610585565b005b34801561021f57600080fd5b5061021161022e366004612e5b565b610994565b34801561023f57600080fd5b5061026361024e366004612e2d565b60009081526097602052604090206001015490565b6040519081526020016101e8565b34801561027d57600080fd5b5061029161028c366004612e2d565b6109a8565b6040516101e89190612f12565b3480156102aa57600080fd5b506102116102b9366004612f93565b610bea565b3480156102ca57600080fd5b506102116102d9366004612f93565b610c14565b3480156102ea57600080fd5b506102116102f9366004612e5b565b610ca1565b34801561030a57600080fd5b50610211610e3e565b34801561031f57600080fd5b5061012f54610263565b610211610337366004612fd9565b610e70565b34801561034857600080fd5b50610263610ffa565b34801561035d57600080fd5b5060fb5460ff166101dc565b34801561037557600080fd5b5061012d546001600160a01b03165b6040516001600160a01b0390911681526020016101e8565b3480156103a857600080fd5b5061012e546001600160a01b0316610384565b3480156103c757600080fd5b506102116103d6366004612e2d565b6110bf565b3480156103e757600080fd5b506102637fa49807205ce4d355092ef5a8a18f56e8913cf4a201fbe287825b095693c2177581565b34801561041b57600080fd5b506102116110d3565b34801561043057600080fd5b5061021161123f565b34801561044557600080fd5b5061038461045436600461309d565b611271565b34801561046557600080fd5b506101dc610474366004612f93565b60009182526097602090815260408084206001600160a01b0393909316845291905290205460ff1690565b3480156104ab57600080fd5b506102116104ba36600461310b565b611290565b3480156104cb57600080fd5b50610263600081565b3480156104e057600080fd5b506101dc6104ef366004612e2d565b611531565b34801561050057600080fd5b5061021161050f366004612e5b565b611546565b34801561052057600080fd5b5061026361052f366004612e2d565b61155a565b34801561054057600080fd5b5061021161054f366004612f93565b611571565b34801561056057600080fd5b5061021161056f366004612e2d565b611596565b600061057f8261178b565b92915050565b61012f54156107f35761012e5461012f546001600160a01b03909116906323b872dd90309033906105b8906004906131a4565b6105c39060036131c6565b6040517fffffffff0000000000000000000000000000000000000000000000000000000060e086901b1681526001600160a01b03938416600482015292909116602483015260448201526064016020604051808303816000875af115801561062f573d6000803e3d6000fd5b505050506040513d601f19601f8201168201806040525081019061065391906131dd565b5061012d546001600160a01b03161561079b5761012e5461012d5461012f546001600160a01b03928316926323b872dd923092911690610695906004906131a4565b6106a09060036131c6565b61012f546106ae91906131ff565b6040517fffffffff0000000000000000000000000000000000000000000000000000000060e086901b1681526001600160a01b03938416600482015292909116602483015260448201526064016020604051808303816000875af115801561071a573d6000803e3d6000fd5b505050506040513d601f19601f8201168201806040525081019061073e91906131dd565b507f059d45db317199d98730cfff4074706af9cebb161f0a797e4a3905b300f31301600461012f5461077091906131a4565b61077b9060036131c6565b61012f5461078991906131ff565b60405190815260200160405180910390a15b336001600160a01b03167f3437b9ea7fa19c6d233dd70cc787a70fab87cee64d8ba4571512cc84402748f9600461012f546107d691906131a4565b6107e19060036131c6565b60405190815260200160405180910390a25b6107fc81611531565b61081957604051639af21d9560e01b815260040160405180910390fd5b60008181526101f56020526040902060018101546001600160a01b031633148015906108545750805461010090046001600160a01b03163314155b1561088b576040517fcb64a0a200000000000000000000000000000000000000000000000000000000815260040160405180910390fd5b6000815460ff1660038111156108a3576108a3612e78565b146108da576040517f09e7070c00000000000000000000000000000000000000000000000000000000815260040160405180910390fd5b805461010090046001600160a01b031633146108f75760026108fa565b60035b8154829060ff1916600183600381111561091657610916612e78565b0217905550805461010090046001600160a01b0316330361096257604051829033907fc036ffe8eab201772430a4259f57e5ed5cd8fc42ecc80be53bb03012d983aea090600090a35050565b604051829033907f5dc62d06bbf63678169b74e8d18b97da8e3b71fad35dbd7da92eb04075c3846a90600090a35b5050565b600061099f816117e1565b610990826117eb565b6040805160a08101825260008082526020820181905291810191909152606080820181905260808201526109db82611531565b6109f857604051639af21d9560e01b815260040160405180910390fd5b60008281526101f5602052604090819020815160a081019092528054829060ff166003811115610a2a57610a2a612e78565b6003811115610a3b57610a3b612e78565b815281546001600160a01b0361010090910481166020808401919091526001840154909116604080840191909152600284018054825181850281018501909352808352606090940193919290919060009084015b82821015610b1f576000848152602090819020604080516080810182526004860290920180546001600160a01b03168352600181015493830193909352600280840154918301919091526003830154919291606084019160ff90911690811115610afb57610afb612e78565b6002811115610b0c57610b0c612e78565b8152505081526020019060010190610a8f565b50505050815260200160038201805480602002602001604051908101604052809291908181526020016000905b82821015610bdc576000848152602090819020604080516080810182526004860290920180546001600160a01b03168352600181015493830193909352600280840154918301919091526003830154919291606084019160ff90911690811115610bb857610bb8612e78565b6002811115610bc957610bc9612e78565b8152505081526020019060010190610b4c565b505050915250909392505050565b600082815260976020526040902060010154610c05816117e1565b610c0f838361185b565b505050565b6001600160a01b0381163314610c975760405162461bcd60e51b815260206004820152602f60248201527f416363657373436f6e74726f6c3a2063616e206f6e6c792072656e6f756e636560448201527f20726f6c657320666f722073656c66000000000000000000000000000000000060648201526084015b60405180910390fd5b610990828261187d565b6001600160a01b037f0000000000000000000000000000000000000000000000000000000000000000163003610d3f5760405162461bcd60e51b815260206004820152602c60248201527f46756e6374696f6e206d7573742062652063616c6c6564207468726f7567682060448201527f64656c656761746563616c6c00000000000000000000000000000000000000006064820152608401610c8e565b7f00000000000000000000000000000000000000000000000000000000000000006001600160a01b0316610d9a7f360894a13ba1a3210667c828492db98dca3e2076cc3735a920a3ca505d382bbc546001600160a01b031690565b6001600160a01b031614610e165760405162461bcd60e51b815260206004820152602c60248201527f46756e6374696f6e206d7573742062652063616c6c6564207468726f7567682060448201527f6163746976652070726f787900000000000000000000000000000000000000006064820152608401610c8e565b610e1f8161189f565b60408051600080825260208201909252610e3b918391906118aa565b50565b7fa49807205ce4d355092ef5a8a18f56e8913cf4a201fbe287825b095693c21775610e68816117e1565b610e3b611a4a565b6001600160a01b037f0000000000000000000000000000000000000000000000000000000000000000163003610f0e5760405162461bcd60e51b815260206004820152602c60248201527f46756e6374696f6e206d7573742062652063616c6c6564207468726f7567682060448201527f64656c656761746563616c6c00000000000000000000000000000000000000006064820152608401610c8e565b7f00000000000000000000000000000000000000000000000000000000000000006001600160a01b0316610f697f360894a13ba1a3210667c828492db98dca3e2076cc3735a920a3ca505d382bbc546001600160a01b031690565b6001600160a01b031614610fe55760405162461bcd60e51b815260206004820152602c60248201527f46756e6374696f6e206d7573742062652063616c6c6564207468726f7567682060448201527f6163746976652070726f787900000000000000000000000000000000000000006064820152608401610c8e565b610fee8261189f565b610990828260016118aa565b6000306001600160a01b037f0000000000000000000000000000000000000000000000000000000000000000161461109a5760405162461bcd60e51b815260206004820152603860248201527f555550535570677261646561626c653a206d757374206e6f742062652063616c60448201527f6c6564207468726f7567682064656c656761746563616c6c00000000000000006064820152608401610c8e565b507f360894a13ba1a3210667c828492db98dca3e2076cc3735a920a3ca505d382bbc90565b60006110ca816117e1565b61099082611a9c565b600054610100900460ff16158080156110f35750600054600160ff909116105b8061110d5750303b15801561110d575060005460ff166001145b61117f5760405162461bcd60e51b815260206004820152602e60248201527f496e697469616c697a61626c653a20636f6e747261637420697320616c72656160448201527f647920696e697469616c697a65640000000000000000000000000000000000006064820152608401610c8e565b6000805460ff1916600117905580156111a2576000805461ff0019166101001790555b6111aa611ae8565b6111b2611b5d565b6111ba611bc8565b6111c2611b5d565b6111cd60003361185b565b6111f77fa49807205ce4d355092ef5a8a18f56e8913cf4a201fbe287825b095693c217753361185b565b8015610e3b576000805461ff0019169055604051600181527f7f26b83ff96e1f2b6a682f133852f6798a09c465da95921460cefb38474024989060200160405180910390a150565b7fa49807205ce4d355092ef5a8a18f56e8913cf4a201fbe287825b095693c21775611269816117e1565b610e3b611c3b565b600082815260c9602052604081206112899083611c78565b9392505050565b61012f54156113555761012e5461012f546040516323b872dd60e01b815233600482015230602482015260448101919091526001600160a01b03909116906323b872dd906064016020604051808303816000875af11580156112f6573d6000803e3d6000fd5b505050506040513d601f19601f8201168201806040525081019061131a91906131dd565b5061012f5460405190815233907f075a2720282fdf622141dae0b048ef90a21a7e57c134c76912d19d006b3b3f6f9060200160405180910390a25b600061135f611c84565b60008181526101f56020526040902080547fffffffffffffffffffffff0000000000000000000000000000000000000000ff1633610100021781559091506001600160a01b0387166113dd576040517f4f1332db00000000000000000000000000000000000000000000000000000000815260040160405180910390fd5b60018101805473ffffffffffffffffffffffffffffffffffffffff19166001600160a01b0389161790558460005b8181101561146c578260020188888381811061142957611429613212565b8354600181018555600094855260209094206080909102929092019260040290910190506114578282613235565b50508080611464906132b2565b91505061140b565b5083905060005b818110156114d4578260030186868381811061149157611491613212565b8354600181018555600094855260209094206080909102929092019260040290910190506114bf8282613235565b505080806114cc906132b2565b915050611473565b50876001600160a01b031683336001600160a01b03167f9b54f614296fc183a3ebcc288f174fdca7d0bd7fbd804df3424096421c7f497b8a8a8a8a60405161151f949392919061333c565b60405180910390a45050505050505050565b600061153d61015f5490565b90911115919050565b6000611551816117e1565b61099082611c9d565b600081815260c96020526040812061057f90611cfb565b60008281526097602052604090206001015461158c816117e1565b610c0f838361187d565b61012f54158015906115b3575061012d546001600160a01b031615155b1561167c5761012e5461012d5461012f546040516323b872dd60e01b81523060048201526001600160a01b03928316602482015260448101919091529116906323b872dd906064016020604051808303816000875af115801561161a573d6000803e3d6000fd5b505050506040513d601f19601f8201168201806040525081019061163e91906131dd565b507f059d45db317199d98730cfff4074706af9cebb161f0a797e4a3905b300f3130161012f5460405161167391815260200190565b60405180910390a15b61168581611531565b6116a257604051639af21d9560e01b815260040160405180910390fd5b60008181526101f56020526040902060018101546001600160a01b031633146116f7576040517fcb64a0a200000000000000000000000000000000000000000000000000000000815260040160405180910390fd5b6000815460ff16600381111561170f5761170f612e78565b14611746576040517f09e7070c00000000000000000000000000000000000000000000000000000000815260040160405180910390fd5b805460ff1916600117815561175a81611d05565b604051829033907f5f6b7be9b0a870b23b27477836abafd0650ac576e5d6e6976232d803c3b1005f90600090a35050565b60007fffffffff0000000000000000000000000000000000000000000000000000000082167f5a05180f00000000000000000000000000000000000000000000000000000000148061057f575061057f82611d54565b610e3b8133611deb565b61012e805473ffffffffffffffffffffffffffffffffffffffff19166001600160a01b03831690811790915561012f5460408051928352602083019190915233917fe79c98674461ff4148d44bd2ffe46f5346a33ca14909e65b9aae5e58639454a391015b60405180910390a250565b6118658282611e60565b600082815260c960205260409020610c0f9082611f02565b6118878282611f17565b600082815260c960205260409020610c0f9082611f9a565b6000610990816117e1565b7f4910fdfa16fed3260ed0e7147f7cc6da11a60208b5b9406d12a635614ffd91435460ff16156118dd57610c0f83611faf565b826001600160a01b03166352d1902d6040518163ffffffff1660e01b8152600401602060405180830381865afa925050508015611937575060408051601f3d908101601f1916820190925261193491810190613363565b60015b6119a95760405162461bcd60e51b815260206004820152602e60248201527f45524331393637557067726164653a206e657720696d706c656d656e7461746960448201527f6f6e206973206e6f7420555550530000000000000000000000000000000000006064820152608401610c8e565b7f360894a13ba1a3210667c828492db98dca3e2076cc3735a920a3ca505d382bbc8114611a3e5760405162461bcd60e51b815260206004820152602960248201527f45524331393637557067726164653a20756e737570706f727465642070726f7860448201527f6961626c655555494400000000000000000000000000000000000000000000006064820152608401610c8e565b50610c0f83838361207a565b611a526120a5565b60fb805460ff191690557f5db9ee0a495bf2e6ff9c91a7834c1ba4fdd244a5e8aa4e537bd38aeae4b073aa335b6040516001600160a01b03909116815260200160405180910390a1565b61012f81905561012d54604080516001600160a01b0390921682526020820183905233917fe79c98674461ff4148d44bd2ffe46f5346a33ca14909e65b9aae5e58639454a39101611850565b600054610100900460ff16611b535760405162461bcd60e51b815260206004820152602b60248201527f496e697469616c697a61626c653a20636f6e7472616374206973206e6f74206960448201526a6e697469616c697a696e6760a81b6064820152608401610c8e565b611b5b6120f7565b565b600054610100900460ff16611b5b5760405162461bcd60e51b815260206004820152602b60248201527f496e697469616c697a61626c653a20636f6e7472616374206973206e6f74206960448201526a6e697469616c697a696e6760a81b6064820152608401610c8e565b600054610100900460ff16611c335760405162461bcd60e51b815260206004820152602b60248201527f496e697469616c697a61626c653a20636f6e7472616374206973206e6f74206960448201526a6e697469616c697a696e6760a81b6064820152608401610c8e565b611b5b612168565b611c436121df565b60fb805460ff191660011790557f62e78cea01bee320cd4e420270b5ea74000d11b0c9f74754ebdbfc544b05a258611a7f3390565b60006112898383612232565b6000611c9561015f80546001019055565b5061015f5490565b61012d805473ffffffffffffffffffffffffffffffffffffffff19166001600160a01b03831690811790915560405190815233907f4ab5be82436d353e61ca18726e984e561f5c1cc7c6d38b29d2553c790434705a90602001611850565b600061057f825490565b80546001820154611d2c9160028401916001600160a01b036101009092048216911661225c565b60018101548154610e3b9160038401916001600160a01b03918216916101009091041661225c565b60007fffffffff0000000000000000000000000000000000000000000000000000000082167f7965db0b00000000000000000000000000000000000000000000000000000000148061057f57507f01ffc9a7000000000000000000000000000000000000000000000000000000007fffffffff0000000000000000000000000000000000000000000000000000000083161461057f565b60008281526097602090815260408083206001600160a01b038516845290915290205460ff1661099057611e1e816122ac565b611e298360206122be565b604051602001611e3a9291906133a0565b60408051601f198184030181529082905262461bcd60e51b8252610c8e91600401613421565b60008281526097602090815260408083206001600160a01b038516845290915290205460ff166109905760008281526097602090815260408083206001600160a01b03851684529091529020805460ff19166001179055611ebe3390565b6001600160a01b0316816001600160a01b0316837f2f8788117e7eff1d82e926ec794901d17c78024a50270940304540a733656f0d60405160405180910390a45050565b6000611289836001600160a01b0384166124e7565b60008281526097602090815260408083206001600160a01b038516845290915290205460ff16156109905760008281526097602090815260408083206001600160a01b0385168085529252808320805460ff1916905551339285917ff6391f5c32d9c69d2a47ea670b442974b53935d1edc7fd64eb21e047a839171b9190a45050565b6000611289836001600160a01b038416612536565b6001600160a01b0381163b61202c5760405162461bcd60e51b815260206004820152602d60248201527f455243313936373a206e657720696d706c656d656e746174696f6e206973206e60448201527f6f74206120636f6e7472616374000000000000000000000000000000000000006064820152608401610c8e565b7f360894a13ba1a3210667c828492db98dca3e2076cc3735a920a3ca505d382bbc805473ffffffffffffffffffffffffffffffffffffffff19166001600160a01b0392909216919091179055565b61208383612629565b6000825111806120905750805b15610c0f5761209f8383612669565b50505050565b60fb5460ff16611b5b5760405162461bcd60e51b815260206004820152601460248201527f5061757361626c653a206e6f74207061757365640000000000000000000000006044820152606401610c8e565b600054610100900460ff166121625760405162461bcd60e51b815260206004820152602b60248201527f496e697469616c697a61626c653a20636f6e7472616374206973206e6f74206960448201526a6e697469616c697a696e6760a81b6064820152608401610c8e565b60018055565b600054610100900460ff166121d35760405162461bcd60e51b815260206004820152602b60248201527f496e697469616c697a61626c653a20636f6e7472616374206973206e6f74206960448201526a6e697469616c697a696e6760a81b6064820152608401610c8e565b60fb805460ff19169055565b60fb5460ff1615611b5b5760405162461bcd60e51b815260206004820152601060248201527f5061757361626c653a20706175736564000000000000000000000000000000006044820152606401610c8e565b600082600001828154811061224957612249613212565b9060005260206000200154905092915050565b825460005b818110156122a55761229385828154811061227e5761227e613212565b9060005260206000209060040201858561268e565b8061229d816132b2565b915050612261565b5050505050565b606061057f6001600160a01b03831660145b606060006122cd8360026131c6565b6122d8906002613454565b67ffffffffffffffff8111156122f0576122f0612fc3565b6040519080825280601f01601f19166020018201604052801561231a576020820181803683370190505b5090507f30000000000000000000000000000000000000000000000000000000000000008160008151811061235157612351613212565b60200101907effffffffffffffffffffffffffffffffffffffffffffffffffffffffffffff1916908160001a9053507f7800000000000000000000000000000000000000000000000000000000000000816001815181106123b4576123b4613212565b60200101907effffffffffffffffffffffffffffffffffffffffffffffffffffffffffffff1916908160001a90535060006123f08460026131c6565b6123fb906001613454565b90505b6001811115612498577f303132333435363738396162636465660000000000000000000000000000000085600f166010811061243c5761243c613212565b1a60f81b82828151811061245257612452613212565b60200101907effffffffffffffffffffffffffffffffffffffffffffffffffffffffffffff1916908160001a90535060049490941c9361249181613467565b90506123fe565b5083156112895760405162461bcd60e51b815260206004820181905260248201527f537472696e67733a20686578206c656e67746820696e73756666696369656e746044820152606401610c8e565b600081815260018301602052604081205461252e5750815460018181018455600084815260208082209093018490558454848252828601909352604090209190915561057f565b50600061057f565b6000818152600183016020526040812054801561261f57600061255a6001836131ff565b855490915060009061256e906001906131ff565b90508181146125d357600086600001828154811061258e5761258e613212565b90600052602060002001549050808760000184815481106125b1576125b1613212565b6000918252602080832090910192909255918252600188019052604090208390555b85548690806125e4576125e461347e565b60019003818190600052602060002001600090559055856001016000868152602001908152602001600020600090556001935050505061057f565b600091505061057f565b61263281611faf565b6040516001600160a01b038216907fbc7cd75a20ee27fd9adebab32041f755214dbc6bffa90cc0225b39da2e5c2d3b90600090a250565b606061128983836040518060600160405280602781526020016134b160279139612741565b6000600384015460ff1660028111156126a9576126a9612e78565b036126b957610c0f8383836127b9565b6002600384015460ff1660028111156126d4576126d4612e78565b036126e457610c0f838383612943565b6001600384015460ff1660028111156126ff576126ff612e78565b0361270f57610c0f8383836129d3565b6040517fb8bcee3f00000000000000000000000000000000000000000000000000000000815260040160405180910390fd5b6060600080856001600160a01b03168560405161275e9190613494565b600060405180830381855af49150503d8060008114612799576040519150601f19603f3d011682016040523d82523d6000602084013e61279e565b606091505b50915091506127af86838387612b64565b9695505050505050565b82546040517f70a082310000000000000000000000000000000000000000000000000000000081526001600160a01b0383811660048301529091169060009082906370a0823190602401602060405180830381865afa158015612820573d6000803e3d6000fd5b505050506040513d601f19601f820116820180604052508101906128449190613363565b905061286a84848760020154856001600160a01b0316612be5909392919063ffffffff16565b6040517f70a082310000000000000000000000000000000000000000000000000000000081526001600160a01b038481166004830152600091908416906370a08231906024015b602060405180830381865afa1580156128ce573d6000803e3d6000fd5b505050506040513d601f19601f820116820180604052508101906128f29190613363565b600287015490915061290483836131ff565b1461293b576040517f525ce88e00000000000000000000000000000000000000000000000000000000815260040160405180910390fd5b505050505050565b825460018401546040517f42842e0e0000000000000000000000000000000000000000000000000000000081526001600160a01b038581166004830152848116602483015260448201929092529116906342842e0e90606401600060405180830381600087803b1580156129b657600080fd5b505af11580156129ca573d6000803e3d6000fd5b50505050505050565b825460018401546040517efdd58e0000000000000000000000000000000000000000000000000000000081526001600160a01b0384811660048301526024820192909252911690600090829062fdd58e90604401602060405180830381865afa158015612a44573d6000803e3d6000fd5b505050506040513d601f19601f82011682018060405250810190612a689190613363565b600186015460028701546040517ff242432a0000000000000000000000000000000000000000000000000000000081526001600160a01b03888116600483015287811660248301526044820193909352606481019190915260a06084820152600060a482015291925083169063f242432a9060c401600060405180830381600087803b158015612af757600080fd5b505af1158015612b0b573d6000803e3d6000fd5b5050505060018501546040517efdd58e0000000000000000000000000000000000000000000000000000000081526001600160a01b038581166004830152602482019290925260009184169062fdd58e906044016128b1565b60608315612bd3578251600003612bcc576001600160a01b0385163b612bcc5760405162461bcd60e51b815260206004820152601d60248201527f416464726573733a2063616c6c20746f206e6f6e2d636f6e74726163740000006044820152606401610c8e565b5081612bdd565b612bdd8383612c54565b949350505050565b604080516001600160a01b0385811660248301528416604482015260648082018490528251808303909101815260849091019091526020810180517bffffffffffffffffffffffffffffffffffffffffffffffffffffffff166323b872dd60e01b17905261209f908590612c7e565b815115612c645781518083602001fd5b8060405162461bcd60e51b8152600401610c8e9190613421565b6000612cd3826040518060400160405280602081526020017f5361666545524332303a206c6f772d6c6576656c2063616c6c206661696c6564815250856001600160a01b0316612d669092919063ffffffff16565b9050805160001480612cf4575080806020019051810190612cf491906131dd565b610c0f5760405162461bcd60e51b815260206004820152602a60248201527f5361666545524332303a204552433230206f7065726174696f6e20646964206e60448201527f6f742073756363656564000000000000000000000000000000000000000000006064820152608401610c8e565b6060612bdd848460008585600080866001600160a01b03168587604051612d8d9190613494565b60006040518083038185875af1925050503d8060008114612dca576040519150601f19603f3d011682016040523d82523d6000602084013e612dcf565b606091505b5091509150612de087838387612b64565b979650505050505050565b600060208284031215612dfd57600080fd5b81357fffffffff000000000000000000000000000000000000000000000000000000008116811461128957600080fd5b600060208284031215612e3f57600080fd5b5035919050565b6001600160a01b0381168114610e3b57600080fd5b600060208284031215612e6d57600080fd5b813561128981612e46565b634e487b7160e01b600052602160045260246000fd5b60038110612e9e57612e9e612e78565b9052565b600081518084526020808501945080840160005b83811015612f0757815180516001600160a01b0316885283810151848901526040808201519089015260609081015190612ef2818a0183612e8e565b50506080969096019590820190600101612eb6565b509495945050505050565b602081526000825160048110612f2a57612f2a612e78565b8060208401525060208301516001600160a01b0380821660408501528060408601511660608501525050606083015160a06080840152612f6d60c0840182612ea2565b90506080840151601f198483030160a0850152612f8a8282612ea2565b95945050505050565b60008060408385031215612fa657600080fd5b823591506020830135612fb881612e46565b809150509250929050565b634e487b7160e01b600052604160045260246000fd5b60008060408385031215612fec57600080fd5b8235612ff781612e46565b9150602083013567ffffffffffffffff8082111561301457600080fd5b818501915085601f83011261302857600080fd5b81358181111561303a5761303a612fc3565b604051601f8201601f19908116603f0116810190838211818310171561306257613062612fc3565b8160405282815288602084870101111561307b57600080fd5b8260208601602083013760006020848301015280955050505050509250929050565b600080604083850312156130b057600080fd5b50508035926020909101359150565b60008083601f8401126130d157600080fd5b50813567ffffffffffffffff8111156130e957600080fd5b6020830191508360208260071b850101111561310457600080fd5b9250929050565b60008060008060006060868803121561312357600080fd5b853561312e81612e46565b9450602086013567ffffffffffffffff8082111561314b57600080fd5b61315789838a016130bf565b9096509450604088013591508082111561317057600080fd5b5061317d888289016130bf565b969995985093965092949392505050565b634e487b7160e01b600052601160045260246000fd5b6000826131c157634e487b7160e01b600052601260045260246000fd5b500490565b808202811582820484141761057f5761057f61318e565b6000602082840312156131ef57600080fd5b8151801515811461128957600080fd5b8181038181111561057f5761057f61318e565b634e487b7160e01b600052603260045260246000fd5b60038110610e3b57600080fd5b813561324081612e46565b6001600160a01b03811673ffffffffffffffffffffffffffffffffffffffff1983541617825550602082013560018201556040820135600282015560038101606083013561328d81613228565b6003811061329d5761329d612e78565b60ff1982541660ff8216811783555050505050565b600060001982036132c5576132c561318e565b5060010190565b8183526000602080850194508260005b85811015612f075781356132ef81612e46565b6001600160a01b0316875281830135838801526040808301359088015260608083013561331b81613228565b613327828a0182612e8e565b505060809687019691909101906001016132dc565b6040815260006133506040830186886132cc565b8281036020840152612de08185876132cc565b60006020828403121561337557600080fd5b5051919050565b60005b8381101561339757818101518382015260200161337f565b50506000910152565b7f416363657373436f6e74726f6c3a206163636f756e74200000000000000000008152600083516133d881601785016020880161337c565b7f206973206d697373696e6720726f6c6520000000000000000000000000000000601791840191820152835161341581602884016020880161337c565b01602801949350505050565b602081526000825180602084015261344081604085016020870161337c565b601f01601f19169190910160400192915050565b8082018082111561057f5761057f61318e565b6000816134765761347661318e565b506000190190565b634e487b7160e01b600052603160045260246000fd5b600082516134a681846020870161337c565b919091019291505056fe416464726573733a206c6f772d6c6576656c2064656c65676174652063616c6c206661696c6564a26469706673582212207e40c88a46ecddd43f247fa26ead058b6fa8e2759c0ded349098cd0dd2bc9ce364736f6c63430008130033",
  "linkReferences": {},
  "deployedLinkReferences": {}
}