{
  "_format": "hh-sol-artifact-1",
  "contractName": "Tradescrow",
  "sourceName": "contracts/Tradescrow/Tradescrow.sol",
  "abi": [
    {
      "inputs": [],
      "stateMutability": "nonpayable",
      "type": "constructor"
    },
    {
      "inputs": [],
      "name": "InvalidCounterparty",
      "type": "error"
    },
    {
      "inputs": [],
      "name": "InvalidTradeId",
      "type": "error"
    },
    {
      "inputs": [],
      "name": "NotTradeParticipant",
      "type": "error"
    },
    {
      "inputs": [],
      "name": "TaxedAssetUnsupported",
      "type": "error"
    },
    {
      "inputs": [],
      "name": "TradeClosed",
      "type": "error"
    },
    {
      "inputs": [],
      "name": "UnknownAssetType",
      "type": "error"
    },
    {
      "anonymous": false,
      "inputs": [
        {
          "indexed": false,
          "internalType": "address",
          "name": "previousAdmin",
          "type": "address"
        },
        {
          "indexed": false,
          "internalType": "address",
          "name": "newAdmin",
          "type": "address"
        }
      ],
      "name": "AdminChanged",
      "type": "event"
    },
    {
      "anonymous": false,
      "inputs": [
        {
          "indexed": true,
          "internalType": "address",
          "name": "beacon",
          "type": "address"
        }
      ],
      "name": "BeaconUpgraded",
      "type": "event"
    },
    {
      "anonymous": false,
      "inputs": [
        {
          "indexed": true,
          "internalType": "address",
          "name": "from",
          "type": "address"
        },
        {
          "indexed": false,
          "internalType": "uint256",
          "name": "amount",
          "type": "uint256"
        }
      ],
      "name": "FeePaid",
      "type": "event"
    },
    {
      "anonymous": false,
      "inputs": [
        {
          "indexed": true,
          "internalType": "address",
          "name": "from",
          "type": "address"
        },
        {
          "indexed": false,
          "internalType": "uint256",
          "name": "amount",
          "type": "uint256"
        }
      ],
      "name": "FeeRefunded",
      "type": "event"
    },
    {
      "anonymous": false,
      "inputs": [
        {
          "indexed": false,
          "internalType": "uint256",
          "name": "amount",
          "type": "uint256"
        }
      ],
      "name": "FeeReleased",
      "type": "event"
    },
    {
      "anonymous": false,
      "inputs": [
        {
          "indexed": true,
          "internalType": "address",
          "name": "from",
          "type": "address"
        },
        {
          "indexed": false,
          "internalType": "address",
          "name": "token",
          "type": "address"
        },
        {
          "indexed": false,
          "internalType": "uint256",
          "name": "fee",
          "type": "uint256"
        }
      ],
      "name": "FeeUpdated",
      "type": "event"
    },
    {
      "anonymous": false,
      "inputs": [
        {
          "indexed": false,
          "internalType": "uint8",
          "name": "version",
          "type": "uint8"
        }
      ],
      "name": "Initialized",
      "type": "event"
    },
    {
      "anonymous": false,
      "inputs": [
        {
          "indexed": false,
          "internalType": "address",
          "name": "account",
          "type": "address"
        }
      ],
      "name": "Paused",
      "type": "event"
    },
    {
      "anonymous": false,
      "inputs": [
        {
          "indexed": true,
          "internalType": "bytes32",
          "name": "role",
          "type": "bytes32"
        },
        {
          "indexed": true,
          "internalType": "bytes32",
          "name": "previousAdminRole",
          "type": "bytes32"
        },
        {
          "indexed": true,
          "internalType": "bytes32",
          "name": "newAdminRole",
          "type": "bytes32"
        }
      ],
      "name": "RoleAdminChanged",
      "type": "event"
    },
    {
      "anonymous": false,
      "inputs": [
        {
          "indexed": true,
          "internalType": "bytes32",
          "name": "role",
          "type": "bytes32"
        },
        {
          "indexed": true,
          "internalType": "address",
          "name": "account",
          "type": "address"
        },
        {
          "indexed": true,
          "internalType": "address",
          "name": "sender",
          "type": "address"
        }
      ],
      "name": "RoleGranted",
      "type": "event"
    },
    {
      "anonymous": false,
      "inputs": [
        {
          "indexed": true,
          "internalType": "bytes32",
          "name": "role",
          "type": "bytes32"
        },
        {
          "indexed": true,
          "internalType": "address",
          "name": "account",
          "type": "address"
        },
        {
          "indexed": true,
          "internalType": "address",
          "name": "sender",
          "type": "address"
        }
      ],
      "name": "RoleRevoked",
      "type": "event"
    },
    {
      "anonymous": false,
      "inputs": [
        {
          "indexed": true,
          "internalType": "address",
          "name": "from",
          "type": "address"
        },
        {
          "indexed": true,
          "internalType": "uint256",
          "name": "tradeId",
          "type": "uint256"
        }
      ],
      "name": "TradeAccepted",
      "type": "event"
    },
    {
      "anonymous": false,
      "inputs": [
        {
          "indexed": true,
          "internalType": "address",
          "name": "from",
          "type": "address"
        },
        {
          "indexed": true,
          "internalType": "uint256",
          "name": "tradeId",
          "type": "uint256"
        }
      ],
      "name": "TradeCanceled",
      "type": "event"
    },
    {
      "anonymous": false,
      "inputs": [
        {
          "indexed": true,
          "internalType": "address",
          "name": "from",
          "type": "address"
        },
        {
          "indexed": true,
          "internalType": "uint256",
          "name": "tradeId",
          "type": "uint256"
        },
        {
          "indexed": true,
          "internalType": "address",
          "name": "counterparty",
          "type": "address"
        },
        {
          "components": [
            {
              "internalType": "address",
              "name": "_address",
              "type": "address"
            },
            {
              "internalType": "uint256",
              "name": "id",
              "type": "uint256"
            },
            {
              "internalType": "uint256",
              "name": "amount",
              "type": "uint256"
            },
            {
              "internalType": "enum Structs.AssetType",
              "name": "assetType",
              "type": "uint8"
            }
          ],
          "indexed": false,
          "internalType": "struct Structs.Asset[]",
          "name": "partyAssets",
          "type": "tuple[]"
        },
        {
          "components": [
            {
              "internalType": "address",
              "name": "_address",
              "type": "address"
            },
            {
              "internalType": "uint256",
              "name": "id",
              "type": "uint256"
            },
            {
              "internalType": "uint256",
              "name": "amount",
              "type": "uint256"
            },
            {
              "internalType": "enum Structs.AssetType",
              "name": "assetType",
              "type": "uint8"
            }
          ],
          "indexed": false,
          "internalType": "struct Structs.Asset[]",
          "name": "counterpartyAssets",
          "type": "tuple[]"
        }
      ],
      "name": "TradeCreated",
      "type": "event"
    },
    {
      "anonymous": false,
      "inputs": [
        {
          "indexed": true,
          "internalType": "address",
          "name": "from",
          "type": "address"
        },
        {
          "indexed": true,
          "internalType": "uint256",
          "name": "tradeId",
          "type": "uint256"
        }
      ],
      "name": "TradeRejected",
      "type": "event"
    },
    {
      "anonymous": false,
      "inputs": [
        {
          "indexed": true,
          "internalType": "address",
          "name": "from",
          "type": "address"
        },
        {
          "indexed": false,
          "internalType": "address",
          "name": "treasury",
          "type": "address"
        }
      ],
      "name": "TreasuryUpdated",
      "type": "event"
    },
    {
      "anonymous": false,
      "inputs": [
        {
          "indexed": false,
          "internalType": "address",
          "name": "account",
          "type": "address"
        }
      ],
      "name": "Unpaused",
      "type": "event"
    },
    {
      "anonymous": false,
      "inputs": [
        {
          "indexed": true,
          "internalType": "address",
          "name": "implementation",
          "type": "address"
        }
      ],
      "name": "Upgraded",
      "type": "event"
    },
    {
      "inputs": [],
      "name": "ADMIN_ROLE",
      "outputs": [
        {
          "internalType": "bytes32",
          "name": "",
          "type": "bytes32"
        }
      ],
      "stateMutability": "view",
      "type": "function"
    },
    {
      "inputs": [],
      "name": "DEFAULT_ADMIN_ROLE",
      "outputs": [
        {
          "internalType": "bytes32",
          "name": "",
          "type": "bytes32"
        }
      ],
      "stateMutability": "view",
      "type": "function"
    },
    {
      "inputs": [
        {
          "internalType": "uint256",
          "name": "tradeId",
          "type": "uint256"
        }
      ],
      "name": "acceptTrade",
      "outputs": [],
      "stateMutability": "nonpayable",
      "type": "function"
    },
    {
      "inputs": [
        {
          "internalType": "uint256",
          "name": "tradeId",
          "type": "uint256"
        }
      ],
      "name": "cancelTrade",
      "outputs": [],
      "stateMutability": "nonpayable",
      "type": "function"
    },
    {
      "inputs": [
        {
          "internalType": "address",
          "name": "counterparty",
          "type": "address"
        },
        {
          "components": [
            {
              "internalType": "address",
              "name": "_address",
              "type": "address"
            },
            {
              "internalType": "uint256",
              "name": "id",
              "type": "uint256"
            },
            {
              "internalType": "uint256",
              "name": "amount",
              "type": "uint256"
            },
            {
              "internalType": "enum Structs.AssetType",
              "name": "assetType",
              "type": "uint8"
            }
          ],
          "internalType": "struct Structs.Asset[]",
          "name": "partyAssets",
          "type": "tuple[]"
        },
        {
          "components": [
            {
              "internalType": "address",
              "name": "_address",
              "type": "address"
            },
            {
              "internalType": "uint256",
              "name": "id",
              "type": "uint256"
            },
            {
              "internalType": "uint256",
              "name": "amount",
              "type": "uint256"
            },
            {
              "internalType": "enum Structs.AssetType",
              "name": "assetType",
              "type": "uint8"
            }
          ],
          "internalType": "struct Structs.Asset[]",
          "name": "counterpartyAssets",
          "type": "tuple[]"
        }
      ],
      "name": "createTrade",
      "outputs": [],
      "stateMutability": "nonpayable",
      "type": "function"
    },
    {
      "inputs": [],
      "name": "feeToken",
      "outputs": [
        {
          "internalType": "address",
          "name": "",
          "type": "address"
        }
      ],
      "stateMutability": "view",
      "type": "function"
    },
    {
      "inputs": [],
      "name": "feeTreasury",
      "outputs": [
        {
          "internalType": "address",
          "name": "",
          "type": "address"
        }
      ],
      "stateMutability": "view",
      "type": "function"
    },
    {
      "inputs": [
        {
          "internalType": "bytes32",
          "name": "role",
          "type": "bytes32"
        }
      ],
      "name": "getRoleAdmin",
      "outputs": [
        {
          "internalType": "bytes32",
          "name": "",
          "type": "bytes32"
        }
      ],
      "stateMutability": "view",
      "type": "function"
    },
    {
      "inputs": [
        {
          "internalType": "bytes32",
          "name": "role",
          "type": "bytes32"
        },
        {
          "internalType": "uint256",
          "name": "index",
          "type": "uint256"
        }
      ],
      "name": "getRoleMember",
      "outputs": [
        {
          "internalType": "address",
          "name": "",
          "type": "address"
        }
      ],
      "stateMutability": "view",
      "type": "function"
    },
    {
      "inputs": [
        {
          "internalType": "bytes32",
          "name": "role",
          "type": "bytes32"
        }
      ],
      "name": "getRoleMemberCount",
      "outputs": [
        {
          "internalType": "uint256",
          "name": "",
          "type": "uint256"
        }
      ],
      "stateMutability": "view",
      "type": "function"
    },
    {
      "inputs": [
        {
          "internalType": "uint256",
          "name": "tradeId",
          "type": "uint256"
        }
      ],
      "name": "getTrade",
      "outputs": [
        {
          "components": [
            {
              "internalType": "enum Structs.Status",
              "name": "status",
              "type": "uint8"
            },
            {
              "internalType": "address",
              "name": "party",
              "type": "address"
            },
            {
              "internalType": "address",
              "name": "counterparty",
              "type": "address"
            },
            {
              "components": [
                {
                  "internalType": "address",
                  "name": "_address",
                  "type": "address"
                },
                {
                  "internalType": "uint256",
                  "name": "id",
                  "type": "uint256"
                },
                {
                  "internalType": "uint256",
                  "name": "amount",
                  "type": "uint256"
                },
                {
                  "internalType": "enum Structs.AssetType",
                  "name": "assetType",
                  "type": "uint8"
                }
              ],
              "internalType": "struct Structs.Asset[]",
              "name": "partyAssets",
              "type": "tuple[]"
            },
            {
              "components": [
                {
                  "internalType": "address",
                  "name": "_address",
                  "type": "address"
                },
                {
                  "internalType": "uint256",
                  "name": "id",
                  "type": "uint256"
                },
                {
                  "internalType": "uint256",
                  "name": "amount",
                  "type": "uint256"
                },
                {
                  "internalType": "enum Structs.AssetType",
                  "name": "assetType",
                  "type": "uint8"
                }
              ],
              "internalType": "struct Structs.Asset[]",
              "name": "counterpartyAssets",
              "type": "tuple[]"
            }
          ],
          "internalType": "struct Structs.Trade",
          "name": "",
          "type": "tuple"
        }
      ],
      "stateMutability": "view",
      "type": "function"
    },
    {
      "inputs": [
        {
          "internalType": "bytes32",
          "name": "role",
          "type": "bytes32"
        },
        {
          "internalType": "address",
          "name": "account",
          "type": "address"
        }
      ],
      "name": "grantRole",
      "outputs": [],
      "stateMutability": "nonpayable",
      "type": "function"
    },
    {
      "inputs": [
        {
          "internalType": "bytes32",
          "name": "role",
          "type": "bytes32"
        },
        {
          "internalType": "address",
          "name": "account",
          "type": "address"
        }
      ],
      "name": "hasRole",
      "outputs": [
        {
          "internalType": "bool",
          "name": "",
          "type": "bool"
        }
      ],
      "stateMutability": "view",
      "type": "function"
    },
    {
      "inputs": [],
      "name": "initialize",
      "outputs": [],
      "stateMutability": "nonpayable",
      "type": "function"
    },
    {
      "inputs": [
        {
          "internalType": "uint256",
          "name": "id",
          "type": "uint256"
        }
      ],
      "name": "isValidTradeId",
      "outputs": [
        {
          "internalType": "bool",
          "name": "",
          "type": "bool"
        }
      ],
      "stateMutability": "view",
      "type": "function"
    },
    {
      "inputs": [],
      "name": "pause",
      "outputs": [],
      "stateMutability": "nonpayable",
      "type": "function"
    },
    {
      "inputs": [],
      "name": "paused",
      "outputs": [
        {
          "internalType": "bool",
          "name": "",
          "type": "bool"
        }
      ],
      "stateMutability": "view",
      "type": "function"
    },
    {
      "inputs": [],
      "name": "proxiableUUID",
      "outputs": [
        {
          "internalType": "bytes32",
          "name": "",
          "type": "bytes32"
        }
      ],
      "stateMutability": "view",
      "type": "function"
    },
    {
      "inputs": [
        {
          "internalType": "bytes32",
          "name": "role",
          "type": "bytes32"
        },
        {
          "internalType": "address",
          "name": "account",
          "type": "address"
        }
      ],
      "name": "renounceRole",
      "outputs": [],
      "stateMutability": "nonpayable",
      "type": "function"
    },
    {
      "inputs": [
        {
          "internalType": "bytes32",
          "name": "role",
          "type": "bytes32"
        },
        {
          "internalType": "address",
          "name": "account",
          "type": "address"
        }
      ],
      "name": "revokeRole",
      "outputs": [],
      "stateMutability": "nonpayable",
      "type": "function"
    },
    {
      "inputs": [
        {
          "internalType": "uint256",
          "name": "fee",
          "type": "uint256"
        }
      ],
      "name": "setFee",
      "outputs": [],
      "stateMutability": "nonpayable",
      "type": "function"
    },
    {
      "inputs": [
        {
          "internalType": "address",
          "name": "token",
          "type": "address"
        }
      ],
      "name": "setFeeToken",
      "outputs": [],
      "stateMutability": "nonpayable",
      "type": "function"
    },
    {
      "inputs": [
        {
          "internalType": "address",
          "name": "treasury",
          "type": "address"
        }
      ],
      "name": "setFeeTreasury",
      "outputs": [],
      "stateMutability": "nonpayable",
      "type": "function"
    },
    {
      "inputs": [
        {
          "internalType": "bytes4",
          "name": "interfaceId",
          "type": "bytes4"
        }
      ],
      "name": "supportsInterface",
      "outputs": [
        {
          "internalType": "bool",
          "name": "",
          "type": "bool"
        }
      ],
      "stateMutability": "view",
      "type": "function"
    },
    {
      "inputs": [],
      "name": "unpause",
      "outputs": [],
      "stateMutability": "nonpayable",
      "type": "function"
    },
    {
      "inputs": [
        {
          "internalType": "address",
          "name": "newImplementation",
          "type": "address"
        }
      ],
      "name": "upgradeTo",
      "outputs": [],
      "stateMutability": "nonpayable",
      "type": "function"
    },
    {
      "inputs": [
        {
          "internalType": "address",
          "name": "newImplementation",
          "type": "address"
        },
        {
          "internalType": "bytes",
          "name": "data",
          "type": "bytes"
        }
      ],
      "name": "upgradeToAndCall",
      "outputs": [],
      "stateMutability": "payable",
      "type": "function"
    },
    {
      "inputs": [],
      "name": "userFee",
      "outputs": [
        {
          "internalType": "uint256",
          "name": "",
          "type": "uint256"
        }
      ],
      "stateMutability": "view",
      "type": "function"
    }
  ],
  "bytecode": "0x60a0604052306080523480156200001557600080fd5b506200002062000026565b620000e7565b600054610100900460ff1615620000935760405162461bcd60e51b815260206004820152602760248201527f496e697469616c697a61626c653a20636f6e747261637420697320696e697469604482015266616c697a696e6760c81b606482015260840160405180910390fd5b60005460ff90811614620000e5576000805460ff191660ff9081179091556040519081527f7f26b83ff96e1f2b6a682f133852f6798a09c465da95921460cefb38474024989060200160405180910390a15b565b6080516135506200011f60003960008181610a5601528181610aec01528181610c2501528181610cbb0152610db201526135506000f3fe6080604052600436106101b75760003560e01c8063647846a5116100ec5780639c5b6a081161008a578063bfa37e3711610064578063bfa37e37146104f4578063ca15c87314610514578063d547741f14610534578063ecb9fec31461055457600080fd5b80639c5b6a081461049f578063a217fddf146104bf578063b1244b23146104d457600080fd5b80638129fc1c116100c65780638129fc1c1461040f5780638456cb59146104245780639010d07c1461043957806391d148541461045957600080fd5b8063647846a51461039c57806369fe0e2d146103bb57806375b238fc146103db57600080fd5b80633659cfe6116101595780634f1ef286116101335780634f1ef2861461032957806352d1902d1461033c5780635c975abb1461035157806360dc23401461036957600080fd5b80633659cfe6146102de5780633f4ba83a146102fe57806342a1bbd21461031357600080fd5b8063248a9ca311610195578063248a9ca3146102335780632db25e05146102715780632f2ff15d1461029e57806336568abe146102be57600080fd5b806301ffc9a7146101bc57806309ec6cc7146101f157806315cce22414610213575b600080fd5b3480156101c857600080fd5b506101dc6101d7366004612e2e565b610574565b60405190151581526020015b60405180910390f35b3480156101fd57600080fd5b5061021161020c366004612e70565b610585565b005b34801561021f57600080fd5b5061021161022e366004612e9e565b61073f565b34801561023f57600080fd5b5061026361024e366004612e70565b60009081526097602052604090206001015490565b6040519081526020016101e8565b34801561027d57600080fd5b5061029161028c366004612e70565b610753565b6040516101e89190612f55565b3480156102aa57600080fd5b506102116102b9366004612fd6565b610995565b3480156102ca57600080fd5b506102116102d9366004612fd6565b6109bf565b3480156102ea57600080fd5b506102116102f9366004612e9e565b610a4c565b34801561030a57600080fd5b50610211610be9565b34801561031f57600080fd5b5061012f54610263565b61021161033736600461301c565b610c1b565b34801561034857600080fd5b50610263610da5565b34801561035d57600080fd5b5060fb5460ff166101dc565b34801561037557600080fd5b5061012d546001600160a01b03165b6040516001600160a01b0390911681526020016101e8565b3480156103a857600080fd5b5061012e546001600160a01b0316610384565b3480156103c757600080fd5b506102116103d6366004612e70565b610e6a565b3480156103e757600080fd5b506102637fa49807205ce4d355092ef5a8a18f56e8913cf4a201fbe287825b095693c2177581565b34801561041b57600080fd5b50610211610e7e565b34801561043057600080fd5b50610211610fea565b34801561044557600080fd5b506103846104543660046130e0565b61101c565b34801561046557600080fd5b506101dc610474366004612fd6565b60009182526097602090815260408084206001600160a01b0393909316845291905290205460ff1690565b3480156104ab57600080fd5b506102116104ba36600461314e565b61103b565b3480156104cb57600080fd5b50610263600081565b3480156104e057600080fd5b506101dc6104ef366004612e70565b6112f5565b34801561050057600080fd5b5061021161050f366004612e9e565b61130a565b34801561052057600080fd5b5061026361052f366004612e70565b61131e565b34801561054057600080fd5b5061021161054f366004612fd6565b611335565b34801561056057600080fd5b5061021161056f366004612e70565b61135a565b600061057f82611562565b92915050565b61058e816112f5565b6105ab57604051639af21d9560e01b815260040160405180910390fd5b60008181526101f56020526040902060018101546001600160a01b031633148015906105e65750805461010090046001600160a01b03163314155b1561061d576040517fcb64a0a200000000000000000000000000000000000000000000000000000000815260040160405180910390fd5b6000815460ff16600381111561063557610635612ebb565b1461066c576040517f09e7070c00000000000000000000000000000000000000000000000000000000815260040160405180910390fd5b805461010090046001600160a01b0316331461068957600261068c565b60035b8154829060ff191660018360038111156106a8576106a8612ebb565b021790555080546106c69061010090046001600160a01b03166115b8565b805461010090046001600160a01b0316330361070d57604051829033907fc036ffe8eab201772430a4259f57e5ed5cd8fc42ecc80be53bb03012d983aea090600090a35050565b604051829033907f5dc62d06bbf63678169b74e8d18b97da8e3b71fad35dbd7da92eb04075c3846a90600090a35b5050565b600061074a81611812565b61073b8261181c565b6040805160a0810182526000808252602082018190529181019190915260608082018190526080820152610786826112f5565b6107a357604051639af21d9560e01b815260040160405180910390fd5b60008281526101f5602052604090819020815160a081019092528054829060ff1660038111156107d5576107d5612ebb565b60038111156107e6576107e6612ebb565b815281546001600160a01b0361010090910481166020808401919091526001840154909116604080840191909152600284018054825181850281018501909352808352606090940193919290919060009084015b828210156108ca576000848152602090819020604080516080810182526004860290920180546001600160a01b03168352600181015493830193909352600280840154918301919091526003830154919291606084019160ff909116908111156108a6576108a6612ebb565b60028111156108b7576108b7612ebb565b815250508152602001906001019061083a565b50505050815260200160038201805480602002602001604051908101604052809291908181526020016000905b82821015610987576000848152602090819020604080516080810182526004860290920180546001600160a01b03168352600181015493830193909352600280840154918301919091526003830154919291606084019160ff9091169081111561096357610963612ebb565b600281111561097457610974612ebb565b81525050815260200190600101906108f7565b505050915250909392505050565b6000828152609760205260409020600101546109b081611812565b6109ba8383611885565b505050565b6001600160a01b0381163314610a425760405162461bcd60e51b815260206004820152602f60248201527f416363657373436f6e74726f6c3a2063616e206f6e6c792072656e6f756e636560448201527f20726f6c657320666f722073656c66000000000000000000000000000000000060648201526084015b60405180910390fd5b61073b82826118a7565b6001600160a01b037f0000000000000000000000000000000000000000000000000000000000000000163003610aea5760405162461bcd60e51b815260206004820152602c60248201527f46756e6374696f6e206d7573742062652063616c6c6564207468726f7567682060448201527f64656c656761746563616c6c00000000000000000000000000000000000000006064820152608401610a39565b7f00000000000000000000000000000000000000000000000000000000000000006001600160a01b0316610b457f360894a13ba1a3210667c828492db98dca3e2076cc3735a920a3ca505d382bbc546001600160a01b031690565b6001600160a01b031614610bc15760405162461bcd60e51b815260206004820152602c60248201527f46756e6374696f6e206d7573742062652063616c6c6564207468726f7567682060448201527f6163746976652070726f787900000000000000000000000000000000000000006064820152608401610a39565b610bca816118c9565b60408051600080825260208201909252610be6918391906118d4565b50565b7fa49807205ce4d355092ef5a8a18f56e8913cf4a201fbe287825b095693c21775610c1381611812565b610be6611a74565b6001600160a01b037f0000000000000000000000000000000000000000000000000000000000000000163003610cb95760405162461bcd60e51b815260206004820152602c60248201527f46756e6374696f6e206d7573742062652063616c6c6564207468726f7567682060448201527f64656c656761746563616c6c00000000000000000000000000000000000000006064820152608401610a39565b7f00000000000000000000000000000000000000000000000000000000000000006001600160a01b0316610d147f360894a13ba1a3210667c828492db98dca3e2076cc3735a920a3ca505d382bbc546001600160a01b031690565b6001600160a01b031614610d905760405162461bcd60e51b815260206004820152602c60248201527f46756e6374696f6e206d7573742062652063616c6c6564207468726f7567682060448201527f6163746976652070726f787900000000000000000000000000000000000000006064820152608401610a39565b610d99826118c9565b61073b828260016118d4565b6000306001600160a01b037f00000000000000000000000000000000000000000000000000000000000000001614610e455760405162461bcd60e51b815260206004820152603860248201527f555550535570677261646561626c653a206d757374206e6f742062652063616c60448201527f6c6564207468726f7567682064656c656761746563616c6c00000000000000006064820152608401610a39565b507f360894a13ba1a3210667c828492db98dca3e2076cc3735a920a3ca505d382bbc90565b6000610e7581611812565b61073b82611ac6565b600054610100900460ff1615808015610e9e5750600054600160ff909116105b80610eb85750303b158015610eb8575060005460ff166001145b610f2a5760405162461bcd60e51b815260206004820152602e60248201527f496e697469616c697a61626c653a20636f6e747261637420697320616c72656160448201527f647920696e697469616c697a65640000000000000000000000000000000000006064820152608401610a39565b6000805460ff191660011790558015610f4d576000805461ff0019166101001790555b610f55611b12565b610f5d611b87565b610f65611bf2565b610f6d611b87565b610f78600033611885565b610fa27fa49807205ce4d355092ef5a8a18f56e8913cf4a201fbe287825b095693c2177533611885565b8015610be6576000805461ff0019169055604051600181527f7f26b83ff96e1f2b6a682f133852f6798a09c465da95921460cefb38474024989060200160405180910390a150565b7fa49807205ce4d355092ef5a8a18f56e8913cf4a201fbe287825b095693c2177561101481611812565b610be6611c65565b600082815260c9602052604081206110349083611ca2565b9392505050565b61012f54156111195761012e5461012f546040517f23b872dd00000000000000000000000000000000000000000000000000000000815233600482015230602482015260448101919091526001600160a01b03909116906323b872dd906064016020604051808303816000875af11580156110ba573d6000803e3d6000fd5b505050506040513d601f19601f820116820180604052508101906110de91906131d1565b5061012f5460405190815233907f075a2720282fdf622141dae0b048ef90a21a7e57c134c76912d19d006b3b3f6f9060200160405180910390a25b6000611123611cae565b60008181526101f56020526040902080547fffffffffffffffffffffff0000000000000000000000000000000000000000ff1633610100021781559091506001600160a01b0387166111a1576040517f4f1332db00000000000000000000000000000000000000000000000000000000815260040160405180910390fd5b60018101805473ffffffffffffffffffffffffffffffffffffffff19166001600160a01b0389161790558460005b8181101561123057826002018888838181106111ed576111ed6131f3565b83546001810185556000948552602090942060809091029290920192600402909101905061121b8282613216565b50508080611228906132a9565b9150506111cf565b5083905060005b818110156112985782600301868683818110611255576112556131f3565b8354600181018555600094855260209094206080909102929092019260040290910190506112838282613216565b50508080611290906132a9565b915050611237565b50876001600160a01b031683336001600160a01b03167f9b54f614296fc183a3ebcc288f174fdca7d0bd7fbd804df3424096421c7f497b8a8a8a8a6040516112e39493929190613333565b60405180910390a45050505050505050565b600061130161015f5490565b90911115919050565b600061131581611812565b61073b82611cc7565b600081815260c96020526040812061057f90611d25565b60008281526097602052604090206001015461135081611812565b6109ba83836118a7565b61012f5415801590611377575061012d546001600160a01b031615155b156114535761012e5461012d5461012f546040517fa9059cbb0000000000000000000000000000000000000000000000000000000081526001600160a01b039283166004820152602481019190915291169063a9059cbb906044016020604051808303816000875af11580156113f1573d6000803e3d6000fd5b505050506040513d601f19601f8201168201806040525081019061141591906131d1565b507f059d45db317199d98730cfff4074706af9cebb161f0a797e4a3905b300f3130161012f5460405161144a91815260200190565b60405180910390a15b61145c816112f5565b61147957604051639af21d9560e01b815260040160405180910390fd5b60008181526101f56020526040902060018101546001600160a01b031633146114ce576040517fcb64a0a200000000000000000000000000000000000000000000000000000000815260040160405180910390fd5b6000815460ff1660038111156114e6576114e6612ebb565b1461151d576040517f09e7070c00000000000000000000000000000000000000000000000000000000815260040160405180910390fd5b805460ff1916600117815561153181611d2f565b604051829033907f5f6b7be9b0a870b23b27477836abafd0650ac576e5d6e6976232d803c3b1005f90600090a35050565b60007fffffffff0000000000000000000000000000000000000000000000000000000082167f5a05180f00000000000000000000000000000000000000000000000000000000148061057f575061057f82611d7e565b61012f5415610be65761012e5461012f546001600160a01b039091169063a9059cbb9083906115e99060049061335a565b6115f490600361337c565b6040517fffffffff0000000000000000000000000000000000000000000000000000000060e085901b1681526001600160a01b03909216600483015260248201526044016020604051808303816000875af1158015611657573d6000803e3d6000fd5b505050506040513d601f19601f8201168201806040525081019061167b91906131d1565b5061012d546001600160a01b0316156117b75761012e5461012d5461012f546001600160a01b039283169263a9059cbb9216906116ba9060049061335a565b6116c590600361337c565b61012f546116d39190613393565b6040517fffffffff0000000000000000000000000000000000000000000000000000000060e085901b1681526001600160a01b03909216600483015260248201526044016020604051808303816000875af1158015611736573d6000803e3d6000fd5b505050506040513d601f19601f8201168201806040525081019061175a91906131d1565b507f059d45db317199d98730cfff4074706af9cebb161f0a797e4a3905b300f31301600461012f5461178c919061335a565b61179790600361337c565b61012f546117a59190613393565b60405190815260200160405180910390a15b336001600160a01b03167f3437b9ea7fa19c6d233dd70cc787a70fab87cee64d8ba4571512cc84402748f9600461012f546117f2919061335a565b6117fd90600361337c565b6040519081526020015b60405180910390a250565b610be68133611e15565b61012e805473ffffffffffffffffffffffffffffffffffffffff19166001600160a01b03831690811790915561012f5460408051928352602083019190915233917fe79c98674461ff4148d44bd2ffe46f5346a33ca14909e65b9aae5e58639454a39101611807565b61188f8282611e8a565b600082815260c9602052604090206109ba9082611f2c565b6118b18282611f41565b600082815260c9602052604090206109ba9082611fc4565b600061073b81611812565b7f4910fdfa16fed3260ed0e7147f7cc6da11a60208b5b9406d12a635614ffd91435460ff1615611907576109ba83611fd9565b826001600160a01b03166352d1902d6040518163ffffffff1660e01b8152600401602060405180830381865afa925050508015611961575060408051601f3d908101601f1916820190925261195e918101906133a6565b60015b6119d35760405162461bcd60e51b815260206004820152602e60248201527f45524331393637557067726164653a206e657720696d706c656d656e7461746960448201527f6f6e206973206e6f7420555550530000000000000000000000000000000000006064820152608401610a39565b7f360894a13ba1a3210667c828492db98dca3e2076cc3735a920a3ca505d382bbc8114611a685760405162461bcd60e51b815260206004820152602960248201527f45524331393637557067726164653a20756e737570706f727465642070726f7860448201527f6961626c655555494400000000000000000000000000000000000000000000006064820152608401610a39565b506109ba8383836120a4565b611a7c6120cf565b60fb805460ff191690557f5db9ee0a495bf2e6ff9c91a7834c1ba4fdd244a5e8aa4e537bd38aeae4b073aa335b6040516001600160a01b03909116815260200160405180910390a1565b61012f81905561012d54604080516001600160a01b0390921682526020820183905233917fe79c98674461ff4148d44bd2ffe46f5346a33ca14909e65b9aae5e58639454a39101611807565b600054610100900460ff16611b7d5760405162461bcd60e51b815260206004820152602b60248201527f496e697469616c697a61626c653a20636f6e7472616374206973206e6f74206960448201526a6e697469616c697a696e6760a81b6064820152608401610a39565b611b85612121565b565b600054610100900460ff16611b855760405162461bcd60e51b815260206004820152602b60248201527f496e697469616c697a61626c653a20636f6e7472616374206973206e6f74206960448201526a6e697469616c697a696e6760a81b6064820152608401610a39565b600054610100900460ff16611c5d5760405162461bcd60e51b815260206004820152602b60248201527f496e697469616c697a61626c653a20636f6e7472616374206973206e6f74206960448201526a6e697469616c697a696e6760a81b6064820152608401610a39565b611b85612192565b611c6d612209565b60fb805460ff191660011790557f62e78cea01bee320cd4e420270b5ea74000d11b0c9f74754ebdbfc544b05a258611aa93390565b6000611034838361225c565b6000611cbf61015f80546001019055565b5061015f5490565b61012d805473ffffffffffffffffffffffffffffffffffffffff19166001600160a01b03831690811790915560405190815233907f4ab5be82436d353e61ca18726e984e561f5c1cc7c6d38b29d2553c790434705a90602001611807565b600061057f825490565b80546001820154611d569160028401916001600160a01b0361010090920482169116612286565b60018101548154610be69160038401916001600160a01b039182169161010090910416612286565b60007fffffffff0000000000000000000000000000000000000000000000000000000082167f7965db0b00000000000000000000000000000000000000000000000000000000148061057f57507f01ffc9a7000000000000000000000000000000000000000000000000000000007fffffffff0000000000000000000000000000000000000000000000000000000083161461057f565b60008281526097602090815260408083206001600160a01b038516845290915290205460ff1661073b57611e48816122d6565b611e538360206122e8565b604051602001611e649291906133e3565b60408051601f198184030181529082905262461bcd60e51b8252610a3991600401613464565b60008281526097602090815260408083206001600160a01b038516845290915290205460ff1661073b5760008281526097602090815260408083206001600160a01b03851684529091529020805460ff19166001179055611ee83390565b6001600160a01b0316816001600160a01b0316837f2f8788117e7eff1d82e926ec794901d17c78024a50270940304540a733656f0d60405160405180910390a45050565b6000611034836001600160a01b038416612511565b60008281526097602090815260408083206001600160a01b038516845290915290205460ff161561073b5760008281526097602090815260408083206001600160a01b0385168085529252808320805460ff1916905551339285917ff6391f5c32d9c69d2a47ea670b442974b53935d1edc7fd64eb21e047a839171b9190a45050565b6000611034836001600160a01b038416612560565b6001600160a01b0381163b6120565760405162461bcd60e51b815260206004820152602d60248201527f455243313936373a206e657720696d706c656d656e746174696f6e206973206e60448201527f6f74206120636f6e7472616374000000000000000000000000000000000000006064820152608401610a39565b7f360894a13ba1a3210667c828492db98dca3e2076cc3735a920a3ca505d382bbc805473ffffffffffffffffffffffffffffffffffffffff19166001600160a01b0392909216919091179055565b6120ad83612653565b6000825111806120ba5750805b156109ba576120c98383612693565b50505050565b60fb5460ff16611b855760405162461bcd60e51b815260206004820152601460248201527f5061757361626c653a206e6f74207061757365640000000000000000000000006044820152606401610a39565b600054610100900460ff1661218c5760405162461bcd60e51b815260206004820152602b60248201527f496e697469616c697a61626c653a20636f6e7472616374206973206e6f74206960448201526a6e697469616c697a696e6760a81b6064820152608401610a39565b60018055565b600054610100900460ff166121fd5760405162461bcd60e51b815260206004820152602b60248201527f496e697469616c697a61626c653a20636f6e7472616374206973206e6f74206960448201526a6e697469616c697a696e6760a81b6064820152608401610a39565b60fb805460ff19169055565b60fb5460ff1615611b855760405162461bcd60e51b815260206004820152601060248201527f5061757361626c653a20706175736564000000000000000000000000000000006044820152606401610a39565b6000826000018281548110612273576122736131f3565b9060005260206000200154905092915050565b825460005b818110156122cf576122bd8582815481106122a8576122a86131f3565b906000526020600020906004020185856126b8565b806122c7816132a9565b91505061228b565b5050505050565b606061057f6001600160a01b03831660145b606060006122f783600261337c565b612302906002613497565b67ffffffffffffffff81111561231a5761231a613006565b6040519080825280601f01601f191660200182016040528015612344576020820181803683370190505b5090507f30000000000000000000000000000000000000000000000000000000000000008160008151811061237b5761237b6131f3565b60200101907effffffffffffffffffffffffffffffffffffffffffffffffffffffffffffff1916908160001a9053507f7800000000000000000000000000000000000000000000000000000000000000816001815181106123de576123de6131f3565b60200101907effffffffffffffffffffffffffffffffffffffffffffffffffffffffffffff1916908160001a905350600061241a84600261337c565b612425906001613497565b90505b60018111156124c2577f303132333435363738396162636465660000000000000000000000000000000085600f1660108110612466576124666131f3565b1a60f81b82828151811061247c5761247c6131f3565b60200101907effffffffffffffffffffffffffffffffffffffffffffffffffffffffffffff1916908160001a90535060049490941c936124bb816134aa565b9050612428565b5083156110345760405162461bcd60e51b815260206004820181905260248201527f537472696e67733a20686578206c656e67746820696e73756666696369656e746044820152606401610a39565b60008181526001830160205260408120546125585750815460018181018455600084815260208082209093018490558454848252828601909352604090209190915561057f565b50600061057f565b60008181526001830160205260408120548015612649576000612584600183613393565b855490915060009061259890600190613393565b90508181146125fd5760008660000182815481106125b8576125b86131f3565b90600052602060002001549050808760000184815481106125db576125db6131f3565b6000918252602080832090910192909255918252600188019052604090208390555b855486908061260e5761260e6134c1565b60019003818190600052602060002001600090559055856001016000868152602001908152602001600020600090556001935050505061057f565b600091505061057f565b61265c81611fd9565b6040516001600160a01b038216907fbc7cd75a20ee27fd9adebab32041f755214dbc6bffa90cc0225b39da2e5c2d3b90600090a250565b606061103483836040518060600160405280602781526020016134f46027913961276b565b6000600384015460ff1660028111156126d3576126d3612ebb565b036126e3576109ba8383836127e3565b6002600384015460ff1660028111156126fe576126fe612ebb565b0361270e576109ba83838361296d565b6001600384015460ff16600281111561272957612729612ebb565b03612739576109ba8383836129fd565b6040517fb8bcee3f00000000000000000000000000000000000000000000000000000000815260040160405180910390fd5b6060600080856001600160a01b03168560405161278891906134d7565b600060405180830381855af49150503d80600081146127c3576040519150601f19603f3d011682016040523d82523d6000602084013e6127c8565b606091505b50915091506127d986838387612b8e565b9695505050505050565b82546040517f70a082310000000000000000000000000000000000000000000000000000000081526001600160a01b0383811660048301529091169060009082906370a0823190602401602060405180830381865afa15801561284a573d6000803e3d6000fd5b505050506040513d601f19601f8201168201806040525081019061286e91906133a6565b905061289484848760020154856001600160a01b0316612c0f909392919063ffffffff16565b6040517f70a082310000000000000000000000000000000000000000000000000000000081526001600160a01b038481166004830152600091908416906370a08231906024015b602060405180830381865afa1580156128f8573d6000803e3d6000fd5b505050506040513d601f19601f8201168201806040525081019061291c91906133a6565b600287015490915061292e8383613393565b14612965576040517f525ce88e00000000000000000000000000000000000000000000000000000000815260040160405180910390fd5b505050505050565b825460018401546040517f42842e0e0000000000000000000000000000000000000000000000000000000081526001600160a01b038581166004830152848116602483015260448201929092529116906342842e0e90606401600060405180830381600087803b1580156129e057600080fd5b505af11580156129f4573d6000803e3d6000fd5b50505050505050565b825460018401546040517efdd58e0000000000000000000000000000000000000000000000000000000081526001600160a01b0384811660048301526024820192909252911690600090829062fdd58e90604401602060405180830381865afa158015612a6e573d6000803e3d6000fd5b505050506040513d601f19601f82011682018060405250810190612a9291906133a6565b600186015460028701546040517ff242432a0000000000000000000000000000000000000000000000000000000081526001600160a01b03888116600483015287811660248301526044820193909352606481019190915260a06084820152600060a482015291925083169063f242432a9060c401600060405180830381600087803b158015612b2157600080fd5b505af1158015612b35573d6000803e3d6000fd5b5050505060018501546040517efdd58e0000000000000000000000000000000000000000000000000000000081526001600160a01b038581166004830152602482019290925260009184169062fdd58e906044016128db565b60608315612bfd578251600003612bf6576001600160a01b0385163b612bf65760405162461bcd60e51b815260206004820152601d60248201527f416464726573733a2063616c6c20746f206e6f6e2d636f6e74726163740000006044820152606401610a39565b5081612c07565b612c078383612c97565b949350505050565b604080516001600160a01b0385811660248301528416604482015260648082018490528251808303909101815260849091019091526020810180517bffffffffffffffffffffffffffffffffffffffffffffffffffffffff167f23b872dd000000000000000000000000000000000000000000000000000000001790526120c9908590612cc1565b815115612ca75781518083602001fd5b8060405162461bcd60e51b8152600401610a399190613464565b6000612d16826040518060400160405280602081526020017f5361666545524332303a206c6f772d6c6576656c2063616c6c206661696c6564815250856001600160a01b0316612da99092919063ffffffff16565b9050805160001480612d37575080806020019051810190612d3791906131d1565b6109ba5760405162461bcd60e51b815260206004820152602a60248201527f5361666545524332303a204552433230206f7065726174696f6e20646964206e60448201527f6f742073756363656564000000000000000000000000000000000000000000006064820152608401610a39565b6060612c07848460008585600080866001600160a01b03168587604051612dd091906134d7565b60006040518083038185875af1925050503d8060008114612e0d576040519150601f19603f3d011682016040523d82523d6000602084013e612e12565b606091505b5091509150612e2387838387612b8e565b979650505050505050565b600060208284031215612e4057600080fd5b81357fffffffff000000000000000000000000000000000000000000000000000000008116811461103457600080fd5b600060208284031215612e8257600080fd5b5035919050565b6001600160a01b0381168114610be657600080fd5b600060208284031215612eb057600080fd5b813561103481612e89565b634e487b7160e01b600052602160045260246000fd5b60038110612ee157612ee1612ebb565b9052565b600081518084526020808501945080840160005b83811015612f4a57815180516001600160a01b0316885283810151848901526040808201519089015260609081015190612f35818a0183612ed1565b50506080969096019590820190600101612ef9565b509495945050505050565b602081526000825160048110612f6d57612f6d612ebb565b8060208401525060208301516001600160a01b0380821660408501528060408601511660608501525050606083015160a06080840152612fb060c0840182612ee5565b90506080840151601f198483030160a0850152612fcd8282612ee5565b95945050505050565b60008060408385031215612fe957600080fd5b823591506020830135612ffb81612e89565b809150509250929050565b634e487b7160e01b600052604160045260246000fd5b6000806040838503121561302f57600080fd5b823561303a81612e89565b9150602083013567ffffffffffffffff8082111561305757600080fd5b818501915085601f83011261306b57600080fd5b81358181111561307d5761307d613006565b604051601f8201601f19908116603f011681019083821181831017156130a5576130a5613006565b816040528281528860208487010111156130be57600080fd5b8260208601602083013760006020848301015280955050505050509250929050565b600080604083850312156130f357600080fd5b50508035926020909101359150565b60008083601f84011261311457600080fd5b50813567ffffffffffffffff81111561312c57600080fd5b6020830191508360208260071b850101111561314757600080fd5b9250929050565b60008060008060006060868803121561316657600080fd5b853561317181612e89565b9450602086013567ffffffffffffffff8082111561318e57600080fd5b61319a89838a01613102565b909650945060408801359150808211156131b357600080fd5b506131c088828901613102565b969995985093965092949392505050565b6000602082840312156131e357600080fd5b8151801515811461103457600080fd5b634e487b7160e01b600052603260045260246000fd5b60038110610be657600080fd5b813561322181612e89565b6001600160a01b03811673ffffffffffffffffffffffffffffffffffffffff1983541617825550602082013560018201556040820135600282015560038101606083013561326e81613209565b6003811061327e5761327e612ebb565b60ff1982541660ff8216811783555050505050565b634e487b7160e01b600052601160045260246000fd5b600060001982036132bc576132bc613293565b5060010190565b8183526000602080850194508260005b85811015612f4a5781356132e681612e89565b6001600160a01b0316875281830135838801526040808301359088015260608083013561331281613209565b61331e828a0182612ed1565b505060809687019691909101906001016132d3565b6040815260006133476040830186886132c3565b8281036020840152612e238185876132c3565b60008261337757634e487b7160e01b600052601260045260246000fd5b500490565b808202811582820484141761057f5761057f613293565b8181038181111561057f5761057f613293565b6000602082840312156133b857600080fd5b5051919050565b60005b838110156133da5781810151838201526020016133c2565b50506000910152565b7f416363657373436f6e74726f6c3a206163636f756e742000000000000000000081526000835161341b8160178501602088016133bf565b7f206973206d697373696e6720726f6c652000000000000000000000000000000060179184019182015283516134588160288401602088016133bf565b01602801949350505050565b60208152600082518060208401526134838160408501602087016133bf565b601f01601f19169190910160400192915050565b8082018082111561057f5761057f613293565b6000816134b9576134b9613293565b506000190190565b634e487b7160e01b600052603160045260246000fd5b600082516134e98184602087016133bf565b919091019291505056fe416464726573733a206c6f772d6c6576656c2064656c65676174652063616c6c206661696c6564a2646970667358221220eb265aaa08547c369c895481c50d8ba1af1d0a8233666f6d4c56ae32a982f90b64736f6c63430008130033",
  "linkReferences": {},
  "deployedLinkReferences": {}
}