{
  "_format": "hh-sol-artifact-1",
  "contractName": "Tradescrow",
  "sourceName": "contracts/Tradescrow/Tradescrow.sol",
  "abi": [
    {
      "inputs": [],
      "stateMutability": "nonpayable",
      "type": "constructor"
    },
    {
      "inputs": [],
      "name": "InvalidCounterparty",
      "type": "error"
    },
    {
      "inputs": [],
      "name": "InvalidTradeId",
      "type": "error"
    },
    {
      "inputs": [],
      "name": "NotTradeParticipant",
      "type": "error"
    },
    {
      "inputs": [],
      "name": "TaxedAssetUnsupported",
      "type": "error"
    },
    {
      "inputs": [],
      "name": "TradeClosed",
      "type": "error"
    },
    {
      "inputs": [],
      "name": "UnknownAssetType",
      "type": "error"
    },
    {
      "anonymous": false,
      "inputs": [
        {
          "indexed": false,
          "internalType": "address",
          "name": "previousAdmin",
          "type": "address"
        },
        {
          "indexed": false,
          "internalType": "address",
          "name": "newAdmin",
          "type": "address"
        }
      ],
      "name": "AdminChanged",
      "type": "event"
    },
    {
      "anonymous": false,
      "inputs": [
        {
          "indexed": true,
          "internalType": "address",
          "name": "beacon",
          "type": "address"
        }
      ],
      "name": "BeaconUpgraded",
      "type": "event"
    },
    {
      "anonymous": false,
      "inputs": [
        {
          "indexed": true,
          "internalType": "address",
          "name": "from",
          "type": "address"
        },
        {
          "indexed": false,
          "internalType": "uint256",
          "name": "amount",
          "type": "uint256"
        }
      ],
      "name": "FeePaid",
      "type": "event"
    },
    {
      "anonymous": false,
      "inputs": [
        {
          "indexed": true,
          "internalType": "address",
          "name": "from",
          "type": "address"
        },
        {
          "indexed": false,
          "internalType": "uint256",
          "name": "amount",
          "type": "uint256"
        }
      ],
      "name": "FeeRefunded",
      "type": "event"
    },
    {
      "anonymous": false,
      "inputs": [
        {
          "indexed": false,
          "internalType": "uint256",
          "name": "amount",
          "type": "uint256"
        }
      ],
      "name": "FeeReleased",
      "type": "event"
    },
    {
      "anonymous": false,
      "inputs": [
        {
          "indexed": true,
          "internalType": "address",
          "name": "from",
          "type": "address"
        },
        {
          "indexed": false,
          "internalType": "address",
          "name": "token",
          "type": "address"
        },
        {
          "indexed": false,
          "internalType": "uint256",
          "name": "fee",
          "type": "uint256"
        }
      ],
      "name": "FeeUpdated",
      "type": "event"
    },
    {
      "anonymous": false,
      "inputs": [
        {
          "indexed": false,
          "internalType": "uint8",
          "name": "version",
          "type": "uint8"
        }
      ],
      "name": "Initialized",
      "type": "event"
    },
    {
      "anonymous": false,
      "inputs": [
        {
          "indexed": false,
          "internalType": "address",
          "name": "account",
          "type": "address"
        }
      ],
      "name": "Paused",
      "type": "event"
    },
    {
      "anonymous": false,
      "inputs": [
        {
          "indexed": true,
          "internalType": "bytes32",
          "name": "role",
          "type": "bytes32"
        },
        {
          "indexed": true,
          "internalType": "bytes32",
          "name": "previousAdminRole",
          "type": "bytes32"
        },
        {
          "indexed": true,
          "internalType": "bytes32",
          "name": "newAdminRole",
          "type": "bytes32"
        }
      ],
      "name": "RoleAdminChanged",
      "type": "event"
    },
    {
      "anonymous": false,
      "inputs": [
        {
          "indexed": true,
          "internalType": "bytes32",
          "name": "role",
          "type": "bytes32"
        },
        {
          "indexed": true,
          "internalType": "address",
          "name": "account",
          "type": "address"
        },
        {
          "indexed": true,
          "internalType": "address",
          "name": "sender",
          "type": "address"
        }
      ],
      "name": "RoleGranted",
      "type": "event"
    },
    {
      "anonymous": false,
      "inputs": [
        {
          "indexed": true,
          "internalType": "bytes32",
          "name": "role",
          "type": "bytes32"
        },
        {
          "indexed": true,
          "internalType": "address",
          "name": "account",
          "type": "address"
        },
        {
          "indexed": true,
          "internalType": "address",
          "name": "sender",
          "type": "address"
        }
      ],
      "name": "RoleRevoked",
      "type": "event"
    },
    {
      "anonymous": false,
      "inputs": [
        {
          "indexed": true,
          "internalType": "address",
          "name": "from",
          "type": "address"
        },
        {
          "indexed": true,
          "internalType": "uint256",
          "name": "tradeId",
          "type": "uint256"
        }
      ],
      "name": "TradeAccepted",
      "type": "event"
    },
    {
      "anonymous": false,
      "inputs": [
        {
          "indexed": true,
          "internalType": "address",
          "name": "from",
          "type": "address"
        },
        {
          "indexed": true,
          "internalType": "uint256",
          "name": "tradeId",
          "type": "uint256"
        }
      ],
      "name": "TradeCanceled",
      "type": "event"
    },
    {
      "anonymous": false,
      "inputs": [
        {
          "indexed": true,
          "internalType": "address",
          "name": "from",
          "type": "address"
        },
        {
          "indexed": true,
          "internalType": "uint256",
          "name": "tradeId",
          "type": "uint256"
        },
        {
          "indexed": true,
          "internalType": "address",
          "name": "counterparty",
          "type": "address"
        },
        {
          "components": [
            {
              "internalType": "address",
              "name": "_address",
              "type": "address"
            },
            {
              "internalType": "uint256",
              "name": "id",
              "type": "uint256"
            },
            {
              "internalType": "uint256",
              "name": "amount",
              "type": "uint256"
            },
            {
              "internalType": "enum Structs.AssetType",
              "name": "assetType",
              "type": "uint8"
            }
          ],
          "indexed": false,
          "internalType": "struct Structs.Asset[]",
          "name": "partyAssets",
          "type": "tuple[]"
        },
        {
          "components": [
            {
              "internalType": "address",
              "name": "_address",
              "type": "address"
            },
            {
              "internalType": "uint256",
              "name": "id",
              "type": "uint256"
            },
            {
              "internalType": "uint256",
              "name": "amount",
              "type": "uint256"
            },
            {
              "internalType": "enum Structs.AssetType",
              "name": "assetType",
              "type": "uint8"
            }
          ],
          "indexed": false,
          "internalType": "struct Structs.Asset[]",
          "name": "counterpartyAssets",
          "type": "tuple[]"
        }
      ],
      "name": "TradeCreated",
      "type": "event"
    },
    {
      "anonymous": false,
      "inputs": [
        {
          "indexed": true,
          "internalType": "address",
          "name": "from",
          "type": "address"
        },
        {
          "indexed": true,
          "internalType": "uint256",
          "name": "tradeId",
          "type": "uint256"
        }
      ],
      "name": "TradeRejected",
      "type": "event"
    },
    {
      "anonymous": false,
      "inputs": [
        {
          "indexed": true,
          "internalType": "address",
          "name": "from",
          "type": "address"
        },
        {
          "indexed": false,
          "internalType": "address",
          "name": "treasury",
          "type": "address"
        }
      ],
      "name": "TreasuryUpdated",
      "type": "event"
    },
    {
      "anonymous": false,
      "inputs": [
        {
          "indexed": false,
          "internalType": "address",
          "name": "account",
          "type": "address"
        }
      ],
      "name": "Unpaused",
      "type": "event"
    },
    {
      "anonymous": false,
      "inputs": [
        {
          "indexed": true,
          "internalType": "address",
          "name": "implementation",
          "type": "address"
        }
      ],
      "name": "Upgraded",
      "type": "event"
    },
    {
      "inputs": [],
      "name": "ADMIN_ROLE",
      "outputs": [
        {
          "internalType": "bytes32",
          "name": "",
          "type": "bytes32"
        }
      ],
      "stateMutability": "view",
      "type": "function"
    },
    {
      "inputs": [],
      "name": "DEFAULT_ADMIN_ROLE",
      "outputs": [
        {
          "internalType": "bytes32",
          "name": "",
          "type": "bytes32"
        }
      ],
      "stateMutability": "view",
      "type": "function"
    },
    {
      "inputs": [
        {
          "internalType": "uint256",
          "name": "tradeId",
          "type": "uint256"
        }
      ],
      "name": "acceptTrade",
      "outputs": [],
      "stateMutability": "nonpayable",
      "type": "function"
    },
    {
      "inputs": [
        {
          "internalType": "uint256",
          "name": "tradeId",
          "type": "uint256"
        }
      ],
      "name": "cancelTrade",
      "outputs": [],
      "stateMutability": "nonpayable",
      "type": "function"
    },
    {
      "inputs": [
        {
          "internalType": "address",
          "name": "counterparty",
          "type": "address"
        },
        {
          "components": [
            {
              "internalType": "address",
              "name": "_address",
              "type": "address"
            },
            {
              "internalType": "uint256",
              "name": "id",
              "type": "uint256"
            },
            {
              "internalType": "uint256",
              "name": "amount",
              "type": "uint256"
            },
            {
              "internalType": "enum Structs.AssetType",
              "name": "assetType",
              "type": "uint8"
            }
          ],
          "internalType": "struct Structs.Asset[]",
          "name": "partyAssets",
          "type": "tuple[]"
        },
        {
          "components": [
            {
              "internalType": "address",
              "name": "_address",
              "type": "address"
            },
            {
              "internalType": "uint256",
              "name": "id",
              "type": "uint256"
            },
            {
              "internalType": "uint256",
              "name": "amount",
              "type": "uint256"
            },
            {
              "internalType": "enum Structs.AssetType",
              "name": "assetType",
              "type": "uint8"
            }
          ],
          "internalType": "struct Structs.Asset[]",
          "name": "counterpartyAssets",
          "type": "tuple[]"
        }
      ],
      "name": "createTrade",
      "outputs": [],
      "stateMutability": "nonpayable",
      "type": "function"
    },
    {
      "inputs": [],
      "name": "feeToken",
      "outputs": [
        {
          "internalType": "address",
          "name": "",
          "type": "address"
        }
      ],
      "stateMutability": "view",
      "type": "function"
    },
    {
      "inputs": [],
      "name": "feeTreasury",
      "outputs": [
        {
          "internalType": "address",
          "name": "",
          "type": "address"
        }
      ],
      "stateMutability": "view",
      "type": "function"
    },
    {
      "inputs": [
        {
          "internalType": "bytes32",
          "name": "role",
          "type": "bytes32"
        }
      ],
      "name": "getRoleAdmin",
      "outputs": [
        {
          "internalType": "bytes32",
          "name": "",
          "type": "bytes32"
        }
      ],
      "stateMutability": "view",
      "type": "function"
    },
    {
      "inputs": [
        {
          "internalType": "bytes32",
          "name": "role",
          "type": "bytes32"
        },
        {
          "internalType": "uint256",
          "name": "index",
          "type": "uint256"
        }
      ],
      "name": "getRoleMember",
      "outputs": [
        {
          "internalType": "address",
          "name": "",
          "type": "address"
        }
      ],
      "stateMutability": "view",
      "type": "function"
    },
    {
      "inputs": [
        {
          "internalType": "bytes32",
          "name": "role",
          "type": "bytes32"
        }
      ],
      "name": "getRoleMemberCount",
      "outputs": [
        {
          "internalType": "uint256",
          "name": "",
          "type": "uint256"
        }
      ],
      "stateMutability": "view",
      "type": "function"
    },
    {
      "inputs": [
        {
          "internalType": "uint256",
          "name": "tradeId",
          "type": "uint256"
        }
      ],
      "name": "getTrade",
      "outputs": [
        {
          "components": [
            {
              "internalType": "enum Structs.Status",
              "name": "status",
              "type": "uint8"
            },
            {
              "internalType": "address",
              "name": "party",
              "type": "address"
            },
            {
              "internalType": "address",
              "name": "counterparty",
              "type": "address"
            },
            {
              "components": [
                {
                  "internalType": "address",
                  "name": "_address",
                  "type": "address"
                },
                {
                  "internalType": "uint256",
                  "name": "id",
                  "type": "uint256"
                },
                {
                  "internalType": "uint256",
                  "name": "amount",
                  "type": "uint256"
                },
                {
                  "internalType": "enum Structs.AssetType",
                  "name": "assetType",
                  "type": "uint8"
                }
              ],
              "internalType": "struct Structs.Asset[]",
              "name": "partyAssets",
              "type": "tuple[]"
            },
            {
              "components": [
                {
                  "internalType": "address",
                  "name": "_address",
                  "type": "address"
                },
                {
                  "internalType": "uint256",
                  "name": "id",
                  "type": "uint256"
                },
                {
                  "internalType": "uint256",
                  "name": "amount",
                  "type": "uint256"
                },
                {
                  "internalType": "enum Structs.AssetType",
                  "name": "assetType",
                  "type": "uint8"
                }
              ],
              "internalType": "struct Structs.Asset[]",
              "name": "counterpartyAssets",
              "type": "tuple[]"
            }
          ],
          "internalType": "struct Structs.Trade",
          "name": "",
          "type": "tuple"
        }
      ],
      "stateMutability": "view",
      "type": "function"
    },
    {
      "inputs": [
        {
          "internalType": "bytes32",
          "name": "role",
          "type": "bytes32"
        },
        {
          "internalType": "address",
          "name": "account",
          "type": "address"
        }
      ],
      "name": "grantRole",
      "outputs": [],
      "stateMutability": "nonpayable",
      "type": "function"
    },
    {
      "inputs": [
        {
          "internalType": "bytes32",
          "name": "role",
          "type": "bytes32"
        },
        {
          "internalType": "address",
          "name": "account",
          "type": "address"
        }
      ],
      "name": "hasRole",
      "outputs": [
        {
          "internalType": "bool",
          "name": "",
          "type": "bool"
        }
      ],
      "stateMutability": "view",
      "type": "function"
    },
    {
      "inputs": [],
      "name": "initialize",
      "outputs": [],
      "stateMutability": "nonpayable",
      "type": "function"
    },
    {
      "inputs": [
        {
          "internalType": "uint256",
          "name": "id",
          "type": "uint256"
        }
      ],
      "name": "isValidTradeId",
      "outputs": [
        {
          "internalType": "bool",
          "name": "",
          "type": "bool"
        }
      ],
      "stateMutability": "view",
      "type": "function"
    },
    {
      "inputs": [],
      "name": "pause",
      "outputs": [],
      "stateMutability": "nonpayable",
      "type": "function"
    },
    {
      "inputs": [],
      "name": "paused",
      "outputs": [
        {
          "internalType": "bool",
          "name": "",
          "type": "bool"
        }
      ],
      "stateMutability": "view",
      "type": "function"
    },
    {
      "inputs": [],
      "name": "proxiableUUID",
      "outputs": [
        {
          "internalType": "bytes32",
          "name": "",
          "type": "bytes32"
        }
      ],
      "stateMutability": "view",
      "type": "function"
    },
    {
      "inputs": [
        {
          "internalType": "bytes32",
          "name": "role",
          "type": "bytes32"
        },
        {
          "internalType": "address",
          "name": "account",
          "type": "address"
        }
      ],
      "name": "renounceRole",
      "outputs": [],
      "stateMutability": "nonpayable",
      "type": "function"
    },
    {
      "inputs": [
        {
          "internalType": "bytes32",
          "name": "role",
          "type": "bytes32"
        },
        {
          "internalType": "address",
          "name": "account",
          "type": "address"
        }
      ],
      "name": "revokeRole",
      "outputs": [],
      "stateMutability": "nonpayable",
      "type": "function"
    },
    {
      "inputs": [
        {
          "internalType": "uint256",
          "name": "fee",
          "type": "uint256"
        }
      ],
      "name": "setFee",
      "outputs": [],
      "stateMutability": "nonpayable",
      "type": "function"
    },
    {
      "inputs": [
        {
          "internalType": "address",
          "name": "token",
          "type": "address"
        }
      ],
      "name": "setFeeToken",
      "outputs": [],
      "stateMutability": "nonpayable",
      "type": "function"
    },
    {
      "inputs": [],
      "name": "setFeeTokenSelfApproval",
      "outputs": [],
      "stateMutability": "nonpayable",
      "type": "function"
    },
    {
      "inputs": [
        {
          "internalType": "address",
          "name": "treasury",
          "type": "address"
        }
      ],
      "name": "setFeeTreasury",
      "outputs": [],
      "stateMutability": "nonpayable",
      "type": "function"
    },
    {
      "inputs": [
        {
          "internalType": "bytes4",
          "name": "interfaceId",
          "type": "bytes4"
        }
      ],
      "name": "supportsInterface",
      "outputs": [
        {
          "internalType": "bool",
          "name": "",
          "type": "bool"
        }
      ],
      "stateMutability": "view",
      "type": "function"
    },
    {
      "inputs": [],
      "name": "unpause",
      "outputs": [],
      "stateMutability": "nonpayable",
      "type": "function"
    },
    {
      "inputs": [
        {
          "internalType": "address",
          "name": "newImplementation",
          "type": "address"
        }
      ],
      "name": "upgradeTo",
      "outputs": [],
      "stateMutability": "nonpayable",
      "type": "function"
    },
    {
      "inputs": [
        {
          "internalType": "address",
          "name": "newImplementation",
          "type": "address"
        },
        {
          "internalType": "bytes",
          "name": "data",
          "type": "bytes"
        }
      ],
      "name": "upgradeToAndCall",
      "outputs": [],
      "stateMutability": "payable",
      "type": "function"
    },
    {
      "inputs": [],
      "name": "userFee",
      "outputs": [
        {
          "internalType": "uint256",
          "name": "",
          "type": "uint256"
        }
      ],
      "stateMutability": "view",
      "type": "function"
    }
  ],
  "bytecode": "0x60a0604052306080523480156200001557600080fd5b506200002062000026565b620000e7565b600054610100900460ff1615620000935760405162461bcd60e51b815260206004820152602760248201527f496e697469616c697a61626c653a20636f6e747261637420697320696e697469604482015266616c697a696e6760c81b606482015260840160405180910390fd5b60005460ff90811614620000e5576000805460ff191660ff9081179091556040519081527f7f26b83ff96e1f2b6a682f133852f6798a09c465da95921460cefb38474024989060200160405180910390a15b565b608051612f956200011f600039600081816109fe01528181610a3e01528181610afd01528181610b3d0152610bdf0152612f956000f3fe6080604052600436106101c25760003560e01c806360dc2340116100f757806391d1485411610095578063bfa37e3711610064578063bfa37e37146104dc578063ca15c873146104fc578063d547741f1461051c578063ecb9fec31461053c57600080fd5b806391d14854146104675780639c5b6a0814610487578063a217fddf146104a7578063b1244b23146104bc57600080fd5b806375b238fc116100d157806375b238fc146103fb5780638129fc1c1461041d5780638456cb59146104325780639010d07c1461044757600080fd5b806360dc234014610389578063647846a5146103bc57806369fe0e2d146103db57600080fd5b80633659cfe6116101645780634f1ef2861161013e5780634f1ef2861461033457806350ed6e1d1461034757806352d1902d1461035c5780635c975abb1461037157600080fd5b80633659cfe6146102e95780633f4ba83a1461030957806342a1bbd21461031e57600080fd5b8063248a9ca3116101a0578063248a9ca31461023e5780632db25e051461027c5780632f2ff15d146102a957806336568abe146102c957600080fd5b806301ffc9a7146101c757806309ec6cc7146101fc57806315cce2241461021e575b600080fd5b3480156101d357600080fd5b506101e76101e2366004612782565b61055c565b60405190151581526020015b60405180910390f35b34801561020857600080fd5b5061021c6102173660046127ac565b61056d565b005b34801561022a57600080fd5b5061021c6102393660046127da565b6106f5565b34801561024a57600080fd5b5061026e6102593660046127ac565b60009081526097602052604090206001015490565b6040519081526020016101f3565b34801561028857600080fd5b5061029c6102973660046127ac565b610709565b6040516101f39190612891565b3480156102b557600080fd5b5061021c6102c4366004612911565b61094b565b3480156102d557600080fd5b5061021c6102e4366004612911565b610975565b3480156102f557600080fd5b5061021c6103043660046127da565b6109f4565b34801561031557600080fd5b5061021c610ad3565b34801561032a57600080fd5b5061012f5461026e565b61021c610342366004612957565b610af3565b34801561035357600080fd5b5061021c610bbf565b34801561036857600080fd5b5061026e610bd2565b34801561037d57600080fd5b5060fb5460ff166101e7565b34801561039557600080fd5b5061012d546001600160a01b03165b6040516001600160a01b0390911681526020016101f3565b3480156103c857600080fd5b5061012e546001600160a01b03166103a4565b3480156103e757600080fd5b5061021c6103f63660046127ac565b610c85565b34801561040757600080fd5b5061026e600080516020612f4083398151915281565b34801561042957600080fd5b5061021c610c99565b34801561043e57600080fd5b5061021c610de4565b34801561045357600080fd5b506103a4610462366004612a1b565b610e04565b34801561047357600080fd5b506101e7610482366004612911565b610e23565b34801561049357600080fd5b5061021c6104a2366004612a89565b610e4e565b3480156104b357600080fd5b5061026e600081565b3480156104c857600080fd5b506101e76104d73660046127ac565b6110b2565b3480156104e857600080fd5b5061021c6104f73660046127da565b6110c7565b34801561050857600080fd5b5061026e6105173660046127ac565b6110db565b34801561052857600080fd5b5061021c610537366004612911565b6110f2565b34801561054857600080fd5b5061021c6105573660046127ac565b611117565b6000610567826112d4565b92915050565b610576816110b2565b61059357604051639af21d9560e01b815260040160405180910390fd5b60008181526101f56020526040902060018101546001600160a01b031633148015906105ce5750805461010090046001600160a01b03163314155b156105ec576040516365b2505160e11b815260040160405180910390fd5b6000815460ff166003811115610604576106046127f7565b1461062257604051630279c1c360e21b815260040160405180910390fd5b805461010090046001600160a01b0316331461063f576002610642565b60035b8154829060ff1916600183600381111561065e5761065e6127f7565b0217905550805461067c9061010090046001600160a01b03166112f9565b805461010090046001600160a01b031633036106c357604051829033907fc036ffe8eab201772430a4259f57e5ed5cd8fc42ecc80be53bb03012d983aea090600090a35050565b604051829033907f5dc62d06bbf63678169b74e8d18b97da8e3b71fad35dbd7da92eb04075c3846a90600090a35b5050565b600061070081611523565b6106f18261152d565b6040805160a081018252600080825260208201819052918101919091526060808201819052608082015261073c826110b2565b61075957604051639af21d9560e01b815260040160405180910390fd5b60008281526101f5602052604090819020815160a081019092528054829060ff16600381111561078b5761078b6127f7565b600381111561079c5761079c6127f7565b815281546001600160a01b0361010090910481166020808401919091526001840154909116604080840191909152600284018054825181850281018501909352808352606090940193919290919060009084015b82821015610880576000848152602090819020604080516080810182526004860290920180546001600160a01b03168352600181015493830193909352600280840154918301919091526003830154919291606084019160ff9091169081111561085c5761085c6127f7565b600281111561086d5761086d6127f7565b81525050815260200190600101906107f0565b50505050815260200160038201805480602002602001604051908101604052809291908181526020016000905b8282101561093d576000848152602090819020604080516080810182526004860290920180546001600160a01b03168352600181015493830193909352600280840154918301919091526003830154919291606084019160ff90911690811115610919576109196127f7565b600281111561092a5761092a6127f7565b81525050815260200190600101906108ad565b505050915250909392505050565b60008281526097602052604090206001015461096681611523565b6109708383611589565b505050565b6001600160a01b03811633146109ea5760405162461bcd60e51b815260206004820152602f60248201527f416363657373436f6e74726f6c3a2063616e206f6e6c792072656e6f756e636560448201526e103937b632b9903337b91039b2b63360891b60648201526084015b60405180910390fd5b6106f182826115ab565b6001600160a01b037f0000000000000000000000000000000000000000000000000000000000000000163003610a3c5760405162461bcd60e51b81526004016109e190612b0c565b7f00000000000000000000000000000000000000000000000000000000000000006001600160a01b0316610a85600080516020612ef9833981519152546001600160a01b031690565b6001600160a01b031614610aab5760405162461bcd60e51b81526004016109e190612b58565b610ab4816115cd565b60408051600080825260208201909252610ad0918391906115d8565b50565b600080516020612f40833981519152610aeb81611523565b610ad0611743565b6001600160a01b037f0000000000000000000000000000000000000000000000000000000000000000163003610b3b5760405162461bcd60e51b81526004016109e190612b0c565b7f00000000000000000000000000000000000000000000000000000000000000006001600160a01b0316610b84600080516020612ef9833981519152546001600160a01b031690565b6001600160a01b031614610baa5760405162461bcd60e51b81526004016109e190612b58565b610bb3826115cd565b6106f1828260016115d8565b6000610bca81611523565b610ad0611795565b6000306001600160a01b037f00000000000000000000000000000000000000000000000000000000000000001614610c725760405162461bcd60e51b815260206004820152603860248201527f555550535570677261646561626c653a206d757374206e6f742062652063616c60448201527f6c6564207468726f7567682064656c656761746563616c6c000000000000000060648201526084016109e1565b50600080516020612ef983398151915290565b6000610c9081611523565b6106f18261180c565b600054610100900460ff1615808015610cb95750600054600160ff909116105b80610cd35750303b158015610cd3575060005460ff166001145b610d365760405162461bcd60e51b815260206004820152602e60248201527f496e697469616c697a61626c653a20636f6e747261637420697320616c72656160448201526d191e481a5b9a5d1a585b1a5e995960921b60648201526084016109e1565b6000805460ff191660011790558015610d59576000805461ff0019166101001790555b610d61611858565b610d69611889565b610d716118b0565b610d79611889565b610d84600033611589565b610d9c600080516020612f4083398151915233611589565b8015610ad0576000805461ff0019169055604051600181527f7f26b83ff96e1f2b6a682f133852f6798a09c465da95921460cefb38474024989060200160405180910390a150565b600080516020612f40833981519152610dfc81611523565b610ad06118df565b600082815260c960205260408120610e1c908361191c565b9392505050565b60009182526097602090815260408084206001600160a01b0393909316845291905290205460ff1690565b61012f5415610f135761012e5461012f546040516323b872dd60e01b815233600482015230602482015260448101919091526001600160a01b03909116906323b872dd906064016020604051808303816000875af1158015610eb4573d6000803e3d6000fd5b505050506040513d601f19601f82011682018060405250810190610ed89190612ba4565b5061012f5460405190815233907f075a2720282fdf622141dae0b048ef90a21a7e57c134c76912d19d006b3b3f6f9060200160405180910390a25b6000610f1d611928565b60008181526101f5602052604090208054610100600160a81b03191633610100021781559091506001600160a01b038716610f6b57604051634f1332db60e01b815260040160405180910390fd5b6001810180546001600160a01b0319166001600160a01b0389161790558460005b81811015610fed5782600201888883818110610faa57610faa612bc6565b835460018101855560009485526020909420608090910292909201926004029091019050610fd88282612be9565b50508080610fe590612c70565b915050610f8c565b5083905060005b81811015611055578260030186868381811061101257611012612bc6565b8354600181018555600094855260209094206080909102929092019260040290910190506110408282612be9565b5050808061104d90612c70565b915050610ff4565b50876001600160a01b031683336001600160a01b03167f9b54f614296fc183a3ebcc288f174fdca7d0bd7fbd804df3424096421c7f497b8a8a8a8a6040516110a09493929190612cf9565b60405180910390a45050505050505050565b60006110be61015f5490565b90911115919050565b60006110d281611523565b6106f182611941565b600081815260c96020526040812061056790611992565b60008281526097602052604090206001015461110d81611523565b61097083836115ab565b61012f5415801590611134575061012d546001600160a01b031615155b156111f75761012e5461012d5461012f5460405163a9059cbb60e01b81526001600160a01b039283166004820152602481019190915291169063a9059cbb906044016020604051808303816000875af1158015611195573d6000803e3d6000fd5b505050506040513d601f19601f820116820180604052508101906111b99190612ba4565b507f059d45db317199d98730cfff4074706af9cebb161f0a797e4a3905b300f3130161012f546040516111ee91815260200190565b60405180910390a15b611200816110b2565b61121d57604051639af21d9560e01b815260040160405180910390fd5b60008181526101f56020526040902060018101546001600160a01b03163314611259576040516365b2505160e11b815260040160405180910390fd5b6000815460ff166003811115611271576112716127f7565b1461128f57604051630279c1c360e21b815260040160405180910390fd5b805460ff191660011781556112a38161199c565b604051829033907f5f6b7be9b0a870b23b27477836abafd0650ac576e5d6e6976232d803c3b1005f90600090a35050565b60006001600160e01b03198216635a05180f60e01b14806105675750610567826119eb565b61012f5415610ad05761012e5461012f546001600160a01b039091169063a9059cbb90839061132a90600490612d20565b611335906003612d42565b6040516001600160e01b031960e085901b1681526001600160a01b03909216600483015260248201526044016020604051808303816000875af1158015611380573d6000803e3d6000fd5b505050506040513d601f19601f820116820180604052508101906113a49190612ba4565b5061012d546001600160a01b0316156114c85761012e5461012d5461012f546001600160a01b039283169263a9059cbb9216906113e390600490612d20565b6113ee906003612d42565b61012f546113fc9190612d59565b6040516001600160e01b031960e085901b1681526001600160a01b03909216600483015260248201526044016020604051808303816000875af1158015611447573d6000803e3d6000fd5b505050506040513d601f19601f8201168201806040525081019061146b9190612ba4565b507f059d45db317199d98730cfff4074706af9cebb161f0a797e4a3905b300f31301600461012f5461149d9190612d20565b6114a8906003612d42565b61012f546114b69190612d59565b60405190815260200160405180910390a15b336001600160a01b03167f3437b9ea7fa19c6d233dd70cc787a70fab87cee64d8ba4571512cc84402748f9600461012f546115039190612d20565b61150e906003612d42565b6040519081526020015b60405180910390a250565b610ad08133611a20565b61012e80546001600160a01b0319166001600160a01b03831690811790915561012f5460408051928352602083019190915233917fe79c98674461ff4148d44bd2ffe46f5346a33ca14909e65b9aae5e58639454a39101611518565b6115938282611a79565b600082815260c9602052604090206109709082611aff565b6115b58282611b14565b600082815260c9602052604090206109709082611b7b565b60006106f181611523565b7f4910fdfa16fed3260ed0e7147f7cc6da11a60208b5b9406d12a635614ffd91435460ff161561160b5761097083611b90565b826001600160a01b03166352d1902d6040518163ffffffff1660e01b8152600401602060405180830381865afa925050508015611665575060408051601f3d908101601f1916820190925261166291810190612d6c565b60015b6116c85760405162461bcd60e51b815260206004820152602e60248201527f45524331393637557067726164653a206e657720696d706c656d656e7461746960448201526d6f6e206973206e6f74205555505360901b60648201526084016109e1565b600080516020612ef983398151915281146117375760405162461bcd60e51b815260206004820152602960248201527f45524331393637557067726164653a20756e737570706f727465642070726f786044820152681a58589b195555525160ba1b60648201526084016109e1565b50610970838383611c2c565b61174b611c57565b60fb805460ff191690557f5db9ee0a495bf2e6ff9c91a7834c1ba4fdd244a5e8aa4e537bd38aeae4b073aa335b6040516001600160a01b03909116815260200160405180910390a1565b61012e5460405163095ea7b360e01b815230600482015260001960248201526001600160a01b039091169063095ea7b3906044016020604051808303816000875af11580156117e8573d6000803e3d6000fd5b505050506040513d601f19601f82011682018060405250810190610ad09190612ba4565b61012f81905561012d54604080516001600160a01b0390921682526020820183905233917fe79c98674461ff4148d44bd2ffe46f5346a33ca14909e65b9aae5e58639454a39101611518565b600054610100900460ff1661187f5760405162461bcd60e51b81526004016109e190612d85565b611887611ca0565b565b600054610100900460ff166118875760405162461bcd60e51b81526004016109e190612d85565b600054610100900460ff166118d75760405162461bcd60e51b81526004016109e190612d85565b611887611ccd565b6118e7611d00565b60fb805460ff191660011790557f62e78cea01bee320cd4e420270b5ea74000d11b0c9f74754ebdbfc544b05a2586117783390565b6000610e1c8383611d46565b600061193961015f80546001019055565b5061015f5490565b61012d80546001600160a01b0319166001600160a01b03831690811790915560405190815233907f4ab5be82436d353e61ca18726e984e561f5c1cc7c6d38b29d2553c790434705a90602001611518565b6000610567825490565b805460018201546119c39160028401916001600160a01b0361010090920482169116611d70565b60018101548154610ad09160038401916001600160a01b039182169161010090910416611d70565b60006001600160e01b03198216637965db0b60e01b148061056757506301ffc9a760e01b6001600160e01b0319831614610567565b611a2a8282610e23565b6106f157611a3781611dc0565b611a42836020611dd2565b604051602001611a53929190612df4565b60408051601f198184030181529082905262461bcd60e51b82526109e191600401612e69565b611a838282610e23565b6106f15760008281526097602090815260408083206001600160a01b03851684529091529020805460ff19166001179055611abb3390565b6001600160a01b0316816001600160a01b0316837f2f8788117e7eff1d82e926ec794901d17c78024a50270940304540a733656f0d60405160405180910390a45050565b6000610e1c836001600160a01b038416611f6e565b611b1e8282610e23565b156106f15760008281526097602090815260408083206001600160a01b0385168085529252808320805460ff1916905551339285917ff6391f5c32d9c69d2a47ea670b442974b53935d1edc7fd64eb21e047a839171b9190a45050565b6000610e1c836001600160a01b038416611fbd565b6001600160a01b0381163b611bfd5760405162461bcd60e51b815260206004820152602d60248201527f455243313936373a206e657720696d706c656d656e746174696f6e206973206e60448201526c1bdd08184818dbdb9d1c9858dd609a1b60648201526084016109e1565b600080516020612ef983398151915280546001600160a01b0319166001600160a01b0392909216919091179055565b611c35836120b0565b600082511180611c425750805b1561097057611c5183836120f0565b50505050565b60fb5460ff166118875760405162461bcd60e51b815260206004820152601460248201527314185d5cd8589b194e881b9bdd081c185d5cd95960621b60448201526064016109e1565b600054610100900460ff16611cc75760405162461bcd60e51b81526004016109e190612d85565b60018055565b600054610100900460ff16611cf45760405162461bcd60e51b81526004016109e190612d85565b60fb805460ff19169055565b60fb5460ff16156118875760405162461bcd60e51b815260206004820152601060248201526f14185d5cd8589b194e881c185d5cd95960821b60448201526064016109e1565b6000826000018281548110611d5d57611d5d612bc6565b9060005260206000200154905092915050565b825460005b81811015611db957611da7858281548110611d9257611d92612bc6565b90600052602060002090600402018585612115565b80611db181612c70565b915050611d75565b5050505050565b60606105676001600160a01b03831660145b60606000611de1836002612d42565b611dec906002612e9c565b67ffffffffffffffff811115611e0457611e04612941565b6040519080825280601f01601f191660200182016040528015611e2e576020820181803683370190505b509050600360fc1b81600081518110611e4957611e49612bc6565b60200101906001600160f81b031916908160001a905350600f60fb1b81600181518110611e7857611e78612bc6565b60200101906001600160f81b031916908160001a9053506000611e9c846002612d42565b611ea7906001612e9c565b90505b6001811115611f1f576f181899199a1a9b1b9c1cb0b131b232b360811b85600f1660108110611edb57611edb612bc6565b1a60f81b828281518110611ef157611ef1612bc6565b60200101906001600160f81b031916908160001a90535060049490941c93611f1881612eaf565b9050611eaa565b508315610e1c5760405162461bcd60e51b815260206004820181905260248201527f537472696e67733a20686578206c656e67746820696e73756666696369656e7460448201526064016109e1565b6000818152600183016020526040812054611fb557508154600181810184556000848152602080822090930184905584548482528286019093526040902091909155610567565b506000610567565b600081815260018301602052604081205480156120a6576000611fe1600183612d59565b8554909150600090611ff590600190612d59565b905081811461205a57600086600001828154811061201557612015612bc6565b906000526020600020015490508087600001848154811061203857612038612bc6565b6000918252602080832090910192909255918252600188019052604090208390555b855486908061206b5761206b612ec6565b600190038181906000526020600020016000905590558560010160008681526020019081526020016000206000905560019350505050610567565b6000915050610567565b6120b981611b90565b6040516001600160a01b038216907fbc7cd75a20ee27fd9adebab32041f755214dbc6bffa90cc0225b39da2e5c2d3b90600090a250565b6060610e1c8383604051806060016040528060278152602001612f19602791396121af565b6000600384015460ff166002811115612130576121306127f7565b0361214057610970838383612227565b6002600384015460ff16600281111561215b5761215b6127f7565b0361216b57610970838383612366565b6001600384015460ff166002811115612186576121866127f7565b03612196576109708383836123dd565b60405163b8bcee3f60e01b815260040160405180910390fd5b6060600080856001600160a01b0316856040516121cc9190612edc565b600060405180830381855af49150503d8060008114612207576040519150601f19603f3d011682016040523d82523d6000602084013e61220c565b606091505b509150915061221d86838387612523565b9695505050505050565b82546040516370a0823160e01b81526001600160a01b0383811660048301529091169060009082906370a0823190602401602060405180830381865afa158015612275573d6000803e3d6000fd5b505050506040513d601f19601f820116820180604052508101906122999190612d6c565b90506122bf84848760020154856001600160a01b03166125a4909392919063ffffffff16565b6040516370a0823160e01b81526001600160a01b038481166004830152600091908416906370a08231906024015b602060405180830381865afa15801561230a573d6000803e3d6000fd5b505050506040513d601f19601f8201168201806040525081019061232e9190612d6c565b60028701549091506123408383612d59565b1461235e5760405163292e744760e11b815260040160405180910390fd5b505050505050565b82546001840154604051632142170760e11b81526001600160a01b038581166004830152848116602483015260448201929092529116906342842e0e90606401600060405180830381600087803b1580156123c057600080fd5b505af11580156123d4573d6000803e3d6000fd5b50505050505050565b82546001840154604051627eeac760e11b81526001600160a01b0384811660048301526024820192909252911690600090829062fdd58e90604401602060405180830381865afa158015612435573d6000803e3d6000fd5b505050506040513d601f19601f820116820180604052508101906124599190612d6c565b60018601546002870154604051637921219560e11b81526001600160a01b03888116600483015287811660248301526044820193909352606481019190915260a06084820152600060a482015291925083169063f242432a9060c401600060405180830381600087803b1580156124cf57600080fd5b505af11580156124e3573d6000803e3d6000fd5b505050506001850154604051627eeac760e11b81526001600160a01b038581166004830152602482019290925260009184169062fdd58e906044016122ed565b6060831561259257825160000361258b576001600160a01b0385163b61258b5760405162461bcd60e51b815260206004820152601d60248201527f416464726573733a2063616c6c20746f206e6f6e2d636f6e747261637400000060448201526064016109e1565b508161259c565b61259c83836125fe565b949350505050565b604080516001600160a01b0385811660248301528416604482015260648082018490528251808303909101815260849091019091526020810180516001600160e01b03166323b872dd60e01b179052611c51908590612628565b81511561260e5781518083602001fd5b8060405162461bcd60e51b81526004016109e19190612e69565b600061267d826040518060400160405280602081526020017f5361666545524332303a206c6f772d6c6576656c2063616c6c206661696c6564815250856001600160a01b03166126fd9092919063ffffffff16565b905080516000148061269e57508080602001905181019061269e9190612ba4565b6109705760405162461bcd60e51b815260206004820152602a60248201527f5361666545524332303a204552433230206f7065726174696f6e20646964206e6044820152691bdd081cdd58d8d9595960b21b60648201526084016109e1565b606061259c848460008585600080866001600160a01b031685876040516127249190612edc565b60006040518083038185875af1925050503d8060008114612761576040519150601f19603f3d011682016040523d82523d6000602084013e612766565b606091505b509150915061277787838387612523565b979650505050505050565b60006020828403121561279457600080fd5b81356001600160e01b031981168114610e1c57600080fd5b6000602082840312156127be57600080fd5b5035919050565b6001600160a01b0381168114610ad057600080fd5b6000602082840312156127ec57600080fd5b8135610e1c816127c5565b634e487b7160e01b600052602160045260246000fd5b6003811061281d5761281d6127f7565b9052565b600081518084526020808501945080840160005b8381101561288657815180516001600160a01b0316885283810151848901526040808201519089015260609081015190612871818a018361280d565b50506080969096019590820190600101612835565b509495945050505050565b6020815260008251600481106128a9576128a96127f7565b80602084015250602083015160018060a01b0380821660408501528060408601511660608501525050606083015160a060808401526128eb60c0840182612821565b90506080840151601f198483030160a08501526129088282612821565b95945050505050565b6000806040838503121561292457600080fd5b823591506020830135612936816127c5565b809150509250929050565b634e487b7160e01b600052604160045260246000fd5b6000806040838503121561296a57600080fd5b8235612975816127c5565b9150602083013567ffffffffffffffff8082111561299257600080fd5b818501915085601f8301126129a657600080fd5b8135818111156129b8576129b8612941565b604051601f8201601f19908116603f011681019083821181831017156129e0576129e0612941565b816040528281528860208487010111156129f957600080fd5b8260208601602083013760006020848301015280955050505050509250929050565b60008060408385031215612a2e57600080fd5b50508035926020909101359150565b60008083601f840112612a4f57600080fd5b50813567ffffffffffffffff811115612a6757600080fd5b6020830191508360208260071b8501011115612a8257600080fd5b9250929050565b600080600080600060608688031215612aa157600080fd5b8535612aac816127c5565b9450602086013567ffffffffffffffff80821115612ac957600080fd5b612ad589838a01612a3d565b90965094506040880135915080821115612aee57600080fd5b50612afb88828901612a3d565b969995985093965092949392505050565b6020808252602c908201527f46756e6374696f6e206d7573742062652063616c6c6564207468726f7567682060408201526b19195b1959d85d1958d85b1b60a21b606082015260800190565b6020808252602c908201527f46756e6374696f6e206d7573742062652063616c6c6564207468726f7567682060408201526b6163746976652070726f787960a01b606082015260800190565b600060208284031215612bb657600080fd5b81518015158114610e1c57600080fd5b634e487b7160e01b600052603260045260246000fd5b60038110610ad057600080fd5b8135612bf4816127c5565b81546001600160a01b0319166001600160a01b03919091161781556020820135600182015560408201356002820155600381016060830135612c3581612bdc565b60038110612c4557612c456127f7565b60ff1982541660ff8216811783555050505050565b634e487b7160e01b600052601160045260246000fd5b600060018201612c8257612c82612c5a565b5060010190565b8183526000602080850194508260005b85811015612886578135612cac816127c5565b6001600160a01b03168752818301358388015260408083013590880152606080830135612cd881612bdc565b612ce4828a018261280d565b50506080968701969190910190600101612c99565b604081526000612d0d604083018688612c89565b8281036020840152612777818587612c89565b600082612d3d57634e487b7160e01b600052601260045260246000fd5b500490565b808202811582820484141761056757610567612c5a565b8181038181111561056757610567612c5a565b600060208284031215612d7e57600080fd5b5051919050565b6020808252602b908201527f496e697469616c697a61626c653a20636f6e7472616374206973206e6f74206960408201526a6e697469616c697a696e6760a81b606082015260800190565b60005b83811015612deb578181015183820152602001612dd3565b50506000910152565b7f416363657373436f6e74726f6c3a206163636f756e7420000000000000000000815260008351612e2c816017850160208801612dd0565b7001034b99036b4b9b9b4b733903937b6329607d1b6017918401918201528351612e5d816028840160208801612dd0565b01602801949350505050565b6020815260008251806020840152612e88816040850160208701612dd0565b601f01601f19169190910160400192915050565b8082018082111561056757610567612c5a565b600081612ebe57612ebe612c5a565b506000190190565b634e487b7160e01b600052603160045260246000fd5b60008251612eee818460208701612dd0565b919091019291505056fe360894a13ba1a3210667c828492db98dca3e2076cc3735a920a3ca505d382bbc416464726573733a206c6f772d6c6576656c2064656c65676174652063616c6c206661696c6564a49807205ce4d355092ef5a8a18f56e8913cf4a201fbe287825b095693c21775a264697066735822122076f377a2484e2c496a916bb5fdb691c05b32bbd99b32c4d68998c1cfb78e73c864736f6c63430008140033",
  "linkReferences": {},
  "deployedLinkReferences": {}
}