{
  "_format": "hh-sol-artifact-1",
  "contractName": "Tradescrow",
  "sourceName": "contracts/Tradescrow.sol",
  "abi": [
    {
      "inputs": [
        {
          "internalType": "uint256",
          "name": "initialAppFee",
          "type": "uint256"
        },
        {
          "internalType": "address",
          "name": "contractOwnerAddress",
          "type": "address"
        }
      ],
      "stateMutability": "nonpayable",
      "type": "constructor"
    },
    {
      "anonymous": false,
      "inputs": [
        {
          "indexed": false,
          "internalType": "uint256",
          "name": "fee",
          "type": "uint256"
        }
      ],
      "name": "AppFeeChanged",
      "type": "event"
    },
    {
      "anonymous": false,
      "inputs": [
        {
          "indexed": true,
          "internalType": "address",
          "name": "previousOwner",
          "type": "address"
        },
        {
          "indexed": true,
          "internalType": "address",
          "name": "newOwner",
          "type": "address"
        }
      ],
      "name": "OwnershipTransferred",
      "type": "event"
    },
    {
      "anonymous": false,
      "inputs": [
        {
          "indexed": false,
          "internalType": "address",
          "name": "account",
          "type": "address"
        }
      ],
      "name": "Paused",
      "type": "event"
    },
    {
      "anonymous": false,
      "inputs": [
        {
          "indexed": true,
          "internalType": "address",
          "name": "cancelledBy",
          "type": "address"
        },
        {
          "indexed": true,
          "internalType": "uint256",
          "name": "swapId",
          "type": "uint256"
        }
      ],
      "name": "SwapCancelled",
      "type": "event"
    },
    {
      "anonymous": false,
      "inputs": [
        {
          "indexed": true,
          "internalType": "address",
          "name": "from",
          "type": "address"
        },
        {
          "indexed": true,
          "internalType": "address",
          "name": "to",
          "type": "address"
        },
        {
          "indexed": true,
          "internalType": "uint256",
          "name": "swapId",
          "type": "uint256"
        }
      ],
      "name": "SwapExecuted",
      "type": "event"
    },
    {
      "anonymous": false,
      "inputs": [
        {
          "indexed": true,
          "internalType": "address",
          "name": "from",
          "type": "address"
        },
        {
          "indexed": true,
          "internalType": "address",
          "name": "to",
          "type": "address"
        },
        {
          "indexed": true,
          "internalType": "uint256",
          "name": "swapId",
          "type": "uint256"
        },
        {
          "components": [
            {
              "internalType": "address payable",
              "name": "addr",
              "type": "address"
            },
            {
              "internalType": "uint256",
              "name": "native",
              "type": "uint256"
            },
            {
              "components": [
                {
                  "internalType": "address",
                  "name": "addr",
                  "type": "address"
                },
                {
                  "internalType": "uint256",
                  "name": "amount",
                  "type": "uint256"
                },
                {
                  "internalType": "uint256",
                  "name": "id",
                  "type": "uint256"
                }
              ],
              "internalType": "struct Tradescrow.Nft[]",
              "name": "nfts",
              "type": "tuple[]"
            },
            {
              "components": [
                {
                  "internalType": "address",
                  "name": "addr",
                  "type": "address"
                },
                {
                  "internalType": "uint256",
                  "name": "amount",
                  "type": "uint256"
                }
              ],
              "internalType": "struct Tradescrow.Coin[]",
              "name": "coins",
              "type": "tuple[]"
            }
          ],
          "indexed": false,
          "internalType": "struct Tradescrow.Offer",
          "name": "",
          "type": "tuple"
        }
      ],
      "name": "SwapInitiated",
      "type": "event"
    },
    {
      "anonymous": false,
      "inputs": [
        {
          "indexed": true,
          "internalType": "address",
          "name": "from",
          "type": "address"
        },
        {
          "indexed": true,
          "internalType": "address",
          "name": "to",
          "type": "address"
        },
        {
          "indexed": true,
          "internalType": "uint256",
          "name": "swapId",
          "type": "uint256"
        },
        {
          "components": [
            {
              "internalType": "address payable",
              "name": "addr",
              "type": "address"
            },
            {
              "internalType": "uint256",
              "name": "native",
              "type": "uint256"
            },
            {
              "components": [
                {
                  "internalType": "address",
                  "name": "addr",
                  "type": "address"
                },
                {
                  "internalType": "uint256",
                  "name": "amount",
                  "type": "uint256"
                },
                {
                  "internalType": "uint256",
                  "name": "id",
                  "type": "uint256"
                }
              ],
              "internalType": "struct Tradescrow.Nft[]",
              "name": "nfts",
              "type": "tuple[]"
            },
            {
              "components": [
                {
                  "internalType": "address",
                  "name": "addr",
                  "type": "address"
                },
                {
                  "internalType": "uint256",
                  "name": "amount",
                  "type": "uint256"
                }
              ],
              "internalType": "struct Tradescrow.Coin[]",
              "name": "coins",
              "type": "tuple[]"
            }
          ],
          "indexed": false,
          "internalType": "struct Tradescrow.Offer",
          "name": "",
          "type": "tuple"
        }
      ],
      "name": "SwapProposed",
      "type": "event"
    },
    {
      "anonymous": false,
      "inputs": [
        {
          "indexed": false,
          "internalType": "address",
          "name": "account",
          "type": "address"
        }
      ],
      "name": "Unpaused",
      "type": "event"
    },
    {
      "inputs": [
        {
          "internalType": "uint256",
          "name": "swapId",
          "type": "uint256"
        }
      ],
      "name": "acceptSwap",
      "outputs": [],
      "stateMutability": "nonpayable",
      "type": "function"
    },
    {
      "inputs": [
        {
          "internalType": "uint256",
          "name": "swapId",
          "type": "uint256"
        }
      ],
      "name": "cancelSwap",
      "outputs": [],
      "stateMutability": "nonpayable",
      "type": "function"
    },
    {
      "inputs": [],
      "name": "fee",
      "outputs": [
        {
          "internalType": "uint256",
          "name": "",
          "type": "uint256"
        }
      ],
      "stateMutability": "view",
      "type": "function"
    },
    {
      "inputs": [
        {
          "internalType": "uint256",
          "name": "swapId",
          "type": "uint256"
        },
        {
          "components": [
            {
              "internalType": "address payable",
              "name": "addr",
              "type": "address"
            },
            {
              "internalType": "uint256",
              "name": "native",
              "type": "uint256"
            },
            {
              "components": [
                {
                  "internalType": "address",
                  "name": "addr",
                  "type": "address"
                },
                {
                  "internalType": "uint256",
                  "name": "amount",
                  "type": "uint256"
                },
                {
                  "internalType": "uint256",
                  "name": "id",
                  "type": "uint256"
                }
              ],
              "internalType": "struct Tradescrow.Nft[]",
              "name": "nfts",
              "type": "tuple[]"
            },
            {
              "components": [
                {
                  "internalType": "address",
                  "name": "addr",
                  "type": "address"
                },
                {
                  "internalType": "uint256",
                  "name": "amount",
                  "type": "uint256"
                }
              ],
              "internalType": "struct Tradescrow.Coin[]",
              "name": "coins",
              "type": "tuple[]"
            }
          ],
          "internalType": "struct Tradescrow.Offer",
          "name": "offer",
          "type": "tuple"
        }
      ],
      "name": "initiateSwap",
      "outputs": [],
      "stateMutability": "payable",
      "type": "function"
    },
    {
      "inputs": [
        {
          "internalType": "address",
          "name": "",
          "type": "address"
        },
        {
          "internalType": "address",
          "name": "",
          "type": "address"
        },
        {
          "internalType": "uint256[]",
          "name": "",
          "type": "uint256[]"
        },
        {
          "internalType": "uint256[]",
          "name": "",
          "type": "uint256[]"
        },
        {
          "internalType": "bytes",
          "name": "",
          "type": "bytes"
        }
      ],
      "name": "onERC1155BatchReceived",
      "outputs": [
        {
          "internalType": "bytes4",
          "name": "",
          "type": "bytes4"
        }
      ],
      "stateMutability": "nonpayable",
      "type": "function"
    },
    {
      "inputs": [
        {
          "internalType": "address",
          "name": "",
          "type": "address"
        },
        {
          "internalType": "address",
          "name": "",
          "type": "address"
        },
        {
          "internalType": "uint256",
          "name": "",
          "type": "uint256"
        },
        {
          "internalType": "uint256",
          "name": "",
          "type": "uint256"
        },
        {
          "internalType": "bytes",
          "name": "",
          "type": "bytes"
        }
      ],
      "name": "onERC1155Received",
      "outputs": [
        {
          "internalType": "bytes4",
          "name": "",
          "type": "bytes4"
        }
      ],
      "stateMutability": "nonpayable",
      "type": "function"
    },
    {
      "inputs": [
        {
          "internalType": "address",
          "name": "",
          "type": "address"
        },
        {
          "internalType": "address",
          "name": "",
          "type": "address"
        },
        {
          "internalType": "uint256",
          "name": "",
          "type": "uint256"
        },
        {
          "internalType": "bytes",
          "name": "",
          "type": "bytes"
        }
      ],
      "name": "onERC721Received",
      "outputs": [
        {
          "internalType": "bytes4",
          "name": "",
          "type": "bytes4"
        }
      ],
      "stateMutability": "nonpayable",
      "type": "function"
    },
    {
      "inputs": [],
      "name": "owner",
      "outputs": [
        {
          "internalType": "address",
          "name": "",
          "type": "address"
        }
      ],
      "stateMutability": "view",
      "type": "function"
    },
    {
      "inputs": [],
      "name": "paused",
      "outputs": [
        {
          "internalType": "bool",
          "name": "",
          "type": "bool"
        }
      ],
      "stateMutability": "view",
      "type": "function"
    },
    {
      "inputs": [
        {
          "internalType": "address",
          "name": "target",
          "type": "address"
        },
        {
          "components": [
            {
              "internalType": "address payable",
              "name": "addr",
              "type": "address"
            },
            {
              "internalType": "uint256",
              "name": "native",
              "type": "uint256"
            },
            {
              "components": [
                {
                  "internalType": "address",
                  "name": "addr",
                  "type": "address"
                },
                {
                  "internalType": "uint256",
                  "name": "amount",
                  "type": "uint256"
                },
                {
                  "internalType": "uint256",
                  "name": "id",
                  "type": "uint256"
                }
              ],
              "internalType": "struct Tradescrow.Nft[]",
              "name": "nfts",
              "type": "tuple[]"
            },
            {
              "components": [
                {
                  "internalType": "address",
                  "name": "addr",
                  "type": "address"
                },
                {
                  "internalType": "uint256",
                  "name": "amount",
                  "type": "uint256"
                }
              ],
              "internalType": "struct Tradescrow.Coin[]",
              "name": "coins",
              "type": "tuple[]"
            }
          ],
          "internalType": "struct Tradescrow.Offer",
          "name": "offer",
          "type": "tuple"
        }
      ],
      "name": "proposeSwap",
      "outputs": [
        {
          "internalType": "uint256",
          "name": "",
          "type": "uint256"
        }
      ],
      "stateMutability": "payable",
      "type": "function"
    },
    {
      "inputs": [],
      "name": "renounceOwnership",
      "outputs": [],
      "stateMutability": "nonpayable",
      "type": "function"
    },
    {
      "inputs": [
        {
          "internalType": "bytes4",
          "name": "interfaceId",
          "type": "bytes4"
        }
      ],
      "name": "supportsInterface",
      "outputs": [
        {
          "internalType": "bool",
          "name": "",
          "type": "bool"
        }
      ],
      "stateMutability": "view",
      "type": "function"
    },
    {
      "inputs": [
        {
          "internalType": "address",
          "name": "newOwner",
          "type": "address"
        }
      ],
      "name": "transferOwnership",
      "outputs": [],
      "stateMutability": "nonpayable",
      "type": "function"
    },
    {
      "inputs": [
        {
          "internalType": "uint256",
          "name": "newFee",
          "type": "uint256"
        }
      ],
      "name": "updateAppFee",
      "outputs": [],
      "stateMutability": "nonpayable",
      "type": "function"
    },
    {
      "inputs": [
        {
          "internalType": "address payable",
          "name": "recipient",
          "type": "address"
        }
      ],
      "name": "withdrawFees",
      "outputs": [],
      "stateMutability": "nonpayable",
      "type": "function"
    }
  ],
  "bytecode": "0x60806040523480156200001157600080fd5b5060405162002c9838038062002c98833981016040819052620000349162000196565b6200003f3362000071565b600180556002805460ff1916905560058290556200006981620000c1602090811b6200187917901c565b5050620001d5565b600080546001600160a01b038381166001600160a01b0319831681178455604051919092169283917f8be0079c531659141344cd1fd0a4f28419497f9722a3daafe3b4186f6b6457e09190a35050565b6000546001600160a01b03163314620001215760405162461bcd60e51b815260206004820181905260248201527f4f776e61626c653a2063616c6c6572206973206e6f7420746865206f776e657260448201526064015b60405180910390fd5b6001600160a01b038116620001885760405162461bcd60e51b815260206004820152602660248201527f4f776e61626c653a206e6577206f776e657220697320746865207a65726f206160448201526564647265737360d01b606482015260840162000118565b620001938162000071565b50565b60008060408385031215620001aa57600080fd5b825160208401519092506001600160a01b0381168114620001ca57600080fd5b809150509250929050565b612ab380620001e56000396000f3fe6080604052600436106100e85760003560e01c8063715018a61161008a578063bc197c8111610059578063bc197c8114610271578063ddca3f431461029d578063f23a6e61146102b3578063f2fde38b146102df57600080fd5b8063715018a6146102005780637cb1774d146102155780638da5cb5b14610228578063b5cbcb881461025057600080fd5b80631bf33004116100c65780631bf330041461018857806352492815146101a857806354d6a2b7146101c85780635c975abb146101e857600080fd5b806301ffc9a7146100ed578063150b7a0214610122578063164e68de14610166575b600080fd5b3480156100f957600080fd5b5061010d61010836600461219b565b6102ff565b60405190151581526020015b60405180910390f35b34801561012e57600080fd5b5061014d61013d366004612300565b630a85bd0160e11b949350505050565b6040516001600160e01b03199091168152602001610119565b34801561017257600080fd5b5061018661018136600461236c565b610336565b005b34801561019457600080fd5b506101866101a3366004612389565b610443565b3480156101b457600080fd5b506101866101c3366004612389565b610d4f565b3480156101d457600080fd5b506101866101e3366004612389565b610de0565b3480156101f457600080fd5b5060025460ff1661010d565b34801561020c57600080fd5b506101866112a3565b610186610223366004612575565b6112d9565b34801561023457600080fd5b506000546040516001600160a01b039091168152602001610119565b61026361025e3660046125bc565b6115fe565b604051908152602001610119565b34801561027d57600080fd5b5061014d61028c366004612651565b63bc197c8160e01b95945050505050565b3480156102a957600080fd5b5061026360055481565b3480156102bf57600080fd5b5061014d6102ce3660046126ff565b63f23a6e6160e01b95945050505050565b3480156102eb57600080fd5b506101866102fa36600461236c565b611879565b60006001600160e01b03198216630271189760e51b148061033057506301ffc9a760e01b6001600160e01b03198316145b92915050565b600260015414156103625760405162461bcd60e51b815260040161035990612768565b60405180910390fd5b60026001556000546001600160a01b031633146103915760405162461bcd60e51b81526004016103599061279f565b6001600160a01b0381166103f85760405162461bcd60e51b815260206004820152602860248201527f54726164657363726f773a207472616e7366657220746f20746865207a65726f604482015267206164647265737360c01b6064820152608401610359565b806001600160a01b03166108fc6004544761041391906127ea565b6040518115909202916000818181858888f1935050505015801561043b573d6000803e3d6000fd5b505060018055565b600260015414156104665760405162461bcd60e51b815260040161035990612768565b600260015561047760025460ff1690565b156104945760405162461bcd60e51b815260040161035990612801565b61049d81611914565b6000818152600660209081526040808320815160808101835281546001600160a01b0316815260018201548185015260028201805484518187028101870186528181526105c8979396949587019490939084015b82821015610546576000848152602090819020604080516060810182526003860290920180546001600160a01b03168352600180820154848601526002909101549183019190915290835290920191016104f1565b50505050815260200160038201805480602002602001604051908101604052809291908181526020016000905b828210156105bb576000848152602090819020604080518082019091526002850290910180546001600160a01b03168252600190810154828401529083529092019101610573565b505050508152505061198b565b50600081815260066020818152604080842081516080810183526004820180546001600160a01b0316825260058301548286015291909401805483518186028101860185528181526106729793959487019490939084018215610546576000848152602090819020604080516060810182526003860290920180546001600160a01b03168352600180820154848601526002909101549183019190915290835290920191016104f1565b506000818152600660208181526040808420805482516080810184526004830180546001600160a01b03908116835260058501548388015293909601805485518188028101880187528181526107aa99309996909516979396870194909384015b82821015610728576000848152602090819020604080516060810182526003860290920180546001600160a01b03168352600180820154848601526002909101549183019190915290835290920191016106d3565b50505050815260200160038201805480602002602001604051908101604052809291908181526020016000905b8282101561079d576000848152602090819020604080518082019091526002850290910180546001600160a01b03168252600190810154828401529083529092019101610755565b50505050815250506119c5565b60008181526006602090815260408083206004810154825160808101845282546001600160a01b039081168252600184015482870152600284018054865181890281018901885281815261085d993099949096169794969594870194909384018215610728576000848152602090819020604080516060810182526003860290920180546001600160a01b03168352600180820154848601526002909101549183019190915290835290920191016106d3565b6000818152600660209081526040808320815160808101835281546001600160a01b031681526001820154818501526002820180548451818702810187018652818152610aaf979396949587019490939084015b82821015610906576000848152602090819020604080516060810182526003860290920180546001600160a01b03168352600180820154848601526002909101549183019190915290835290920191016108b1565b50505050815260200160038201805480602002602001604051908101604052809291908181526020016000905b8282101561097b576000848152602090819020604080518082019091526002850290910180546001600160a01b03168252600190810154828401529083529092019101610933565b50505091525050600083815260066020818152604080842081516080810183526004820180546001600160a01b03168252600583015482860152919094018054835181860281018601855281815295969295938701949192909184015b82821015610a2d576000848152602090819020604080516060810182526003860290920180546001600160a01b03168352600180820154848601526002909101549183019190915290835290920191016109d8565b50505050815260200160038201805480602002602001604051908101604052809291908181526020016000905b82821015610aa2576000848152602090819020604080518082019091526002850290910180546001600160a01b03168252600190810154828401529083529092019101610a5a565b5050505081525050611cd7565b600081815260066020818152604080842081516080810183526004820180546001600160a01b031682526005830154828601529190940180548351818602810186018552818152610c7e9793959487019490939084015b82821015610b5b576000848152602090819020604080516060810182526003860290920180546001600160a01b0316835260018082015484860152600290910154918301919091529083529092019101610b06565b50505050815260200160038201805480602002602001604051908101604052809291908181526020016000905b82821015610bd0576000848152602090819020604080518082019091526002850290910180546001600160a01b03168252600190810154828401529083529092019101610b88565b505050915250506000838152600660209081526040808320815160808101835281546001600160a01b03168152600182015481850152600282018054845181870281018701865281815292969395948701949293919290919084018215610a2d576000848152602090819020604080516060810182526003860290920180546001600160a01b03168352600180820154848601526002909101549183019190915290835290920191016109d8565b60008181526006602052604080822060048101549054915184936001600160a01b0392831693909216917fbad29f2bbbf6bb1e15563203bcdb0dd660c54eab078763eb66f797efa8f5e8c191a4600081815260066020526040812080546001600160a01b031916815560018101829055908181610cfe6002830182612102565b610d0c600383016000612123565b50506004820180546001600160a01b0319168155600060058401819055610d366006850182612102565b610d44600383016000612123565b505060018055505050565b60026001541415610d725760405162461bcd60e51b815260040161035990612768565b60026001556000546001600160a01b03163314610da15760405162461bcd60e51b81526004016103599061279f565b60058190556040518181527fe854185167cff7d85f6ce2ae7d2940249c4a78ae54e270a5f7dddf8e5d7cc4589060200160405180910390a15060018055565b60026001541415610e035760405162461bcd60e51b815260040161035990612768565b6002600155610e1460025460ff1690565b15610e315760405162461bcd60e51b815260040161035990612801565b6000818152600660205260409020546001600160a01b0316331480610e6f57506000818152600660205260409020600401546001600160a01b031633145b610ee15760405162461bcd60e51b815260206004820152603760248201527f54726164657363726f773a2043616e27742063616e63656c20737761702c206d60448201527f7573742062652073776170207061727469636970616e740000000000000000006064820152608401610359565b6000818152600660209081526040808320805482516080810184526001600160a01b039091168082526001830154828601526002830180548551818802810188018752818152610f8e98309894979596958701949193929184018215610728576000848152602090819020604080516060810182526003860290920180546001600160a01b03168352600180820154848601526002909101549183019190915290835290920191016106d3565b600081815260066020818152604080842081516080810183526004820180546001600160a01b03168252600583015482860152919094018054835181860281018601855281815260029761103b979694958701949193929184018215610546576000848152602090819020604080516060810182526003860290920180546001600160a01b03168352600180820154848601526002909101549183019190915290835290920191016104f1565b14156110f457600081815260066020818152604080842060048101805483516080810185526001600160a01b0390911680825260058401548287015292909501805484518187028101870186528181526110f4983098959795969495948701949193929184018215610728576000848152602090819020604080516060810182526003860290920180546001600160a01b03168352600180820154848601526002909101549183019190915290835290920191016106d3565b6000818152600660209081526040808320815160808101835281546001600160a01b03168152600182015481850152600282018054845181870281018701865281815261119a979396949587019490939084018215610b5b576000848152602090819020604080516060810182526003860290920180546001600160a01b0316835260018082015484860152600290910154918301919091529083529092019101610b06565b600081815260066020818152604080842081516080810183526004820180546001600160a01b0316825260058301548286015291909401805483518186028101860185528181526112439793959487019490939084018215610906576000848152602090819020604080516060810182526003860290920180546001600160a01b03168352600180820154848601526002909101549183019190915290835290920191016108b1565b604051819033907f85562d2d9b6fe46899f9b6ed410d0330551d861f63395b58c411a9d8159ce08790600090a3600081815260066020526040812080546001600160a01b031916815560018101829055908181610cfe6002830182612102565b6000546001600160a01b031633146112cd5760405162461bcd60e51b81526004016103599061279f565b6112d76000611d46565b565b600260015414156112fc5760405162461bcd60e51b815260040161035990612768565b60026001556005543410156113235760405162461bcd60e51b81526004016103599061282b565b60025460ff16156113465760405162461bcd60e51b815260040161035990612801565b61134f82611d96565b60008281526006602052604090206005015415801561137e575060008281526006602081905260409091200154155b80156113995750600082815260066020526040902060070154155b6113f05760405162461bcd60e51b815260206004820152602260248201527f54726164657363726f773a207377617020616c726561647920696e6974696174604482015261195960f21b6064820152608401610359565b6113fb3330836119c5565b600082815260066020526040812060040180546001600160a01b031916331790555b8160400151518110156114c5576006600084815260200190815260200160002060040160020182604001518281518110611459576114596128a1565b602090810291909101810151825460018082018555600094855293839020825160039092020180546001600160a01b0319166001600160a01b039092169190911781559181015192820192909255604090910151600290910155806114bd816128b7565b91505061141d565b5060005b81606001515181101561155c5760008381526006602052604090206060830151805160079092019183908110611501576115016128a1565b602090810291909101810151825460018082018555600094855293839020825160029092020180546001600160a01b0319166001600160a01b0390921691909117815591015191015580611554816128b7565b9150506114c9565b506005543411156115a05760055461157490346127ea565b60008381526006602052604081206005018290556004805490919061159a9084906128d2565b90915550505b6000828152600660205260409081902054905183916001600160a01b03169033907f9290cd7656e70519b1c9efcc328a9e9e7c9122292708c3c57e1f1491e99f2511906115ee908690612939565b60405180910390a4505060018055565b6000600260015414156116235760405162461bcd60e51b815260040161035990612768565b600260015560055434101561164a5760405162461bcd60e51b81526004016103599061282b565b60025460ff161561166d5760405162461bcd60e51b815260040161035990612801565b60016003600082825461168091906128d2565b9091555061169190503330846119c5565b600354600090815260066020526040812080546001600160a01b03191633178155905b83604001515181101561174a5781600001600201846040015182815181106116de576116de6128a1565b602090810291909101810151825460018082018555600094855293839020825160039092020180546001600160a01b0319166001600160a01b03909216919091178155918101519282019290925560409091015160029091015580611742816128b7565b9150506116b4565b5060005b8360600151518110156117d3578160000160030184606001518281518110611778576117786128a1565b602090810291909101810151825460018082018555600094855293839020825160029092020180546001600160a01b0319166001600160a01b03909216919091178155910151910155806117cb816128b7565b91505061174e565b5060055434111561180a576005546117eb90346127ea565b60018201819055600480546000906118049084906128d2565b90915550505b6004810180546001600160a01b0319166001600160a01b03861690811790915560035460405190919033907fe81763bf4aba65d65f664f69edeb190a5d5bb77d7c98e2e1a0e39a1b04c5db3790611862908890612939565b60405180910390a450506003546001805592915050565b6000546001600160a01b031633146118a35760405162461bcd60e51b81526004016103599061279f565b6001600160a01b0381166119085760405162461bcd60e51b815260206004820152602660248201527f4f776e61626c653a206e6577206f776e657220697320746865207a65726f206160448201526564647265737360d01b6064820152608401610359565b61191181611d46565b50565b6000818152600660205260409020546001600160a01b031633146119115760405162461bcd60e51b815260206004820152602860248201527f54726164657363726f773a2063616c6c6572206973206e6f74207377617020696044820152673734ba34b0ba37b960c11b6064820152608401610359565b6040810151516000906002901515806119a8575060608301515115155b806119b7575060008360200151115b156103305750600192915050565b60005b816040015151811015611bd657816040015181815181106119eb576119eb6128a1565b60200260200101516020015160001415611ad15781604001518181518110611a1557611a156128a1565b6020026020010151600001516001600160a01b031663b88d4fde858585604001518581518110611a4757611a476128a1565b602090810291909101015160409081015190516001600160e01b031960e086901b1681526001600160a01b0393841660048201529290911660248301526044820152608060648201526000608482015260a401600060405180830381600087803b158015611ab457600080fd5b505af1158015611ac8573d6000803e3d6000fd5b50505050611bc4565b81604001518181518110611ae757611ae76128a1565b6020026020010151600001516001600160a01b031663f242432a858585604001518581518110611b1957611b196128a1565b60200260200101516040015186604001518681518110611b3b57611b3b6128a1565b60209081029190910181015101516040516001600160e01b031960e087901b1681526001600160a01b0394851660048201529390921660248401526044830152606482015260a06084820152600060a482015260c401600060405180830381600087803b158015611bab57600080fd5b505af1158015611bbf573d6000803e3d6000fd5b505050505b80611bce816128b7565b9150506119c8565b5060005b816060015151811015611cd1576001600160a01b038416301415611c5d57611c588383606001518381518110611c1257611c126128a1565b60200260200101516020015184606001518481518110611c3457611c346128a1565b6020026020010151600001516001600160a01b0316611e0d9092919063ffffffff16565b611cbf565b611cbf848484606001518481518110611c7857611c786128a1565b60200260200101516020015185606001518581518110611c9a57611c9a6128a1565b6020026020010151600001516001600160a01b0316611e75909392919063ffffffff16565b80611cc9816128b7565b915050611bda565b50505050565b602082015115611d4257816020015160046000828254611cf791906127ea565b9091555050602082018051600091829052825160405191926001600160a01b039091169183156108fc0291849190818181858888f19350505050158015611cd1573d6000803e3d6000fd5b5050565b600080546001600160a01b038381166001600160a01b0319831681178455604051919092169283917f8be0079c531659141344cd1fd0a4f28419497f9722a3daafe3b4186f6b6457e09190a35050565b6000818152600660205260409020600401546001600160a01b031633146119115760405162461bcd60e51b815260206004820152602560248201527f54726164657363726f773a2063616c6c6572206973206e6f7420737761702074604482015264185c99d95d60da1b6064820152608401610359565b6040516001600160a01b038316602482015260448101829052611e7090849063a9059cbb60e01b906064015b60408051601f198184030181529190526020810180516001600160e01b03166001600160e01b031990931692909217909152611ead565b505050565b6040516001600160a01b0380851660248301528316604482015260648101829052611cd19085906323b872dd60e01b90608401611e39565b6000611f02826040518060400160405280602081526020017f5361666545524332303a206c6f772d6c6576656c2063616c6c206661696c6564815250856001600160a01b0316611f7f9092919063ffffffff16565b805190915015611e705780806020019051810190611f2091906129e0565b611e705760405162461bcd60e51b815260206004820152602a60248201527f5361666545524332303a204552433230206f7065726174696f6e20646964206e6044820152691bdd081cdd58d8d9595960b21b6064820152608401610359565b6060611f8e8484600085611f98565b90505b9392505050565b606082471015611ff95760405162461bcd60e51b815260206004820152602660248201527f416464726573733a20696e73756666696369656e742062616c616e636520666f6044820152651c8818d85b1b60d21b6064820152608401610359565b6001600160a01b0385163b6120505760405162461bcd60e51b815260206004820152601d60248201527f416464726573733a2063616c6c20746f206e6f6e2d636f6e74726163740000006044820152606401610359565b600080866001600160a01b0316858760405161206c9190612a2e565b60006040518083038185875af1925050503d80600081146120a9576040519150601f19603f3d011682016040523d82523d6000602084013e6120ae565b606091505b50915091506120be8282866120c9565b979650505050505050565b606083156120d8575081611f91565b8251156120e85782518084602001fd5b8160405162461bcd60e51b81526004016103599190612a4a565b50805460008255600302906000526020600020908101906119119190612144565b50805460008255600202906000526020600020908101906119119190612175565b5b808211156121715780546001600160a01b03191681556000600182018190556002820155600301612145565b5090565b5b808211156121715780546001600160a01b031916815560006001820155600201612176565b6000602082840312156121ad57600080fd5b81356001600160e01b031981168114611f9157600080fd5b6001600160a01b038116811461191157600080fd5b634e487b7160e01b600052604160045260246000fd5b6040805190810167ffffffffffffffff81118282101715612213576122136121da565b60405290565b6040516080810167ffffffffffffffff81118282101715612213576122136121da565b6040516060810167ffffffffffffffff81118282101715612213576122136121da565b604051601f8201601f1916810167ffffffffffffffff81118282101715612288576122886121da565b604052919050565b600082601f8301126122a157600080fd5b813567ffffffffffffffff8111156122bb576122bb6121da565b6122ce601f8201601f191660200161225f565b8181528460208386010111156122e357600080fd5b816020850160208301376000918101602001919091529392505050565b6000806000806080858703121561231657600080fd5b8435612321816121c5565b93506020850135612331816121c5565b925060408501359150606085013567ffffffffffffffff81111561235457600080fd5b61236087828801612290565b91505092959194509250565b60006020828403121561237e57600080fd5b8135611f91816121c5565b60006020828403121561239b57600080fd5b5035919050565b600067ffffffffffffffff8211156123bc576123bc6121da565b5060051b60200190565b600082601f8301126123d757600080fd5b813560206123ec6123e7836123a2565b61225f565b82815260069290921b8401810191818101908684111561240b57600080fd5b8286015b8481101561245357604081890312156124285760008081fd5b6124306121f0565b813561243b816121c5565b8152818501358582015283529183019160400161240f565b509695505050505050565b60006080828403121561247057600080fd5b612478612219565b90508135612485816121c5565b81526020828101358183015260408084013567ffffffffffffffff808211156124ad57600080fd5b818601915086601f8301126124c157600080fd5b81356124cf6123e7826123a2565b8181526060918202840186019186820191908a8411156124ee57600080fd5b948701945b8386101561253f5780868c03121561250b5760008081fd5b61251361223c565b863561251e816121c5565b815286890135898201528787013588820152835294850194918701916124f3565b81878a0152808a013597508488111561255757600080fd5b6125638b898c016123c6565b818a0152505050505050505092915050565b6000806040838503121561258857600080fd5b82359150602083013567ffffffffffffffff8111156125a657600080fd5b6125b28582860161245e565b9150509250929050565b600080604083850312156125cf57600080fd5b82356125da816121c5565b9150602083013567ffffffffffffffff8111156125a657600080fd5b600082601f83011261260757600080fd5b813560206126176123e7836123a2565b82815260059290921b8401810191818101908684111561263657600080fd5b8286015b84811015612453578035835291830191830161263a565b600080600080600060a0868803121561266957600080fd5b8535612674816121c5565b94506020860135612684816121c5565b9350604086013567ffffffffffffffff808211156126a157600080fd5b6126ad89838a016125f6565b945060608801359150808211156126c357600080fd5b6126cf89838a016125f6565b935060808801359150808211156126e557600080fd5b506126f288828901612290565b9150509295509295909350565b600080600080600060a0868803121561271757600080fd5b8535612722816121c5565b94506020860135612732816121c5565b93506040860135925060608601359150608086013567ffffffffffffffff81111561275c57600080fd5b6126f288828901612290565b6020808252601f908201527f5265656e7472616e637947756172643a207265656e7472616e742063616c6c00604082015260600190565b6020808252818101527f4f776e61626c653a2063616c6c6572206973206e6f7420746865206f776e6572604082015260600190565b634e487b7160e01b600052601160045260246000fd5b6000828210156127fc576127fc6127d4565b500390565b60208082526010908201526f14185d5cd8589b194e881c185d5cd95960821b604082015260600190565b60208082526050908201527f54726164657363726f773a2053656e7420616d6f756e74206e6565647320746f60408201527f2062652067726561746572207468616e206f7220657175616c20746f2074686560608201526f206170706c69636174696f6e2066656560801b608082015260a00190565b634e487b7160e01b600052603260045260246000fd5b60006000198214156128cb576128cb6127d4565b5060010190565b600082198211156128e5576128e56127d4565b500190565b600081518084526020808501945080840160005b8381101561292e57815180516001600160a01b0316885283015183880152604090960195908201906001016128fe565b509495945050505050565b6000602080835260a0830160018060a01b0380865116838601528286015160408181880152808801519150606060808189015284835180875260c08a0191508785019650600094505b808510156129b5578651805187168352888101518984015284015184830152958701956001949094019390820190612982565b5089820151898203601f190160808b015296506129d281886128ea565b9a9950505050505050505050565b6000602082840312156129f257600080fd5b81518015158114611f9157600080fd5b60005b83811015612a1d578181015183820152602001612a05565b83811115611cd15750506000910152565b60008251612a40818460208701612a02565b9190910192915050565b6020815260008251806020840152612a69816040850160208701612a02565b601f01601f1916919091016040019291505056fea264697066735822122068d1430530e528c3705a009bfcad09a6c245609e5dc92443203640f25bbee30c64736f6c63430008090033",
  "linkReferences": {},
  "deployedLinkReferences": {}
}