{
  "_format": "hh-sol-artifact-1",
  "contractName": "Tradescrow",
  "sourceName": "contracts/Tradescrow.sol",
  "abi": [
    {
      "inputs": [
        {
          "internalType": "uint256",
          "name": "initialAppFee",
          "type": "uint256"
        },
        {
          "internalType": "address payable",
          "name": "contractOwnerAddress",
          "type": "address"
        }
      ],
      "stateMutability": "nonpayable",
      "type": "constructor"
    },
    {
      "anonymous": false,
      "inputs": [
        {
          "indexed": false,
          "internalType": "uint256",
          "name": "fee",
          "type": "uint256"
        }
      ],
      "name": "AppFeeChanged",
      "type": "event"
    },
    {
      "anonymous": false,
      "inputs": [
        {
          "indexed": true,
          "internalType": "address",
          "name": "previousOwner",
          "type": "address"
        },
        {
          "indexed": true,
          "internalType": "address",
          "name": "newOwner",
          "type": "address"
        }
      ],
      "name": "OwnershipTransferred",
      "type": "event"
    },
    {
      "anonymous": false,
      "inputs": [
        {
          "indexed": false,
          "internalType": "address",
          "name": "account",
          "type": "address"
        }
      ],
      "name": "Paused",
      "type": "event"
    },
    {
      "anonymous": false,
      "inputs": [
        {
          "indexed": true,
          "internalType": "address",
          "name": "cancelledBy",
          "type": "address"
        },
        {
          "indexed": true,
          "internalType": "uint256",
          "name": "swapId",
          "type": "uint256"
        }
      ],
      "name": "SwapCancelled",
      "type": "event"
    },
    {
      "anonymous": false,
      "inputs": [
        {
          "indexed": true,
          "internalType": "uint256",
          "name": "swapId",
          "type": "uint256"
        }
      ],
      "name": "SwapClosed",
      "type": "event"
    },
    {
      "anonymous": false,
      "inputs": [
        {
          "indexed": true,
          "internalType": "address",
          "name": "from",
          "type": "address"
        },
        {
          "indexed": true,
          "internalType": "address",
          "name": "to",
          "type": "address"
        },
        {
          "indexed": true,
          "internalType": "uint256",
          "name": "swapId",
          "type": "uint256"
        }
      ],
      "name": "SwapExecuted",
      "type": "event"
    },
    {
      "anonymous": false,
      "inputs": [
        {
          "indexed": true,
          "internalType": "address",
          "name": "from",
          "type": "address"
        },
        {
          "indexed": true,
          "internalType": "address",
          "name": "to",
          "type": "address"
        },
        {
          "indexed": true,
          "internalType": "uint256",
          "name": "swapId",
          "type": "uint256"
        },
        {
          "components": [
            {
              "internalType": "address payable",
              "name": "addr",
              "type": "address"
            },
            {
              "internalType": "uint256",
              "name": "native",
              "type": "uint256"
            },
            {
              "components": [
                {
                  "internalType": "address",
                  "name": "addr",
                  "type": "address"
                },
                {
                  "internalType": "uint256",
                  "name": "amount",
                  "type": "uint256"
                },
                {
                  "internalType": "uint256",
                  "name": "id",
                  "type": "uint256"
                }
              ],
              "internalType": "struct Tradescrow.Nft[]",
              "name": "nfts",
              "type": "tuple[]"
            },
            {
              "components": [
                {
                  "internalType": "address",
                  "name": "addr",
                  "type": "address"
                },
                {
                  "internalType": "uint256",
                  "name": "amount",
                  "type": "uint256"
                }
              ],
              "internalType": "struct Tradescrow.Coin[]",
              "name": "coins",
              "type": "tuple[]"
            }
          ],
          "indexed": false,
          "internalType": "struct Tradescrow.Offer",
          "name": "",
          "type": "tuple"
        }
      ],
      "name": "SwapInitiated",
      "type": "event"
    },
    {
      "anonymous": false,
      "inputs": [
        {
          "indexed": true,
          "internalType": "address",
          "name": "from",
          "type": "address"
        },
        {
          "indexed": true,
          "internalType": "address",
          "name": "to",
          "type": "address"
        },
        {
          "indexed": true,
          "internalType": "uint256",
          "name": "swapId",
          "type": "uint256"
        },
        {
          "components": [
            {
              "internalType": "address payable",
              "name": "addr",
              "type": "address"
            },
            {
              "internalType": "uint256",
              "name": "native",
              "type": "uint256"
            },
            {
              "components": [
                {
                  "internalType": "address",
                  "name": "addr",
                  "type": "address"
                },
                {
                  "internalType": "uint256",
                  "name": "amount",
                  "type": "uint256"
                },
                {
                  "internalType": "uint256",
                  "name": "id",
                  "type": "uint256"
                }
              ],
              "internalType": "struct Tradescrow.Nft[]",
              "name": "nfts",
              "type": "tuple[]"
            },
            {
              "components": [
                {
                  "internalType": "address",
                  "name": "addr",
                  "type": "address"
                },
                {
                  "internalType": "uint256",
                  "name": "amount",
                  "type": "uint256"
                }
              ],
              "internalType": "struct Tradescrow.Coin[]",
              "name": "coins",
              "type": "tuple[]"
            }
          ],
          "indexed": false,
          "internalType": "struct Tradescrow.Offer",
          "name": "",
          "type": "tuple"
        }
      ],
      "name": "SwapProposed",
      "type": "event"
    },
    {
      "anonymous": false,
      "inputs": [
        {
          "indexed": false,
          "internalType": "address",
          "name": "account",
          "type": "address"
        }
      ],
      "name": "Unpaused",
      "type": "event"
    },
    {
      "inputs": [],
      "name": "Pause",
      "outputs": [],
      "stateMutability": "nonpayable",
      "type": "function"
    },
    {
      "inputs": [],
      "name": "Unpause",
      "outputs": [],
      "stateMutability": "nonpayable",
      "type": "function"
    },
    {
      "inputs": [
        {
          "internalType": "uint256",
          "name": "swapId",
          "type": "uint256"
        }
      ],
      "name": "acceptSwap",
      "outputs": [],
      "stateMutability": "nonpayable",
      "type": "function"
    },
    {
      "inputs": [
        {
          "internalType": "uint256",
          "name": "swapId",
          "type": "uint256"
        }
      ],
      "name": "cancelSwap",
      "outputs": [],
      "stateMutability": "nonpayable",
      "type": "function"
    },
    {
      "inputs": [],
      "name": "fee",
      "outputs": [
        {
          "internalType": "uint256",
          "name": "",
          "type": "uint256"
        }
      ],
      "stateMutability": "view",
      "type": "function"
    },
    {
      "inputs": [
        {
          "internalType": "uint256",
          "name": "swapId",
          "type": "uint256"
        },
        {
          "components": [
            {
              "internalType": "address payable",
              "name": "addr",
              "type": "address"
            },
            {
              "internalType": "uint256",
              "name": "native",
              "type": "uint256"
            },
            {
              "components": [
                {
                  "internalType": "address",
                  "name": "addr",
                  "type": "address"
                },
                {
                  "internalType": "uint256",
                  "name": "amount",
                  "type": "uint256"
                },
                {
                  "internalType": "uint256",
                  "name": "id",
                  "type": "uint256"
                }
              ],
              "internalType": "struct Tradescrow.Nft[]",
              "name": "nfts",
              "type": "tuple[]"
            },
            {
              "components": [
                {
                  "internalType": "address",
                  "name": "addr",
                  "type": "address"
                },
                {
                  "internalType": "uint256",
                  "name": "amount",
                  "type": "uint256"
                }
              ],
              "internalType": "struct Tradescrow.Coin[]",
              "name": "coins",
              "type": "tuple[]"
            }
          ],
          "internalType": "struct Tradescrow.Offer",
          "name": "offer",
          "type": "tuple"
        }
      ],
      "name": "initiateSwap",
      "outputs": [],
      "stateMutability": "payable",
      "type": "function"
    },
    {
      "inputs": [
        {
          "internalType": "address",
          "name": "",
          "type": "address"
        },
        {
          "internalType": "address",
          "name": "",
          "type": "address"
        },
        {
          "internalType": "uint256[]",
          "name": "",
          "type": "uint256[]"
        },
        {
          "internalType": "uint256[]",
          "name": "",
          "type": "uint256[]"
        },
        {
          "internalType": "bytes",
          "name": "",
          "type": "bytes"
        }
      ],
      "name": "onERC1155BatchReceived",
      "outputs": [
        {
          "internalType": "bytes4",
          "name": "",
          "type": "bytes4"
        }
      ],
      "stateMutability": "nonpayable",
      "type": "function"
    },
    {
      "inputs": [
        {
          "internalType": "address",
          "name": "",
          "type": "address"
        },
        {
          "internalType": "address",
          "name": "",
          "type": "address"
        },
        {
          "internalType": "uint256",
          "name": "",
          "type": "uint256"
        },
        {
          "internalType": "uint256",
          "name": "",
          "type": "uint256"
        },
        {
          "internalType": "bytes",
          "name": "",
          "type": "bytes"
        }
      ],
      "name": "onERC1155Received",
      "outputs": [
        {
          "internalType": "bytes4",
          "name": "",
          "type": "bytes4"
        }
      ],
      "stateMutability": "nonpayable",
      "type": "function"
    },
    {
      "inputs": [
        {
          "internalType": "address",
          "name": "",
          "type": "address"
        },
        {
          "internalType": "address",
          "name": "",
          "type": "address"
        },
        {
          "internalType": "uint256",
          "name": "",
          "type": "uint256"
        },
        {
          "internalType": "bytes",
          "name": "",
          "type": "bytes"
        }
      ],
      "name": "onERC721Received",
      "outputs": [
        {
          "internalType": "bytes4",
          "name": "",
          "type": "bytes4"
        }
      ],
      "stateMutability": "nonpayable",
      "type": "function"
    },
    {
      "inputs": [],
      "name": "owner",
      "outputs": [
        {
          "internalType": "address",
          "name": "",
          "type": "address"
        }
      ],
      "stateMutability": "view",
      "type": "function"
    },
    {
      "inputs": [],
      "name": "paused",
      "outputs": [
        {
          "internalType": "bool",
          "name": "",
          "type": "bool"
        }
      ],
      "stateMutability": "view",
      "type": "function"
    },
    {
      "inputs": [
        {
          "internalType": "address payable",
          "name": "target",
          "type": "address"
        },
        {
          "components": [
            {
              "internalType": "address payable",
              "name": "addr",
              "type": "address"
            },
            {
              "internalType": "uint256",
              "name": "native",
              "type": "uint256"
            },
            {
              "components": [
                {
                  "internalType": "address",
                  "name": "addr",
                  "type": "address"
                },
                {
                  "internalType": "uint256",
                  "name": "amount",
                  "type": "uint256"
                },
                {
                  "internalType": "uint256",
                  "name": "id",
                  "type": "uint256"
                }
              ],
              "internalType": "struct Tradescrow.Nft[]",
              "name": "nfts",
              "type": "tuple[]"
            },
            {
              "components": [
                {
                  "internalType": "address",
                  "name": "addr",
                  "type": "address"
                },
                {
                  "internalType": "uint256",
                  "name": "amount",
                  "type": "uint256"
                }
              ],
              "internalType": "struct Tradescrow.Coin[]",
              "name": "coins",
              "type": "tuple[]"
            }
          ],
          "internalType": "struct Tradescrow.Offer",
          "name": "offer",
          "type": "tuple"
        }
      ],
      "name": "proposeSwap",
      "outputs": [
        {
          "internalType": "uint256",
          "name": "",
          "type": "uint256"
        }
      ],
      "stateMutability": "payable",
      "type": "function"
    },
    {
      "inputs": [],
      "name": "renounceOwnership",
      "outputs": [],
      "stateMutability": "nonpayable",
      "type": "function"
    },
    {
      "inputs": [
        {
          "internalType": "bytes4",
          "name": "interfaceId",
          "type": "bytes4"
        }
      ],
      "name": "supportsInterface",
      "outputs": [
        {
          "internalType": "bool",
          "name": "",
          "type": "bool"
        }
      ],
      "stateMutability": "view",
      "type": "function"
    },
    {
      "inputs": [
        {
          "internalType": "address",
          "name": "newOwner",
          "type": "address"
        }
      ],
      "name": "transferOwnership",
      "outputs": [],
      "stateMutability": "nonpayable",
      "type": "function"
    },
    {
      "inputs": [
        {
          "internalType": "uint256",
          "name": "newFee",
          "type": "uint256"
        }
      ],
      "name": "updateAppFee",
      "outputs": [],
      "stateMutability": "nonpayable",
      "type": "function"
    },
    {
      "inputs": [
        {
          "internalType": "address payable",
          "name": "recipient",
          "type": "address"
        }
      ],
      "name": "withdrawFees",
      "outputs": [],
      "stateMutability": "nonpayable",
      "type": "function"
    }
  ],
  "bytecode": "0x60806040523480156200001157600080fd5b5060405162002d4638038062002d46833981016040819052620000349162000196565b6200003f3362000071565b600180556002805460ff1916905560058290556200006981620000c1602090811b6200174917901c565b5050620001d5565b600080546001600160a01b038381166001600160a01b0319831681178455604051919092169283917f8be0079c531659141344cd1fd0a4f28419497f9722a3daafe3b4186f6b6457e09190a35050565b6000546001600160a01b03163314620001215760405162461bcd60e51b815260206004820181905260248201527f4f776e61626c653a2063616c6c6572206973206e6f7420746865206f776e657260448201526064015b60405180910390fd5b6001600160a01b038116620001885760405162461bcd60e51b815260206004820152602660248201527f4f776e61626c653a206e6577206f776e657220697320746865207a65726f206160448201526564647265737360d01b606482015260840162000118565b620001938162000071565b50565b60008060408385031215620001aa57600080fd5b825160208401519092506001600160a01b0381168114620001ca57600080fd5b809150509250929050565b612b6180620001e56000396000f3fe6080604052600436106100fe5760003560e01c8063715018a611610095578063b5cbcb8811610064578063b5cbcb8814610290578063bc197c81146102b1578063ddca3f43146102dd578063f23a6e61146102f3578063f2fde38b1461031f57600080fd5b8063715018a61461022b5780637805862f146102405780637cb1774d146102555780638da5cb5b1461026857600080fd5b806352492815116100d157806352492815146101be57806354d6a2b7146101de5780635c975abb146101fe5780636985a0221461021657600080fd5b806301ffc9a714610103578063150b7a0214610138578063164e68de1461017c5780631bf330041461019e575b600080fd5b34801561010f57600080fd5b5061012361011e3660046121f8565b61033f565b60405190151581526020015b60405180910390f35b34801561014457600080fd5b5061016361015336600461235d565b630a85bd0160e11b949350505050565b6040516001600160e01b0319909116815260200161012f565b34801561018857600080fd5b5061019c6101973660046123c9565b610376565b005b3480156101aa57600080fd5b5061019c6101b93660046123e6565b610507565b3480156101ca57600080fd5b5061019c6101d93660046123e6565b610a63565b3480156101ea57600080fd5b5061019c6101f93660046123e6565b610af4565b34801561020a57600080fd5b5060025460ff16610123565b34801561022257600080fd5b5061019c61107d565b34801561023757600080fd5b5061019c6110dd565b34801561024c57600080fd5b5061019c611113565b61019c6102633660046125d2565b61116d565b34801561027457600080fd5b506000546040516001600160a01b03909116815260200161012f565b6102a361029e366004612619565b6114ad565b60405190815260200161012f565b3480156102bd57600080fd5b506101636102cc3660046126ae565b63bc197c8160e01b95945050505050565b3480156102e957600080fd5b506102a360055481565b3480156102ff57600080fd5b5061016361030e36600461275c565b63f23a6e6160e01b95945050505050565b34801561032b57600080fd5b5061019c61033a3660046123c9565b611749565b60006001600160e01b03198216630271189760e51b148061037057506301ffc9a760e01b6001600160e01b03198316145b92915050565b600260015414156103a25760405162461bcd60e51b8152600401610399906127c5565b60405180910390fd5b60026001556000546001600160a01b031633146103d15760405162461bcd60e51b8152600401610399906127fc565b6001600160a01b0381166104385760405162461bcd60e51b815260206004820152602860248201527f54726164657363726f773a207472616e7366657220746f20746865207a65726f604482015267206164647265737360c01b6064820152608401610399565b6000670de0b6b3a7640000600454476104519190612847565b61045b9190612847565b10156104a95760405162461bcd60e51b815260206004820152601d60248201527f54726164657363726f773a204e6f20617661696c61626c6520666565730000006044820152606401610399565b806001600160a01b03166108fc670de0b6b3a7640000600454476104cd9190612847565b6104d79190612847565b6040518115909202916000818181858888f193505050501580156104ff573d6000803e3d6000fd5b505060018055565b6002600154141561052a5760405162461bcd60e51b8152600401610399906127c5565b600260015561053b60025460ff1690565b156105585760405162461bcd60e51b81526004016103999061285e565b610561816117e4565b6000818152600660205260409020600801546001146105925760405162461bcd60e51b815260040161039990612888565b6000818152600660209081526040808320815160808101835281546001600160a01b0316815260018201548185015260028201805484518187028101870186528181526106bd979396949587019490939084015b8282101561063b576000848152602090819020604080516060810182526003860290920180546001600160a01b03168352600180820154848601526002909101549183019190915290835290920191016105e6565b50505050815260200160038201805480602002602001604051908101604052809291908181526020016000905b828210156106b0576000848152602090819020604080518082019091526002850290910180546001600160a01b03168252600190810154828401529083529092019101610668565b505050508152505061185b565b600081815260066020818152604080842081516080810183526004820180546001600160a01b031682526005830154828601529190940180548351818602810186018552818152610766979395948701949093908401821561063b576000848152602090819020604080516060810182526003860290920180546001600160a01b03168352600180820154848601526002909101549183019190915290835290920191016105e6565b6000818152600660208181526040808420805482516080810184526004830180546001600160a01b039081168352600585015483880152939096018054855181880281018801875281815261089d99309996909516979396870194909384015b8282101561081b576000848152602090819020604080516060810182526003860290920180546001600160a01b03168352600180820154848601526002909101549183019190915290835290920191016107c6565b50505050815260200160038201805480602002602001604051908101604052809291908181526020016000905b82821015610890576000848152602090819020604080518082019091526002850290910180546001600160a01b03168252600190810154828401529083529092019101610848565b50505050815250506118d9565b60008181526006602090815260408083206004810154825160808101845282546001600160a01b039081168252600184015482870152600284018054865181890281018901885281815261095099309994909616979496959487019490938401821561081b576000848152602090819020604080516060810182526003860290920180546001600160a01b03168352600180820154848601526002909101549183019190915290835290920191016107c6565b600081815260066020526040902061096b9060048101611beb565b6000818152600660205260409020610987906004810190611beb565b60008181526006602052604080822060048101549054915184936001600160a01b0392831693909216917fbad29f2bbbf6bb1e15563203bcdb0dd660c54eab078763eb66f797efa8f5e8c191a4600081815260066020526040812080546001600160a01b031916815560018101829055908181610a07600283018261215f565b610a15600383016000612180565b50506004820180546001600160a01b0319168155600060058401819055610a3f600685018261215f565b610a4d600383016000612180565b5050600882016000905550506001808190555050565b60026001541415610a865760405162461bcd60e51b8152600401610399906127c5565b60026001556000546001600160a01b03163314610ab55760405162461bcd60e51b8152600401610399906127fc565b60058190556040518181527fe854185167cff7d85f6ce2ae7d2940249c4a78ae54e270a5f7dddf8e5d7cc4589060200160405180910390a15060018055565b60026001541415610b175760405162461bcd60e51b8152600401610399906127c5565b6002600155610b2860025460ff1690565b15610b455760405162461bcd60e51b81526004016103999061285e565b6000818152600660205260409020546001600160a01b0316331480610b8357506000818152600660205260409020600401546001600160a01b031633145b610bf55760405162461bcd60e51b815260206004820152603760248201527f54726164657363726f773a2043616e27742063616e63656c20737761702c206d60448201527f7573742062652073776170207061727469636970616e740000000000000000006064820152608401610399565b600081815260066020526040902060026008820155546001600160a01b0316331415610cfc576000818152600660209081526040808320805482516080810184526001600160a01b039091168082526001830154828601526002830180548551818802810188018752818152610cc89830989497959695870194919392918401821561081b576000848152602090819020604080516060810182526003860290920180546001600160a01b03168352600180820154848601526002909101549183019190915290835290920191016107c6565b6000818152600660205260409020610ce09080611beb565b6000818152600660205260409020610cf790611c5a565b610e06565b6000818152600660205260409020600401546001600160a01b0316331415610e0657600081815260066020818152604080842060048101805483516080810185526001600160a01b039091168082526005840154828701529290950180548451818702810187018652818152610dd198309895979596949594870194919392918401821561081b576000848152602090819020604080516060810182526003860290920180546001600160a01b03168352600180820154848601526002909101549183019190915290835290920191016107c6565b6000818152600660205260409020610dec9060040180611beb565b6000818152600660205260409020610e0690600401611c5a565b604051819033907f85562d2d9b6fe46899f9b6ed410d0330551d861f63395b58c411a9d8159ce08790600090a36000818152600660209081526040808320815160808101835281546001600160a01b031681526001828101548286015260028301805485518188028101880187528181529297610f5c97949687019484015b82821015610eda576000848152602090819020604080516060810182526003860290920180546001600160a01b0316835260018082015484860152600290910154918301919091529083529092019101610e85565b50505050815260200160038201805480602002602001604051908101604052809291908181526020016000905b82821015610f4f576000848152602090819020604080518082019091526002850290910180546001600160a01b03168252600190810154828401529083529092019101610f07565b5050505081525050611c80565b1480156110135750600081815260066020818152604080842081516080810183526004820180546001600160a01b031682526005830154828601529190940180548351818602810186018552818152600197611011979694958701949193929184018215610eda576000848152602090819020604080516060810182526003860290920180546001600160a01b0316835260018082015484860152600290910154918301919091529083529092019101610e85565b145b156110765760405181907fd00350bcac47bd6aa8c7905e0b67f2de5cd9766526dc50203bbfb229bf6d17a790600090a2600081815260066020526040812080546001600160a01b031916815560018101829055908181610a07600283018261215f565b5060018055565b600260015414156110a05760405162461bcd60e51b8152600401610399906127c5565b60026001556000546001600160a01b031633146110cf5760405162461bcd60e51b8152600401610399906127fc565b6110d7611cb4565b60018055565b6000546001600160a01b031633146111075760405162461bcd60e51b8152600401610399906127fc565b6111116000611d29565b565b600260015414156111365760405162461bcd60e51b8152600401610399906127c5565b60026001556000546001600160a01b031633146111655760405162461bcd60e51b8152600401610399906127fc565b6110d7611d79565b600260015414156111905760405162461bcd60e51b8152600401610399906127c5565b60026001556005543410156111b75760405162461bcd60e51b8152600401610399906128d9565b60025460ff16156111da5760405162461bcd60e51b81526004016103999061285e565b6111e382611df3565b600082815260066020526040902060050154158015611212575060008281526006602081905260409091200154155b801561122d5750600082815260066020526040902060070154155b6112845760405162461bcd60e51b815260206004820152602260248201527f54726164657363726f773a207377617020616c726561647920696e6974696174604482015261195960f21b6064820152608401610399565b6000828152600660205260409020600801546001146112b55760405162461bcd60e51b815260040161039990612888565b6112be8161185b565b6112c93330836118d9565b60005b8160400151518110156113745760066000848152602001908152602001600020600401600201826040015182815181106113085761130861294f565b602090810291909101810151825460018082018555600094855293839020825160039092020180546001600160a01b0319166001600160a01b0390921691909117815591810151928201929092556040909101516002909101558061136c81612965565b9150506112cc565b5060005b81606001515181101561140b57600083815260066020526040902060608301518051600790920191839081106113b0576113b061294f565b602090810291909101810151825460018082018555600094855293839020825160029092020180546001600160a01b0319166001600160a01b039092169190911781559101519101558061140381612965565b915050611378565b5060055434111561144f576005546114239034612847565b600083815260066020526040812060050182905560048054909190611449908490612980565b90915550505b6000828152600660205260409081902054905183916001600160a01b03169033907f9290cd7656e70519b1c9efcc328a9e9e7c9122292708c3c57e1f1491e99f25119061149d9086906129e7565b60405180910390a4505060018055565b6000600260015414156114d25760405162461bcd60e51b8152600401610399906127c5565b60026001556005543410156114f95760405162461bcd60e51b8152600401610399906128d9565b60025460ff161561151c5760405162461bcd60e51b81526004016103999061285e565b6115258261185b565b611533600380546001019055565b61153e3330846118d9565b60006006600061154d60035490565b8152602081019190915260400160009081206001600882015580546001600160a01b0319163317815591505b83604001515181101561160f5781600001600201846040015182815181106115a3576115a361294f565b602090810291909101810151825460018082018555600094855293839020825160039092020180546001600160a01b0319166001600160a01b0390921691909117815591810151928201929092556040909101516002909101558061160781612965565b915050611579565b5060005b83606001515181101561169857816000016003018460600151828151811061163d5761163d61294f565b602090810291909101810151825460018082018555600094855293839020825160029092020180546001600160a01b0319166001600160a01b039092169190911781559101519101558061169081612965565b915050611613565b506005543411156116cf576005546116b09034612847565b60018201819055600480546000906116c9908490612980565b90915550505b6004810180546001600160a01b0319166001600160a01b038616179055600354846001600160a01b0316336001600160a01b03167fe81763bf4aba65d65f664f69edeb190a5d5bb77d7c98e2e1a0e39a1b04c5db378660405161173291906129e7565b60405180910390a460035460018055949350505050565b6000546001600160a01b031633146117735760405162461bcd60e51b8152600401610399906127fc565b6001600160a01b0381166117d85760405162461bcd60e51b815260206004820152602660248201527f4f776e61626c653a206e6577206f776e657220697320746865207a65726f206160448201526564647265737360d01b6064820152608401610399565b6117e181611d29565b50565b6000818152600660205260409020546001600160a01b031633146117e15760405162461bcd60e51b815260206004820152602860248201527f54726164657363726f773a2063616c6c6572206973206e6f74207377617020696044820152673734ba34b0ba37b960c11b6064820152608401610399565b61186481611c80565b6002146117e15760405162461bcd60e51b815260206004820152603d60248201527f54726164657363726f773a2043616e277420616363657074206f666665722c2060448201527f7061727469636970616e74206469646e277420616464206173736574730000006064820152608401610399565b60005b816040015151811015611aea57816040015181815181106118ff576118ff61294f565b602002602001015160200151600014156119e557816040015181815181106119295761192961294f565b6020026020010151600001516001600160a01b031663b88d4fde85858560400151858151811061195b5761195b61294f565b602090810291909101015160409081015190516001600160e01b031960e086901b1681526001600160a01b0393841660048201529290911660248301526044820152608060648201526000608482015260a401600060405180830381600087803b1580156119c857600080fd5b505af11580156119dc573d6000803e3d6000fd5b50505050611ad8565b816040015181815181106119fb576119fb61294f565b6020026020010151600001516001600160a01b031663f242432a858585604001518581518110611a2d57611a2d61294f565b60200260200101516040015186604001518681518110611a4f57611a4f61294f565b60209081029190910181015101516040516001600160e01b031960e087901b1681526001600160a01b0394851660048201529390921660248401526044830152606482015260a06084820152600060a482015260c401600060405180830381600087803b158015611abf57600080fd5b505af1158015611ad3573d6000803e3d6000fd5b505050505b80611ae281612965565b9150506118dc565b5060005b816060015151811015611be5576001600160a01b038416301415611b7157611b6c8383606001518381518110611b2657611b2661294f565b60200260200101516020015184606001518481518110611b4857611b4861294f565b6020026020010151600001516001600160a01b0316611e6a9092919063ffffffff16565b611bd3565b611bd3848484606001518481518110611b8c57611b8c61294f565b60200260200101516020015185606001518581518110611bae57611bae61294f565b6020026020010151600001516001600160a01b0316611ed2909392919063ffffffff16565b80611bdd81612965565b915050611aee565b50505050565b600182015415611c5657816001015460046000828254611c0b9190612847565b9091555050600182018054600091829055825460405191926001600160a01b039091169183156108fc0291849190818181858888f19350505050158015611be5573d6000803e3d6000fd5b5050565b611c68600382016000612180565b611c7660028201600061215f565b6000600190910155565b604081015151600090600290151580611c9d575060608301515115155b80611ca6575060015b156103705750600192915050565b60025460ff1615611cd75760405162461bcd60e51b81526004016103999061285e565b6002805460ff191660011790557f62e78cea01bee320cd4e420270b5ea74000d11b0c9f74754ebdbfc544b05a258611d0c3390565b6040516001600160a01b03909116815260200160405180910390a1565b600080546001600160a01b038381166001600160a01b0319831681178455604051919092169283917f8be0079c531659141344cd1fd0a4f28419497f9722a3daafe3b4186f6b6457e09190a35050565b60025460ff16611dc25760405162461bcd60e51b815260206004820152601460248201527314185d5cd8589b194e881b9bdd081c185d5cd95960621b6044820152606401610399565b6002805460ff191690557f5db9ee0a495bf2e6ff9c91a7834c1ba4fdd244a5e8aa4e537bd38aeae4b073aa33611d0c565b6000818152600660205260409020600401546001600160a01b031633146117e15760405162461bcd60e51b815260206004820152602560248201527f54726164657363726f773a2063616c6c6572206973206e6f7420737761702074604482015264185c99d95d60da1b6064820152608401610399565b6040516001600160a01b038316602482015260448101829052611ecd90849063a9059cbb60e01b906064015b60408051601f198184030181529190526020810180516001600160e01b03166001600160e01b031990931692909217909152611f0a565b505050565b6040516001600160a01b0380851660248301528316604482015260648101829052611be59085906323b872dd60e01b90608401611e96565b6000611f5f826040518060400160405280602081526020017f5361666545524332303a206c6f772d6c6576656c2063616c6c206661696c6564815250856001600160a01b0316611fdc9092919063ffffffff16565b805190915015611ecd5780806020019051810190611f7d9190612a8e565b611ecd5760405162461bcd60e51b815260206004820152602a60248201527f5361666545524332303a204552433230206f7065726174696f6e20646964206e6044820152691bdd081cdd58d8d9595960b21b6064820152608401610399565b6060611feb8484600085611ff5565b90505b9392505050565b6060824710156120565760405162461bcd60e51b815260206004820152602660248201527f416464726573733a20696e73756666696369656e742062616c616e636520666f6044820152651c8818d85b1b60d21b6064820152608401610399565b6001600160a01b0385163b6120ad5760405162461bcd60e51b815260206004820152601d60248201527f416464726573733a2063616c6c20746f206e6f6e2d636f6e74726163740000006044820152606401610399565b600080866001600160a01b031685876040516120c99190612adc565b60006040518083038185875af1925050503d8060008114612106576040519150601f19603f3d011682016040523d82523d6000602084013e61210b565b606091505b509150915061211b828286612126565b979650505050505050565b60608315612135575081611fee565b8251156121455782518084602001fd5b8160405162461bcd60e51b81526004016103999190612af8565b50805460008255600302906000526020600020908101906117e191906121a1565b50805460008255600202906000526020600020908101906117e191906121d2565b5b808211156121ce5780546001600160a01b031916815560006001820181905560028201556003016121a2565b5090565b5b808211156121ce5780546001600160a01b0319168155600060018201556002016121d3565b60006020828403121561220a57600080fd5b81356001600160e01b031981168114611fee57600080fd5b6001600160a01b03811681146117e157600080fd5b634e487b7160e01b600052604160045260246000fd5b6040805190810167ffffffffffffffff8111828210171561227057612270612237565b60405290565b6040516080810167ffffffffffffffff8111828210171561227057612270612237565b6040516060810167ffffffffffffffff8111828210171561227057612270612237565b604051601f8201601f1916810167ffffffffffffffff811182821017156122e5576122e5612237565b604052919050565b600082601f8301126122fe57600080fd5b813567ffffffffffffffff81111561231857612318612237565b61232b601f8201601f19166020016122bc565b81815284602083860101111561234057600080fd5b816020850160208301376000918101602001919091529392505050565b6000806000806080858703121561237357600080fd5b843561237e81612222565b9350602085013561238e81612222565b925060408501359150606085013567ffffffffffffffff8111156123b157600080fd5b6123bd878288016122ed565b91505092959194509250565b6000602082840312156123db57600080fd5b8135611fee81612222565b6000602082840312156123f857600080fd5b5035919050565b600067ffffffffffffffff82111561241957612419612237565b5060051b60200190565b600082601f83011261243457600080fd5b81356020612449612444836123ff565b6122bc565b82815260069290921b8401810191818101908684111561246857600080fd5b8286015b848110156124b057604081890312156124855760008081fd5b61248d61224d565b813561249881612222565b8152818501358582015283529183019160400161246c565b509695505050505050565b6000608082840312156124cd57600080fd5b6124d5612276565b905081356124e281612222565b81526020828101358183015260408084013567ffffffffffffffff8082111561250a57600080fd5b818601915086601f83011261251e57600080fd5b813561252c612444826123ff565b8181526060918202840186019186820191908a84111561254b57600080fd5b948701945b8386101561259c5780868c0312156125685760008081fd5b612570612299565b863561257b81612222565b81528689013589820152878701358882015283529485019491870191612550565b81878a0152808a01359750848811156125b457600080fd5b6125c08b898c01612423565b818a0152505050505050505092915050565b600080604083850312156125e557600080fd5b82359150602083013567ffffffffffffffff81111561260357600080fd5b61260f858286016124bb565b9150509250929050565b6000806040838503121561262c57600080fd5b823561263781612222565b9150602083013567ffffffffffffffff81111561260357600080fd5b600082601f83011261266457600080fd5b81356020612674612444836123ff565b82815260059290921b8401810191818101908684111561269357600080fd5b8286015b848110156124b05780358352918301918301612697565b600080600080600060a086880312156126c657600080fd5b85356126d181612222565b945060208601356126e181612222565b9350604086013567ffffffffffffffff808211156126fe57600080fd5b61270a89838a01612653565b9450606088013591508082111561272057600080fd5b61272c89838a01612653565b9350608088013591508082111561274257600080fd5b5061274f888289016122ed565b9150509295509295909350565b600080600080600060a0868803121561277457600080fd5b853561277f81612222565b9450602086013561278f81612222565b93506040860135925060608601359150608086013567ffffffffffffffff8111156127b957600080fd5b61274f888289016122ed565b6020808252601f908201527f5265656e7472616e637947756172643a207265656e7472616e742063616c6c00604082015260600190565b6020808252818101527f4f776e61626c653a2063616c6c6572206973206e6f7420746865206f776e6572604082015260600190565b634e487b7160e01b600052601160045260246000fd5b60008282101561285957612859612831565b500390565b60208082526010908201526f14185d5cd8589b194e881c185d5cd95960821b604082015260600190565b60208082526031908201527f54726164657363726f773a205377617020636c6f7365642e204f6e6c79207573604082015270195c8818d85b98d95b08195b98589b1959607a1b606082015260800190565b60208082526050908201527f54726164657363726f773a2053656e7420616d6f756e74206e6565647320746f60408201527f2062652067726561746572207468616e206f7220657175616c20746f2074686560608201526f206170706c69636174696f6e2066656560801b608082015260a00190565b634e487b7160e01b600052603260045260246000fd5b600060001982141561297957612979612831565b5060010190565b6000821982111561299357612993612831565b500190565b600081518084526020808501945080840160005b838110156129dc57815180516001600160a01b0316885283015183880152604090960195908201906001016129ac565b509495945050505050565b6000602080835260a0830160018060a01b0380865116838601528286015160408181880152808801519150606060808189015284835180875260c08a0191508785019650600094505b80851015612a63578651805187168352888101518984015284015184830152958701956001949094019390820190612a30565b5089820151898203601f190160808b01529650612a808188612998565b9a9950505050505050505050565b600060208284031215612aa057600080fd5b81518015158114611fee57600080fd5b60005b83811015612acb578181015183820152602001612ab3565b83811115611be55750506000910152565b60008251612aee818460208701612ab0565b9190910192915050565b6020815260008251806020840152612b17816040850160208701612ab0565b601f01601f1916919091016040019291505056fea2646970667358221220f014f06a433706273b9c91bf1063aa03dc6d6ed1b0ca5699478701541437cb1764736f6c63430008090033",
  "linkReferences": {},
  "deployedLinkReferences": {}
}