{
  "_format": "hh-sol-artifact-1",
  "contractName": "Tradescrow",
  "sourceName": "contracts/Tradescrow.sol",
  "abi": [
    {
      "inputs": [],
      "name": "DiamondWritable__InvalidInitializationParameters",
      "type": "error"
    },
    {
      "inputs": [],
      "name": "DiamondWritable__RemoveTargetNotZeroAddress",
      "type": "error"
    },
    {
      "inputs": [],
      "name": "DiamondWritable__ReplaceTargetIsIdentical",
      "type": "error"
    },
    {
      "inputs": [],
      "name": "DiamondWritable__SelectorAlreadyAdded",
      "type": "error"
    },
    {
      "inputs": [],
      "name": "DiamondWritable__SelectorIsImmutable",
      "type": "error"
    },
    {
      "inputs": [],
      "name": "DiamondWritable__SelectorNotFound",
      "type": "error"
    },
    {
      "inputs": [],
      "name": "DiamondWritable__SelectorNotSpecified",
      "type": "error"
    },
    {
      "inputs": [],
      "name": "DiamondWritable__TargetHasNoCode",
      "type": "error"
    },
    {
      "inputs": [],
      "name": "ERC165Base__InvalidInterfaceId",
      "type": "error"
    },
    {
      "inputs": [],
      "name": "Ownable__NotOwner",
      "type": "error"
    },
    {
      "inputs": [],
      "name": "Ownable__NotTransitiveOwner",
      "type": "error"
    },
    {
      "inputs": [],
      "name": "Proxy__ImplementationIsNotContract",
      "type": "error"
    },
    {
      "inputs": [],
      "name": "SafeOwnable__NotNomineeOwner",
      "type": "error"
    },
    {
      "anonymous": false,
      "inputs": [
        {
          "components": [
            {
              "internalType": "address",
              "name": "target",
              "type": "address"
            },
            {
              "internalType": "enum IDiamondWritableInternal.FacetCutAction",
              "name": "action",
              "type": "uint8"
            },
            {
              "internalType": "bytes4[]",
              "name": "selectors",
              "type": "bytes4[]"
            }
          ],
          "indexed": false,
          "internalType": "struct IDiamondWritableInternal.FacetCut[]",
          "name": "facetCuts",
          "type": "tuple[]"
        },
        {
          "indexed": false,
          "internalType": "address",
          "name": "target",
          "type": "address"
        },
        {
          "indexed": false,
          "internalType": "bytes",
          "name": "data",
          "type": "bytes"
        }
      ],
      "name": "DiamondCut",
      "type": "event"
    },
    {
      "anonymous": false,
      "inputs": [
        {
          "indexed": true,
          "internalType": "address",
          "name": "previousOwner",
          "type": "address"
        },
        {
          "indexed": true,
          "internalType": "address",
          "name": "newOwner",
          "type": "address"
        }
      ],
      "name": "OwnershipTransferred",
      "type": "event"
    },
    {
      "stateMutability": "payable",
      "type": "fallback"
    },
    {
      "inputs": [],
      "name": "acceptOwnership",
      "outputs": [],
      "stateMutability": "nonpayable",
      "type": "function"
    },
    {
      "inputs": [
        {
          "components": [
            {
              "internalType": "address",
              "name": "target",
              "type": "address"
            },
            {
              "internalType": "enum IDiamondWritableInternal.FacetCutAction",
              "name": "action",
              "type": "uint8"
            },
            {
              "internalType": "bytes4[]",
              "name": "selectors",
              "type": "bytes4[]"
            }
          ],
          "internalType": "struct IDiamondWritableInternal.FacetCut[]",
          "name": "facetCuts",
          "type": "tuple[]"
        },
        {
          "internalType": "address",
          "name": "target",
          "type": "address"
        },
        {
          "internalType": "bytes",
          "name": "data",
          "type": "bytes"
        }
      ],
      "name": "diamondCut",
      "outputs": [],
      "stateMutability": "nonpayable",
      "type": "function"
    },
    {
      "inputs": [
        {
          "internalType": "bytes4",
          "name": "selector",
          "type": "bytes4"
        }
      ],
      "name": "facetAddress",
      "outputs": [
        {
          "internalType": "address",
          "name": "facet",
          "type": "address"
        }
      ],
      "stateMutability": "view",
      "type": "function"
    },
    {
      "inputs": [],
      "name": "facetAddresses",
      "outputs": [
        {
          "internalType": "address[]",
          "name": "addresses",
          "type": "address[]"
        }
      ],
      "stateMutability": "view",
      "type": "function"
    },
    {
      "inputs": [
        {
          "internalType": "address",
          "name": "facet",
          "type": "address"
        }
      ],
      "name": "facetFunctionSelectors",
      "outputs": [
        {
          "internalType": "bytes4[]",
          "name": "selectors",
          "type": "bytes4[]"
        }
      ],
      "stateMutability": "view",
      "type": "function"
    },
    {
      "inputs": [],
      "name": "facets",
      "outputs": [
        {
          "components": [
            {
              "internalType": "address",
              "name": "target",
              "type": "address"
            },
            {
              "internalType": "bytes4[]",
              "name": "selectors",
              "type": "bytes4[]"
            }
          ],
          "internalType": "struct IDiamondReadable.Facet[]",
          "name": "diamondFacets",
          "type": "tuple[]"
        }
      ],
      "stateMutability": "view",
      "type": "function"
    },
    {
      "inputs": [],
      "name": "getFallbackAddress",
      "outputs": [
        {
          "internalType": "address",
          "name": "fallbackAddress",
          "type": "address"
        }
      ],
      "stateMutability": "view",
      "type": "function"
    },
    {
      "inputs": [],
      "name": "nomineeOwner",
      "outputs": [
        {
          "internalType": "address",
          "name": "",
          "type": "address"
        }
      ],
      "stateMutability": "view",
      "type": "function"
    },
    {
      "inputs": [],
      "name": "owner",
      "outputs": [
        {
          "internalType": "address",
          "name": "",
          "type": "address"
        }
      ],
      "stateMutability": "view",
      "type": "function"
    },
    {
      "inputs": [
        {
          "internalType": "address",
          "name": "fallbackAddress",
          "type": "address"
        }
      ],
      "name": "setFallbackAddress",
      "outputs": [],
      "stateMutability": "nonpayable",
      "type": "function"
    },
    {
      "inputs": [
        {
          "internalType": "bytes4",
          "name": "interfaceId",
          "type": "bytes4"
        }
      ],
      "name": "supportsInterface",
      "outputs": [
        {
          "internalType": "bool",
          "name": "",
          "type": "bool"
        }
      ],
      "stateMutability": "view",
      "type": "function"
    },
    {
      "inputs": [
        {
          "internalType": "address",
          "name": "account",
          "type": "address"
        }
      ],
      "name": "transferOwnership",
      "outputs": [],
      "stateMutability": "nonpayable",
      "type": "function"
    },
    {
      "stateMutability": "payable",
      "type": "receive"
    }
  ],
  "bytecode": "0x60806040523480156200001157600080fd5b5060408051600c8082526101a0820190925260009160208201610180803683370190505090506000632c40805960e01b82826200004e8162000da6565b93508151811062000063576200006362000dce565b6001600160e01b031990921660209283029190910190910152639142376560e01b8282620000918162000da6565b935081518110620000a657620000a662000dce565b6001600160e01b031990921660209283029190910190910152620000d3632f40adcf60e21b600162000480565b6307e4c70760e21b8282620000e88162000da6565b935081518110620000fd57620000fd62000dce565b6001600160e01b0319909216602092830291909101909101526200012a6307e4c70760e21b600162000480565b637a0ed62760e01b82826200013f8162000da6565b93508151811062000154576200015462000dce565b6001600160e01b0319909216602092830291909101909101526356fe50af60e11b8282620001828162000da6565b93508151811062000197576200019762000dce565b6001600160e01b0319909216602092830291909101909101526314bbdacb60e21b8282620001c58162000da6565b935081518110620001da57620001da62000dce565b6001600160e01b0319909216602092830291909101909101526366ffd66360e11b8282620002088162000da6565b9350815181106200021d576200021d62000dce565b6001600160e01b0319909216602092830291909101909101526200024a6348e2b09360e01b600162000480565b6301ffc9a760e01b82826200025f8162000da6565b93508151811062000274576200027462000dce565b6001600160e01b031990921660209283029190910190910152620002a16301ffc9a760e01b600162000480565b638da5cb5b60e01b8282620002b68162000da6565b935081518110620002cb57620002cb62000dce565b6001600160e01b03199092166020928302919091019091015263455a8a8560e11b8282620002f98162000da6565b9350815181106200030e576200030e62000dce565b6001600160e01b03199092166020928302919091019091015263f2fde38b60e01b82826200033c8162000da6565b93508151811062000351576200035162000dce565b6001600160e01b0319909216602092830291909101909101526379ba509760e01b82826200037f8162000da6565b93508151811062000394576200039462000dce565b6001600160e01b031990921660209283029190910190910152620003c16307f5828d60e41b600162000480565b604080516001808252818301909252600091816020015b60408051606080820183526000808352602083015291810191909152815260200190600190039081620003d8579050506040805160608101909152308152909150602081016000815260200184815250816000815181106200043e576200043e62000dce565b60200260200101819052506200046c81600060405180602001604052806000815250620004f260201b60201c565b6200047733620006ce565b50505062000f73565b6001600160e01b03198083169003620004ac5760405163b0a19dd560e01b815260040160405180910390fd5b80620004c26200074260201b62000b7a1760201c565b6001600160e01b03199390931660009081526020939093526040909220805460ff19169215159290921790915550565b6000620005096200076660201b62000b9e1760201c565b600181015490915061ffff8116908190600090600716156200053d5750600381901c60009081526002840160205260409020545b60005b87518110156200063c57600088828151811062000561576200056162000dce565b602002602001015190506000816020015190508160400151516000036200059b5760405163eb6c3aeb60e01b815260040160405180910390fd5b6000816002811115620005b257620005b262000de4565b03620005d157620005c6878686856200078a565b909550935062000631565b6001816002811115620005e857620005e862000de4565b036200060057620005fa8783620008e9565b62000631565b600281600281111562000617576200061762000de4565b0362000631576200062b8786868562000a4f565b90955093505b505060010162000540565b50828214620006595760018401805461ffff191661ffff84161790555b60078216156200067c57600382901c600090815260028501602052604090208190555b7f8faa70878671ccd212d20771b795c50af8fd3ff6cf27f4bde57e5d4de0aeb673878787604051620006b19392919062000e4e565b60405180910390a1620006c5868662000c7b565b50505050505050565b6000620006e562000d7c60201b62000bc21760201c565b80546040519192506001600160a01b03808516929116907f8be0079c531659141344cd1fd0a4f28419497f9722a3daafe3b4186f6b6457e090600090a380546001600160a01b0319166001600160a01b0392909216919091179055565b7ffc606c433378e3a7e0a6a531deac289b66caa1b4aa8554fd4ab2c6f1570f92d890565b7f177481ac65e4292921c69f62d1cc7f57541261e5d61c8175cf4e36a01c9bfc9390565b805160009081906001600160a01b03163014801590620007ca5750620007c883600001516001600160a01b031662000da060201b620002ad1760201c565b155b15620007e957604051633ddc5cab60e21b815260040160405180910390fd5b60005b836040015151811015620008dc5760008460400151828151811062000815576200081562000dce565b6020908102919091018101516001600160e01b031981166000908152918a9052604090912054909150606081901c156200086257604051634923a77160e11b815260040160405180910390fd5b85516001600160e01b0319838116600081815260208d90526040902060609390931b6001600160601b0319168b1790925560058a901b60e090811692831c91831c19999099161797819003620008cc57600389901c600090815260028b0160205260408120989098555b50505060019586019501620007ec565b5093959294509192505050565b6200090c81600001516001600160a01b031662000da060201b620002ad1760201c565b6200092a57604051633ddc5cab60e21b815260040160405180910390fd5b60005b81604001515181101562000a4a5760008260400151828151811062000956576200095662000dce565b6020908102919091018101516001600160e01b03198116600090815291869052604090912054909150606081901c80620009a3576040516337e25a9760e11b815260040160405180910390fd5b306001600160a01b03821603620009cd5760405163e983573160e01b815260040160405180910390fd5b84600001516001600160a01b0316816001600160a01b03160362000a04576040516330baabf360e11b815260040160405180910390fd5b5083516001600160e01b031992909216600090815260208690526040902060609290921b6001600160601b0319166001600160601b03919091161790556001016200092d565b505050565b805160009081906001600160a01b03161562000a7e57604051633ab3490960e21b815260040160405180910390fd5b600385901c6007861660005b85604001515181101562000c675760008660400151828151811062000ab35762000ab362000dce565b6020908102919091018101516001600160e01b031981166000908152918c9052604090912054909150606081901c62000aff576040516337e25a9760e11b815260040160405180910390fd5b30606082901c0362000b245760405163e983573160e01b815260040160405180910390fd5b600089900362000b5257600019909401600081815260028c0160205260409020549850936007935062000b5a565b600019909301925b600584901b89901b6000806001600160e01b03198084169086161462000bad576001600160e01b03198316600090815260208f90526040902080546001600160601b0319166001600160601b0386161790555b50506001600160e01b03198316600090815260208d90526040812055611fff600383901c1660e0600584901b1687821462000c1257600082815260028f016020526040902080546001600160e01b031980841c19909116908516831c17905562000c36565b80836001600160e01b031916901c816001600160e01b031960001b901c198d16179b505b8660000362000c5557600088815260028f01602052604081208190559b505b50506001909301925062000a8a915050565b5060039190911b1796939550929350505050565b8051156001600160a01b038316151462000ca8576040516326df4ccd60e01b815260040160405180910390fd5b6001600160a01b0382161562000d78576001600160a01b038216301462000d065762000ce8826001600160a01b031662000da060201b620002ad1760201c565b62000d0657604051633ddc5cab60e21b815260040160405180910390fd5b6000826001600160a01b03168260405162000d22919062000f55565b600060405180830381855af49150503d806000811462000d5f576040519150601f19603f3d011682016040523d82523d6000602084013e62000d64565b606091505b505090508062000a4a573d6000803e3d6000fd5b5050565b7f8a22373512790c48b83a1fe2efdd2888d4a917bcdc24d0adf63e60f67168046090565b3b151590565b60006001820162000dc757634e487b7160e01b600052601160045260246000fd5b5060010190565b634e487b7160e01b600052603260045260246000fd5b634e487b7160e01b600052602160045260246000fd5b60005b8381101562000e1757818101518382015260200162000dfd565b50506000910152565b6000815180845262000e3a81602086016020860162000dfa565b601f01601f19169290920160200192915050565b60006060808301818452808751808352608092508286019150828160051b8701016020808b0160005b8481101562000f2357898403607f19018652815180516001600160a01b0316855283810151898601906003811062000ebf57634e487b7160e01b600052602160045260246000fd5b868601526040918201519186018a905281519081905290840190600090898701905b8083101562000f0d5783516001600160e01b031916825292860192600192909201919086019062000ee1565b5097850197955050509082019060010162000e77565b50506001600160a01b038a1690880152868103604088015262000f47818962000e20565b9a9950505050505050505050565b6000825162000f6981846020870162000dfa565b9190910192915050565b611b748062000f836000396000f3fe6080604052600436106100ab5760003560e01c80638ab5150a116100645780638ab5150a146101e75780638da5cb5b146101fc5780639142376514610211578063adfca15e14610231578063cdffacc61461025e578063f2fde38b1461027e576100b2565b806301ffc9a71461010c5780631f931c1c146101415780632c4080591461016157806352ef6b2c1461018e57806379ba5097146101b05780637a0ed627146101c5576100b2565b366100b257005b60006100bc61029e565b90506001600160a01b0381163b6100e6576040516321f27f0d60e21b815260040160405180910390fd5b3660008037600080366000845af43d6000803e808015610105573d6000f35b3d6000fd5b005b34801561011857600080fd5b5061012c610127366004611527565b6102b3565b60405190151581526020015b60405180910390f35b34801561014d57600080fd5b5061010a61015c3660046115a9565b6102c4565b34801561016d57600080fd5b5061017661034e565b6040516001600160a01b039091168152602001610138565b34801561019a57600080fd5b506101a3610358565b604051610138919061165b565b3480156101bc57600080fd5b5061010a6104fb565b3480156101d157600080fd5b506101da61053e565b60405161013891906116ed565b3480156101f357600080fd5b50610176610966565b34801561020857600080fd5b50610176610970565b34801561021d57600080fd5b5061010a61022c36600461176a565b61097a565b34801561023d57600080fd5b5061025161024c36600461176a565b6109bf565b6040516101389190611785565b34801561026a57600080fd5b50610176610279366004611527565b610b0b565b34801561028a57600080fd5b5061010a61029936600461176a565b610b38565b60006102a8610be6565b905090565b3b151590565b60006102be82610c32565b92915050565b6102cc610c5f565b6001600160a01b0316336001600160a01b0316146102fd57604051632f7a8ee160e01b815260040160405180910390fd5b61034761030a858761185b565b8484848080601f016020809104026020016040519081016040528093929190818152602001838380828437600092019190915250610c7892505050565b5050505050565b60006102a8610e26565b60606000610364610b9e565b600181015490915061ffff1667ffffffffffffffff811115610388576103886117c7565b6040519080825280602002602001820160405280156103b1578160200160208202803683370190505b50915060008060005b600184015461ffff168210156104f3576000818152600285016020526040812054905b60088110156104de57836103f0816119a5565b600188015490955061ffff16851190506104de57600581901b82901b6001600160e01b0319811660009081526020889052604081205460601c90805b88811015610481578a8181518110610446576104466119be565b60200260200101516001600160a01b0316836001600160a01b03160361046f5760019150610481565b80610479816119a5565b91505061042c565b508015610490575050506104cc565b818a89815181106104a3576104a36119be565b6001600160a01b0390921660209283029190910190910152876104c5816119a5565b9850505050505b806104d6816119a5565b9150506103dd565b505080806104eb906119a5565b9150506103ba565b505082525090565b610503610e42565b6001600160a01b0316336001600160a01b0316146105345760405163efd1052d60e01b815260040160405180910390fd5b61053c610e6a565b565b6060600061054a610b9e565b600181015490915061ffff1667ffffffffffffffff81111561056e5761056e6117c7565b6040519080825280602002602001820160405280156105b457816020015b60408051808201909152600081526060602082015281526020019060019003908161058c5790505b50600182015490925060009061ffff1667ffffffffffffffff8111156105dc576105dc6117c7565b604051908082528060200260200182016040528015610605578160200160208202803683370190505b50905060008060005b600185015461ffff168210156108f4576000818152600286016020526040812054905b60088110156108df5783610644816119a5565b600189015490955061ffff16851190506108df57600581901b82901b6001600160e01b0319811660009081526020899052604081205460601c90805b8881101561079d57826001600160a01b03168c82815181106106a4576106a46119be565b6020026020010151600001516001600160a01b03160361078b57838c82815181106106d1576106d16119be565b6020026020010151602001518b83815181106106ef576106ef6119be565b602002602001015160ff168151811061070a5761070a6119be565b60200260200101906001600160e01b03191690816001600160e01b0319168152505060ff8a8281518110610740576107406119be565b602002602001015160ff161061075557600080fd5b898181518110610767576107676119be565b60200260200101805180919061077c906119d4565b60ff169052506001915061079d565b80610795816119a5565b915050610680565b5080156107ac575050506108cd565b818b89815181106107bf576107bf6119be565b60209081029190910101516001600160a01b03909116905260018a015461ffff1667ffffffffffffffff8111156107f8576107f86117c7565b604051908082528060200260200182016040528015610821578160200160208202803683370190505b508b8981518110610834576108346119be565b602002602001015160200181905250828b8981518110610856576108566119be565b602002602001015160200151600081518110610874576108746119be565b60200260200101906001600160e01b03191690816001600160e01b0319168152505060018989815181106108aa576108aa6119be565b60ff90921660209283029190910190910152876108c6816119a5565b9850505050505b806108d7816119a5565b915050610631565b505080806108ec906119a5565b91505061060e565b5060005b8281101561095b576000848281518110610914576109146119be565b602002602001015160ff1690506000878381518110610935576109356119be565b602002602001015160200151905081815250508080610953906119a5565b9150506108f8565b508185525050505090565b60006102a8610e42565b60006102a8610c5f565b610982610c5f565b6001600160a01b0316336001600160a01b0316146109b357604051632f7a8ee160e01b815260040160405180910390fd5b6109bc81610ea4565b50565b606060006109cb610b9e565b600181015490915061ffff1667ffffffffffffffff8111156109ef576109ef6117c7565b604051908082528060200260200182016040528015610a18578160200160208202803683370190505b50915060008060005b600184015461ffff16821015610b01576000818152600285016020526040812054905b6008811015610aec5783610a57816119a5565b600188015490955061ffff1685119050610aec57600581901b82901b6001600160e01b0319811660009081526020889052604090205460601c6001600160a01b038a1603610ad95780888781518110610ab257610ab26119be565b6001600160e01b03199092166020928302919091019091015285610ad5816119a5565b9650505b5080610ae4816119a5565b915050610a44565b50508080610af9906119a5565b915050610a21565b5050825250919050565b6000610b15610b9e565b6001600160e01b0319909216600090815260209290925250604090205460601c90565b610b40610c5f565b6001600160a01b0316336001600160a01b031614610b7157604051632f7a8ee160e01b815260040160405180910390fd5b6109bc81610ed1565b7ffc606c433378e3a7e0a6a531deac289b66caa1b4aa8554fd4ab2c6f1570f92d890565b7f177481ac65e4292921c69f62d1cc7f57541261e5d61c8175cf4e36a01c9bfc9390565b7f8a22373512790c48b83a1fe2efdd2888d4a917bcdc24d0adf63e60f67168046090565b600080356001600160e01b03191681527f177481ac65e4292921c69f62d1cc7f57541261e5d61c8175cf4e36a01c9bfc93602052604090205460601c80610c2f576102a8610e26565b90565b6000610c3c610b7a565b6001600160e01b0319909216600090815260209290925250604090205460ff1690565b6000610c69610bc2565b546001600160a01b0316919050565b6000610c82610b9e565b600181015490915061ffff811690819060009060071615610cb55750600381901c60009081526002840160205260409020545b60005b8751811015610d9a576000888281518110610cd557610cd56119be565b60200260200101519050600081602001519050816040015151600003610d0e5760405163eb6c3aeb60e01b815260040160405180910390fd5b6000816002811115610d2257610d226119f3565b03610d3d57610d3387868685610f12565b9095509350610d90565b6001816002811115610d5157610d516119f3565b03610d6557610d608783611051565b610d90565b6002816002811115610d7957610d796119f3565b03610d9057610d8a8786868561119c565b90955093505b5050600101610cb8565b50828214610db65760018401805461ffff191661ffff84161790555b6007821615610dd857600382901c600090815260028501602052604090208190555b7f8faa70878671ccd212d20771b795c50af8fd3ff6cf27f4bde57e5d4de0aeb673878787604051610e0b93929190611a59565b60405180910390a1610e1d86866113bf565b50505050505050565b6000610e30610b9e565b600301546001600160a01b0316919050565b60007f24aa1f7b31fd188a8d3ecfb06bc55c806040e59b03bd4396283442fce6617890610c69565b610e73336114a3565b7f24aa1f7b31fd188a8d3ecfb06bc55c806040e59b03bd4396283442fce661789080546001600160a01b0319169055565b80610ead610b9e565b60030180546001600160a01b0319166001600160a01b039290921691909117905550565b7f24aa1f7b31fd188a8d3ecfb06bc55c806040e59b03bd4396283442fce661789080546001600160a01b0319166001600160a01b0383161790556109bc8181565b805160009081906001600160a01b03163014801590610f3a575082516001600160a01b03163b155b15610f5857604051633ddc5cab60e21b815260040160405180910390fd5b60005b83604001515181101561104457600084604001518281518110610f8057610f806119be565b6020908102919091018101516001600160e01b031981166000908152918a9052604090912054909150606081901c15610fcc57604051634923a77160e11b815260040160405180910390fd5b85516001600160e01b0319838116600081815260208d90526040902060609390931b6001600160601b0319168b1790925560058a901b60e090811692831c91831c1999909916179781900361103557600389901c600090815260028b0160205260408120989098555b50505060019586019501610f5b565b5093959294509192505050565b80516001600160a01b03163b61107a57604051633ddc5cab60e21b815260040160405180910390fd5b60005b816040015151811015611197576000826040015182815181106110a2576110a26119be565b6020908102919091018101516001600160e01b03198116600090815291869052604090912054909150606081901c806110ee576040516337e25a9760e11b815260040160405180910390fd5b306001600160a01b038216036111175760405163e983573160e01b815260040160405180910390fd5b84600001516001600160a01b0316816001600160a01b03160361114d576040516330baabf360e11b815260040160405180910390fd5b5083516001600160e01b031992909216600090815260208690526040902060609290921b6001600160601b0319166bffffffffffffffffffffffff9190911617905560010161107d565b505050565b805160009081906001600160a01b0316156111ca57604051633ab3490960e21b815260040160405180910390fd5b600385901c6007861660005b8560400151518110156113ab576000866040015182815181106111fb576111fb6119be565b6020908102919091018101516001600160e01b031981166000908152918c9052604090912054909150606081901c611246576040516337e25a9760e11b815260040160405180910390fd5b30606082901c0361126a5760405163e983573160e01b815260040160405180910390fd5b600089900361129657600019909401600081815260028c0160205260409020549850936007935061129e565b600019909301925b600584901b89901b6000806001600160e01b0319808416908616146112f5576001600160e01b03198316600090815260208f90526040902080546001600160601b0319166bffffffffffffffffffffffff86161790555b50506001600160e01b03198316600090815260208d90526040812055611fff600383901c1660e0600584901b1687821461135857600082815260028f016020526040902080546001600160e01b031980841c19909116908516831c17905561137c565b80836001600160e01b031916901c816001600160e01b031960001b901c198d16179b505b8660000361139a57600088815260028f01602052604081208190559b505b5050600190930192506111d6915050565b5060039190911b1796939550929350505050565b8051156001600160a01b03831615146113eb576040516326df4ccd60e01b815260040160405180910390fd5b6001600160a01b0382161561149f576001600160a01b0382163014611432576001600160a01b0382163b61143257604051633ddc5cab60e21b815260040160405180910390fd5b6000826001600160a01b03168260405161144c9190611b22565b600060405180830381855af49150503d8060008114611487576040519150601f19603f3d011682016040523d82523d6000602084013e61148c565b606091505b5050905080611197573d6000803e3d6000fd5b5050565b60006114ad610bc2565b80546040519192506001600160a01b03808516929116907f8be0079c531659141344cd1fd0a4f28419497f9722a3daafe3b4186f6b6457e090600090a380546001600160a01b0319166001600160a01b0392909216919091179055565b80356001600160e01b03198116811461152257600080fd5b919050565b60006020828403121561153957600080fd5b6115428261150a565b9392505050565b80356001600160a01b038116811461152257600080fd5b60008083601f84011261157257600080fd5b50813567ffffffffffffffff81111561158a57600080fd5b6020830191508360208285010111156115a257600080fd5b9250929050565b6000806000806000606086880312156115c157600080fd5b853567ffffffffffffffff808211156115d957600080fd5b818801915088601f8301126115ed57600080fd5b8135818111156115fc57600080fd5b8960208260051b850101111561161157600080fd5b6020830197508096505061162760208901611549565b9450604088013591508082111561163d57600080fd5b5061164a88828901611560565b969995985093965092949392505050565b6020808252825182820181905260009190848201906040850190845b8181101561169c5783516001600160a01b031683529284019291840191600101611677565b50909695505050505050565b600081518084526020808501945080840160005b838110156116e25781516001600160e01b031916875295820195908201906001016116bc565b509495945050505050565b60006020808301818452808551808352604092508286019150828160051b87010184880160005b8381101561175c57888303603f19018552815180516001600160a01b03168452870151878401879052611749878501826116a8565b9588019593505090860190600101611714565b509098975050505050505050565b60006020828403121561177c57600080fd5b61154282611549565b6020808252825182820181905260009190848201906040850190845b8181101561169c5783516001600160e01b031916835292840192918401916001016117a1565b634e487b7160e01b600052604160045260246000fd5b6040516060810167ffffffffffffffff81118282101715611800576118006117c7565b60405290565b604051601f8201601f1916810167ffffffffffffffff8111828210171561182f5761182f6117c7565b604052919050565b600067ffffffffffffffff821115611851576118516117c7565b5060051b60200190565b600061186e61186984611837565b611806565b83815260208082019190600586811b86013681111561188c57600080fd5b865b8181101561198257803567ffffffffffffffff808211156118af5760008081fd5b818a019150606082360312156118c55760008081fd5b6118cd6117dd565b6118d683611549565b815286830135600381106118ea5760008081fd5b81880152604083810135838111156119025760008081fd5b939093019236601f85011261191957600092508283fd5b8335925061192961186984611837565b83815292871b840188019288810190368511156119465760008081fd5b948901945b8486101561196b5761195c8661150a565b8252948901949089019061194b565b91830191909152508852505094830194830161188e565b5092979650505050505050565b634e487b7160e01b600052601160045260246000fd5b6000600182016119b7576119b761198f565b5060010190565b634e487b7160e01b600052603260045260246000fd5b600060ff821660ff81036119ea576119ea61198f565b60010192915050565b634e487b7160e01b600052602160045260246000fd5b60005b83811015611a24578181015183820152602001611a0c565b50506000910152565b60008151808452611a45816020860160208601611a09565b601f01601f19169290920160200192915050565b6000606080830181845280875180835260808601915060808160051b87010192506020808a016000805b84811015611af257898703607f19018652825180516001600160a01b031688528481015160038110611ac357634e487b7160e01b84526021600452602484fd5b88860152604090810151908801899052611adf898901826116a8565b9750509483019491830191600101611a83565b5050506001600160a01b0389169087015250508381036040850152611b178186611a2d565b979650505050505050565b60008251611b34818460208701611a09565b919091019291505056fea264697066735822122084052f8c0d26e6e24f1fa2de77ff6decf7e372518ad283f14fb63349f2efaa4d64736f6c63430008110033",
  "linkReferences": {},
  "deployedLinkReferences": {}
}