{
  "_format": "hh-sol-artifact-1",
  "contractName": "Tradescrow",
  "sourceName": "contracts/Tradescrow.sol",
  "abi": [
    {
      "inputs": [
        {
          "internalType": "uint256",
          "name": "initialAppFee",
          "type": "uint256"
        },
        {
          "internalType": "address",
          "name": "contractOwnerAddress",
          "type": "address"
        }
      ],
      "stateMutability": "nonpayable",
      "type": "constructor"
    },
    {
      "anonymous": false,
      "inputs": [
        {
          "indexed": false,
          "internalType": "uint256",
          "name": "fee",
          "type": "uint256"
        }
      ],
      "name": "AppFeeChanged",
      "type": "event"
    },
    {
      "anonymous": false,
      "inputs": [
        {
          "indexed": true,
          "internalType": "address",
          "name": "previousOwner",
          "type": "address"
        },
        {
          "indexed": true,
          "internalType": "address",
          "name": "newOwner",
          "type": "address"
        }
      ],
      "name": "OwnershipTransferred",
      "type": "event"
    },
    {
      "anonymous": false,
      "inputs": [
        {
          "indexed": true,
          "internalType": "address",
          "name": "canceledBy",
          "type": "address"
        },
        {
          "indexed": true,
          "internalType": "uint256",
          "name": "swapId",
          "type": "uint256"
        }
      ],
      "name": "SwapCanceled",
      "type": "event"
    },
    {
      "anonymous": false,
      "inputs": [
        {
          "indexed": true,
          "internalType": "address",
          "name": "from",
          "type": "address"
        },
        {
          "indexed": true,
          "internalType": "address",
          "name": "to",
          "type": "address"
        },
        {
          "indexed": true,
          "internalType": "uint256",
          "name": "swapId",
          "type": "uint256"
        }
      ],
      "name": "SwapExecuted",
      "type": "event"
    },
    {
      "anonymous": false,
      "inputs": [
        {
          "indexed": true,
          "internalType": "address",
          "name": "from",
          "type": "address"
        },
        {
          "indexed": true,
          "internalType": "address",
          "name": "to",
          "type": "address"
        },
        {
          "indexed": true,
          "internalType": "uint256",
          "name": "swapId",
          "type": "uint256"
        },
        {
          "components": [
            {
              "internalType": "address payable",
              "name": "addr",
              "type": "address"
            },
            {
              "internalType": "uint256",
              "name": "native",
              "type": "uint256"
            },
            {
              "components": [
                {
                  "internalType": "address",
                  "name": "addr",
                  "type": "address"
                },
                {
                  "internalType": "uint256",
                  "name": "id",
                  "type": "uint256"
                }
              ],
              "internalType": "struct Tradescrow.Nft[]",
              "name": "nfts",
              "type": "tuple[]"
            },
            {
              "components": [
                {
                  "internalType": "address",
                  "name": "addr",
                  "type": "address"
                },
                {
                  "internalType": "uint256",
                  "name": "amount",
                  "type": "uint256"
                }
              ],
              "internalType": "struct Tradescrow.Coin[]",
              "name": "coins",
              "type": "tuple[]"
            }
          ],
          "indexed": false,
          "internalType": "struct Tradescrow.Offer",
          "name": "",
          "type": "tuple"
        }
      ],
      "name": "SwapInitiated",
      "type": "event"
    },
    {
      "anonymous": false,
      "inputs": [
        {
          "indexed": true,
          "internalType": "address",
          "name": "from",
          "type": "address"
        },
        {
          "indexed": true,
          "internalType": "address",
          "name": "to",
          "type": "address"
        },
        {
          "indexed": true,
          "internalType": "uint256",
          "name": "swapId",
          "type": "uint256"
        },
        {
          "components": [
            {
              "internalType": "address payable",
              "name": "addr",
              "type": "address"
            },
            {
              "internalType": "uint256",
              "name": "native",
              "type": "uint256"
            },
            {
              "components": [
                {
                  "internalType": "address",
                  "name": "addr",
                  "type": "address"
                },
                {
                  "internalType": "uint256",
                  "name": "id",
                  "type": "uint256"
                }
              ],
              "internalType": "struct Tradescrow.Nft[]",
              "name": "nfts",
              "type": "tuple[]"
            },
            {
              "components": [
                {
                  "internalType": "address",
                  "name": "addr",
                  "type": "address"
                },
                {
                  "internalType": "uint256",
                  "name": "amount",
                  "type": "uint256"
                }
              ],
              "internalType": "struct Tradescrow.Coin[]",
              "name": "coins",
              "type": "tuple[]"
            }
          ],
          "indexed": false,
          "internalType": "struct Tradescrow.Offer",
          "name": "",
          "type": "tuple"
        }
      ],
      "name": "SwapProposed",
      "type": "event"
    },
    {
      "inputs": [
        {
          "internalType": "uint256",
          "name": "swapId",
          "type": "uint256"
        }
      ],
      "name": "acceptSwap",
      "outputs": [],
      "stateMutability": "nonpayable",
      "type": "function"
    },
    {
      "inputs": [
        {
          "internalType": "uint256",
          "name": "swapId",
          "type": "uint256"
        }
      ],
      "name": "cancelSwap",
      "outputs": [],
      "stateMutability": "nonpayable",
      "type": "function"
    },
    {
      "inputs": [],
      "name": "fee",
      "outputs": [
        {
          "internalType": "uint256",
          "name": "",
          "type": "uint256"
        }
      ],
      "stateMutability": "view",
      "type": "function"
    },
    {
      "inputs": [
        {
          "internalType": "uint256",
          "name": "swapId",
          "type": "uint256"
        },
        {
          "components": [
            {
              "internalType": "address payable",
              "name": "addr",
              "type": "address"
            },
            {
              "internalType": "uint256",
              "name": "native",
              "type": "uint256"
            },
            {
              "components": [
                {
                  "internalType": "address",
                  "name": "addr",
                  "type": "address"
                },
                {
                  "internalType": "uint256",
                  "name": "id",
                  "type": "uint256"
                }
              ],
              "internalType": "struct Tradescrow.Nft[]",
              "name": "nfts",
              "type": "tuple[]"
            },
            {
              "components": [
                {
                  "internalType": "address",
                  "name": "addr",
                  "type": "address"
                },
                {
                  "internalType": "uint256",
                  "name": "amount",
                  "type": "uint256"
                }
              ],
              "internalType": "struct Tradescrow.Coin[]",
              "name": "coins",
              "type": "tuple[]"
            }
          ],
          "internalType": "struct Tradescrow.Offer",
          "name": "offer",
          "type": "tuple"
        }
      ],
      "name": "initiateSwap",
      "outputs": [],
      "stateMutability": "payable",
      "type": "function"
    },
    {
      "inputs": [
        {
          "internalType": "address",
          "name": "operator",
          "type": "address"
        },
        {
          "internalType": "address",
          "name": "from",
          "type": "address"
        },
        {
          "internalType": "uint256",
          "name": "tokenId",
          "type": "uint256"
        },
        {
          "internalType": "bytes",
          "name": "data",
          "type": "bytes"
        }
      ],
      "name": "onERC721Received",
      "outputs": [
        {
          "internalType": "bytes4",
          "name": "",
          "type": "bytes4"
        }
      ],
      "stateMutability": "pure",
      "type": "function"
    },
    {
      "inputs": [],
      "name": "owner",
      "outputs": [
        {
          "internalType": "address",
          "name": "",
          "type": "address"
        }
      ],
      "stateMutability": "view",
      "type": "function"
    },
    {
      "inputs": [
        {
          "internalType": "address",
          "name": "target",
          "type": "address"
        },
        {
          "components": [
            {
              "internalType": "address payable",
              "name": "addr",
              "type": "address"
            },
            {
              "internalType": "uint256",
              "name": "native",
              "type": "uint256"
            },
            {
              "components": [
                {
                  "internalType": "address",
                  "name": "addr",
                  "type": "address"
                },
                {
                  "internalType": "uint256",
                  "name": "id",
                  "type": "uint256"
                }
              ],
              "internalType": "struct Tradescrow.Nft[]",
              "name": "nfts",
              "type": "tuple[]"
            },
            {
              "components": [
                {
                  "internalType": "address",
                  "name": "addr",
                  "type": "address"
                },
                {
                  "internalType": "uint256",
                  "name": "amount",
                  "type": "uint256"
                }
              ],
              "internalType": "struct Tradescrow.Coin[]",
              "name": "coins",
              "type": "tuple[]"
            }
          ],
          "internalType": "struct Tradescrow.Offer",
          "name": "offer",
          "type": "tuple"
        }
      ],
      "name": "proposeSwap",
      "outputs": [
        {
          "internalType": "uint256",
          "name": "",
          "type": "uint256"
        }
      ],
      "stateMutability": "payable",
      "type": "function"
    },
    {
      "inputs": [],
      "name": "renounceOwnership",
      "outputs": [],
      "stateMutability": "nonpayable",
      "type": "function"
    },
    {
      "inputs": [
        {
          "internalType": "address",
          "name": "newOwner",
          "type": "address"
        }
      ],
      "name": "transferOwnership",
      "outputs": [],
      "stateMutability": "nonpayable",
      "type": "function"
    },
    {
      "inputs": [
        {
          "internalType": "uint256",
          "name": "newFee",
          "type": "uint256"
        }
      ],
      "name": "updateAppFee",
      "outputs": [],
      "stateMutability": "nonpayable",
      "type": "function"
    },
    {
      "inputs": [
        {
          "internalType": "address payable",
          "name": "recipient",
          "type": "address"
        }
      ],
      "name": "withdrawFees",
      "outputs": [],
      "stateMutability": "nonpayable",
      "type": "function"
    }
  ],
  "bytecode": "0x60806040523480156200001157600080fd5b506040516200251e3803806200251e833981016040819052620000349162000190565b6200003f336200006b565b60018081905550816004819055506200006381620000bb60201b620016101760201c565b5050620001cf565b600080546001600160a01b038381166001600160a01b0319831681178455604051919092169283917f8be0079c531659141344cd1fd0a4f28419497f9722a3daafe3b4186f6b6457e09190a35050565b6000546001600160a01b031633146200011b5760405162461bcd60e51b815260206004820181905260248201527f4f776e61626c653a2063616c6c6572206973206e6f7420746865206f776e657260448201526064015b60405180910390fd5b6001600160a01b038116620001825760405162461bcd60e51b815260206004820152602660248201527f4f776e61626c653a206e6577206f776e657220697320746865207a65726f206160448201526564647265737360d01b606482015260840162000112565b6200018d816200006b565b50565b60008060408385031215620001a457600080fd5b825160208401519092506001600160a01b0381168114620001c457600080fd5b809150509250929050565b61233f80620001df6000396000f3fe60806040526004361061009c5760003560e01c8063715018a611610064578063715018a6146101865780638da5cb5b1461019b578063d943f5f5146101c3578063ddca3f43146101d6578063edbf6bad146101fa578063f2fde38b1461020d57600080fd5b8063150b7a02146100a1578063164e68de146101045780631bf3300414610126578063524928151461014657806354d6a2b714610166575b600080fd5b3480156100ad57600080fd5b506100e66100bc366004611cf6565b7f150b7a023d4804d13e8c85fb27262cb750cf6ba9f9dd3bb30d90f482ceeb4b1f95945050505050565b6040516001600160e01b031990911681526020015b60405180910390f35b34801561011057600080fd5b5061012461011f366004611d95565b61022d565b005b34801561013257600080fd5b50610124610141366004611db2565b61033a565b34801561015257600080fd5b50610124610161366004611db2565b610bb7565b34801561017257600080fd5b50610124610181366004611db2565b610c48565b34801561019257600080fd5b506101246110a2565b3480156101a757600080fd5b506000546040516001600160a01b0390911681526020016100fb565b6101246101d1366004611f92565b6110d8565b3480156101e257600080fd5b506101ec60045481565b6040519081526020016100fb565b6101ec610208366004611fd9565b6113c9565b34801561021957600080fd5b50610124610228366004611d95565b611610565b600260015414156102595760405162461bcd60e51b815260040161025090612013565b60405180910390fd5b60026001556000546001600160a01b031633146102885760405162461bcd60e51b81526004016102509061204a565b6001600160a01b0381166102ef5760405162461bcd60e51b815260206004820152602860248201527f54726164657363726f773a207472616e7366657220746f20746865207a65726f604482015267206164647265737360c01b6064820152608401610250565b806001600160a01b03166108fc6003544761030a9190612095565b6040518115909202916000818181858888f19350505050158015610332573d6000803e3d6000fd5b505060018055565b6002600154141561035d5760405162461bcd60e51b815260040161025090612013565b600260015561036b816116ab565b6000818152600560209081526040808320815160808101835281546001600160a01b031681526001820154818501526002820180548451818702810187018652818152610489979396949587019490939084015b82821015610407576000848152602090819020604080518082019091526002850290910180546001600160a01b031682526001908101548284015290835290920191016103bf565b50505050815260200160038201805480602002602001604051908101604052809291908181526020016000905b8282101561047c576000848152602090819020604080518082019091526002850290910180546001600160a01b03168252600190810154828401529083529092019101610434565b5050505081525050611722565b50600081815260056020818152604080842081516080810183526004820180546001600160a01b031682529482015481850152600690910180548351818602810186018552818152610527979396959487019490939084018215610407576000848152602090819020604080518082019091526002850290910180546001600160a01b031682526001908101548284015290835290920191016103bf565b506000818152600560208181526040808420805482516080810184526004830180546001600160a01b0390811683529684015482870152600690930180548551818802810188018752818152610651993099909516979396870194909384015b828210156105cf576000848152602090819020604080518082019091526002850290910180546001600160a01b03168252600190810154828401529083529092019101610587565b50505050815260200160038201805480602002602001604051908101604052809291908181526020016000905b82821015610644576000848152602090819020604080518082019091526002850290910180546001600160a01b031682526001908101548284015290835290920191016105fc565b505050508152505061175d565b60008181526005602090815260408083206004810154825160808101845282546001600160a01b03908116825260018401548287015260028401805486518189028101890188528181526106f79930999490961697949695948701949093840182156105cf576000848152602090819020604080518082019091526002850290910180546001600160a01b03168252600190810154828401529083529092019101610587565b6000818152600560209081526040808320815160808101835281546001600160a01b031681526001820154818501526002820180548451818702810187018652818152610930979396949587019490939084015b82821015610793576000848152602090819020604080518082019091526002850290910180546001600160a01b0316825260019081015482840152908352909201910161074b565b50505050815260200160038201805480602002602001604051908101604052809291908181526020016000905b82821015610808576000848152602090819020604080518082019091526002850290910180546001600160a01b031682526001908101548284015290835290920191016107c0565b50505091525050600083815260056020818152604080842081516080810183526004820180546001600160a01b0316825294820154818501526006909101805483518186028101860185528181529296938701949293919290919084015b828210156108ae576000848152602090819020604080518082019091526002850290910180546001600160a01b03168252600190810154828401529083529092019101610866565b50505050815260200160038201805480602002602001604051908101604052809291908181526020016000905b82821015610923576000848152602090819020604080518082019091526002850290910180546001600160a01b031682526001908101548284015290835290920191016108db565b50505050815250506118c8565b600081815260056020818152604080842081516080810183526004820180546001600160a01b031682529482015481850152600690910180548351818602810186018552818152610ae6979396959487019490939084015b828210156109d0576000848152602090819020604080518082019091526002850290910180546001600160a01b03168252600190810154828401529083529092019101610988565b50505050815260200160038201805480602002602001604051908101604052809291908181526020016000905b82821015610a45576000848152602090819020604080518082019091526002850290910180546001600160a01b031682526001908101548284015290835290920191016109fd565b505050915250506000838152600560209081526040808320815160808101835281546001600160a01b031681526001820154818501526002820180548451818702810187018652818152929693959487019492939192909190840182156108ae576000848152602090819020604080518082019091526002850290910180546001600160a01b03168252600190810154828401529083529092019101610866565b60008181526005602052604080822060048101549054915184936001600160a01b0392831693909216917fbad29f2bbbf6bb1e15563203bcdb0dd660c54eab078763eb66f797efa8f5e8c191a4600081815260056020526040812080546001600160a01b031916815560018101829055908181610b666002830182611c9b565b610b74600383016000611c9b565b50506004820180546001600160a01b0319168155600060058401819055610b9e6006850182611c9b565b610bac600383016000611c9b565b505060018055505050565b60026001541415610bda5760405162461bcd60e51b815260040161025090612013565b60026001556000546001600160a01b03163314610c095760405162461bcd60e51b81526004016102509061204a565b60048190556040518181527fe854185167cff7d85f6ce2ae7d2940249c4a78ae54e270a5f7dddf8e5d7cc4589060200160405180910390a15060018055565b60026001541415610c6b5760405162461bcd60e51b815260040161025090612013565b60026001556000818152600560205260409020546001600160a01b0316331480610cae57506000818152600560205260409020600401546001600160a01b031633145b610d205760405162461bcd60e51b815260206004820152603760248201527f54726164657363726f773a2043616e27742063616e63656c20737761702c206d60448201527f7573742062652073776170207061727469636970616e740000000000000000006064820152608401610250565b6000818152600560209081526040808320805482516080810184526001600160a01b039091168082526001830154828601526002830180548551818802810188018752818152610dc0983098949795969587019491939291840182156105cf576000848152602090819020604080518082019091526002850290910180546001600160a01b03168252600190810154828401529083529092019101610587565b600081815260056020818152604080842081516080810183526004820180546001600160a01b031682529482015481850152600690910180548351818602810186018552818152600297610e6197949694958701949193929184018215610407576000848152602090819020604080518082019091526002850290910180546001600160a01b031682526001908101548284015290835290920191016103bf565b1415610f0c57600081815260056020818152604080842060048101805483516080810185526001600160a01b039091168082529583015481860152600690920180548451818702810187018652818152610f0c98309897959694959487019491939291840182156105cf576000848152602090819020604080518082019091526002850290910180546001600160a01b03168252600190810154828401529083529092019101610587565b6000818152600560209081526040808320815160808101835281546001600160a01b031681526001820154818501526002820180548451818702810187018652818152610fa59793969495870194909390840182156109d0576000848152602090819020604080518082019091526002850290910180546001600160a01b03168252600190810154828401529083529092019101610988565b600081815260056020818152604080842081516080810183526004820180546001600160a01b031682529482015481850152600690910180548351818602810186018552818152611042979396959487019490939084018215610793576000848152602090819020604080518082019091526002850290910180546001600160a01b0316825260019081015482840152908352909201910161074b565b604051819033907fa715d65b6e7107257e3f1469a8b36f0003c039bf6cc6279c26d814b77efb658090600090a3600081815260056020526040812080546001600160a01b031916815560018101829055908181610b666002830182611c9b565b6000546001600160a01b031633146110cc5760405162461bcd60e51b81526004016102509061204a565b6110d66000611937565b565b600260015414156110fb5760405162461bcd60e51b815260040161025090612013565b60026001556004543410156111225760405162461bcd60e51b8152600401610250906120ac565b61112b82611987565b6000828152600560208190526040909120015415801561115a5750600082815260056020526040902060060154155b80156111755750600082815260056020526040902060070154155b6111cc5760405162461bcd60e51b815260206004820152602260248201527f54726164657363726f773a207377617020616c726561647920696e6974696174604482015261195960f21b6064820152608401610250565b6111d733308361175d565b600082815260056020526040812060040180546001600160a01b031916331790555b81604001515181101561129057600560008481526020019081526020016000206004016002018260400151828151811061123557611235612122565b602090810291909101810151825460018082018555600094855293839020825160029092020180546001600160a01b0319166001600160a01b039092169190911781559101519101558061128881612138565b9150506111f9565b5060005b81606001515181101561132757600083815260056020526040902060608301518051600790920191839081106112cc576112cc612122565b602090810291909101810151825460018082018555600094855293839020825160029092020180546001600160a01b0319166001600160a01b039092169190911781559101519101558061131f81612138565b915050611294565b5060045434111561136b5760045461133f9034612095565b600083815260056020819052604082200182905560038054909190611365908490612153565b90915550505b6000828152600560205260409081902054905183916001600160a01b03169033907fdbfe235744a27e2d3d0dda5fd541b2b67c020da02f55e5062a11f4cf36fe5710906113b99086906121c3565b60405180910390a4505060018055565b6000600260015414156113ee5760405162461bcd60e51b815260040161025090612013565b60026001556004543410156114155760405162461bcd60e51b8152600401610250906120ac565b6001600260008282546114289190612153565b90915550611439905033308461175d565b600254600090815260056020526040812080546001600160a01b03191633178155905b8360400151518110156114e157816000016002018460400151828151811061148657611486612122565b602090810291909101810151825460018082018555600094855293839020825160029092020180546001600160a01b0319166001600160a01b03909216919091178155910151910155806114d981612138565b91505061145c565b5060005b83606001515181101561156a57816000016003018460600151828151811061150f5761150f612122565b602090810291909101810151825460018082018555600094855293839020825160029092020180546001600160a01b0319166001600160a01b039092169190911781559101519101558061156281612138565b9150506114e5565b506004543411156115a1576004546115829034612095565b600182018190556003805460009061159b908490612153565b90915550505b6004810180546001600160a01b0319166001600160a01b03861690811790915560025460405190919033907f279ed29e3cea77f032c451c8c9386cd21b34f05101dca64036872e54586d62a0906115f99088906121c3565b60405180910390a450506002546001805592915050565b6000546001600160a01b0316331461163a5760405162461bcd60e51b81526004016102509061204a565b6001600160a01b03811661169f5760405162461bcd60e51b815260206004820152602660248201527f4f776e61626c653a206e6577206f776e657220697320746865207a65726f206160448201526564647265737360d01b6064820152608401610250565b6116a881611937565b50565b6000818152600560205260409020546001600160a01b031633146116a85760405162461bcd60e51b815260206004820152602860248201527f54726164657363726f773a2063616c6c6572206973206e6f74207377617020696044820152673734ba34b0ba37b960c11b6064820152608401610250565b60408101515160009060029015158061173f575060608301515115155b8061174e575060008360200151115b15611757575060015b92915050565b60005b81604001515181101561183d578160400151818151811061178357611783612122565b6020026020010151600001516001600160a01b03166342842e0e8585856040015185815181106117b5576117b5612122565b60209081029190910181015101516040516001600160e01b031960e086901b1681526001600160a01b0393841660048201529290911660248301526044820152606401600060405180830381600087803b15801561181257600080fd5b505af1158015611826573d6000803e3d6000fd5b50505050808061183590612138565b915050611760565b5060005b8160600151518110156118c2576118b084848460600151848151811061186957611869612122565b6020026020010151602001518560600151858151811061188b5761188b612122565b6020026020010151600001516001600160a01b03166119fe909392919063ffffffff16565b806118ba81612138565b915050611841565b50505050565b602082015115611933578160200151600360008282546118e89190612095565b9091555050602082018051600091829052825160405191926001600160a01b039091169183156108fc0291849190818181858888f193505050501580156118c2573d6000803e3d6000fd5b5050565b600080546001600160a01b038381166001600160a01b0319831681178455604051919092169283917f8be0079c531659141344cd1fd0a4f28419497f9722a3daafe3b4186f6b6457e09190a35050565b6000818152600560205260409020600401546001600160a01b031633146116a85760405162461bcd60e51b815260206004820152602560248201527f54726164657363726f773a2063616c6c6572206973206e6f7420737761702074604482015264185c99d95d60da1b6064820152608401610250565b604080516001600160a01b038581166024830152848116604483015260648083018590528351808403909101815260849092018352602080830180516001600160e01b03166323b872dd60e01b17905283518085019094528084527f5361666545524332303a206c6f772d6c6576656c2063616c6c206661696c6564908401526118c292879291600091611a96918516908490611b18565b805190915015611b135780806020019051810190611ab4919061226c565b611b135760405162461bcd60e51b815260206004820152602a60248201527f5361666545524332303a204552433230206f7065726174696f6e20646964206e6044820152691bdd081cdd58d8d9595960b21b6064820152608401610250565b505050565b6060611b278484600085611b31565b90505b9392505050565b606082471015611b925760405162461bcd60e51b815260206004820152602660248201527f416464726573733a20696e73756666696369656e742062616c616e636520666f6044820152651c8818d85b1b60d21b6064820152608401610250565b6001600160a01b0385163b611be95760405162461bcd60e51b815260206004820152601d60248201527f416464726573733a2063616c6c20746f206e6f6e2d636f6e74726163740000006044820152606401610250565b600080866001600160a01b03168587604051611c0591906122ba565b60006040518083038185875af1925050503d8060008114611c42576040519150601f19603f3d011682016040523d82523d6000602084013e611c47565b606091505b5091509150611c57828286611c62565b979650505050505050565b60608315611c71575081611b2a565b825115611c815782518084602001fd5b8160405162461bcd60e51b815260040161025091906122d6565b50805460008255600202906000526020600020908101906116a891905b80821115611cdd5780546001600160a01b031916815560006001820155600201611cb8565b5090565b6001600160a01b03811681146116a857600080fd5b600080600080600060808688031215611d0e57600080fd5b8535611d1981611ce1565b94506020860135611d2981611ce1565b935060408601359250606086013567ffffffffffffffff80821115611d4d57600080fd5b818801915088601f830112611d6157600080fd5b813581811115611d7057600080fd5b896020828501011115611d8257600080fd5b9699959850939650602001949392505050565b600060208284031215611da757600080fd5b8135611b2a81611ce1565b600060208284031215611dc457600080fd5b5035919050565b634e487b7160e01b600052604160045260246000fd5b6040516080810167ffffffffffffffff81118282101715611e0457611e04611dcb565b60405290565b600067ffffffffffffffff80841115611e2557611e25611dcb565b60408051601f19603f8760051b011681018181108482111715611e4a57611e4a611dcb565b82528581529250600685901b840160208085019088831115611e6b57600080fd5b865b83811015611ec25784818b031215611e855760008081fd5b84518581018181108882111715611e9e57611e9e611dcb565b86528135611eab81611ce1565b815281830135838201528352918101918401611e6d565b5050505050509392505050565b600082601f830112611ee057600080fd5b611b2a83833560208501611e0a565b600060808284031215611f0157600080fd5b611f09611de1565b90508135611f1681611ce1565b815260208281013590820152604082013567ffffffffffffffff80821115611f3d57600080fd5b818401915084601f830112611f5157600080fd5b611f6085833560208501611e0a565b60408401526060840135915080821115611f7957600080fd5b50611f8684828501611ecf565b60608301525092915050565b60008060408385031215611fa557600080fd5b82359150602083013567ffffffffffffffff811115611fc357600080fd5b611fcf85828601611eef565b9150509250929050565b60008060408385031215611fec57600080fd5b8235611ff781611ce1565b9150602083013567ffffffffffffffff811115611fc357600080fd5b6020808252601f908201527f5265656e7472616e637947756172643a207265656e7472616e742063616c6c00604082015260600190565b6020808252818101527f4f776e61626c653a2063616c6c6572206973206e6f7420746865206f776e6572604082015260600190565b634e487b7160e01b600052601160045260246000fd5b6000828210156120a7576120a761207f565b500390565b60208082526050908201527f54726164657363726f773a2053656e7420616d6f756e74206e6565647320746f60408201527f2062652067726561746572207468616e206f7220657175616c20746f2074686560608201526f206170706c69636174696f6e2066656560801b608082015260a00190565b634e487b7160e01b600052603260045260246000fd5b600060001982141561214c5761214c61207f565b5060010190565b600082198211156121665761216661207f565b500190565b600081518084526020808501945080840160005b838110156121b8576121a587835180516001600160a01b03168252602090810151910152565b604096909601959082019060010161217f565b509495945050505050565b602080825282516001600160a01b031682820152828101516040808401919091528084015160806060850152805160a085018190526000939291830191849160c08701905b808410156122425761222e82865180516001600160a01b03168252602090810151910152565b938501936001939093019290820190612208565b506060880151878203601f190160808901529450612260818661216b565b98975050505050505050565b60006020828403121561227e57600080fd5b81518015158114611b2a57600080fd5b60005b838110156122a9578181015183820152602001612291565b838111156118c25750506000910152565b600082516122cc81846020870161228e565b9190910192915050565b60208152600082518060208401526122f581604085016020870161228e565b601f01601f1916919091016040019291505056fea264697066735822122012b87ed9a4cf5d52285d720bdcd8219ac86a595c9fb935e74b41b0a27594f4dd64736f6c63430008090033",
  "linkReferences": {},
  "deployedLinkReferences": {}
}