{
  "_format": "hh-sol-artifact-1",
  "contractName": "Tradescrow",
  "sourceName": "contracts/Tradescrow.sol",
  "abi": [
    {
      "inputs": [],
      "stateMutability": "nonpayable",
      "type": "constructor"
    },
    {
      "anonymous": false,
      "inputs": [
        {
          "indexed": false,
          "internalType": "uint256",
          "name": "fee",
          "type": "uint256"
        }
      ],
      "name": "AppFeeChanged",
      "type": "event"
    },
    {
      "anonymous": false,
      "inputs": [
        {
          "indexed": true,
          "internalType": "address",
          "name": "previousOwner",
          "type": "address"
        },
        {
          "indexed": true,
          "internalType": "address",
          "name": "newOwner",
          "type": "address"
        }
      ],
      "name": "OwnershipTransferred",
      "type": "event"
    },
    {
      "anonymous": false,
      "inputs": [
        {
          "indexed": false,
          "internalType": "address",
          "name": "account",
          "type": "address"
        }
      ],
      "name": "Paused",
      "type": "event"
    },
    {
      "anonymous": false,
      "inputs": [
        {
          "indexed": true,
          "internalType": "address",
          "name": "from",
          "type": "address"
        },
        {
          "indexed": true,
          "internalType": "uint256",
          "name": "swapId",
          "type": "uint256"
        }
      ],
      "name": "SwapCancelled",
      "type": "event"
    },
    {
      "anonymous": false,
      "inputs": [
        {
          "indexed": true,
          "internalType": "uint256",
          "name": "swapId",
          "type": "uint256"
        }
      ],
      "name": "SwapClosed",
      "type": "event"
    },
    {
      "anonymous": false,
      "inputs": [
        {
          "indexed": true,
          "internalType": "address",
          "name": "from",
          "type": "address"
        },
        {
          "indexed": true,
          "internalType": "address",
          "name": "to",
          "type": "address"
        },
        {
          "indexed": true,
          "internalType": "uint256",
          "name": "swapId",
          "type": "uint256"
        }
      ],
      "name": "SwapExecuted",
      "type": "event"
    },
    {
      "anonymous": false,
      "inputs": [
        {
          "indexed": true,
          "internalType": "address",
          "name": "from",
          "type": "address"
        },
        {
          "indexed": true,
          "internalType": "address",
          "name": "to",
          "type": "address"
        },
        {
          "indexed": true,
          "internalType": "uint256",
          "name": "swapId",
          "type": "uint256"
        }
      ],
      "name": "SwapInitiated",
      "type": "event"
    },
    {
      "anonymous": false,
      "inputs": [
        {
          "indexed": true,
          "internalType": "address",
          "name": "from",
          "type": "address"
        },
        {
          "indexed": true,
          "internalType": "address",
          "name": "to",
          "type": "address"
        },
        {
          "indexed": true,
          "internalType": "uint256",
          "name": "swapId",
          "type": "uint256"
        }
      ],
      "name": "SwapProposed",
      "type": "event"
    },
    {
      "anonymous": false,
      "inputs": [
        {
          "indexed": false,
          "internalType": "address",
          "name": "account",
          "type": "address"
        }
      ],
      "name": "Unpaused",
      "type": "event"
    },
    {
      "inputs": [
        {
          "internalType": "uint256",
          "name": "swapId",
          "type": "uint256"
        }
      ],
      "name": "acceptSwap",
      "outputs": [],
      "stateMutability": "nonpayable",
      "type": "function"
    },
    {
      "inputs": [
        {
          "internalType": "uint256",
          "name": "swapId",
          "type": "uint256"
        }
      ],
      "name": "cancelSwap",
      "outputs": [],
      "stateMutability": "nonpayable",
      "type": "function"
    },
    {
      "inputs": [],
      "name": "fee",
      "outputs": [
        {
          "internalType": "uint256",
          "name": "",
          "type": "uint256"
        }
      ],
      "stateMutability": "view",
      "type": "function"
    },
    {
      "inputs": [
        {
          "internalType": "uint256",
          "name": "swapId",
          "type": "uint256"
        },
        {
          "internalType": "uint256",
          "name": "participant",
          "type": "uint256"
        }
      ],
      "name": "getOfferBySwapId",
      "outputs": [
        {
          "internalType": "address",
          "name": "addr",
          "type": "address"
        },
        {
          "internalType": "uint256",
          "name": "native",
          "type": "uint256"
        },
        {
          "internalType": "address[]",
          "name": "coinAddresses",
          "type": "address[]"
        },
        {
          "internalType": "uint256[]",
          "name": "coinAmounts",
          "type": "uint256[]"
        },
        {
          "internalType": "address[]",
          "name": "nftAddresses",
          "type": "address[]"
        },
        {
          "internalType": "uint256[]",
          "name": "nftAmounts",
          "type": "uint256[]"
        },
        {
          "internalType": "uint256[]",
          "name": "nftIds",
          "type": "uint256[]"
        }
      ],
      "stateMutability": "view",
      "type": "function"
    },
    {
      "inputs": [
        {
          "internalType": "uint256",
          "name": "swapId",
          "type": "uint256"
        },
        {
          "components": [
            {
              "internalType": "address payable",
              "name": "addr",
              "type": "address"
            },
            {
              "internalType": "uint256",
              "name": "native",
              "type": "uint256"
            },
            {
              "components": [
                {
                  "internalType": "address",
                  "name": "addr",
                  "type": "address"
                },
                {
                  "internalType": "uint256",
                  "name": "amount",
                  "type": "uint256"
                },
                {
                  "internalType": "uint256",
                  "name": "id",
                  "type": "uint256"
                }
              ],
              "internalType": "struct Tradescrow.Nft[]",
              "name": "nfts",
              "type": "tuple[]"
            },
            {
              "components": [
                {
                  "internalType": "address",
                  "name": "addr",
                  "type": "address"
                },
                {
                  "internalType": "uint256",
                  "name": "amount",
                  "type": "uint256"
                }
              ],
              "internalType": "struct Tradescrow.Coin[]",
              "name": "coins",
              "type": "tuple[]"
            }
          ],
          "internalType": "struct Tradescrow.Offer",
          "name": "offer",
          "type": "tuple"
        }
      ],
      "name": "initiateSwap",
      "outputs": [],
      "stateMutability": "payable",
      "type": "function"
    },
    {
      "inputs": [
        {
          "internalType": "address",
          "name": "",
          "type": "address"
        },
        {
          "internalType": "address",
          "name": "",
          "type": "address"
        },
        {
          "internalType": "uint256[]",
          "name": "",
          "type": "uint256[]"
        },
        {
          "internalType": "uint256[]",
          "name": "",
          "type": "uint256[]"
        },
        {
          "internalType": "bytes",
          "name": "",
          "type": "bytes"
        }
      ],
      "name": "onERC1155BatchReceived",
      "outputs": [
        {
          "internalType": "bytes4",
          "name": "",
          "type": "bytes4"
        }
      ],
      "stateMutability": "nonpayable",
      "type": "function"
    },
    {
      "inputs": [
        {
          "internalType": "address",
          "name": "",
          "type": "address"
        },
        {
          "internalType": "address",
          "name": "",
          "type": "address"
        },
        {
          "internalType": "uint256",
          "name": "",
          "type": "uint256"
        },
        {
          "internalType": "uint256",
          "name": "",
          "type": "uint256"
        },
        {
          "internalType": "bytes",
          "name": "",
          "type": "bytes"
        }
      ],
      "name": "onERC1155Received",
      "outputs": [
        {
          "internalType": "bytes4",
          "name": "",
          "type": "bytes4"
        }
      ],
      "stateMutability": "nonpayable",
      "type": "function"
    },
    {
      "inputs": [
        {
          "internalType": "address",
          "name": "",
          "type": "address"
        },
        {
          "internalType": "address",
          "name": "",
          "type": "address"
        },
        {
          "internalType": "uint256",
          "name": "",
          "type": "uint256"
        },
        {
          "internalType": "bytes",
          "name": "",
          "type": "bytes"
        }
      ],
      "name": "onERC721Received",
      "outputs": [
        {
          "internalType": "bytes4",
          "name": "",
          "type": "bytes4"
        }
      ],
      "stateMutability": "nonpayable",
      "type": "function"
    },
    {
      "inputs": [],
      "name": "owner",
      "outputs": [
        {
          "internalType": "address",
          "name": "",
          "type": "address"
        }
      ],
      "stateMutability": "view",
      "type": "function"
    },
    {
      "inputs": [],
      "name": "pause",
      "outputs": [],
      "stateMutability": "nonpayable",
      "type": "function"
    },
    {
      "inputs": [],
      "name": "paused",
      "outputs": [
        {
          "internalType": "bool",
          "name": "",
          "type": "bool"
        }
      ],
      "stateMutability": "view",
      "type": "function"
    },
    {
      "inputs": [
        {
          "internalType": "address payable",
          "name": "target",
          "type": "address"
        },
        {
          "components": [
            {
              "internalType": "address payable",
              "name": "addr",
              "type": "address"
            },
            {
              "internalType": "uint256",
              "name": "native",
              "type": "uint256"
            },
            {
              "components": [
                {
                  "internalType": "address",
                  "name": "addr",
                  "type": "address"
                },
                {
                  "internalType": "uint256",
                  "name": "amount",
                  "type": "uint256"
                },
                {
                  "internalType": "uint256",
                  "name": "id",
                  "type": "uint256"
                }
              ],
              "internalType": "struct Tradescrow.Nft[]",
              "name": "nfts",
              "type": "tuple[]"
            },
            {
              "components": [
                {
                  "internalType": "address",
                  "name": "addr",
                  "type": "address"
                },
                {
                  "internalType": "uint256",
                  "name": "amount",
                  "type": "uint256"
                }
              ],
              "internalType": "struct Tradescrow.Coin[]",
              "name": "coins",
              "type": "tuple[]"
            }
          ],
          "internalType": "struct Tradescrow.Offer",
          "name": "offer",
          "type": "tuple"
        }
      ],
      "name": "proposeSwap",
      "outputs": [
        {
          "internalType": "uint256",
          "name": "",
          "type": "uint256"
        }
      ],
      "stateMutability": "payable",
      "type": "function"
    },
    {
      "inputs": [],
      "name": "renounceOwnership",
      "outputs": [],
      "stateMutability": "nonpayable",
      "type": "function"
    },
    {
      "inputs": [
        {
          "internalType": "bytes4",
          "name": "interfaceId",
          "type": "bytes4"
        }
      ],
      "name": "supportsInterface",
      "outputs": [
        {
          "internalType": "bool",
          "name": "",
          "type": "bool"
        }
      ],
      "stateMutability": "view",
      "type": "function"
    },
    {
      "inputs": [
        {
          "internalType": "address",
          "name": "newOwner",
          "type": "address"
        }
      ],
      "name": "transferOwnership",
      "outputs": [],
      "stateMutability": "nonpayable",
      "type": "function"
    },
    {
      "inputs": [],
      "name": "unpause",
      "outputs": [],
      "stateMutability": "nonpayable",
      "type": "function"
    },
    {
      "inputs": [
        {
          "internalType": "uint256",
          "name": "newFee",
          "type": "uint256"
        }
      ],
      "name": "updateAppFee",
      "outputs": [],
      "stateMutability": "nonpayable",
      "type": "function"
    },
    {
      "inputs": [
        {
          "internalType": "address payable",
          "name": "recipient",
          "type": "address"
        }
      ],
      "name": "withdrawFees",
      "outputs": [],
      "stateMutability": "nonpayable",
      "type": "function"
    }
  ],
  "bytecode": "0x60806040523480156200001157600080fd5b506200001d336200003d565b600180556002805460ff19169055670de0b6b3a76400006005556200008d565b600080546001600160a01b038381166001600160a01b0319831681178455604051919092169283917f8be0079c531659141344cd1fd0a4f28419497f9722a3daafe3b4186f6b6457e09190a35050565b6136ba806200009d6000396000f3fe6080604052600436106101095760003560e01c8063715018a611610095578063b5cbcb8811610064578063b5cbcb88146102ce578063bc197c81146102ef578063ddca3f431461031b578063f23a6e6114610331578063f2fde38b1461035d57600080fd5b8063715018a6146102695780637cb1774d1461027e5780638456cb59146102915780638da5cb5b146102a657600080fd5b80631bf33004116100dc5780631bf33004146101dc5780633f4ba83a146101fc578063524928151461021157806354d6a2b7146102315780635c975abb1461025157600080fd5b806301ffc9a71461010e578063150b7a0214610143578063164e68de1461018757806317dcfcfc146101a9575b600080fd5b34801561011a57600080fd5b5061012e610129366004612cdd565b61037d565b60405190151581526020015b60405180910390f35b34801561014f57600080fd5b5061016e61015e366004612e42565b630a85bd0160e11b949350505050565b6040516001600160e01b0319909116815260200161013a565b34801561019357600080fd5b506101a76101a2366004612eae565b6103b4565b005b3480156101b557600080fd5b506101c96101c4366004612ecb565b61051e565b60405161013a9796959493929190612f61565b3480156101e857600080fd5b506101a76101f7366004612fe4565b610a58565b34801561020857600080fd5b506101a7610fb4565b34801561021d57600080fd5b506101a761022c366004612fe4565b611014565b34801561023d57600080fd5b506101a761024c366004612fe4565b611079565b34801561025d57600080fd5b5060025460ff1661012e565b34801561027557600080fd5b506101a76115d9565b6101a761028c3660046131d0565b61160f565b34801561029d57600080fd5b506101a76119a3565b3480156102b257600080fd5b506000546040516001600160a01b03909116815260200161013a565b6102e16102dc366004613217565b6119fd565b60405190815260200161013a565b3480156102fb57600080fd5b5061016e61030a3660046132ac565b63bc197c8160e01b95945050505050565b34801561032757600080fd5b506102e160055481565b34801561033d57600080fd5b5061016e61034c36600461335a565b63f23a6e6160e01b95945050505050565b34801561036957600080fd5b506101a7610378366004612eae565b611c84565b60006001600160e01b03198216630271189760e51b14806103ae57506301ffc9a760e01b6001600160e01b03198316145b92915050565b600260015414156103e05760405162461bcd60e51b81526004016103d7906133c3565b60405180910390fd5b60026001556000546001600160a01b0316331461040f5760405162461bcd60e51b81526004016103d7906133fa565b6001600160a01b0381166104765760405162461bcd60e51b815260206004820152602860248201527f54726164657363726f773a207472616e7366657220746f20746865207a65726f604482015267206164647265737360c01b60648201526084016103d7565b6000600454476104869190613445565b116104d35760405162461bcd60e51b815260206004820152601d60248201527f54726164657363726f773a204e6f20617661696c61626c65206665657300000060448201526064016103d7565b806001600160a01b03166108fc600454476104ee9190613445565b6040518115909202916000818181858888f19350505050158015610516573d6000803e3d6000fd5b505060018055565b6000806060808080808715806105345750876001145b6105935760405162461bcd60e51b815260206004820152602a60248201527f54726164657363726f773a20496e76616c6964207061727469636970616e742060448201526934b232b73a34b334b2b960b11b60648201526084016103d7565b876107f257600089815260066020526040812080546001909101546001600160a01b03909116985096505b60008a8152600660205260409020600301548110156106a65760008a81526006602052604090206003018054829081106105fa576105fa61345c565b600091825260209091206002909102015486516001600160a01b039091169087908390811061062b5761062b61345c565b6001600160a01b0390921660209283029190910182015260008b81526006909152604090206003018054829081106106655761066561345c565b9060005260206000209060020201600101548582815181106106895761068961345c565b60209081029190910101528061069e81613472565b9150506105be565b5060005b60008a8152600660205260409020600201548110156107ec5760008a81526006602052604090206002018054829081106106e6576106e661345c565b600091825260209091206003909102015484516001600160a01b03909116908590839081106107175761071761345c565b6001600160a01b0390921660209283029190910182015260008b81526006909152604090206002018054829081106107515761075161345c565b9060005260206000209060030201600101548382815181106107755761077561345c565b602002602001018181525050600660008b815260200190815260200160002060000160020181815481106107ab576107ab61345c565b9060005260206000209060030201600201548282815181106107cf576107cf61345c565b6020908102919091010152806107e481613472565b9150506106aa565b50610a4c565b600089815260066020526040812060048101546005909101546001600160a01b03909116985096505b60008a8152600660205260409020600701548110156109035760008a81526006602052604090206007018054829081106108575761085761345c565b600091825260209091206002909102015486516001600160a01b03909116908790839081106108885761088861345c565b6001600160a01b0390921660209283029190910182015260008b81526006909152604090206007018054829081106108c2576108c261345c565b9060005260206000209060020201600101548582815181106108e6576108e661345c565b6020908102919091010152806108fb81613472565b91505061081b565b5060005b60008a81526006602081905260409091200154811015610a4a5760008a8152600660208190526040909120018054829081106109455761094561345c565b600091825260209091206003909102015484516001600160a01b03909116908590839081106109765761097661345c565b6001600160a01b0390921660209283029190910182015260008b815260069182905260409020018054829081106109af576109af61345c565b9060005260206000209060030201600101548382815181106109d3576109d361345c565b602002602001018181525050600660008b81526020019081526020016000206004016002018181548110610a0957610a0961345c565b906000526020600020906003020160020154828281518110610a2d57610a2d61345c565b602090810291909101015280610a4281613472565b915050610907565b505b92959891949750929550565b60026001541415610a7b5760405162461bcd60e51b81526004016103d7906133c3565b6002600155610a8c60025460ff1690565b15610aa95760405162461bcd60e51b81526004016103d79061348d565b610ab281611d1f565b600081815260066020526040902060080154600114610ae35760405162461bcd60e51b81526004016103d7906134b7565b6000818152600660209081526040808320815160808101835281546001600160a01b031681526001820154818501526002820180548451818702810187018652818152610c0e979396949587019490939084015b82821015610b8c576000848152602090819020604080516060810182526003860290920180546001600160a01b0316835260018082015484860152600290910154918301919091529083529092019101610b37565b50505050815260200160038201805480602002602001604051908101604052809291908181526020016000905b82821015610c01576000848152602090819020604080518082019091526002850290910180546001600160a01b03168252600190810154828401529083529092019101610bb9565b5050505081525050611d96565b600081815260066020818152604080842081516080810183526004820180546001600160a01b031682526005830154828601529190940180548351818602810186018552818152610cb79793959487019490939084018215610b8c576000848152602090819020604080516060810182526003860290920180546001600160a01b0316835260018082015484860152600290910154918301919091529083529092019101610b37565b6000818152600660208181526040808420805482516080810184526004830180546001600160a01b0390811683526005850154838801529390960180548551818802810188018752818152610dee99309996909516979396870194909384015b82821015610d6c576000848152602090819020604080516060810182526003860290920180546001600160a01b0316835260018082015484860152600290910154918301919091529083529092019101610d17565b50505050815260200160038201805480602002602001604051908101604052809291908181526020016000905b82821015610de1576000848152602090819020604080518082019091526002850290910180546001600160a01b03168252600190810154828401529083529092019101610d99565b5050505081525050611e14565b60008181526006602090815260408083206004810154825160808101845282546001600160a01b0390811682526001840154828701526002840180548651818902810189018852818152610ea1993099949096169794969594870194909384018215610d6c576000848152602090819020604080516060810182526003860290920180546001600160a01b0316835260018082015484860152600290910154918301919091529083529092019101610d17565b6000818152600660205260409020610ebc90600481016120fb565b6000818152600660205260409020610ed89060048101906120fb565b60008181526006602052604080822060048101549054915184936001600160a01b0392831693909216917fbad29f2bbbf6bb1e15563203bcdb0dd660c54eab078763eb66f797efa8f5e8c191a4600081815260066020526040812080546001600160a01b031916815560018101829055908181610f586002830182612c44565b610f66600383016000612c65565b50506004820180546001600160a01b0319168155600060058401819055610f906006850182612c44565b610f9e600383016000612c65565b5050600882016000905550506001808190555050565b60026001541415610fd75760405162461bcd60e51b81526004016103d7906133c3565b60026001556000546001600160a01b031633146110065760405162461bcd60e51b81526004016103d7906133fa565b61100e61216a565b60018055565b6000546001600160a01b0316331461103e5760405162461bcd60e51b81526004016103d7906133fa565b60058190556040518181527fe854185167cff7d85f6ce2ae7d2940249c4a78ae54e270a5f7dddf8e5d7cc4589060200160405180910390a150565b6002600154141561109c5760405162461bcd60e51b81526004016103d7906133c3565b60026001556000818152600660205260409020546001600160a01b03163314806110df57506000818152600660205260409020600401546001600160a01b031633145b6111515760405162461bcd60e51b815260206004820152603760248201527f54726164657363726f773a2043616e27742063616e63656c20737761702c206d60448201527f7573742062652073776170207061727469636970616e7400000000000000000060648201526084016103d7565b600081815260066020526040902060026008820155546001600160a01b0316331415611258576000818152600660209081526040808320805482516080810184526001600160a01b03909116808252600183015482860152600283018054855181880281018801875281815261122498309894979596958701949193929184018215610d6c576000848152602090819020604080516060810182526003860290920180546001600160a01b0316835260018082015484860152600290910154918301919091529083529092019101610d17565b600081815260066020526040902061123c90806120fb565b6000818152600660205260409020611253906121fd565b611362565b6000818152600660205260409020600401546001600160a01b031633141561136257600081815260066020818152604080842060048101805483516080810185526001600160a01b03909116808252600584015482870152929095018054845181870281018701865281815261132d983098959795969495948701949193929184018215610d6c576000848152602090819020604080516060810182526003860290920180546001600160a01b0316835260018082015484860152600290910154918301919091529083529092019101610d17565b600081815260066020526040902061134890600401806120fb565b6000818152600660205260409020611362906004016121fd565b604051819033907f85562d2d9b6fe46899f9b6ed410d0330551d861f63395b58c411a9d8159ce08790600090a36000818152600660209081526040808320815160808101835281546001600160a01b0316815260018281015482860152600283018054855181880281018801875281815292976114b897949687019484015b82821015611436576000848152602090819020604080516060810182526003860290920180546001600160a01b03168352600180820154848601526002909101549183019190915290835290920191016113e1565b50505050815260200160038201805480602002602001604051908101604052809291908181526020016000905b828210156114ab576000848152602090819020604080518082019091526002850290910180546001600160a01b03168252600190810154828401529083529092019101611463565b5050505081525050612223565b14801561156f5750600081815260066020818152604080842081516080810183526004820180546001600160a01b03168252600583015482860152919094018054835181860281018601855281815260019761156d979694958701949193929184018215611436576000848152602090819020604080516060810182526003860290920180546001600160a01b03168352600180820154848601526002909101549183019190915290835290920191016113e1565b145b156115d25760405181907fd00350bcac47bd6aa8c7905e0b67f2de5cd9766526dc50203bbfb229bf6d17a790600090a2600081815260066020526040812080546001600160a01b031916815560018101829055908181610f586002830182612c44565b5060018055565b6000546001600160a01b031633146116035760405162461bcd60e51b81526004016103d7906133fa565b61160d600061225b565b565b600260015414156116325760405162461bcd60e51b81526004016103d7906133c3565b60026001556005543410156116595760405162461bcd60e51b81526004016103d790613508565b60025460ff161561167c5760405162461bcd60e51b81526004016103d79061348d565b611685826122ab565b600082815260066020818152604080842081516080810183526004820180546001600160a01b031682526005830154828601529190940180548351818602810186018552818152600197611732979694958701949193929184018215611436576000848152602090819020604080516060810182526003860290920180546001600160a01b03168352600180820154848601526002909101549183019190915290835290920191016113e1565b1461178a5760405162461bcd60e51b815260206004820152602260248201527f54726164657363726f773a207377617020616c726561647920696e6974696174604482015261195960f21b60648201526084016103d7565b6000828152600660205260409020600801546001146117bb5760405162461bcd60e51b81526004016103d7906134b7565b6117c481611d96565b6117cf333083612322565b60005b81604001515181101561187a57600660008481526020019081526020016000206004016002018260400151828151811061180e5761180e61345c565b602090810291909101810151825460018082018555600094855293839020825160039092020180546001600160a01b0319166001600160a01b0390921691909117815591810151928201929092556040909101516002909101558061187281613472565b9150506117d2565b5060005b81606001515181101561191157600083815260066020526040902060608301518051600790920191839081106118b6576118b661345c565b602090810291909101810151825460018082018555600094855293839020825160029092020180546001600160a01b0319166001600160a01b039092169190911781559101519101558061190981613472565b91505061187e565b50600554341115611955576005546119299034613445565b60008381526006602052604081206005018290556004805490919061194f90849061357e565b90915550505b60008281526006602052604080822054905184926001600160a01b039092169133917fb9b53e5cf33c508b86fd199ef9cfdda8ee6b149900427661b0a751fb8fd34f669190a4505060018055565b600260015414156119c65760405162461bcd60e51b81526004016103d7906133c3565b60026001556000546001600160a01b031633146119f55760405162461bcd60e51b81526004016103d7906133fa565b61100e6128cb565b600060026001541415611a225760405162461bcd60e51b81526004016103d7906133c3565b6002600155600554341015611a495760405162461bcd60e51b81526004016103d790613508565b60025460ff1615611a6c5760405162461bcd60e51b81526004016103d79061348d565b611a7582611d96565b611a83600380546001019055565b611a8e333084612322565b600060066000611a9d60035490565b8152602081019190915260400160009081206001600882015580546001600160a01b0319163317815591505b836040015151811015611b5f578160000160020184604001518281518110611af357611af361345c565b602090810291909101810151825460018082018555600094855293839020825160039092020180546001600160a01b0319166001600160a01b03909216919091178155918101519282019290925560409091015160029091015580611b5781613472565b915050611ac9565b5060005b836060015151811015611be8578160000160030184606001518281518110611b8d57611b8d61345c565b602090810291909101810151825460018082018555600094855293839020825160029092020180546001600160a01b0319166001600160a01b0390921691909117815591015191015580611be081613472565b915050611b63565b50600554341115611c1f57600554611c009034613445565b6001820181905560048054600090611c1990849061357e565b90915550505b6004810180546001600160a01b0319166001600160a01b0386161790556003546040516001600160a01b0386169033907fffd321d9ac6e5d361fa3cfa4ee752259774415efa4ac8d50669dce82c183b8eb90600090a460035460018055949350505050565b6000546001600160a01b03163314611cae5760405162461bcd60e51b81526004016103d7906133fa565b6001600160a01b038116611d135760405162461bcd60e51b815260206004820152602660248201527f4f776e61626c653a206e6577206f776e657220697320746865207a65726f206160448201526564647265737360d01b60648201526084016103d7565b611d1c8161225b565b50565b6000818152600660205260409020546001600160a01b03163314611d1c5760405162461bcd60e51b815260206004820152602860248201527f54726164657363726f773a2063616c6c6572206973206e6f74207377617020696044820152673734ba34b0ba37b960c11b60648201526084016103d7565b611d9f81612923565b600114611d1c5760405162461bcd60e51b815260206004820152603d60248201527f54726164657363726f773a2043616e277420616363657074206f666665722c2060448201527f7061727469636970616e74206469646e2774206164642061737365747300000060648201526084016103d7565b60005b816040015151811015611ffa5781604001518181518110611e3a57611e3a61345c565b60200260200101516020015160001415611f205781604001518181518110611e6457611e6461345c565b6020026020010151600001516001600160a01b031663b88d4fde858585604001518581518110611e9657611e9661345c565b602090810291909101015160409081015190516001600160e01b031960e086901b1681526001600160a01b0393841660048201529290911660248301526044820152608060648201526000608482015260a401600060405180830381600087803b158015611f0357600080fd5b505af1158015611f17573d6000803e3d6000fd5b50505050611fe8565b81604001518181518110611f3657611f3661345c565b6020026020010151600001516001600160a01b031663f242432a858585604001518581518110611f6857611f6861345c565b60200260200101516040015186604001518681518110611f8a57611f8a61345c565b6020026020010151602001516040518563ffffffff1660e01b8152600401611fb59493929190613596565b600060405180830381600087803b158015611fcf57600080fd5b505af1158015611fe3573d6000803e3d6000fd5b505050505b80611ff281613472565b915050611e17565b5060005b8160600151518110156120f5576001600160a01b0384163014156120815761207c83836060015183815181106120365761203661345c565b602002602001015160200151846060015184815181106120585761205861345c565b6020026020010151600001516001600160a01b031661294f9092919063ffffffff16565b6120e3565b6120e384848460600151848151811061209c5761209c61345c565b602002602001015160200151856060015185815181106120be576120be61345c565b6020026020010151600001516001600160a01b03166129b7909392919063ffffffff16565b806120ed81613472565b915050611ffe565b50505050565b6001820154156121665781600101546004600082825461211b9190613445565b9091555050600182018054600091829055825460405191926001600160a01b039091169183156108fc0291849190818181858888f193505050501580156120f5573d6000803e3d6000fd5b5050565b60025460ff166121b35760405162461bcd60e51b815260206004820152601460248201527314185d5cd8589b194e881b9bdd081c185d5cd95960621b60448201526064016103d7565b6002805460ff191690557f5db9ee0a495bf2e6ff9c91a7834c1ba4fdd244a5e8aa4e537bd38aeae4b073aa335b6040516001600160a01b03909116815260200160405180910390a1565b61220b600382016000612c65565b612219600282016000612c44565b6000600190910155565b60408101515160009060029015801561223f5750606083015151155b801561224d57506020830151155b156103ae5750600192915050565b600080546001600160a01b038381166001600160a01b0319831681178455604051919092169283917f8be0079c531659141344cd1fd0a4f28419497f9722a3daafe3b4186f6b6457e09190a35050565b6000818152600660205260409020600401546001600160a01b03163314611d1c5760405162461bcd60e51b815260206004820152602560248201527f54726164657363726f773a2063616c6c6572206973206e6f7420737761702074604482015264185c99d95d60da1b60648201526084016103d7565b60005b8160400151518110156126e057816040015181815181106123485761234861345c565b6020026020010151602001516000141561242e57816040015181815181106123725761237261345c565b6020026020010151600001516001600160a01b031663b88d4fde8585856040015185815181106123a4576123a461345c565b602090810291909101015160409081015190516001600160e01b031960e086901b1681526001600160a01b0393841660048201529290911660248301526044820152608060648201526000608482015260a401600060405180830381600087803b15801561241157600080fd5b505af1158015612425573d6000803e3d6000fd5b505050506126ce565b6000826040015182815181106124465761244661345c565b60200260200101516000015190506000816001600160a01b031662fdd58e308660400151868151811061247b5761247b61345c565b6020026020010151604001516040518363ffffffff1660e01b81526004016124b89291906001600160a01b03929092168252602082015260400190565b60206040518083038186803b1580156124d057600080fd5b505afa1580156124e4573d6000803e3d6000fd5b505050506040513d601f19601f8201168201806040525081019061250891906135ce565b9050816001600160a01b031663f242432a8787876040015187815181106125315761253161345c565b602002602001015160400151886040015188815181106125535761255361345c565b6020026020010151602001516040518563ffffffff1660e01b815260040161257e9493929190613596565b600060405180830381600087803b15801561259857600080fd5b505af11580156125ac573d6000803e3d6000fd5b505050506000826001600160a01b031662fdd58e30876040015187815181106125d7576125d761345c565b6020026020010151604001516040518363ffffffff1660e01b81526004016126149291906001600160a01b03929092168252602082015260400190565b60206040518083038186803b15801561262c57600080fd5b505afa158015612640573d6000803e3d6000fd5b505050506040513d601f19601f8201168201806040525081019061266491906135ce565b90508460400151848151811061267c5761267c61345c565b60200260200101516020015182826126949190613445565b146126ca576126a38282613445565b856040015185815181106126b9576126b961345c565b602002602001015160200181815250505b5050505b806126d881613472565b915050612325565b5060005b8160600151518110156120f5576000826060015182815181106127095761270961345c565b6020908102919091010151516040516370a0823160e01b81523060048201529091506000906001600160a01b038316906370a082319060240160206040518083038186803b15801561275a57600080fd5b505afa15801561276e573d6000803e3d6000fd5b505050506040513d601f19601f8201168201806040525081019061279291906135ce565b90506127d58686866060015186815181106127af576127af61345c565b602002602001015160200151856001600160a01b03166129b7909392919063ffffffff16565b6040516370a0823160e01b81523060048201526000906001600160a01b038416906370a082319060240160206040518083038186803b15801561281757600080fd5b505afa15801561282b573d6000803e3d6000fd5b505050506040513d601f19601f8201168201806040525081019061284f91906135ce565b9050846060015184815181106128675761286761345c565b602002602001015160200151828261287f9190613445565b146128b55761288e8282613445565b856060015185815181106128a4576128a461345c565b602002602001015160200181815250505b50505080806128c390613472565b9150506126e4565b60025460ff16156128ee5760405162461bcd60e51b81526004016103d79061348d565b6002805460ff191660011790557f62e78cea01bee320cd4e420270b5ea74000d11b0c9f74754ebdbfc544b05a2586121e03390565b604081015151600090600290151580612940575060608301515115155b8061224d575050600192915050565b6040516001600160a01b0383166024820152604481018290526129b290849063a9059cbb60e01b906064015b60408051601f198184030181529190526020810180516001600160e01b03166001600160e01b0319909316929092179091526129ef565b505050565b6040516001600160a01b03808516602483015283166044820152606481018290526120f59085906323b872dd60e01b9060840161297b565b6000612a44826040518060400160405280602081526020017f5361666545524332303a206c6f772d6c6576656c2063616c6c206661696c6564815250856001600160a01b0316612ac19092919063ffffffff16565b8051909150156129b25780806020019051810190612a6291906135e7565b6129b25760405162461bcd60e51b815260206004820152602a60248201527f5361666545524332303a204552433230206f7065726174696f6e20646964206e6044820152691bdd081cdd58d8d9595960b21b60648201526084016103d7565b6060612ad08484600085612ada565b90505b9392505050565b606082471015612b3b5760405162461bcd60e51b815260206004820152602660248201527f416464726573733a20696e73756666696369656e742062616c616e636520666f6044820152651c8818d85b1b60d21b60648201526084016103d7565b6001600160a01b0385163b612b925760405162461bcd60e51b815260206004820152601d60248201527f416464726573733a2063616c6c20746f206e6f6e2d636f6e747261637400000060448201526064016103d7565b600080866001600160a01b03168587604051612bae9190613635565b60006040518083038185875af1925050503d8060008114612beb576040519150601f19603f3d011682016040523d82523d6000602084013e612bf0565b606091505b5091509150612c00828286612c0b565b979650505050505050565b60608315612c1a575081612ad3565b825115612c2a5782518084602001fd5b8160405162461bcd60e51b81526004016103d79190613651565b5080546000825560030290600052602060002090810190611d1c9190612c86565b5080546000825560020290600052602060002090810190611d1c9190612cb7565b5b80821115612cb35780546001600160a01b03191681556000600182018190556002820155600301612c87565b5090565b5b80821115612cb35780546001600160a01b031916815560006001820155600201612cb8565b600060208284031215612cef57600080fd5b81356001600160e01b031981168114612ad357600080fd5b6001600160a01b0381168114611d1c57600080fd5b634e487b7160e01b600052604160045260246000fd5b6040805190810167ffffffffffffffff81118282101715612d5557612d55612d1c565b60405290565b6040516080810167ffffffffffffffff81118282101715612d5557612d55612d1c565b6040516060810167ffffffffffffffff81118282101715612d5557612d55612d1c565b604051601f8201601f1916810167ffffffffffffffff81118282101715612dca57612dca612d1c565b604052919050565b600082601f830112612de357600080fd5b813567ffffffffffffffff811115612dfd57612dfd612d1c565b612e10601f8201601f1916602001612da1565b818152846020838601011115612e2557600080fd5b816020850160208301376000918101602001919091529392505050565b60008060008060808587031215612e5857600080fd5b8435612e6381612d07565b93506020850135612e7381612d07565b925060408501359150606085013567ffffffffffffffff811115612e9657600080fd5b612ea287828801612dd2565b91505092959194509250565b600060208284031215612ec057600080fd5b8135612ad381612d07565b60008060408385031215612ede57600080fd5b50508035926020909101359150565b600081518084526020808501945080840160005b83811015612f265781516001600160a01b031687529582019590820190600101612f01565b509495945050505050565b600081518084526020808501945080840160005b83811015612f2657815187529582019590820190600101612f45565b60018060a01b038816815286602082015260e060408201526000612f8860e0830188612eed565b8281036060840152612f9a8188612f31565b90508281036080840152612fae8187612eed565b905082810360a0840152612fc28186612f31565b905082810360c0840152612fd68185612f31565b9a9950505050505050505050565b600060208284031215612ff657600080fd5b5035919050565b600067ffffffffffffffff82111561301757613017612d1c565b5060051b60200190565b600082601f83011261303257600080fd5b8135602061304761304283612ffd565b612da1565b82815260069290921b8401810191818101908684111561306657600080fd5b8286015b848110156130ae57604081890312156130835760008081fd5b61308b612d32565b813561309681612d07565b8152818501358582015283529183019160400161306a565b509695505050505050565b6000608082840312156130cb57600080fd5b6130d3612d5b565b905081356130e081612d07565b81526020828101358183015260408084013567ffffffffffffffff8082111561310857600080fd5b818601915086601f83011261311c57600080fd5b813561312a61304282612ffd565b8181526060918202840186019186820191908a84111561314957600080fd5b948701945b8386101561319a5780868c0312156131665760008081fd5b61316e612d7e565b863561317981612d07565b8152868901358982015287870135888201528352948501949187019161314e565b81878a0152808a01359750848811156131b257600080fd5b6131be8b898c01613021565b818a0152505050505050505092915050565b600080604083850312156131e357600080fd5b82359150602083013567ffffffffffffffff81111561320157600080fd5b61320d858286016130b9565b9150509250929050565b6000806040838503121561322a57600080fd5b823561323581612d07565b9150602083013567ffffffffffffffff81111561320157600080fd5b600082601f83011261326257600080fd5b8135602061327261304283612ffd565b82815260059290921b8401810191818101908684111561329157600080fd5b8286015b848110156130ae5780358352918301918301613295565b600080600080600060a086880312156132c457600080fd5b85356132cf81612d07565b945060208601356132df81612d07565b9350604086013567ffffffffffffffff808211156132fc57600080fd5b61330889838a01613251565b9450606088013591508082111561331e57600080fd5b61332a89838a01613251565b9350608088013591508082111561334057600080fd5b5061334d88828901612dd2565b9150509295509295909350565b600080600080600060a0868803121561337257600080fd5b853561337d81612d07565b9450602086013561338d81612d07565b93506040860135925060608601359150608086013567ffffffffffffffff8111156133b757600080fd5b61334d88828901612dd2565b6020808252601f908201527f5265656e7472616e637947756172643a207265656e7472616e742063616c6c00604082015260600190565b6020808252818101527f4f776e61626c653a2063616c6c6572206973206e6f7420746865206f776e6572604082015260600190565b634e487b7160e01b600052601160045260246000fd5b6000828210156134575761345761342f565b500390565b634e487b7160e01b600052603260045260246000fd5b60006000198214156134865761348661342f565b5060010190565b60208082526010908201526f14185d5cd8589b194e881c185d5cd95960821b604082015260600190565b60208082526031908201527f54726164657363726f773a205377617020636c6f7365642e204f6e6c79207573604082015270195c8818d85b98d95b08195b98589b1959607a1b606082015260800190565b60208082526050908201527f54726164657363726f773a2053656e7420616d6f756e74206e6565647320746f60408201527f2062652067726561746572207468616e206f7220657175616c20746f2074686560608201526f206170706c69636174696f6e2066656560801b608082015260a00190565b600082198211156135915761359161342f565b500190565b6001600160a01b0394851681529290931660208301526040820152606081019190915260a06080820181905260009082015260c00190565b6000602082840312156135e057600080fd5b5051919050565b6000602082840312156135f957600080fd5b81518015158114612ad357600080fd5b60005b8381101561362457818101518382015260200161360c565b838111156120f55750506000910152565b60008251613647818460208701613609565b9190910192915050565b6020815260008251806020840152613670816040850160208701613609565b601f01601f1916919091016040019291505056fea26469706673582212209e15c73cf02b8a806b71ad6fad559ebcc30568137e4d74a2d3ac54fb5a61169664736f6c63430008090033",
  "linkReferences": {},
  "deployedLinkReferences": {}
}