{
  "_format": "hh-sol-artifact-1",
  "contractName": "Tradescrow",
  "sourceName": "contracts/Tradescrow.sol",
  "abi": [
    {
      "inputs": [],
      "stateMutability": "nonpayable",
      "type": "constructor"
    },
    {
      "anonymous": false,
      "inputs": [
        {
          "indexed": false,
          "internalType": "uint256",
          "name": "fee",
          "type": "uint256"
        }
      ],
      "name": "AppFeeChanged",
      "type": "event"
    },
    {
      "anonymous": false,
      "inputs": [
        {
          "indexed": true,
          "internalType": "address",
          "name": "previousOwner",
          "type": "address"
        },
        {
          "indexed": true,
          "internalType": "address",
          "name": "newOwner",
          "type": "address"
        }
      ],
      "name": "OwnershipTransferred",
      "type": "event"
    },
    {
      "anonymous": false,
      "inputs": [
        {
          "indexed": false,
          "internalType": "address",
          "name": "account",
          "type": "address"
        }
      ],
      "name": "Paused",
      "type": "event"
    },
    {
      "anonymous": false,
      "inputs": [
        {
          "indexed": true,
          "internalType": "address",
          "name": "from",
          "type": "address"
        },
        {
          "indexed": true,
          "internalType": "uint256",
          "name": "swapId",
          "type": "uint256"
        }
      ],
      "name": "SwapCancelled",
      "type": "event"
    },
    {
      "anonymous": false,
      "inputs": [
        {
          "indexed": true,
          "internalType": "uint256",
          "name": "swapId",
          "type": "uint256"
        }
      ],
      "name": "SwapClosed",
      "type": "event"
    },
    {
      "anonymous": false,
      "inputs": [
        {
          "indexed": true,
          "internalType": "address",
          "name": "from",
          "type": "address"
        },
        {
          "indexed": true,
          "internalType": "address",
          "name": "to",
          "type": "address"
        },
        {
          "indexed": true,
          "internalType": "uint256",
          "name": "swapId",
          "type": "uint256"
        }
      ],
      "name": "SwapExecuted",
      "type": "event"
    },
    {
      "anonymous": false,
      "inputs": [
        {
          "indexed": true,
          "internalType": "address",
          "name": "from",
          "type": "address"
        },
        {
          "indexed": true,
          "internalType": "address",
          "name": "to",
          "type": "address"
        },
        {
          "indexed": true,
          "internalType": "uint256",
          "name": "swapId",
          "type": "uint256"
        }
      ],
      "name": "SwapInitiated",
      "type": "event"
    },
    {
      "anonymous": false,
      "inputs": [
        {
          "indexed": true,
          "internalType": "address",
          "name": "from",
          "type": "address"
        },
        {
          "indexed": true,
          "internalType": "address",
          "name": "to",
          "type": "address"
        },
        {
          "indexed": true,
          "internalType": "uint256",
          "name": "swapId",
          "type": "uint256"
        }
      ],
      "name": "SwapProposed",
      "type": "event"
    },
    {
      "anonymous": false,
      "inputs": [
        {
          "indexed": false,
          "internalType": "address",
          "name": "account",
          "type": "address"
        }
      ],
      "name": "Unpaused",
      "type": "event"
    },
    {
      "inputs": [
        {
          "internalType": "uint256",
          "name": "swapId",
          "type": "uint256"
        }
      ],
      "name": "acceptSwap",
      "outputs": [],
      "stateMutability": "nonpayable",
      "type": "function"
    },
    {
      "inputs": [
        {
          "internalType": "uint256",
          "name": "swapId",
          "type": "uint256"
        }
      ],
      "name": "cancelSwap",
      "outputs": [],
      "stateMutability": "nonpayable",
      "type": "function"
    },
    {
      "inputs": [],
      "name": "fee",
      "outputs": [
        {
          "internalType": "uint256",
          "name": "",
          "type": "uint256"
        }
      ],
      "stateMutability": "view",
      "type": "function"
    },
    {
      "inputs": [
        {
          "internalType": "uint256",
          "name": "swapId",
          "type": "uint256"
        },
        {
          "internalType": "uint256",
          "name": "participant",
          "type": "uint256"
        }
      ],
      "name": "getOfferBySwapId",
      "outputs": [
        {
          "internalType": "address",
          "name": "addr",
          "type": "address"
        },
        {
          "internalType": "uint256",
          "name": "native",
          "type": "uint256"
        },
        {
          "internalType": "address[]",
          "name": "coinAddresses",
          "type": "address[]"
        },
        {
          "internalType": "uint256[]",
          "name": "coinAmounts",
          "type": "uint256[]"
        },
        {
          "internalType": "address[]",
          "name": "nftAddresses",
          "type": "address[]"
        },
        {
          "internalType": "uint256[]",
          "name": "nftAmounts",
          "type": "uint256[]"
        },
        {
          "internalType": "uint256[]",
          "name": "nftIds",
          "type": "uint256[]"
        }
      ],
      "stateMutability": "view",
      "type": "function"
    },
    {
      "inputs": [
        {
          "internalType": "uint256",
          "name": "swapId",
          "type": "uint256"
        },
        {
          "components": [
            {
              "internalType": "address payable",
              "name": "addr",
              "type": "address"
            },
            {
              "internalType": "uint256",
              "name": "native",
              "type": "uint256"
            },
            {
              "components": [
                {
                  "internalType": "address",
                  "name": "addr",
                  "type": "address"
                },
                {
                  "internalType": "uint256",
                  "name": "amount",
                  "type": "uint256"
                },
                {
                  "internalType": "uint256",
                  "name": "id",
                  "type": "uint256"
                }
              ],
              "internalType": "struct Tradescrow.Nft[]",
              "name": "nfts",
              "type": "tuple[]"
            },
            {
              "components": [
                {
                  "internalType": "address",
                  "name": "addr",
                  "type": "address"
                },
                {
                  "internalType": "uint256",
                  "name": "amount",
                  "type": "uint256"
                }
              ],
              "internalType": "struct Tradescrow.Coin[]",
              "name": "coins",
              "type": "tuple[]"
            }
          ],
          "internalType": "struct Tradescrow.Offer",
          "name": "offer",
          "type": "tuple"
        }
      ],
      "name": "initiateSwap",
      "outputs": [],
      "stateMutability": "payable",
      "type": "function"
    },
    {
      "inputs": [
        {
          "internalType": "address",
          "name": "",
          "type": "address"
        },
        {
          "internalType": "address",
          "name": "",
          "type": "address"
        },
        {
          "internalType": "uint256[]",
          "name": "",
          "type": "uint256[]"
        },
        {
          "internalType": "uint256[]",
          "name": "",
          "type": "uint256[]"
        },
        {
          "internalType": "bytes",
          "name": "",
          "type": "bytes"
        }
      ],
      "name": "onERC1155BatchReceived",
      "outputs": [
        {
          "internalType": "bytes4",
          "name": "",
          "type": "bytes4"
        }
      ],
      "stateMutability": "nonpayable",
      "type": "function"
    },
    {
      "inputs": [
        {
          "internalType": "address",
          "name": "",
          "type": "address"
        },
        {
          "internalType": "address",
          "name": "",
          "type": "address"
        },
        {
          "internalType": "uint256",
          "name": "",
          "type": "uint256"
        },
        {
          "internalType": "uint256",
          "name": "",
          "type": "uint256"
        },
        {
          "internalType": "bytes",
          "name": "",
          "type": "bytes"
        }
      ],
      "name": "onERC1155Received",
      "outputs": [
        {
          "internalType": "bytes4",
          "name": "",
          "type": "bytes4"
        }
      ],
      "stateMutability": "nonpayable",
      "type": "function"
    },
    {
      "inputs": [
        {
          "internalType": "address",
          "name": "",
          "type": "address"
        },
        {
          "internalType": "address",
          "name": "",
          "type": "address"
        },
        {
          "internalType": "uint256",
          "name": "",
          "type": "uint256"
        },
        {
          "internalType": "bytes",
          "name": "",
          "type": "bytes"
        }
      ],
      "name": "onERC721Received",
      "outputs": [
        {
          "internalType": "bytes4",
          "name": "",
          "type": "bytes4"
        }
      ],
      "stateMutability": "nonpayable",
      "type": "function"
    },
    {
      "inputs": [],
      "name": "owner",
      "outputs": [
        {
          "internalType": "address",
          "name": "",
          "type": "address"
        }
      ],
      "stateMutability": "view",
      "type": "function"
    },
    {
      "inputs": [],
      "name": "pause",
      "outputs": [],
      "stateMutability": "nonpayable",
      "type": "function"
    },
    {
      "inputs": [],
      "name": "paused",
      "outputs": [
        {
          "internalType": "bool",
          "name": "",
          "type": "bool"
        }
      ],
      "stateMutability": "view",
      "type": "function"
    },
    {
      "inputs": [
        {
          "internalType": "address payable",
          "name": "target",
          "type": "address"
        },
        {
          "components": [
            {
              "internalType": "address payable",
              "name": "addr",
              "type": "address"
            },
            {
              "internalType": "uint256",
              "name": "native",
              "type": "uint256"
            },
            {
              "components": [
                {
                  "internalType": "address",
                  "name": "addr",
                  "type": "address"
                },
                {
                  "internalType": "uint256",
                  "name": "amount",
                  "type": "uint256"
                },
                {
                  "internalType": "uint256",
                  "name": "id",
                  "type": "uint256"
                }
              ],
              "internalType": "struct Tradescrow.Nft[]",
              "name": "nfts",
              "type": "tuple[]"
            },
            {
              "components": [
                {
                  "internalType": "address",
                  "name": "addr",
                  "type": "address"
                },
                {
                  "internalType": "uint256",
                  "name": "amount",
                  "type": "uint256"
                }
              ],
              "internalType": "struct Tradescrow.Coin[]",
              "name": "coins",
              "type": "tuple[]"
            }
          ],
          "internalType": "struct Tradescrow.Offer",
          "name": "offer",
          "type": "tuple"
        }
      ],
      "name": "proposeSwap",
      "outputs": [
        {
          "internalType": "uint256",
          "name": "",
          "type": "uint256"
        }
      ],
      "stateMutability": "payable",
      "type": "function"
    },
    {
      "inputs": [],
      "name": "renounceOwnership",
      "outputs": [],
      "stateMutability": "nonpayable",
      "type": "function"
    },
    {
      "inputs": [
        {
          "internalType": "bytes4",
          "name": "interfaceId",
          "type": "bytes4"
        }
      ],
      "name": "supportsInterface",
      "outputs": [
        {
          "internalType": "bool",
          "name": "",
          "type": "bool"
        }
      ],
      "stateMutability": "view",
      "type": "function"
    },
    {
      "inputs": [
        {
          "internalType": "address",
          "name": "newOwner",
          "type": "address"
        }
      ],
      "name": "transferOwnership",
      "outputs": [],
      "stateMutability": "nonpayable",
      "type": "function"
    },
    {
      "inputs": [],
      "name": "unpause",
      "outputs": [],
      "stateMutability": "nonpayable",
      "type": "function"
    },
    {
      "inputs": [
        {
          "internalType": "uint256",
          "name": "newFee",
          "type": "uint256"
        }
      ],
      "name": "updateAppFee",
      "outputs": [],
      "stateMutability": "nonpayable",
      "type": "function"
    },
    {
      "inputs": [
        {
          "internalType": "address payable",
          "name": "recipient",
          "type": "address"
        }
      ],
      "name": "withdrawFees",
      "outputs": [],
      "stateMutability": "nonpayable",
      "type": "function"
    }
  ],
  "bytecode": "0x60806040523480156200001157600080fd5b506200001d336200003d565b600180556002805460ff19169055670de0b6b3a76400006005556200008d565b600080546001600160a01b038381166001600160a01b0319831681178455604051919092169283917f8be0079c531659141344cd1fd0a4f28419497f9722a3daafe3b4186f6b6457e09190a35050565b6136f9806200009d6000396000f3fe6080604052600436106101095760003560e01c8063715018a611610095578063b5cbcb8811610064578063b5cbcb88146102ce578063bc197c81146102ef578063ddca3f431461031b578063f23a6e6114610331578063f2fde38b1461035d57600080fd5b8063715018a6146102695780637cb1774d1461027e5780638456cb59146102915780638da5cb5b146102a657600080fd5b80631bf33004116100dc5780631bf33004146101dc5780633f4ba83a146101fc578063524928151461021157806354d6a2b7146102315780635c975abb1461025157600080fd5b806301ffc9a71461010e578063150b7a0214610143578063164e68de1461018757806317dcfcfc146101a9575b600080fd5b34801561011a57600080fd5b5061012e610129366004612d1c565b61037d565b60405190151581526020015b60405180910390f35b34801561014f57600080fd5b5061016e61015e366004612e81565b630a85bd0160e11b949350505050565b6040516001600160e01b0319909116815260200161013a565b34801561019357600080fd5b506101a76101a2366004612eed565b6103b4565b005b3480156101b557600080fd5b506101c96101c4366004612f0a565b610531565b60405161013a9796959493929190612fa0565b3480156101e857600080fd5b506101a76101f7366004613023565b610a6b565b34801561020857600080fd5b506101a7610fc7565b34801561021d57600080fd5b506101a761022c366004613023565b611027565b34801561023d57600080fd5b506101a761024c366004613023565b6110b8565b34801561025d57600080fd5b5060025460ff1661012e565b34801561027557600080fd5b506101a7611618565b6101a761028c36600461320f565b61164e565b34801561029d57600080fd5b506101a76119e2565b3480156102b257600080fd5b506000546040516001600160a01b03909116815260200161013a565b6102e16102dc366004613256565b611a3c565b60405190815260200161013a565b3480156102fb57600080fd5b5061016e61030a3660046132eb565b63bc197c8160e01b95945050505050565b34801561032757600080fd5b506102e160055481565b34801561033d57600080fd5b5061016e61034c366004613399565b63f23a6e6160e01b95945050505050565b34801561036957600080fd5b506101a7610378366004612eed565b611cc3565b60006001600160e01b03198216630271189760e51b14806103ae57506301ffc9a760e01b6001600160e01b03198316145b92915050565b600260015414156103e05760405162461bcd60e51b81526004016103d790613402565b60405180910390fd5b60026001556000546001600160a01b0316331461040f5760405162461bcd60e51b81526004016103d790613439565b6001600160a01b0381166104765760405162461bcd60e51b815260206004820152602860248201527f54726164657363726f773a207472616e7366657220746f20746865207a65726f604482015267206164647265737360c01b60648201526084016103d7565b6000600454476104869190613484565b116104d35760405162461bcd60e51b815260206004820152601d60248201527f54726164657363726f773a204e6f20617661696c61626c65206665657300000060448201526064016103d7565b806001600160a01b03166108fc670de0b6b3a7640000600454476104f79190613484565b6105019190613484565b6040518115909202916000818181858888f19350505050158015610529573d6000803e3d6000fd5b505060018055565b6000806060808080808715806105475750876001145b6105a65760405162461bcd60e51b815260206004820152602a60248201527f54726164657363726f773a20496e76616c6964207061727469636970616e742060448201526934b232b73a34b334b2b960b11b60648201526084016103d7565b8761080557600089815260066020526040812080546001909101546001600160a01b03909116985096505b60008a8152600660205260409020600301548110156106b95760008a815260066020526040902060030180548290811061060d5761060d61349b565b600091825260209091206002909102015486516001600160a01b039091169087908390811061063e5761063e61349b565b6001600160a01b0390921660209283029190910182015260008b81526006909152604090206003018054829081106106785761067861349b565b90600052602060002090600202016001015485828151811061069c5761069c61349b565b6020908102919091010152806106b1816134b1565b9150506105d1565b5060005b60008a8152600660205260409020600201548110156107ff5760008a81526006602052604090206002018054829081106106f9576106f961349b565b600091825260209091206003909102015484516001600160a01b039091169085908390811061072a5761072a61349b565b6001600160a01b0390921660209283029190910182015260008b81526006909152604090206002018054829081106107645761076461349b565b9060005260206000209060030201600101548382815181106107885761078861349b565b602002602001018181525050600660008b815260200190815260200160002060000160020181815481106107be576107be61349b565b9060005260206000209060030201600201548282815181106107e2576107e261349b565b6020908102919091010152806107f7816134b1565b9150506106bd565b50610a5f565b600089815260066020526040812060048101546005909101546001600160a01b03909116985096505b60008a8152600660205260409020600701548110156109165760008a815260066020526040902060070180548290811061086a5761086a61349b565b600091825260209091206002909102015486516001600160a01b039091169087908390811061089b5761089b61349b565b6001600160a01b0390921660209283029190910182015260008b81526006909152604090206007018054829081106108d5576108d561349b565b9060005260206000209060020201600101548582815181106108f9576108f961349b565b60209081029190910101528061090e816134b1565b91505061082e565b5060005b60008a81526006602081905260409091200154811015610a5d5760008a8152600660208190526040909120018054829081106109585761095861349b565b600091825260209091206003909102015484516001600160a01b03909116908590839081106109895761098961349b565b6001600160a01b0390921660209283029190910182015260008b815260069182905260409020018054829081106109c2576109c261349b565b9060005260206000209060030201600101548382815181106109e6576109e661349b565b602002602001018181525050600660008b81526020019081526020016000206004016002018181548110610a1c57610a1c61349b565b906000526020600020906003020160020154828281518110610a4057610a4061349b565b602090810291909101015280610a55816134b1565b91505061091a565b505b92959891949750929550565b60026001541415610a8e5760405162461bcd60e51b81526004016103d790613402565b6002600155610a9f60025460ff1690565b15610abc5760405162461bcd60e51b81526004016103d7906134cc565b610ac581611d5e565b600081815260066020526040902060080154600114610af65760405162461bcd60e51b81526004016103d7906134f6565b6000818152600660209081526040808320815160808101835281546001600160a01b031681526001820154818501526002820180548451818702810187018652818152610c21979396949587019490939084015b82821015610b9f576000848152602090819020604080516060810182526003860290920180546001600160a01b0316835260018082015484860152600290910154918301919091529083529092019101610b4a565b50505050815260200160038201805480602002602001604051908101604052809291908181526020016000905b82821015610c14576000848152602090819020604080518082019091526002850290910180546001600160a01b03168252600190810154828401529083529092019101610bcc565b5050505081525050611dd5565b600081815260066020818152604080842081516080810183526004820180546001600160a01b031682526005830154828601529190940180548351818602810186018552818152610cca9793959487019490939084018215610b9f576000848152602090819020604080516060810182526003860290920180546001600160a01b0316835260018082015484860152600290910154918301919091529083529092019101610b4a565b6000818152600660208181526040808420805482516080810184526004830180546001600160a01b0390811683526005850154838801529390960180548551818802810188018752818152610e0199309996909516979396870194909384015b82821015610d7f576000848152602090819020604080516060810182526003860290920180546001600160a01b0316835260018082015484860152600290910154918301919091529083529092019101610d2a565b50505050815260200160038201805480602002602001604051908101604052809291908181526020016000905b82821015610df4576000848152602090819020604080518082019091526002850290910180546001600160a01b03168252600190810154828401529083529092019101610dac565b5050505081525050611e53565b60008181526006602090815260408083206004810154825160808101845282546001600160a01b0390811682526001840154828701526002840180548651818902810189018852818152610eb4993099949096169794969594870194909384018215610d7f576000848152602090819020604080516060810182526003860290920180546001600160a01b0316835260018082015484860152600290910154918301919091529083529092019101610d2a565b6000818152600660205260409020610ecf906004810161213a565b6000818152600660205260409020610eeb90600481019061213a565b60008181526006602052604080822060048101549054915184936001600160a01b0392831693909216917fbad29f2bbbf6bb1e15563203bcdb0dd660c54eab078763eb66f797efa8f5e8c191a4600081815260066020526040812080546001600160a01b031916815560018101829055908181610f6b6002830182612c83565b610f79600383016000612ca4565b50506004820180546001600160a01b0319168155600060058401819055610fa36006850182612c83565b610fb1600383016000612ca4565b5050600882016000905550506001808190555050565b60026001541415610fea5760405162461bcd60e51b81526004016103d790613402565b60026001556000546001600160a01b031633146110195760405162461bcd60e51b81526004016103d790613439565b6110216121a9565b60018055565b6002600154141561104a5760405162461bcd60e51b81526004016103d790613402565b60026001556000546001600160a01b031633146110795760405162461bcd60e51b81526004016103d790613439565b60058190556040518181527fe854185167cff7d85f6ce2ae7d2940249c4a78ae54e270a5f7dddf8e5d7cc4589060200160405180910390a15060018055565b600260015414156110db5760405162461bcd60e51b81526004016103d790613402565b60026001556000818152600660205260409020546001600160a01b031633148061111e57506000818152600660205260409020600401546001600160a01b031633145b6111905760405162461bcd60e51b815260206004820152603760248201527f54726164657363726f773a2043616e27742063616e63656c20737761702c206d60448201527f7573742062652073776170207061727469636970616e7400000000000000000060648201526084016103d7565b600081815260066020526040902060026008820155546001600160a01b0316331415611297576000818152600660209081526040808320805482516080810184526001600160a01b03909116808252600183015482860152600283018054855181880281018801875281815261126398309894979596958701949193929184018215610d7f576000848152602090819020604080516060810182526003860290920180546001600160a01b0316835260018082015484860152600290910154918301919091529083529092019101610d2a565b600081815260066020526040902061127b908061213a565b60008181526006602052604090206112929061223c565b6113a1565b6000818152600660205260409020600401546001600160a01b03163314156113a157600081815260066020818152604080842060048101805483516080810185526001600160a01b03909116808252600584015482870152929095018054845181870281018701865281815261136c983098959795969495948701949193929184018215610d7f576000848152602090819020604080516060810182526003860290920180546001600160a01b0316835260018082015484860152600290910154918301919091529083529092019101610d2a565b6000818152600660205260409020611387906004018061213a565b60008181526006602052604090206113a19060040161223c565b604051819033907f85562d2d9b6fe46899f9b6ed410d0330551d861f63395b58c411a9d8159ce08790600090a36000818152600660209081526040808320815160808101835281546001600160a01b0316815260018281015482860152600283018054855181880281018801875281815292976114f797949687019484015b82821015611475576000848152602090819020604080516060810182526003860290920180546001600160a01b0316835260018082015484860152600290910154918301919091529083529092019101611420565b50505050815260200160038201805480602002602001604051908101604052809291908181526020016000905b828210156114ea576000848152602090819020604080518082019091526002850290910180546001600160a01b031682526001908101548284015290835290920191016114a2565b5050505081525050612262565b1480156115ae5750600081815260066020818152604080842081516080810183526004820180546001600160a01b0316825260058301548286015291909401805483518186028101860185528181526001976115ac979694958701949193929184018215611475576000848152602090819020604080516060810182526003860290920180546001600160a01b0316835260018082015484860152600290910154918301919091529083529092019101611420565b145b156116115760405181907fd00350bcac47bd6aa8c7905e0b67f2de5cd9766526dc50203bbfb229bf6d17a790600090a2600081815260066020526040812080546001600160a01b031916815560018101829055908181610f6b6002830182612c83565b5060018055565b6000546001600160a01b031633146116425760405162461bcd60e51b81526004016103d790613439565b61164c600061229a565b565b600260015414156116715760405162461bcd60e51b81526004016103d790613402565b60026001556005543410156116985760405162461bcd60e51b81526004016103d790613547565b60025460ff16156116bb5760405162461bcd60e51b81526004016103d7906134cc565b6116c4826122ea565b600082815260066020818152604080842081516080810183526004820180546001600160a01b031682526005830154828601529190940180548351818602810186018552818152600197611771979694958701949193929184018215611475576000848152602090819020604080516060810182526003860290920180546001600160a01b0316835260018082015484860152600290910154918301919091529083529092019101611420565b146117c95760405162461bcd60e51b815260206004820152602260248201527f54726164657363726f773a207377617020616c726561647920696e6974696174604482015261195960f21b60648201526084016103d7565b6000828152600660205260409020600801546001146117fa5760405162461bcd60e51b81526004016103d7906134f6565b61180381611dd5565b61180e333083612361565b60005b8160400151518110156118b957600660008481526020019081526020016000206004016002018260400151828151811061184d5761184d61349b565b602090810291909101810151825460018082018555600094855293839020825160039092020180546001600160a01b0319166001600160a01b039092169190911781559181015192820192909255604090910151600290910155806118b1816134b1565b915050611811565b5060005b81606001515181101561195057600083815260066020526040902060608301518051600790920191839081106118f5576118f561349b565b602090810291909101810151825460018082018555600094855293839020825160029092020180546001600160a01b0319166001600160a01b0390921691909117815591015191015580611948816134b1565b9150506118bd565b50600554341115611994576005546119689034613484565b60008381526006602052604081206005018290556004805490919061198e9084906135bd565b90915550505b60008281526006602052604080822054905184926001600160a01b039092169133917fb9b53e5cf33c508b86fd199ef9cfdda8ee6b149900427661b0a751fb8fd34f669190a4505060018055565b60026001541415611a055760405162461bcd60e51b81526004016103d790613402565b60026001556000546001600160a01b03163314611a345760405162461bcd60e51b81526004016103d790613439565b61102161290a565b600060026001541415611a615760405162461bcd60e51b81526004016103d790613402565b6002600155600554341015611a885760405162461bcd60e51b81526004016103d790613547565b60025460ff1615611aab5760405162461bcd60e51b81526004016103d7906134cc565b611ab482611dd5565b611ac2600380546001019055565b611acd333084612361565b600060066000611adc60035490565b8152602081019190915260400160009081206001600882015580546001600160a01b0319163317815591505b836040015151811015611b9e578160000160020184604001518281518110611b3257611b3261349b565b602090810291909101810151825460018082018555600094855293839020825160039092020180546001600160a01b0319166001600160a01b03909216919091178155918101519282019290925560409091015160029091015580611b96816134b1565b915050611b08565b5060005b836060015151811015611c27578160000160030184606001518281518110611bcc57611bcc61349b565b602090810291909101810151825460018082018555600094855293839020825160029092020180546001600160a01b0319166001600160a01b0390921691909117815591015191015580611c1f816134b1565b915050611ba2565b50600554341115611c5e57600554611c3f9034613484565b6001820181905560048054600090611c589084906135bd565b90915550505b6004810180546001600160a01b0319166001600160a01b0386161790556003546040516001600160a01b0386169033907fffd321d9ac6e5d361fa3cfa4ee752259774415efa4ac8d50669dce82c183b8eb90600090a460035460018055949350505050565b6000546001600160a01b03163314611ced5760405162461bcd60e51b81526004016103d790613439565b6001600160a01b038116611d525760405162461bcd60e51b815260206004820152602660248201527f4f776e61626c653a206e6577206f776e657220697320746865207a65726f206160448201526564647265737360d01b60648201526084016103d7565b611d5b8161229a565b50565b6000818152600660205260409020546001600160a01b03163314611d5b5760405162461bcd60e51b815260206004820152602860248201527f54726164657363726f773a2063616c6c6572206973206e6f74207377617020696044820152673734ba34b0ba37b960c11b60648201526084016103d7565b611dde81612962565b600114611d5b5760405162461bcd60e51b815260206004820152603d60248201527f54726164657363726f773a2043616e277420616363657074206f666665722c2060448201527f7061727469636970616e74206469646e2774206164642061737365747300000060648201526084016103d7565b60005b8160400151518110156120395781604001518181518110611e7957611e7961349b565b60200260200101516020015160001415611f5f5781604001518181518110611ea357611ea361349b565b6020026020010151600001516001600160a01b031663b88d4fde858585604001518581518110611ed557611ed561349b565b602090810291909101015160409081015190516001600160e01b031960e086901b1681526001600160a01b0393841660048201529290911660248301526044820152608060648201526000608482015260a401600060405180830381600087803b158015611f4257600080fd5b505af1158015611f56573d6000803e3d6000fd5b50505050612027565b81604001518181518110611f7557611f7561349b565b6020026020010151600001516001600160a01b031663f242432a858585604001518581518110611fa757611fa761349b565b60200260200101516040015186604001518681518110611fc957611fc961349b565b6020026020010151602001516040518563ffffffff1660e01b8152600401611ff494939291906135d5565b600060405180830381600087803b15801561200e57600080fd5b505af1158015612022573d6000803e3d6000fd5b505050505b80612031816134b1565b915050611e56565b5060005b816060015151811015612134576001600160a01b0384163014156120c0576120bb83836060015183815181106120755761207561349b565b602002602001015160200151846060015184815181106120975761209761349b565b6020026020010151600001516001600160a01b031661298e9092919063ffffffff16565b612122565b6121228484846060015184815181106120db576120db61349b565b602002602001015160200151856060015185815181106120fd576120fd61349b565b6020026020010151600001516001600160a01b03166129f6909392919063ffffffff16565b8061212c816134b1565b91505061203d565b50505050565b6001820154156121a55781600101546004600082825461215a9190613484565b9091555050600182018054600091829055825460405191926001600160a01b039091169183156108fc0291849190818181858888f19350505050158015612134573d6000803e3d6000fd5b5050565b60025460ff166121f25760405162461bcd60e51b815260206004820152601460248201527314185d5cd8589b194e881b9bdd081c185d5cd95960621b60448201526064016103d7565b6002805460ff191690557f5db9ee0a495bf2e6ff9c91a7834c1ba4fdd244a5e8aa4e537bd38aeae4b073aa335b6040516001600160a01b03909116815260200160405180910390a1565b61224a600382016000612ca4565b612258600282016000612c83565b6000600190910155565b60408101515160009060029015801561227e5750606083015151155b801561228c57506020830151155b156103ae5750600192915050565b600080546001600160a01b038381166001600160a01b0319831681178455604051919092169283917f8be0079c531659141344cd1fd0a4f28419497f9722a3daafe3b4186f6b6457e09190a35050565b6000818152600660205260409020600401546001600160a01b03163314611d5b5760405162461bcd60e51b815260206004820152602560248201527f54726164657363726f773a2063616c6c6572206973206e6f7420737761702074604482015264185c99d95d60da1b60648201526084016103d7565b60005b81604001515181101561271f57816040015181815181106123875761238761349b565b6020026020010151602001516000141561246d57816040015181815181106123b1576123b161349b565b6020026020010151600001516001600160a01b031663b88d4fde8585856040015185815181106123e3576123e361349b565b602090810291909101015160409081015190516001600160e01b031960e086901b1681526001600160a01b0393841660048201529290911660248301526044820152608060648201526000608482015260a401600060405180830381600087803b15801561245057600080fd5b505af1158015612464573d6000803e3d6000fd5b5050505061270d565b6000826040015182815181106124855761248561349b565b60200260200101516000015190506000816001600160a01b031662fdd58e30866040015186815181106124ba576124ba61349b565b6020026020010151604001516040518363ffffffff1660e01b81526004016124f79291906001600160a01b03929092168252602082015260400190565b60206040518083038186803b15801561250f57600080fd5b505afa158015612523573d6000803e3d6000fd5b505050506040513d601f19601f82011682018060405250810190612547919061360d565b9050816001600160a01b031663f242432a8787876040015187815181106125705761257061349b565b602002602001015160400151886040015188815181106125925761259261349b565b6020026020010151602001516040518563ffffffff1660e01b81526004016125bd94939291906135d5565b600060405180830381600087803b1580156125d757600080fd5b505af11580156125eb573d6000803e3d6000fd5b505050506000826001600160a01b031662fdd58e30876040015187815181106126165761261661349b565b6020026020010151604001516040518363ffffffff1660e01b81526004016126539291906001600160a01b03929092168252602082015260400190565b60206040518083038186803b15801561266b57600080fd5b505afa15801561267f573d6000803e3d6000fd5b505050506040513d601f19601f820116820180604052508101906126a3919061360d565b9050846040015184815181106126bb576126bb61349b565b60200260200101516020015182826126d39190613484565b14612709576126e28282613484565b856040015185815181106126f8576126f861349b565b602002602001015160200181815250505b5050505b80612717816134b1565b915050612364565b5060005b816060015151811015612134576000826060015182815181106127485761274861349b565b6020908102919091010151516040516370a0823160e01b81523060048201529091506000906001600160a01b038316906370a082319060240160206040518083038186803b15801561279957600080fd5b505afa1580156127ad573d6000803e3d6000fd5b505050506040513d601f19601f820116820180604052508101906127d1919061360d565b90506128148686866060015186815181106127ee576127ee61349b565b602002602001015160200151856001600160a01b03166129f6909392919063ffffffff16565b6040516370a0823160e01b81523060048201526000906001600160a01b038416906370a082319060240160206040518083038186803b15801561285657600080fd5b505afa15801561286a573d6000803e3d6000fd5b505050506040513d601f19601f8201168201806040525081019061288e919061360d565b9050846060015184815181106128a6576128a661349b565b60200260200101516020015182826128be9190613484565b146128f4576128cd8282613484565b856060015185815181106128e3576128e361349b565b602002602001015160200181815250505b5050508080612902906134b1565b915050612723565b60025460ff161561292d5760405162461bcd60e51b81526004016103d7906134cc565b6002805460ff191660011790557f62e78cea01bee320cd4e420270b5ea74000d11b0c9f74754ebdbfc544b05a25861221f3390565b60408101515160009060029015158061297f575060608301515115155b8061228c575050600192915050565b6040516001600160a01b0383166024820152604481018290526129f190849063a9059cbb60e01b906064015b60408051601f198184030181529190526020810180516001600160e01b03166001600160e01b031990931692909217909152612a2e565b505050565b6040516001600160a01b03808516602483015283166044820152606481018290526121349085906323b872dd60e01b906084016129ba565b6000612a83826040518060400160405280602081526020017f5361666545524332303a206c6f772d6c6576656c2063616c6c206661696c6564815250856001600160a01b0316612b009092919063ffffffff16565b8051909150156129f15780806020019051810190612aa19190613626565b6129f15760405162461bcd60e51b815260206004820152602a60248201527f5361666545524332303a204552433230206f7065726174696f6e20646964206e6044820152691bdd081cdd58d8d9595960b21b60648201526084016103d7565b6060612b0f8484600085612b19565b90505b9392505050565b606082471015612b7a5760405162461bcd60e51b815260206004820152602660248201527f416464726573733a20696e73756666696369656e742062616c616e636520666f6044820152651c8818d85b1b60d21b60648201526084016103d7565b6001600160a01b0385163b612bd15760405162461bcd60e51b815260206004820152601d60248201527f416464726573733a2063616c6c20746f206e6f6e2d636f6e747261637400000060448201526064016103d7565b600080866001600160a01b03168587604051612bed9190613674565b60006040518083038185875af1925050503d8060008114612c2a576040519150601f19603f3d011682016040523d82523d6000602084013e612c2f565b606091505b5091509150612c3f828286612c4a565b979650505050505050565b60608315612c59575081612b12565b825115612c695782518084602001fd5b8160405162461bcd60e51b81526004016103d79190613690565b5080546000825560030290600052602060002090810190611d5b9190612cc5565b5080546000825560020290600052602060002090810190611d5b9190612cf6565b5b80821115612cf25780546001600160a01b03191681556000600182018190556002820155600301612cc6565b5090565b5b80821115612cf25780546001600160a01b031916815560006001820155600201612cf7565b600060208284031215612d2e57600080fd5b81356001600160e01b031981168114612b1257600080fd5b6001600160a01b0381168114611d5b57600080fd5b634e487b7160e01b600052604160045260246000fd5b6040805190810167ffffffffffffffff81118282101715612d9457612d94612d5b565b60405290565b6040516080810167ffffffffffffffff81118282101715612d9457612d94612d5b565b6040516060810167ffffffffffffffff81118282101715612d9457612d94612d5b565b604051601f8201601f1916810167ffffffffffffffff81118282101715612e0957612e09612d5b565b604052919050565b600082601f830112612e2257600080fd5b813567ffffffffffffffff811115612e3c57612e3c612d5b565b612e4f601f8201601f1916602001612de0565b818152846020838601011115612e6457600080fd5b816020850160208301376000918101602001919091529392505050565b60008060008060808587031215612e9757600080fd5b8435612ea281612d46565b93506020850135612eb281612d46565b925060408501359150606085013567ffffffffffffffff811115612ed557600080fd5b612ee187828801612e11565b91505092959194509250565b600060208284031215612eff57600080fd5b8135612b1281612d46565b60008060408385031215612f1d57600080fd5b50508035926020909101359150565b600081518084526020808501945080840160005b83811015612f655781516001600160a01b031687529582019590820190600101612f40565b509495945050505050565b600081518084526020808501945080840160005b83811015612f6557815187529582019590820190600101612f84565b60018060a01b038816815286602082015260e060408201526000612fc760e0830188612f2c565b8281036060840152612fd98188612f70565b90508281036080840152612fed8187612f2c565b905082810360a08401526130018186612f70565b905082810360c08401526130158185612f70565b9a9950505050505050505050565b60006020828403121561303557600080fd5b5035919050565b600067ffffffffffffffff82111561305657613056612d5b565b5060051b60200190565b600082601f83011261307157600080fd5b813560206130866130818361303c565b612de0565b82815260069290921b840181019181810190868411156130a557600080fd5b8286015b848110156130ed57604081890312156130c25760008081fd5b6130ca612d71565b81356130d581612d46565b815281850135858201528352918301916040016130a9565b509695505050505050565b60006080828403121561310a57600080fd5b613112612d9a565b9050813561311f81612d46565b81526020828101358183015260408084013567ffffffffffffffff8082111561314757600080fd5b818601915086601f83011261315b57600080fd5b81356131696130818261303c565b8181526060918202840186019186820191908a84111561318857600080fd5b948701945b838610156131d95780868c0312156131a55760008081fd5b6131ad612dbd565b86356131b881612d46565b8152868901358982015287870135888201528352948501949187019161318d565b81878a0152808a01359750848811156131f157600080fd5b6131fd8b898c01613060565b818a0152505050505050505092915050565b6000806040838503121561322257600080fd5b82359150602083013567ffffffffffffffff81111561324057600080fd5b61324c858286016130f8565b9150509250929050565b6000806040838503121561326957600080fd5b823561327481612d46565b9150602083013567ffffffffffffffff81111561324057600080fd5b600082601f8301126132a157600080fd5b813560206132b16130818361303c565b82815260059290921b840181019181810190868411156132d057600080fd5b8286015b848110156130ed57803583529183019183016132d4565b600080600080600060a0868803121561330357600080fd5b853561330e81612d46565b9450602086013561331e81612d46565b9350604086013567ffffffffffffffff8082111561333b57600080fd5b61334789838a01613290565b9450606088013591508082111561335d57600080fd5b61336989838a01613290565b9350608088013591508082111561337f57600080fd5b5061338c88828901612e11565b9150509295509295909350565b600080600080600060a086880312156133b157600080fd5b85356133bc81612d46565b945060208601356133cc81612d46565b93506040860135925060608601359150608086013567ffffffffffffffff8111156133f657600080fd5b61338c88828901612e11565b6020808252601f908201527f5265656e7472616e637947756172643a207265656e7472616e742063616c6c00604082015260600190565b6020808252818101527f4f776e61626c653a2063616c6c6572206973206e6f7420746865206f776e6572604082015260600190565b634e487b7160e01b600052601160045260246000fd5b6000828210156134965761349661346e565b500390565b634e487b7160e01b600052603260045260246000fd5b60006000198214156134c5576134c561346e565b5060010190565b60208082526010908201526f14185d5cd8589b194e881c185d5cd95960821b604082015260600190565b60208082526031908201527f54726164657363726f773a205377617020636c6f7365642e204f6e6c79207573604082015270195c8818d85b98d95b08195b98589b1959607a1b606082015260800190565b60208082526050908201527f54726164657363726f773a2053656e7420616d6f756e74206e6565647320746f60408201527f2062652067726561746572207468616e206f7220657175616c20746f2074686560608201526f206170706c69636174696f6e2066656560801b608082015260a00190565b600082198211156135d0576135d061346e565b500190565b6001600160a01b0394851681529290931660208301526040820152606081019190915260a06080820181905260009082015260c00190565b60006020828403121561361f57600080fd5b5051919050565b60006020828403121561363857600080fd5b81518015158114612b1257600080fd5b60005b8381101561366357818101518382015260200161364b565b838111156121345750506000910152565b60008251613686818460208701613648565b9190910192915050565b60208152600082518060208401526136af816040850160208701613648565b601f01601f1916919091016040019291505056fea264697066735822122072251122d1b55ed40fe8f46ed69df5eb8e14999be3800bbbdb8ffe2a8c24fccf64736f6c63430008090033",
  "linkReferences": {},
  "deployedLinkReferences": {}
}