{
  "_format": "hh-sol-artifact-1",
  "contractName": "Tradescrow",
  "sourceName": "contracts/Tradescrow.sol",
  "abi": [
    {
      "inputs": [
        {
          "internalType": "uint256",
          "name": "initialAppFee",
          "type": "uint256"
        },
        {
          "internalType": "address payable",
          "name": "contractOwnerAddress",
          "type": "address"
        }
      ],
      "stateMutability": "nonpayable",
      "type": "constructor"
    },
    {
      "anonymous": false,
      "inputs": [
        {
          "indexed": false,
          "internalType": "uint256",
          "name": "fee",
          "type": "uint256"
        }
      ],
      "name": "AppFeeChanged",
      "type": "event"
    },
    {
      "anonymous": false,
      "inputs": [
        {
          "indexed": true,
          "internalType": "address",
          "name": "previousOwner",
          "type": "address"
        },
        {
          "indexed": true,
          "internalType": "address",
          "name": "newOwner",
          "type": "address"
        }
      ],
      "name": "OwnershipTransferred",
      "type": "event"
    },
    {
      "anonymous": false,
      "inputs": [
        {
          "indexed": false,
          "internalType": "address",
          "name": "account",
          "type": "address"
        }
      ],
      "name": "Paused",
      "type": "event"
    },
    {
      "anonymous": false,
      "inputs": [
        {
          "indexed": true,
          "internalType": "address",
          "name": "cancelledBy",
          "type": "address"
        },
        {
          "indexed": true,
          "internalType": "uint256",
          "name": "swapId",
          "type": "uint256"
        }
      ],
      "name": "SwapCancelled",
      "type": "event"
    },
    {
      "anonymous": false,
      "inputs": [
        {
          "indexed": true,
          "internalType": "uint256",
          "name": "swapId",
          "type": "uint256"
        }
      ],
      "name": "SwapClosed",
      "type": "event"
    },
    {
      "anonymous": false,
      "inputs": [
        {
          "indexed": true,
          "internalType": "address",
          "name": "from",
          "type": "address"
        },
        {
          "indexed": true,
          "internalType": "address",
          "name": "to",
          "type": "address"
        },
        {
          "indexed": true,
          "internalType": "uint256",
          "name": "swapId",
          "type": "uint256"
        }
      ],
      "name": "SwapExecuted",
      "type": "event"
    },
    {
      "anonymous": false,
      "inputs": [
        {
          "indexed": true,
          "internalType": "address",
          "name": "from",
          "type": "address"
        },
        {
          "indexed": true,
          "internalType": "address",
          "name": "to",
          "type": "address"
        },
        {
          "indexed": true,
          "internalType": "uint256",
          "name": "swapId",
          "type": "uint256"
        },
        {
          "components": [
            {
              "internalType": "address payable",
              "name": "addr",
              "type": "address"
            },
            {
              "internalType": "uint256",
              "name": "native",
              "type": "uint256"
            },
            {
              "components": [
                {
                  "internalType": "address",
                  "name": "addr",
                  "type": "address"
                },
                {
                  "internalType": "uint256",
                  "name": "amount",
                  "type": "uint256"
                },
                {
                  "internalType": "uint256",
                  "name": "id",
                  "type": "uint256"
                }
              ],
              "internalType": "struct Tradescrow.Nft[]",
              "name": "nfts",
              "type": "tuple[]"
            },
            {
              "components": [
                {
                  "internalType": "address",
                  "name": "addr",
                  "type": "address"
                },
                {
                  "internalType": "uint256",
                  "name": "amount",
                  "type": "uint256"
                }
              ],
              "internalType": "struct Tradescrow.Coin[]",
              "name": "coins",
              "type": "tuple[]"
            }
          ],
          "indexed": false,
          "internalType": "struct Tradescrow.Offer",
          "name": "",
          "type": "tuple"
        }
      ],
      "name": "SwapInitiated",
      "type": "event"
    },
    {
      "anonymous": false,
      "inputs": [
        {
          "indexed": true,
          "internalType": "address",
          "name": "from",
          "type": "address"
        },
        {
          "indexed": true,
          "internalType": "address",
          "name": "to",
          "type": "address"
        },
        {
          "indexed": true,
          "internalType": "uint256",
          "name": "swapId",
          "type": "uint256"
        },
        {
          "components": [
            {
              "internalType": "address payable",
              "name": "addr",
              "type": "address"
            },
            {
              "internalType": "uint256",
              "name": "native",
              "type": "uint256"
            },
            {
              "components": [
                {
                  "internalType": "address",
                  "name": "addr",
                  "type": "address"
                },
                {
                  "internalType": "uint256",
                  "name": "amount",
                  "type": "uint256"
                },
                {
                  "internalType": "uint256",
                  "name": "id",
                  "type": "uint256"
                }
              ],
              "internalType": "struct Tradescrow.Nft[]",
              "name": "nfts",
              "type": "tuple[]"
            },
            {
              "components": [
                {
                  "internalType": "address",
                  "name": "addr",
                  "type": "address"
                },
                {
                  "internalType": "uint256",
                  "name": "amount",
                  "type": "uint256"
                }
              ],
              "internalType": "struct Tradescrow.Coin[]",
              "name": "coins",
              "type": "tuple[]"
            }
          ],
          "indexed": false,
          "internalType": "struct Tradescrow.Offer",
          "name": "",
          "type": "tuple"
        }
      ],
      "name": "SwapProposed",
      "type": "event"
    },
    {
      "anonymous": false,
      "inputs": [
        {
          "indexed": false,
          "internalType": "address",
          "name": "account",
          "type": "address"
        }
      ],
      "name": "Unpaused",
      "type": "event"
    },
    {
      "inputs": [],
      "name": "Pause",
      "outputs": [],
      "stateMutability": "nonpayable",
      "type": "function"
    },
    {
      "inputs": [],
      "name": "Unpause",
      "outputs": [],
      "stateMutability": "nonpayable",
      "type": "function"
    },
    {
      "inputs": [
        {
          "internalType": "uint256",
          "name": "swapId",
          "type": "uint256"
        }
      ],
      "name": "acceptSwap",
      "outputs": [],
      "stateMutability": "nonpayable",
      "type": "function"
    },
    {
      "inputs": [
        {
          "internalType": "uint256",
          "name": "swapId",
          "type": "uint256"
        }
      ],
      "name": "cancelSwap",
      "outputs": [],
      "stateMutability": "nonpayable",
      "type": "function"
    },
    {
      "inputs": [],
      "name": "fee",
      "outputs": [
        {
          "internalType": "uint256",
          "name": "",
          "type": "uint256"
        }
      ],
      "stateMutability": "view",
      "type": "function"
    },
    {
      "inputs": [
        {
          "internalType": "uint256",
          "name": "swapId",
          "type": "uint256"
        },
        {
          "components": [
            {
              "internalType": "address payable",
              "name": "addr",
              "type": "address"
            },
            {
              "internalType": "uint256",
              "name": "native",
              "type": "uint256"
            },
            {
              "components": [
                {
                  "internalType": "address",
                  "name": "addr",
                  "type": "address"
                },
                {
                  "internalType": "uint256",
                  "name": "amount",
                  "type": "uint256"
                },
                {
                  "internalType": "uint256",
                  "name": "id",
                  "type": "uint256"
                }
              ],
              "internalType": "struct Tradescrow.Nft[]",
              "name": "nfts",
              "type": "tuple[]"
            },
            {
              "components": [
                {
                  "internalType": "address",
                  "name": "addr",
                  "type": "address"
                },
                {
                  "internalType": "uint256",
                  "name": "amount",
                  "type": "uint256"
                }
              ],
              "internalType": "struct Tradescrow.Coin[]",
              "name": "coins",
              "type": "tuple[]"
            }
          ],
          "internalType": "struct Tradescrow.Offer",
          "name": "offer",
          "type": "tuple"
        }
      ],
      "name": "initiateSwap",
      "outputs": [],
      "stateMutability": "payable",
      "type": "function"
    },
    {
      "inputs": [
        {
          "internalType": "address",
          "name": "",
          "type": "address"
        },
        {
          "internalType": "address",
          "name": "",
          "type": "address"
        },
        {
          "internalType": "uint256[]",
          "name": "",
          "type": "uint256[]"
        },
        {
          "internalType": "uint256[]",
          "name": "",
          "type": "uint256[]"
        },
        {
          "internalType": "bytes",
          "name": "",
          "type": "bytes"
        }
      ],
      "name": "onERC1155BatchReceived",
      "outputs": [
        {
          "internalType": "bytes4",
          "name": "",
          "type": "bytes4"
        }
      ],
      "stateMutability": "nonpayable",
      "type": "function"
    },
    {
      "inputs": [
        {
          "internalType": "address",
          "name": "",
          "type": "address"
        },
        {
          "internalType": "address",
          "name": "",
          "type": "address"
        },
        {
          "internalType": "uint256",
          "name": "",
          "type": "uint256"
        },
        {
          "internalType": "uint256",
          "name": "",
          "type": "uint256"
        },
        {
          "internalType": "bytes",
          "name": "",
          "type": "bytes"
        }
      ],
      "name": "onERC1155Received",
      "outputs": [
        {
          "internalType": "bytes4",
          "name": "",
          "type": "bytes4"
        }
      ],
      "stateMutability": "nonpayable",
      "type": "function"
    },
    {
      "inputs": [
        {
          "internalType": "address",
          "name": "",
          "type": "address"
        },
        {
          "internalType": "address",
          "name": "",
          "type": "address"
        },
        {
          "internalType": "uint256",
          "name": "",
          "type": "uint256"
        },
        {
          "internalType": "bytes",
          "name": "",
          "type": "bytes"
        }
      ],
      "name": "onERC721Received",
      "outputs": [
        {
          "internalType": "bytes4",
          "name": "",
          "type": "bytes4"
        }
      ],
      "stateMutability": "nonpayable",
      "type": "function"
    },
    {
      "inputs": [],
      "name": "owner",
      "outputs": [
        {
          "internalType": "address",
          "name": "",
          "type": "address"
        }
      ],
      "stateMutability": "view",
      "type": "function"
    },
    {
      "inputs": [],
      "name": "paused",
      "outputs": [
        {
          "internalType": "bool",
          "name": "",
          "type": "bool"
        }
      ],
      "stateMutability": "view",
      "type": "function"
    },
    {
      "inputs": [
        {
          "internalType": "address payable",
          "name": "target",
          "type": "address"
        },
        {
          "components": [
            {
              "internalType": "address payable",
              "name": "addr",
              "type": "address"
            },
            {
              "internalType": "uint256",
              "name": "native",
              "type": "uint256"
            },
            {
              "components": [
                {
                  "internalType": "address",
                  "name": "addr",
                  "type": "address"
                },
                {
                  "internalType": "uint256",
                  "name": "amount",
                  "type": "uint256"
                },
                {
                  "internalType": "uint256",
                  "name": "id",
                  "type": "uint256"
                }
              ],
              "internalType": "struct Tradescrow.Nft[]",
              "name": "nfts",
              "type": "tuple[]"
            },
            {
              "components": [
                {
                  "internalType": "address",
                  "name": "addr",
                  "type": "address"
                },
                {
                  "internalType": "uint256",
                  "name": "amount",
                  "type": "uint256"
                }
              ],
              "internalType": "struct Tradescrow.Coin[]",
              "name": "coins",
              "type": "tuple[]"
            }
          ],
          "internalType": "struct Tradescrow.Offer",
          "name": "offer",
          "type": "tuple"
        }
      ],
      "name": "proposeSwap",
      "outputs": [
        {
          "internalType": "uint256",
          "name": "",
          "type": "uint256"
        }
      ],
      "stateMutability": "payable",
      "type": "function"
    },
    {
      "inputs": [],
      "name": "renounceOwnership",
      "outputs": [],
      "stateMutability": "nonpayable",
      "type": "function"
    },
    {
      "inputs": [
        {
          "internalType": "bytes4",
          "name": "interfaceId",
          "type": "bytes4"
        }
      ],
      "name": "supportsInterface",
      "outputs": [
        {
          "internalType": "bool",
          "name": "",
          "type": "bool"
        }
      ],
      "stateMutability": "view",
      "type": "function"
    },
    {
      "inputs": [
        {
          "internalType": "address",
          "name": "newOwner",
          "type": "address"
        }
      ],
      "name": "transferOwnership",
      "outputs": [],
      "stateMutability": "nonpayable",
      "type": "function"
    },
    {
      "inputs": [
        {
          "internalType": "uint256",
          "name": "newFee",
          "type": "uint256"
        }
      ],
      "name": "updateAppFee",
      "outputs": [],
      "stateMutability": "nonpayable",
      "type": "function"
    },
    {
      "inputs": [
        {
          "internalType": "address payable",
          "name": "recipient",
          "type": "address"
        }
      ],
      "name": "withdrawFees",
      "outputs": [],
      "stateMutability": "nonpayable",
      "type": "function"
    }
  ],
  "bytecode": "0x60806040523480156200001157600080fd5b5060405162002dda38038062002dda833981016040819052620000349162000196565b6200003f3362000071565b600180556002805460ff1916905560058290556200006981620000c1602090811b620017ad17901c565b5050620001d5565b600080546001600160a01b038381166001600160a01b0319831681178455604051919092169283917f8be0079c531659141344cd1fd0a4f28419497f9722a3daafe3b4186f6b6457e09190a35050565b6000546001600160a01b03163314620001215760405162461bcd60e51b815260206004820181905260248201527f4f776e61626c653a2063616c6c6572206973206e6f7420746865206f776e657260448201526064015b60405180910390fd5b6001600160a01b038116620001885760405162461bcd60e51b815260206004820152602660248201527f4f776e61626c653a206e6577206f776e657220697320746865207a65726f206160448201526564647265737360d01b606482015260840162000118565b620001938162000071565b50565b60008060408385031215620001aa57600080fd5b825160208401519092506001600160a01b0381168114620001ca57600080fd5b809150509250929050565b612bf580620001e56000396000f3fe6080604052600436106100fe5760003560e01c8063715018a611610095578063b5cbcb8811610064578063b5cbcb8814610290578063bc197c81146102b1578063ddca3f43146102dd578063f23a6e61146102f3578063f2fde38b1461031f57600080fd5b8063715018a61461022b5780637805862f146102405780637cb1774d146102555780638da5cb5b1461026857600080fd5b806352492815116100d157806352492815146101be57806354d6a2b7146101de5780635c975abb146101fe5780636985a0221461021657600080fd5b806301ffc9a714610103578063150b7a0214610138578063164e68de1461017c5780631bf330041461019e575b600080fd5b34801561010f57600080fd5b5061012361011e36600461228c565b61033f565b60405190151581526020015b60405180910390f35b34801561014457600080fd5b506101636101533660046123f1565b630a85bd0160e11b949350505050565b6040516001600160e01b0319909116815260200161012f565b34801561018857600080fd5b5061019c61019736600461245d565b610376565b005b3480156101aa57600080fd5b5061019c6101b936600461247a565b610507565b3480156101ca57600080fd5b5061019c6101d936600461247a565b610a63565b3480156101ea57600080fd5b5061019c6101f936600461247a565b610af4565b34801561020a57600080fd5b5060025460ff16610123565b34801561022257600080fd5b5061019c61107d565b34801561023757600080fd5b5061019c6110dd565b34801561024c57600080fd5b5061019c611113565b61019c610263366004612666565b61116d565b34801561027457600080fd5b506000546040516001600160a01b03909116815260200161012f565b6102a361029e3660046126ad565b611511565b60405190815260200161012f565b3480156102bd57600080fd5b506101636102cc366004612742565b63bc197c8160e01b95945050505050565b3480156102e957600080fd5b506102a360055481565b3480156102ff57600080fd5b5061016361030e3660046127f0565b63f23a6e6160e01b95945050505050565b34801561032b57600080fd5b5061019c61033a36600461245d565b6117ad565b60006001600160e01b03198216630271189760e51b148061037057506301ffc9a760e01b6001600160e01b03198316145b92915050565b600260015414156103a25760405162461bcd60e51b815260040161039990612859565b60405180910390fd5b60026001556000546001600160a01b031633146103d15760405162461bcd60e51b815260040161039990612890565b6001600160a01b0381166104385760405162461bcd60e51b815260206004820152602860248201527f54726164657363726f773a207472616e7366657220746f20746865207a65726f604482015267206164647265737360c01b6064820152608401610399565b6000670de0b6b3a76400006004544761045191906128db565b61045b91906128db565b10156104a95760405162461bcd60e51b815260206004820152601d60248201527f54726164657363726f773a204e6f20617661696c61626c6520666565730000006044820152606401610399565b806001600160a01b03166108fc670de0b6b3a7640000600454476104cd91906128db565b6104d791906128db565b6040518115909202916000818181858888f193505050501580156104ff573d6000803e3d6000fd5b505060018055565b6002600154141561052a5760405162461bcd60e51b815260040161039990612859565b600260015561053b60025460ff1690565b156105585760405162461bcd60e51b8152600401610399906128f2565b61056181611848565b6000818152600660205260409020600801546001146105925760405162461bcd60e51b81526004016103999061291c565b6000818152600660209081526040808320815160808101835281546001600160a01b0316815260018201548185015260028201805484518187028101870186528181526106bd979396949587019490939084015b8282101561063b576000848152602090819020604080516060810182526003860290920180546001600160a01b03168352600180820154848601526002909101549183019190915290835290920191016105e6565b50505050815260200160038201805480602002602001604051908101604052809291908181526020016000905b828210156106b0576000848152602090819020604080518082019091526002850290910180546001600160a01b03168252600190810154828401529083529092019101610668565b50505050815250506118bf565b600081815260066020818152604080842081516080810183526004820180546001600160a01b031682526005830154828601529190940180548351818602810186018552818152610766979395948701949093908401821561063b576000848152602090819020604080516060810182526003860290920180546001600160a01b03168352600180820154848601526002909101549183019190915290835290920191016105e6565b6000818152600660208181526040808420805482516080810184526004830180546001600160a01b039081168352600585015483880152939096018054855181880281018801875281815261089d99309996909516979396870194909384015b8282101561081b576000848152602090819020604080516060810182526003860290920180546001600160a01b03168352600180820154848601526002909101549183019190915290835290920191016107c6565b50505050815260200160038201805480602002602001604051908101604052809291908181526020016000905b82821015610890576000848152602090819020604080518082019091526002850290910180546001600160a01b03168252600190810154828401529083529092019101610848565b505050508152505061193d565b60008181526006602090815260408083206004810154825160808101845282546001600160a01b039081168252600184015482870152600284018054865181890281018901885281815261095099309994909616979496959487019490938401821561081b576000848152602090819020604080516060810182526003860290920180546001600160a01b03168352600180820154848601526002909101549183019190915290835290920191016107c6565b600081815260066020526040902061096b9060048101611c4f565b6000818152600660205260409020610987906004810190611c4f565b60008181526006602052604080822060048101549054915184936001600160a01b0392831693909216917fbad29f2bbbf6bb1e15563203bcdb0dd660c54eab078763eb66f797efa8f5e8c191a4600081815260066020526040812080546001600160a01b031916815560018101829055908181610a0760028301826121f3565b610a15600383016000612214565b50506004820180546001600160a01b0319168155600060058401819055610a3f60068501826121f3565b610a4d600383016000612214565b5050600882016000905550506001808190555050565b60026001541415610a865760405162461bcd60e51b815260040161039990612859565b60026001556000546001600160a01b03163314610ab55760405162461bcd60e51b815260040161039990612890565b60058190556040518181527fe854185167cff7d85f6ce2ae7d2940249c4a78ae54e270a5f7dddf8e5d7cc4589060200160405180910390a15060018055565b60026001541415610b175760405162461bcd60e51b815260040161039990612859565b6002600155610b2860025460ff1690565b15610b455760405162461bcd60e51b8152600401610399906128f2565b6000818152600660205260409020546001600160a01b0316331480610b8357506000818152600660205260409020600401546001600160a01b031633145b610bf55760405162461bcd60e51b815260206004820152603760248201527f54726164657363726f773a2043616e27742063616e63656c20737761702c206d60448201527f7573742062652073776170207061727469636970616e740000000000000000006064820152608401610399565b600081815260066020526040902060026008820155546001600160a01b0316331415610cfc576000818152600660209081526040808320805482516080810184526001600160a01b039091168082526001830154828601526002830180548551818802810188018752818152610cc89830989497959695870194919392918401821561081b576000848152602090819020604080516060810182526003860290920180546001600160a01b03168352600180820154848601526002909101549183019190915290835290920191016107c6565b6000818152600660205260409020610ce09080611c4f565b6000818152600660205260409020610cf790611cbe565b610e06565b6000818152600660205260409020600401546001600160a01b0316331415610e0657600081815260066020818152604080842060048101805483516080810185526001600160a01b039091168082526005840154828701529290950180548451818702810187018652818152610dd198309895979596949594870194919392918401821561081b576000848152602090819020604080516060810182526003860290920180546001600160a01b03168352600180820154848601526002909101549183019190915290835290920191016107c6565b6000818152600660205260409020610dec9060040180611c4f565b6000818152600660205260409020610e0690600401611cbe565b604051819033907f85562d2d9b6fe46899f9b6ed410d0330551d861f63395b58c411a9d8159ce08790600090a36000818152600660209081526040808320815160808101835281546001600160a01b031681526001828101548286015260028301805485518188028101880187528181529297610f5c97949687019484015b82821015610eda576000848152602090819020604080516060810182526003860290920180546001600160a01b0316835260018082015484860152600290910154918301919091529083529092019101610e85565b50505050815260200160038201805480602002602001604051908101604052809291908181526020016000905b82821015610f4f576000848152602090819020604080518082019091526002850290910180546001600160a01b03168252600190810154828401529083529092019101610f07565b5050505081525050611ce4565b1480156110135750600081815260066020818152604080842081516080810183526004820180546001600160a01b031682526005830154828601529190940180548351818602810186018552818152600197611011979694958701949193929184018215610eda576000848152602090819020604080516060810182526003860290920180546001600160a01b0316835260018082015484860152600290910154918301919091529083529092019101610e85565b145b156110765760405181907fd00350bcac47bd6aa8c7905e0b67f2de5cd9766526dc50203bbfb229bf6d17a790600090a2600081815260066020526040812080546001600160a01b031916815560018101829055908181610a0760028301826121f3565b5060018055565b600260015414156110a05760405162461bcd60e51b815260040161039990612859565b60026001556000546001600160a01b031633146110cf5760405162461bcd60e51b815260040161039990612890565b6110d7611d1c565b60018055565b6000546001600160a01b031633146111075760405162461bcd60e51b815260040161039990612890565b6111116000611d91565b565b600260015414156111365760405162461bcd60e51b815260040161039990612859565b60026001556000546001600160a01b031633146111655760405162461bcd60e51b815260040161039990612890565b6110d7611de1565b600260015414156111905760405162461bcd60e51b815260040161039990612859565b60026001556005543410156111b75760405162461bcd60e51b81526004016103999061296d565b60025460ff16156111da5760405162461bcd60e51b8152600401610399906128f2565b6111e382611e5b565b600082815260066020818152604080842081516080810183526004820180546001600160a01b031682526005830154828601529190940180548351818602810186018552818152600197611290979694958701949193929184018215610eda576000848152602090819020604080516060810182526003860290920180546001600160a01b0316835260018082015484860152600290910154918301919091529083529092019101610e85565b146112e85760405162461bcd60e51b815260206004820152602260248201527f54726164657363726f773a207377617020616c726561647920696e6974696174604482015261195960f21b6064820152608401610399565b6000828152600660205260409020600801546001146113195760405162461bcd60e51b81526004016103999061291c565b611322816118bf565b61132d33308361193d565b60005b8160400151518110156113d857600660008481526020019081526020016000206004016002018260400151828151811061136c5761136c6129e3565b602090810291909101810151825460018082018555600094855293839020825160039092020180546001600160a01b0319166001600160a01b039092169190911781559181015192820192909255604090910151600290910155806113d0816129f9565b915050611330565b5060005b81606001515181101561146f5760008381526006602052604090206060830151805160079092019183908110611414576114146129e3565b602090810291909101810151825460018082018555600094855293839020825160029092020180546001600160a01b0319166001600160a01b0390921691909117815591015191015580611467816129f9565b9150506113dc565b506005543411156114b35760055461148790346128db565b6000838152600660205260408120600501829055600480549091906114ad908490612a14565b90915550505b6000828152600660205260409081902054905183916001600160a01b03169033907f9290cd7656e70519b1c9efcc328a9e9e7c9122292708c3c57e1f1491e99f251190611501908690612a7b565b60405180910390a4505060018055565b6000600260015414156115365760405162461bcd60e51b815260040161039990612859565b600260015560055434101561155d5760405162461bcd60e51b81526004016103999061296d565b60025460ff16156115805760405162461bcd60e51b8152600401610399906128f2565b611589826118bf565b611597600380546001019055565b6115a233308461193d565b6000600660006115b160035490565b8152602081019190915260400160009081206001600882015580546001600160a01b0319163317815591505b836040015151811015611673578160000160020184604001518281518110611607576116076129e3565b602090810291909101810151825460018082018555600094855293839020825160039092020180546001600160a01b0319166001600160a01b0390921691909117815591810151928201929092556040909101516002909101558061166b816129f9565b9150506115dd565b5060005b8360600151518110156116fc5781600001600301846060015182815181106116a1576116a16129e3565b602090810291909101810151825460018082018555600094855293839020825160029092020180546001600160a01b0319166001600160a01b03909216919091178155910151910155806116f4816129f9565b915050611677565b506005543411156117335760055461171490346128db565b600182018190556004805460009061172d908490612a14565b90915550505b6004810180546001600160a01b0319166001600160a01b038616179055600354846001600160a01b0316336001600160a01b03167fe81763bf4aba65d65f664f69edeb190a5d5bb77d7c98e2e1a0e39a1b04c5db37866040516117969190612a7b565b60405180910390a460035460018055949350505050565b6000546001600160a01b031633146117d75760405162461bcd60e51b815260040161039990612890565b6001600160a01b03811661183c5760405162461bcd60e51b815260206004820152602660248201527f4f776e61626c653a206e6577206f776e657220697320746865207a65726f206160448201526564647265737360d01b6064820152608401610399565b61184581611d91565b50565b6000818152600660205260409020546001600160a01b031633146118455760405162461bcd60e51b815260206004820152602860248201527f54726164657363726f773a2063616c6c6572206973206e6f74207377617020696044820152673734ba34b0ba37b960c11b6064820152608401610399565b6118c881611ed2565b6001146118455760405162461bcd60e51b815260206004820152603d60248201527f54726164657363726f773a2043616e277420616363657074206f666665722c2060448201527f7061727469636970616e74206469646e277420616464206173736574730000006064820152608401610399565b60005b816040015151811015611b4e5781604001518181518110611963576119636129e3565b60200260200101516020015160001415611a49578160400151818151811061198d5761198d6129e3565b6020026020010151600001516001600160a01b031663b88d4fde8585856040015185815181106119bf576119bf6129e3565b602090810291909101015160409081015190516001600160e01b031960e086901b1681526001600160a01b0393841660048201529290911660248301526044820152608060648201526000608482015260a401600060405180830381600087803b158015611a2c57600080fd5b505af1158015611a40573d6000803e3d6000fd5b50505050611b3c565b81604001518181518110611a5f57611a5f6129e3565b6020026020010151600001516001600160a01b031663f242432a858585604001518581518110611a9157611a916129e3565b60200260200101516040015186604001518681518110611ab357611ab36129e3565b60209081029190910181015101516040516001600160e01b031960e087901b1681526001600160a01b0394851660048201529390921660248401526044830152606482015260a06084820152600060a482015260c401600060405180830381600087803b158015611b2357600080fd5b505af1158015611b37573d6000803e3d6000fd5b505050505b80611b46816129f9565b915050611940565b5060005b816060015151811015611c49576001600160a01b038416301415611bd557611bd08383606001518381518110611b8a57611b8a6129e3565b60200260200101516020015184606001518481518110611bac57611bac6129e3565b6020026020010151600001516001600160a01b0316611efe9092919063ffffffff16565b611c37565b611c37848484606001518481518110611bf057611bf06129e3565b60200260200101516020015185606001518581518110611c1257611c126129e3565b6020026020010151600001516001600160a01b0316611f66909392919063ffffffff16565b80611c41816129f9565b915050611b52565b50505050565b600182015415611cba57816001015460046000828254611c6f91906128db565b9091555050600182018054600091829055825460405191926001600160a01b039091169183156108fc0291849190818181858888f19350505050158015611c49573d6000803e3d6000fd5b5050565b611ccc600382016000612214565b611cda6002820160006121f3565b6000600190910155565b604081015151600090600290158015611d005750606083015151155b8015611d0e57506020830151155b156103705750600192915050565b60025460ff1615611d3f5760405162461bcd60e51b8152600401610399906128f2565b6002805460ff191660011790557f62e78cea01bee320cd4e420270b5ea74000d11b0c9f74754ebdbfc544b05a258611d743390565b6040516001600160a01b03909116815260200160405180910390a1565b600080546001600160a01b038381166001600160a01b0319831681178455604051919092169283917f8be0079c531659141344cd1fd0a4f28419497f9722a3daafe3b4186f6b6457e09190a35050565b60025460ff16611e2a5760405162461bcd60e51b815260206004820152601460248201527314185d5cd8589b194e881b9bdd081c185d5cd95960621b6044820152606401610399565b6002805460ff191690557f5db9ee0a495bf2e6ff9c91a7834c1ba4fdd244a5e8aa4e537bd38aeae4b073aa33611d74565b6000818152600660205260409020600401546001600160a01b031633146118455760405162461bcd60e51b815260206004820152602560248201527f54726164657363726f773a2063616c6c6572206973206e6f7420737761702074604482015264185c99d95d60da1b6064820152608401610399565b604081015151600090600290151580611eef575060608301515115155b80611d0e575050600192915050565b6040516001600160a01b038316602482015260448101829052611f6190849063a9059cbb60e01b906064015b60408051601f198184030181529190526020810180516001600160e01b03166001600160e01b031990931692909217909152611f9e565b505050565b6040516001600160a01b0380851660248301528316604482015260648101829052611c499085906323b872dd60e01b90608401611f2a565b6000611ff3826040518060400160405280602081526020017f5361666545524332303a206c6f772d6c6576656c2063616c6c206661696c6564815250856001600160a01b03166120709092919063ffffffff16565b805190915015611f6157808060200190518101906120119190612b22565b611f615760405162461bcd60e51b815260206004820152602a60248201527f5361666545524332303a204552433230206f7065726174696f6e20646964206e6044820152691bdd081cdd58d8d9595960b21b6064820152608401610399565b606061207f8484600085612089565b90505b9392505050565b6060824710156120ea5760405162461bcd60e51b815260206004820152602660248201527f416464726573733a20696e73756666696369656e742062616c616e636520666f6044820152651c8818d85b1b60d21b6064820152608401610399565b6001600160a01b0385163b6121415760405162461bcd60e51b815260206004820152601d60248201527f416464726573733a2063616c6c20746f206e6f6e2d636f6e74726163740000006044820152606401610399565b600080866001600160a01b0316858760405161215d9190612b70565b60006040518083038185875af1925050503d806000811461219a576040519150601f19603f3d011682016040523d82523d6000602084013e61219f565b606091505b50915091506121af8282866121ba565b979650505050505050565b606083156121c9575081612082565b8251156121d95782518084602001fd5b8160405162461bcd60e51b81526004016103999190612b8c565b50805460008255600302906000526020600020908101906118459190612235565b50805460008255600202906000526020600020908101906118459190612266565b5b808211156122625780546001600160a01b03191681556000600182018190556002820155600301612236565b5090565b5b808211156122625780546001600160a01b031916815560006001820155600201612267565b60006020828403121561229e57600080fd5b81356001600160e01b03198116811461208257600080fd5b6001600160a01b038116811461184557600080fd5b634e487b7160e01b600052604160045260246000fd5b6040805190810167ffffffffffffffff81118282101715612304576123046122cb565b60405290565b6040516080810167ffffffffffffffff81118282101715612304576123046122cb565b6040516060810167ffffffffffffffff81118282101715612304576123046122cb565b604051601f8201601f1916810167ffffffffffffffff81118282101715612379576123796122cb565b604052919050565b600082601f83011261239257600080fd5b813567ffffffffffffffff8111156123ac576123ac6122cb565b6123bf601f8201601f1916602001612350565b8181528460208386010111156123d457600080fd5b816020850160208301376000918101602001919091529392505050565b6000806000806080858703121561240757600080fd5b8435612412816122b6565b93506020850135612422816122b6565b925060408501359150606085013567ffffffffffffffff81111561244557600080fd5b61245187828801612381565b91505092959194509250565b60006020828403121561246f57600080fd5b8135612082816122b6565b60006020828403121561248c57600080fd5b5035919050565b600067ffffffffffffffff8211156124ad576124ad6122cb565b5060051b60200190565b600082601f8301126124c857600080fd5b813560206124dd6124d883612493565b612350565b82815260069290921b840181019181810190868411156124fc57600080fd5b8286015b8481101561254457604081890312156125195760008081fd5b6125216122e1565b813561252c816122b6565b81528185013585820152835291830191604001612500565b509695505050505050565b60006080828403121561256157600080fd5b61256961230a565b90508135612576816122b6565b81526020828101358183015260408084013567ffffffffffffffff8082111561259e57600080fd5b818601915086601f8301126125b257600080fd5b81356125c06124d882612493565b8181526060918202840186019186820191908a8411156125df57600080fd5b948701945b838610156126305780868c0312156125fc5760008081fd5b61260461232d565b863561260f816122b6565b815286890135898201528787013588820152835294850194918701916125e4565b81878a0152808a013597508488111561264857600080fd5b6126548b898c016124b7565b818a0152505050505050505092915050565b6000806040838503121561267957600080fd5b82359150602083013567ffffffffffffffff81111561269757600080fd5b6126a38582860161254f565b9150509250929050565b600080604083850312156126c057600080fd5b82356126cb816122b6565b9150602083013567ffffffffffffffff81111561269757600080fd5b600082601f8301126126f857600080fd5b813560206127086124d883612493565b82815260059290921b8401810191818101908684111561272757600080fd5b8286015b84811015612544578035835291830191830161272b565b600080600080600060a0868803121561275a57600080fd5b8535612765816122b6565b94506020860135612775816122b6565b9350604086013567ffffffffffffffff8082111561279257600080fd5b61279e89838a016126e7565b945060608801359150808211156127b457600080fd5b6127c089838a016126e7565b935060808801359150808211156127d657600080fd5b506127e388828901612381565b9150509295509295909350565b600080600080600060a0868803121561280857600080fd5b8535612813816122b6565b94506020860135612823816122b6565b93506040860135925060608601359150608086013567ffffffffffffffff81111561284d57600080fd5b6127e388828901612381565b6020808252601f908201527f5265656e7472616e637947756172643a207265656e7472616e742063616c6c00604082015260600190565b6020808252818101527f4f776e61626c653a2063616c6c6572206973206e6f7420746865206f776e6572604082015260600190565b634e487b7160e01b600052601160045260246000fd5b6000828210156128ed576128ed6128c5565b500390565b60208082526010908201526f14185d5cd8589b194e881c185d5cd95960821b604082015260600190565b60208082526031908201527f54726164657363726f773a205377617020636c6f7365642e204f6e6c79207573604082015270195c8818d85b98d95b08195b98589b1959607a1b606082015260800190565b60208082526050908201527f54726164657363726f773a2053656e7420616d6f756e74206e6565647320746f60408201527f2062652067726561746572207468616e206f7220657175616c20746f2074686560608201526f206170706c69636174696f6e2066656560801b608082015260a00190565b634e487b7160e01b600052603260045260246000fd5b6000600019821415612a0d57612a0d6128c5565b5060010190565b60008219821115612a2757612a276128c5565b500190565b600081518084526020808501945080840160005b83811015612a7057815180516001600160a01b031688528301518388015260409096019590820190600101612a40565b509495945050505050565b6000602080835260a0830160018060a01b0380865116838601528286015160408181880152808801519150606060808189015284835180875260c08a0191508785019650600094505b80851015612af7578651805187168352888101518984015284015184830152958701956001949094019390820190612ac4565b5089820151898203601f190160808b01529650612b148188612a2c565b9a9950505050505050505050565b600060208284031215612b3457600080fd5b8151801515811461208257600080fd5b60005b83811015612b5f578181015183820152602001612b47565b83811115611c495750506000910152565b60008251612b82818460208701612b44565b9190910192915050565b6020815260008251806020840152612bab816040850160208701612b44565b601f01601f1916919091016040019291505056fea2646970667358221220ebdb48a67193f114944a0cd07c02de7b68b34bb675974e9de4ffd02292b6d5a564736f6c63430008090033",
  "linkReferences": {},
  "deployedLinkReferences": {}
}