{
  "_format": "hh-sol-artifact-1",
  "contractName": "Tradescrow",
  "sourceName": "contracts/Tradescrow.sol",
  "abi": [
    {
      "inputs": [],
      "stateMutability": "nonpayable",
      "type": "constructor"
    },
    {
      "anonymous": false,
      "inputs": [
        {
          "indexed": false,
          "internalType": "uint256",
          "name": "fee",
          "type": "uint256"
        }
      ],
      "name": "AppFeeChanged",
      "type": "event"
    },
    {
      "anonymous": false,
      "inputs": [
        {
          "indexed": true,
          "internalType": "address",
          "name": "previousOwner",
          "type": "address"
        },
        {
          "indexed": true,
          "internalType": "address",
          "name": "newOwner",
          "type": "address"
        }
      ],
      "name": "OwnershipTransferred",
      "type": "event"
    },
    {
      "anonymous": false,
      "inputs": [
        {
          "indexed": false,
          "internalType": "address",
          "name": "account",
          "type": "address"
        }
      ],
      "name": "Paused",
      "type": "event"
    },
    {
      "anonymous": false,
      "inputs": [
        {
          "indexed": true,
          "internalType": "address",
          "name": "from",
          "type": "address"
        },
        {
          "indexed": true,
          "internalType": "uint256",
          "name": "swapId",
          "type": "uint256"
        }
      ],
      "name": "SwapCancelled",
      "type": "event"
    },
    {
      "anonymous": false,
      "inputs": [
        {
          "indexed": true,
          "internalType": "uint256",
          "name": "swapId",
          "type": "uint256"
        }
      ],
      "name": "SwapClosed",
      "type": "event"
    },
    {
      "anonymous": false,
      "inputs": [
        {
          "indexed": true,
          "internalType": "address",
          "name": "from",
          "type": "address"
        },
        {
          "indexed": true,
          "internalType": "address",
          "name": "to",
          "type": "address"
        },
        {
          "indexed": true,
          "internalType": "uint256",
          "name": "swapId",
          "type": "uint256"
        }
      ],
      "name": "SwapExecuted",
      "type": "event"
    },
    {
      "anonymous": false,
      "inputs": [
        {
          "indexed": true,
          "internalType": "address",
          "name": "from",
          "type": "address"
        },
        {
          "indexed": true,
          "internalType": "address",
          "name": "to",
          "type": "address"
        },
        {
          "indexed": true,
          "internalType": "uint256",
          "name": "swapId",
          "type": "uint256"
        }
      ],
      "name": "SwapInitiated",
      "type": "event"
    },
    {
      "anonymous": false,
      "inputs": [
        {
          "indexed": true,
          "internalType": "address",
          "name": "from",
          "type": "address"
        },
        {
          "indexed": true,
          "internalType": "address",
          "name": "to",
          "type": "address"
        },
        {
          "indexed": true,
          "internalType": "uint256",
          "name": "swapId",
          "type": "uint256"
        }
      ],
      "name": "SwapProposed",
      "type": "event"
    },
    {
      "anonymous": false,
      "inputs": [
        {
          "indexed": false,
          "internalType": "address",
          "name": "account",
          "type": "address"
        }
      ],
      "name": "Unpaused",
      "type": "event"
    },
    {
      "inputs": [
        {
          "internalType": "uint256",
          "name": "swapId",
          "type": "uint256"
        }
      ],
      "name": "acceptSwap",
      "outputs": [],
      "stateMutability": "nonpayable",
      "type": "function"
    },
    {
      "inputs": [
        {
          "internalType": "uint256",
          "name": "swapId",
          "type": "uint256"
        }
      ],
      "name": "cancelSwap",
      "outputs": [],
      "stateMutability": "nonpayable",
      "type": "function"
    },
    {
      "inputs": [],
      "name": "fee",
      "outputs": [
        {
          "internalType": "uint256",
          "name": "",
          "type": "uint256"
        }
      ],
      "stateMutability": "view",
      "type": "function"
    },
    {
      "inputs": [
        {
          "internalType": "uint256",
          "name": "swapId",
          "type": "uint256"
        },
        {
          "internalType": "address",
          "name": "participant",
          "type": "address"
        }
      ],
      "name": "getOfferBySwapId",
      "outputs": [
        {
          "internalType": "address",
          "name": "addr",
          "type": "address"
        },
        {
          "internalType": "uint256",
          "name": "native",
          "type": "uint256"
        },
        {
          "internalType": "address[]",
          "name": "coinAddresses",
          "type": "address[]"
        },
        {
          "internalType": "uint256[]",
          "name": "coinAmounts",
          "type": "uint256[]"
        },
        {
          "internalType": "address[]",
          "name": "nftAddresses",
          "type": "address[]"
        },
        {
          "internalType": "uint256[]",
          "name": "nftAmounts",
          "type": "uint256[]"
        },
        {
          "internalType": "uint256[]",
          "name": "nftIds",
          "type": "uint256[]"
        }
      ],
      "stateMutability": "view",
      "type": "function"
    },
    {
      "inputs": [
        {
          "internalType": "uint256",
          "name": "swapId",
          "type": "uint256"
        },
        {
          "components": [
            {
              "internalType": "address payable",
              "name": "addr",
              "type": "address"
            },
            {
              "internalType": "uint256",
              "name": "native",
              "type": "uint256"
            },
            {
              "components": [
                {
                  "internalType": "address",
                  "name": "addr",
                  "type": "address"
                },
                {
                  "internalType": "uint256",
                  "name": "amount",
                  "type": "uint256"
                },
                {
                  "internalType": "uint256",
                  "name": "id",
                  "type": "uint256"
                }
              ],
              "internalType": "struct Tradescrow.Nft[]",
              "name": "nfts",
              "type": "tuple[]"
            },
            {
              "components": [
                {
                  "internalType": "address",
                  "name": "addr",
                  "type": "address"
                },
                {
                  "internalType": "uint256",
                  "name": "amount",
                  "type": "uint256"
                }
              ],
              "internalType": "struct Tradescrow.Coin[]",
              "name": "coins",
              "type": "tuple[]"
            }
          ],
          "internalType": "struct Tradescrow.Offer",
          "name": "offer",
          "type": "tuple"
        }
      ],
      "name": "initiateSwap",
      "outputs": [],
      "stateMutability": "payable",
      "type": "function"
    },
    {
      "inputs": [
        {
          "internalType": "address",
          "name": "",
          "type": "address"
        },
        {
          "internalType": "address",
          "name": "",
          "type": "address"
        },
        {
          "internalType": "uint256[]",
          "name": "",
          "type": "uint256[]"
        },
        {
          "internalType": "uint256[]",
          "name": "",
          "type": "uint256[]"
        },
        {
          "internalType": "bytes",
          "name": "",
          "type": "bytes"
        }
      ],
      "name": "onERC1155BatchReceived",
      "outputs": [
        {
          "internalType": "bytes4",
          "name": "",
          "type": "bytes4"
        }
      ],
      "stateMutability": "nonpayable",
      "type": "function"
    },
    {
      "inputs": [
        {
          "internalType": "address",
          "name": "",
          "type": "address"
        },
        {
          "internalType": "address",
          "name": "",
          "type": "address"
        },
        {
          "internalType": "uint256",
          "name": "",
          "type": "uint256"
        },
        {
          "internalType": "uint256",
          "name": "",
          "type": "uint256"
        },
        {
          "internalType": "bytes",
          "name": "",
          "type": "bytes"
        }
      ],
      "name": "onERC1155Received",
      "outputs": [
        {
          "internalType": "bytes4",
          "name": "",
          "type": "bytes4"
        }
      ],
      "stateMutability": "nonpayable",
      "type": "function"
    },
    {
      "inputs": [
        {
          "internalType": "address",
          "name": "",
          "type": "address"
        },
        {
          "internalType": "address",
          "name": "",
          "type": "address"
        },
        {
          "internalType": "uint256",
          "name": "",
          "type": "uint256"
        },
        {
          "internalType": "bytes",
          "name": "",
          "type": "bytes"
        }
      ],
      "name": "onERC721Received",
      "outputs": [
        {
          "internalType": "bytes4",
          "name": "",
          "type": "bytes4"
        }
      ],
      "stateMutability": "nonpayable",
      "type": "function"
    },
    {
      "inputs": [],
      "name": "owner",
      "outputs": [
        {
          "internalType": "address",
          "name": "",
          "type": "address"
        }
      ],
      "stateMutability": "view",
      "type": "function"
    },
    {
      "inputs": [],
      "name": "pause",
      "outputs": [],
      "stateMutability": "nonpayable",
      "type": "function"
    },
    {
      "inputs": [],
      "name": "paused",
      "outputs": [
        {
          "internalType": "bool",
          "name": "",
          "type": "bool"
        }
      ],
      "stateMutability": "view",
      "type": "function"
    },
    {
      "inputs": [
        {
          "internalType": "address payable",
          "name": "target",
          "type": "address"
        },
        {
          "components": [
            {
              "internalType": "address payable",
              "name": "addr",
              "type": "address"
            },
            {
              "internalType": "uint256",
              "name": "native",
              "type": "uint256"
            },
            {
              "components": [
                {
                  "internalType": "address",
                  "name": "addr",
                  "type": "address"
                },
                {
                  "internalType": "uint256",
                  "name": "amount",
                  "type": "uint256"
                },
                {
                  "internalType": "uint256",
                  "name": "id",
                  "type": "uint256"
                }
              ],
              "internalType": "struct Tradescrow.Nft[]",
              "name": "nfts",
              "type": "tuple[]"
            },
            {
              "components": [
                {
                  "internalType": "address",
                  "name": "addr",
                  "type": "address"
                },
                {
                  "internalType": "uint256",
                  "name": "amount",
                  "type": "uint256"
                }
              ],
              "internalType": "struct Tradescrow.Coin[]",
              "name": "coins",
              "type": "tuple[]"
            }
          ],
          "internalType": "struct Tradescrow.Offer",
          "name": "offer",
          "type": "tuple"
        }
      ],
      "name": "proposeSwap",
      "outputs": [
        {
          "internalType": "uint256",
          "name": "",
          "type": "uint256"
        }
      ],
      "stateMutability": "payable",
      "type": "function"
    },
    {
      "inputs": [],
      "name": "renounceOwnership",
      "outputs": [],
      "stateMutability": "nonpayable",
      "type": "function"
    },
    {
      "inputs": [
        {
          "internalType": "bytes4",
          "name": "interfaceId",
          "type": "bytes4"
        }
      ],
      "name": "supportsInterface",
      "outputs": [
        {
          "internalType": "bool",
          "name": "",
          "type": "bool"
        }
      ],
      "stateMutability": "view",
      "type": "function"
    },
    {
      "inputs": [
        {
          "internalType": "address",
          "name": "newOwner",
          "type": "address"
        }
      ],
      "name": "transferOwnership",
      "outputs": [],
      "stateMutability": "nonpayable",
      "type": "function"
    },
    {
      "inputs": [],
      "name": "unpause",
      "outputs": [],
      "stateMutability": "nonpayable",
      "type": "function"
    },
    {
      "inputs": [
        {
          "internalType": "uint256",
          "name": "newFee",
          "type": "uint256"
        }
      ],
      "name": "updateAppFee",
      "outputs": [],
      "stateMutability": "nonpayable",
      "type": "function"
    },
    {
      "inputs": [
        {
          "internalType": "address payable",
          "name": "recipient",
          "type": "address"
        }
      ],
      "name": "withdrawFees",
      "outputs": [],
      "stateMutability": "nonpayable",
      "type": "function"
    }
  ],
  "bytecode": "0x60806040523480156200001157600080fd5b506200001d336200003d565b600180556002805460ff19169055670de0b6b3a76400006005556200008d565b600080546001600160a01b038381166001600160a01b0319831681178455604051919092169283917f8be0079c531659141344cd1fd0a4f28419497f9722a3daafe3b4186f6b6457e09190a35050565b61384a806200009d6000396000f3fe6080604052600436106101095760003560e01c80637cb1774d11610095578063bc197c8111610064578063bc197c81146102bc578063c1338b87146102e8578063ddca3f431461031b578063f23a6e6114610331578063f2fde38b1461035d57600080fd5b80637cb1774d1461024b5780638456cb591461025e5780638da5cb5b14610273578063b5cbcb881461029b57600080fd5b80633f4ba83a116100dc5780633f4ba83a146101c957806352492815146101de57806354d6a2b7146101fe5780635c975abb1461021e578063715018a61461023657600080fd5b806301ffc9a71461010e578063150b7a0214610143578063164e68de146101875780631bf33004146101a9575b600080fd5b34801561011a57600080fd5b5061012e610129366004612e6b565b61037d565b60405190151581526020015b60405180910390f35b34801561014f57600080fd5b5061016e61015e366004612fcb565b630a85bd0160e11b949350505050565b6040516001600160e01b0319909116815260200161013a565b34801561019357600080fd5b506101a76101a2366004613036565b6103b4565b005b3480156101b557600080fd5b506101a76101c4366004613053565b61051e565b3480156101d557600080fd5b506101a7610a7a565b3480156101ea57600080fd5b506101a76101f9366004613053565b610ada565b34801561020a57600080fd5b506101a7610219366004613053565b610b3f565b34801561022a57600080fd5b5060025460ff1661012e565b34801561024257600080fd5b506101a761109f565b6101a761025936600461323d565b6110d5565b34801561026a57600080fd5b506101a7611469565b34801561027f57600080fd5b506000546040516001600160a01b03909116815260200161013a565b6102ae6102a9366004613283565b6114c3565b60405190815260200161013a565b3480156102c857600080fd5b5061016e6102d7366004613317565b63bc197c8160e01b95945050505050565b3480156102f457600080fd5b506103086103033660046133c4565b61174a565b60405161013a9796959493929190613468565b34801561032757600080fd5b506102ae60055481565b34801561033d57600080fd5b5061016e61034c3660046134eb565b63f23a6e6160e01b95945050505050565b34801561036957600080fd5b506101a7610378366004613036565b611e12565b60006001600160e01b03198216630271189760e51b14806103ae57506301ffc9a760e01b6001600160e01b03198316145b92915050565b600260015414156103e05760405162461bcd60e51b81526004016103d790613553565b60405180910390fd5b60026001556000546001600160a01b0316331461040f5760405162461bcd60e51b81526004016103d79061358a565b6001600160a01b0381166104765760405162461bcd60e51b815260206004820152602860248201527f54726164657363726f773a207472616e7366657220746f20746865207a65726f604482015267206164647265737360c01b60648201526084016103d7565b60006004544761048691906135d5565b116104d35760405162461bcd60e51b815260206004820152601d60248201527f54726164657363726f773a204e6f20617661696c61626c65206665657300000060448201526064016103d7565b806001600160a01b03166108fc600454476104ee91906135d5565b6040518115909202916000818181858888f19350505050158015610516573d6000803e3d6000fd5b505060018055565b600260015414156105415760405162461bcd60e51b81526004016103d790613553565b600260015561055260025460ff1690565b1561056f5760405162461bcd60e51b81526004016103d7906135ec565b61057881611ead565b6000818152600660205260409020600801546001146105a95760405162461bcd60e51b81526004016103d790613616565b6000818152600660209081526040808320815160808101835281546001600160a01b0316815260018201548185015260028201805484518187028101870186528181526106d4979396949587019490939084015b82821015610652576000848152602090819020604080516060810182526003860290920180546001600160a01b03168352600180820154848601526002909101549183019190915290835290920191016105fd565b50505050815260200160038201805480602002602001604051908101604052809291908181526020016000905b828210156106c7576000848152602090819020604080518082019091526002850290910180546001600160a01b0316825260019081015482840152908352909201910161067f565b5050505081525050611f24565b600081815260066020818152604080842081516080810183526004820180546001600160a01b03168252600583015482860152919094018054835181860281018601855281815261077d9793959487019490939084018215610652576000848152602090819020604080516060810182526003860290920180546001600160a01b03168352600180820154848601526002909101549183019190915290835290920191016105fd565b6000818152600660208181526040808420805482516080810184526004830180546001600160a01b03908116835260058501548388015293909601805485518188028101880187528181526108b499309996909516979396870194909384015b82821015610832576000848152602090819020604080516060810182526003860290920180546001600160a01b03168352600180820154848601526002909101549183019190915290835290920191016107dd565b50505050815260200160038201805480602002602001604051908101604052809291908181526020016000905b828210156108a7576000848152602090819020604080518082019091526002850290910180546001600160a01b0316825260019081015482840152908352909201910161085f565b5050505081525050611fa2565b60008181526006602090815260408083206004810154825160808101845282546001600160a01b0390811682526001840154828701526002840180548651818902810189018852818152610967993099949096169794969594870194909384018215610832576000848152602090819020604080516060810182526003860290920180546001600160a01b03168352600180820154848601526002909101549183019190915290835290920191016107dd565b60008181526006602052604090206109829060048101612289565b600081815260066020526040902061099e906004810190612289565b60008181526006602052604080822060048101549054915184936001600160a01b0392831693909216917fbad29f2bbbf6bb1e15563203bcdb0dd660c54eab078763eb66f797efa8f5e8c191a4600081815260066020526040812080546001600160a01b031916815560018101829055908181610a1e6002830182612dd2565b610a2c600383016000612df3565b50506004820180546001600160a01b0319168155600060058401819055610a566006850182612dd2565b610a64600383016000612df3565b5050600882016000905550506001808190555050565b60026001541415610a9d5760405162461bcd60e51b81526004016103d790613553565b60026001556000546001600160a01b03163314610acc5760405162461bcd60e51b81526004016103d79061358a565b610ad46122f8565b60018055565b6000546001600160a01b03163314610b045760405162461bcd60e51b81526004016103d79061358a565b60058190556040518181527fe854185167cff7d85f6ce2ae7d2940249c4a78ae54e270a5f7dddf8e5d7cc4589060200160405180910390a150565b60026001541415610b625760405162461bcd60e51b81526004016103d790613553565b60026001556000818152600660205260409020546001600160a01b0316331480610ba557506000818152600660205260409020600401546001600160a01b031633145b610c175760405162461bcd60e51b815260206004820152603760248201527f54726164657363726f773a2043616e27742063616e63656c20737761702c206d60448201527f7573742062652073776170207061727469636970616e7400000000000000000060648201526084016103d7565b600081815260066020526040902060026008820155546001600160a01b0316331415610d1e576000818152600660209081526040808320805482516080810184526001600160a01b039091168082526001830154828601526002830180548551818802810188018752818152610cea98309894979596958701949193929184018215610832576000848152602090819020604080516060810182526003860290920180546001600160a01b03168352600180820154848601526002909101549183019190915290835290920191016107dd565b6000818152600660205260409020610d029080612289565b6000818152600660205260409020610d199061238b565b610e28565b6000818152600660205260409020600401546001600160a01b0316331415610e2857600081815260066020818152604080842060048101805483516080810185526001600160a01b039091168082526005840154828701529290950180548451818702810187018652818152610df3983098959795969495948701949193929184018215610832576000848152602090819020604080516060810182526003860290920180546001600160a01b03168352600180820154848601526002909101549183019190915290835290920191016107dd565b6000818152600660205260409020610e0e9060040180612289565b6000818152600660205260409020610e289060040161238b565b604051819033907f85562d2d9b6fe46899f9b6ed410d0330551d861f63395b58c411a9d8159ce08790600090a36000818152600660209081526040808320815160808101835281546001600160a01b031681526001828101548286015260028301805485518188028101880187528181529297610f7e97949687019484015b82821015610efc576000848152602090819020604080516060810182526003860290920180546001600160a01b0316835260018082015484860152600290910154918301919091529083529092019101610ea7565b50505050815260200160038201805480602002602001604051908101604052809291908181526020016000905b82821015610f71576000848152602090819020604080518082019091526002850290910180546001600160a01b03168252600190810154828401529083529092019101610f29565b50505050815250506123b1565b1480156110355750600081815260066020818152604080842081516080810183526004820180546001600160a01b031682526005830154828601529190940180548351818602810186018552818152600197611033979694958701949193929184018215610efc576000848152602090819020604080516060810182526003860290920180546001600160a01b0316835260018082015484860152600290910154918301919091529083529092019101610ea7565b145b156110985760405181907fd00350bcac47bd6aa8c7905e0b67f2de5cd9766526dc50203bbfb229bf6d17a790600090a2600081815260066020526040812080546001600160a01b031916815560018101829055908181610a1e6002830182612dd2565b5060018055565b6000546001600160a01b031633146110c95760405162461bcd60e51b81526004016103d79061358a565b6110d360006123e9565b565b600260015414156110f85760405162461bcd60e51b81526004016103d790613553565b600260015560055434101561111f5760405162461bcd60e51b81526004016103d790613667565b60025460ff16156111425760405162461bcd60e51b81526004016103d7906135ec565b61114b82612439565b600082815260066020818152604080842081516080810183526004820180546001600160a01b0316825260058301548286015291909401805483518186028101860185528181526001976111f8979694958701949193929184018215610efc576000848152602090819020604080516060810182526003860290920180546001600160a01b0316835260018082015484860152600290910154918301919091529083529092019101610ea7565b146112505760405162461bcd60e51b815260206004820152602260248201527f54726164657363726f773a207377617020616c726561647920696e6974696174604482015261195960f21b60648201526084016103d7565b6000828152600660205260409020600801546001146112815760405162461bcd60e51b81526004016103d790613616565b61128a81611f24565b6112953330836124b0565b60005b8160400151518110156113405760066000848152602001908152602001600020600401600201826040015182815181106112d4576112d46136dd565b602090810291909101810151825460018082018555600094855293839020825160039092020180546001600160a01b0319166001600160a01b03909216919091178155918101519282019290925560409091015160029091015580611338816136f3565b915050611298565b5060005b8160600151518110156113d7576000838152600660205260409020606083015180516007909201918390811061137c5761137c6136dd565b602090810291909101810151825460018082018555600094855293839020825160029092020180546001600160a01b0319166001600160a01b03909216919091178155910151910155806113cf816136f3565b915050611344565b5060055434111561141b576005546113ef90346135d5565b60008381526006602052604081206005018290556004805490919061141590849061370e565b90915550505b60008281526006602052604080822054905184926001600160a01b039092169133917fb9b53e5cf33c508b86fd199ef9cfdda8ee6b149900427661b0a751fb8fd34f669190a4505060018055565b6002600154141561148c5760405162461bcd60e51b81526004016103d790613553565b60026001556000546001600160a01b031633146114bb5760405162461bcd60e51b81526004016103d79061358a565b610ad4612a59565b6000600260015414156114e85760405162461bcd60e51b81526004016103d790613553565b600260015560055434101561150f5760405162461bcd60e51b81526004016103d790613667565b60025460ff16156115325760405162461bcd60e51b81526004016103d7906135ec565b61153b82611f24565b611549600380546001019055565b6115543330846124b0565b60006006600061156360035490565b8152602081019190915260400160009081206001600882015580546001600160a01b0319163317815591505b8360400151518110156116255781600001600201846040015182815181106115b9576115b96136dd565b602090810291909101810151825460018082018555600094855293839020825160039092020180546001600160a01b0319166001600160a01b0390921691909117815591810151928201929092556040909101516002909101558061161d816136f3565b91505061158f565b5060005b8360600151518110156116ae578160000160030184606001518281518110611653576116536136dd565b602090810291909101810151825460018082018555600094855293839020825160029092020180546001600160a01b0319166001600160a01b03909216919091178155910151910155806116a6816136f3565b915050611629565b506005543411156116e5576005546116c690346135d5565b60018201819055600480546000906116df90849061370e565b90915550505b6004810180546001600160a01b0319166001600160a01b0386161790556003546040516001600160a01b0386169033907fffd321d9ac6e5d361fa3cfa4ee752259774415efa4ac8d50669dce82c183b8eb90600090a460035460018055949350505050565b600080606080606080606088600010801561176757506003548911155b6117b35760405162461bcd60e51b815260206004820152601a60248201527f54726164657363726f773a20496e76616c69642073776170496400000000000060448201526064016103d7565b6000898152600660209081526040808320815160e08101835281546001600160a01b031660608201908152600183015460808301526002830180548551818802810188019096528086529295939486949293869360a087019391908a9084015b82821015611868576000848152602090819020604080516060810182526003860290920180546001600160a01b0316835260018082015484860152600290910154918301919091529083529092019101611813565b50505050815260200160038201805480602002602001604051908101604052809291908181526020016000905b828210156118dd576000848152602090819020604080518082019091526002850290910180546001600160a01b03168252600190810154828401529083529092019101611895565b505050915250508152604080516080810182526004840180546001600160a01b03168252600585015460208381019190915260068601805485518184028101840187528181529683019694959394938601939260009084015b8282101561198b576000848152602090819020604080516060810182526003860290920180546001600160a01b0316835260018082015484860152600290910154918301919091529083529092019101611936565b50505050815260200160038201805480602002602001604051908101604052809291908181526020016000905b82821015611a00576000848152602090819020604080518082019091526002850290910180546001600160a01b031682526001908101548284015290835290920191016119b8565b505050508152505081526020016008820154815250509050611a4c604051806080016040528060006001600160a01b031681526020016000815260200160608152602001606081525090565b8151516001600160a01b038b811691161415611a6a57508051611adf565b896001600160a01b03168260200151600001516001600160a01b03161415611a9757506020810151611adf565b60405162461bcd60e51b815260206004820152601f60248201527f54726164657363726f773a20496e76616c6964207061727469636970616e740060448201526064016103d7565b80516020820151606083015151919a5098506001600160401b03811115611b0857611b08612eaa565b604051908082528060200260200182016040528015611b31578160200160208202803683370190505b5096508060600151516001600160401b03811115611b5157611b51612eaa565b604051908082528060200260200182016040528015611b7a578160200160208202803683370190505b5095508060400151516001600160401b03811115611b9a57611b9a612eaa565b604051908082528060200260200182016040528015611bc3578160200160208202803683370190505b5094508060400151516001600160401b03811115611be357611be3612eaa565b604051908082528060200260200182016040528015611c0c578160200160208202803683370190505b5093508060400151516001600160401b03811115611c2c57611c2c612eaa565b604051908082528060200260200182016040528015611c55578160200160208202803683370190505b50925060005b816060015151811015611d0d5781606001518181518110611c7e57611c7e6136dd565b602002602001015160000151888281518110611c9c57611c9c6136dd565b60200260200101906001600160a01b031690816001600160a01b03168152505081606001518181518110611cd257611cd26136dd565b602002602001015160200151878281518110611cf057611cf06136dd565b602090810291909101015280611d05816136f3565b915050611c5b565b5060005b816040015151811015611e035781604001518181518110611d3457611d346136dd565b602002602001015160000151868281518110611d5257611d526136dd565b60200260200101906001600160a01b031690816001600160a01b03168152505081604001518181518110611d8857611d886136dd565b602002602001015160200151858281518110611da657611da66136dd565b60200260200101818152505081604001518181518110611dc857611dc86136dd565b602002602001015160400151848281518110611de657611de66136dd565b602090810291909101015280611dfb816136f3565b915050611d11565b50505092959891949750929550565b6000546001600160a01b03163314611e3c5760405162461bcd60e51b81526004016103d79061358a565b6001600160a01b038116611ea15760405162461bcd60e51b815260206004820152602660248201527f4f776e61626c653a206e6577206f776e657220697320746865207a65726f206160448201526564647265737360d01b60648201526084016103d7565b611eaa816123e9565b50565b6000818152600660205260409020546001600160a01b03163314611eaa5760405162461bcd60e51b815260206004820152602860248201527f54726164657363726f773a2063616c6c6572206973206e6f74207377617020696044820152673734ba34b0ba37b960c11b60648201526084016103d7565b611f2d81612ab1565b600114611eaa5760405162461bcd60e51b815260206004820152603d60248201527f54726164657363726f773a2043616e277420616363657074206f666665722c2060448201527f7061727469636970616e74206469646e2774206164642061737365747300000060648201526084016103d7565b60005b8160400151518110156121885781604001518181518110611fc857611fc86136dd565b602002602001015160200151600014156120ae5781604001518181518110611ff257611ff26136dd565b6020026020010151600001516001600160a01b031663b88d4fde858585604001518581518110612024576120246136dd565b602090810291909101015160409081015190516001600160e01b031960e086901b1681526001600160a01b0393841660048201529290911660248301526044820152608060648201526000608482015260a401600060405180830381600087803b15801561209157600080fd5b505af11580156120a5573d6000803e3d6000fd5b50505050612176565b816040015181815181106120c4576120c46136dd565b6020026020010151600001516001600160a01b031663f242432a8585856040015185815181106120f6576120f66136dd565b60200260200101516040015186604001518681518110612118576121186136dd565b6020026020010151602001516040518563ffffffff1660e01b81526004016121439493929190613726565b600060405180830381600087803b15801561215d57600080fd5b505af1158015612171573d6000803e3d6000fd5b505050505b80612180816136f3565b915050611fa5565b5060005b816060015151811015612283576001600160a01b03841630141561220f5761220a83836060015183815181106121c4576121c46136dd565b602002602001015160200151846060015184815181106121e6576121e66136dd565b6020026020010151600001516001600160a01b0316612add9092919063ffffffff16565b612271565b61227184848460600151848151811061222a5761222a6136dd565b6020026020010151602001518560600151858151811061224c5761224c6136dd565b6020026020010151600001516001600160a01b0316612b45909392919063ffffffff16565b8061227b816136f3565b91505061218c565b50505050565b6001820154156122f4578160010154600460008282546122a991906135d5565b9091555050600182018054600091829055825460405191926001600160a01b039091169183156108fc0291849190818181858888f19350505050158015612283573d6000803e3d6000fd5b5050565b60025460ff166123415760405162461bcd60e51b815260206004820152601460248201527314185d5cd8589b194e881b9bdd081c185d5cd95960621b60448201526064016103d7565b6002805460ff191690557f5db9ee0a495bf2e6ff9c91a7834c1ba4fdd244a5e8aa4e537bd38aeae4b073aa335b6040516001600160a01b03909116815260200160405180910390a1565b612399600382016000612df3565b6123a7600282016000612dd2565b6000600190910155565b6040810151516000906002901580156123cd5750606083015151155b80156123db57506020830151155b156103ae5750600192915050565b600080546001600160a01b038381166001600160a01b0319831681178455604051919092169283917f8be0079c531659141344cd1fd0a4f28419497f9722a3daafe3b4186f6b6457e09190a35050565b6000818152600660205260409020600401546001600160a01b03163314611eaa5760405162461bcd60e51b815260206004820152602560248201527f54726164657363726f773a2063616c6c6572206973206e6f7420737761702074604482015264185c99d95d60da1b60648201526084016103d7565b60005b81604001515181101561286e57816040015181815181106124d6576124d66136dd565b602002602001015160200151600014156125bc5781604001518181518110612500576125006136dd565b6020026020010151600001516001600160a01b031663b88d4fde858585604001518581518110612532576125326136dd565b602090810291909101015160409081015190516001600160e01b031960e086901b1681526001600160a01b0393841660048201529290911660248301526044820152608060648201526000608482015260a401600060405180830381600087803b15801561259f57600080fd5b505af11580156125b3573d6000803e3d6000fd5b5050505061285c565b6000826040015182815181106125d4576125d46136dd565b60200260200101516000015190506000816001600160a01b031662fdd58e3086604001518681518110612609576126096136dd565b6020026020010151604001516040518363ffffffff1660e01b81526004016126469291906001600160a01b03929092168252602082015260400190565b60206040518083038186803b15801561265e57600080fd5b505afa158015612672573d6000803e3d6000fd5b505050506040513d601f19601f82011682018060405250810190612696919061375e565b9050816001600160a01b031663f242432a8787876040015187815181106126bf576126bf6136dd565b602002602001015160400151886040015188815181106126e1576126e16136dd565b6020026020010151602001516040518563ffffffff1660e01b815260040161270c9493929190613726565b600060405180830381600087803b15801561272657600080fd5b505af115801561273a573d6000803e3d6000fd5b505050506000826001600160a01b031662fdd58e3087604001518781518110612765576127656136dd565b6020026020010151604001516040518363ffffffff1660e01b81526004016127a29291906001600160a01b03929092168252602082015260400190565b60206040518083038186803b1580156127ba57600080fd5b505afa1580156127ce573d6000803e3d6000fd5b505050506040513d601f19601f820116820180604052508101906127f2919061375e565b90508460400151848151811061280a5761280a6136dd565b602002602001015160200151828261282291906135d5565b146128585761283182826135d5565b85604001518581518110612847576128476136dd565b602002602001015160200181815250505b5050505b80612866816136f3565b9150506124b3565b5060005b81606001515181101561228357600082606001518281518110612897576128976136dd565b6020908102919091010151516040516370a0823160e01b81523060048201529091506000906001600160a01b038316906370a082319060240160206040518083038186803b1580156128e857600080fd5b505afa1580156128fc573d6000803e3d6000fd5b505050506040513d601f19601f82011682018060405250810190612920919061375e565b905061296386868660600151868151811061293d5761293d6136dd565b602002602001015160200151856001600160a01b0316612b45909392919063ffffffff16565b6040516370a0823160e01b81523060048201526000906001600160a01b038416906370a082319060240160206040518083038186803b1580156129a557600080fd5b505afa1580156129b9573d6000803e3d6000fd5b505050506040513d601f19601f820116820180604052508101906129dd919061375e565b9050846060015184815181106129f5576129f56136dd565b6020026020010151602001518282612a0d91906135d5565b14612a4357612a1c82826135d5565b85606001518581518110612a3257612a326136dd565b602002602001015160200181815250505b5050508080612a51906136f3565b915050612872565b60025460ff1615612a7c5760405162461bcd60e51b81526004016103d7906135ec565b6002805460ff191660011790557f62e78cea01bee320cd4e420270b5ea74000d11b0c9f74754ebdbfc544b05a25861236e3390565b604081015151600090600290151580612ace575060608301515115155b806123db575050600192915050565b6040516001600160a01b038316602482015260448101829052612b4090849063a9059cbb60e01b906064015b60408051601f198184030181529190526020810180516001600160e01b03166001600160e01b031990931692909217909152612b7d565b505050565b6040516001600160a01b03808516602483015283166044820152606481018290526122839085906323b872dd60e01b90608401612b09565b6000612bd2826040518060400160405280602081526020017f5361666545524332303a206c6f772d6c6576656c2063616c6c206661696c6564815250856001600160a01b0316612c4f9092919063ffffffff16565b805190915015612b405780806020019051810190612bf09190613777565b612b405760405162461bcd60e51b815260206004820152602a60248201527f5361666545524332303a204552433230206f7065726174696f6e20646964206e6044820152691bdd081cdd58d8d9595960b21b60648201526084016103d7565b6060612c5e8484600085612c68565b90505b9392505050565b606082471015612cc95760405162461bcd60e51b815260206004820152602660248201527f416464726573733a20696e73756666696369656e742062616c616e636520666f6044820152651c8818d85b1b60d21b60648201526084016103d7565b6001600160a01b0385163b612d205760405162461bcd60e51b815260206004820152601d60248201527f416464726573733a2063616c6c20746f206e6f6e2d636f6e747261637400000060448201526064016103d7565b600080866001600160a01b03168587604051612d3c91906137c5565b60006040518083038185875af1925050503d8060008114612d79576040519150601f19603f3d011682016040523d82523d6000602084013e612d7e565b606091505b5091509150612d8e828286612d99565b979650505050505050565b60608315612da8575081612c61565b825115612db85782518084602001fd5b8160405162461bcd60e51b81526004016103d791906137e1565b5080546000825560030290600052602060002090810190611eaa9190612e14565b5080546000825560020290600052602060002090810190611eaa9190612e45565b5b80821115612e415780546001600160a01b03191681556000600182018190556002820155600301612e15565b5090565b5b80821115612e415780546001600160a01b031916815560006001820155600201612e46565b600060208284031215612e7d57600080fd5b81356001600160e01b031981168114612c6157600080fd5b6001600160a01b0381168114611eaa57600080fd5b634e487b7160e01b600052604160045260246000fd5b604080519081016001600160401b0381118282101715612ee257612ee2612eaa565b60405290565b604051608081016001600160401b0381118282101715612ee257612ee2612eaa565b604051606081016001600160401b0381118282101715612ee257612ee2612eaa565b604051601f8201601f191681016001600160401b0381118282101715612f5457612f54612eaa565b604052919050565b600082601f830112612f6d57600080fd5b81356001600160401b03811115612f8657612f86612eaa565b612f99601f8201601f1916602001612f2c565b818152846020838601011115612fae57600080fd5b816020850160208301376000918101602001919091529392505050565b60008060008060808587031215612fe157600080fd5b8435612fec81612e95565b93506020850135612ffc81612e95565b92506040850135915060608501356001600160401b0381111561301e57600080fd5b61302a87828801612f5c565b91505092959194509250565b60006020828403121561304857600080fd5b8135612c6181612e95565b60006020828403121561306557600080fd5b5035919050565b60006001600160401b0382111561308557613085612eaa565b5060051b60200190565b600082601f8301126130a057600080fd5b813560206130b56130b08361306c565b612f2c565b82815260069290921b840181019181810190868411156130d457600080fd5b8286015b8481101561311c57604081890312156130f15760008081fd5b6130f9612ec0565b813561310481612e95565b815281850135858201528352918301916040016130d8565b509695505050505050565b60006080828403121561313957600080fd5b613141612ee8565b9050813561314e81612e95565b8152602082810135818301526040808401356001600160401b038082111561317557600080fd5b818601915086601f83011261318957600080fd5b81356131976130b08261306c565b8181526060918202840186019186820191908a8411156131b657600080fd5b948701945b838610156132075780868c0312156131d35760008081fd5b6131db612f0a565b86356131e681612e95565b815286890135898201528787013588820152835294850194918701916131bb565b81878a0152808a013597508488111561321f57600080fd5b61322b8b898c0161308f565b818a0152505050505050505092915050565b6000806040838503121561325057600080fd5b8235915060208301356001600160401b0381111561326d57600080fd5b61327985828601613127565b9150509250929050565b6000806040838503121561329657600080fd5b82356132a181612e95565b915060208301356001600160401b0381111561326d57600080fd5b600082601f8301126132cd57600080fd5b813560206132dd6130b08361306c565b82815260059290921b840181019181810190868411156132fc57600080fd5b8286015b8481101561311c5780358352918301918301613300565b600080600080600060a0868803121561332f57600080fd5b853561333a81612e95565b9450602086013561334a81612e95565b935060408601356001600160401b038082111561336657600080fd5b61337289838a016132bc565b9450606088013591508082111561338857600080fd5b61339489838a016132bc565b935060808801359150808211156133aa57600080fd5b506133b788828901612f5c565b9150509295509295909350565b600080604083850312156133d757600080fd5b8235915060208301356133e981612e95565b809150509250929050565b600081518084526020808501945080840160005b8381101561342d5781516001600160a01b031687529582019590820190600101613408565b509495945050505050565b600081518084526020808501945080840160005b8381101561342d5781518752958201959082019060010161344c565b60018060a01b038816815286602082015260e06040820152600061348f60e08301886133f4565b82810360608401526134a18188613438565b905082810360808401526134b581876133f4565b905082810360a08401526134c98186613438565b905082810360c08401526134dd8185613438565b9a9950505050505050505050565b600080600080600060a0868803121561350357600080fd5b853561350e81612e95565b9450602086013561351e81612e95565b9350604086013592506060860135915060808601356001600160401b0381111561354757600080fd5b6133b788828901612f5c565b6020808252601f908201527f5265656e7472616e637947756172643a207265656e7472616e742063616c6c00604082015260600190565b6020808252818101527f4f776e61626c653a2063616c6c6572206973206e6f7420746865206f776e6572604082015260600190565b634e487b7160e01b600052601160045260246000fd5b6000828210156135e7576135e76135bf565b500390565b60208082526010908201526f14185d5cd8589b194e881c185d5cd95960821b604082015260600190565b60208082526031908201527f54726164657363726f773a205377617020636c6f7365642e204f6e6c79207573604082015270195c8818d85b98d95b08195b98589b1959607a1b606082015260800190565b60208082526050908201527f54726164657363726f773a2053656e7420616d6f756e74206e6565647320746f60408201527f2062652067726561746572207468616e206f7220657175616c20746f2074686560608201526f206170706c69636174696f6e2066656560801b608082015260a00190565b634e487b7160e01b600052603260045260246000fd5b6000600019821415613707576137076135bf565b5060010190565b60008219821115613721576137216135bf565b500190565b6001600160a01b0394851681529290931660208301526040820152606081019190915260a06080820181905260009082015260c00190565b60006020828403121561377057600080fd5b5051919050565b60006020828403121561378957600080fd5b81518015158114612c6157600080fd5b60005b838110156137b457818101518382015260200161379c565b838111156122835750506000910152565b600082516137d7818460208701613799565b9190910192915050565b6020815260008251806020840152613800816040850160208701613799565b601f01601f1916919091016040019291505056fea26469706673582212205dd1398ea066fecd401411949199c81061309b5725debadd4bddcb6cd21acf2064736f6c63430008090033",
  "linkReferences": {},
  "deployedLinkReferences": {}
}